:020000021000EC
:100000000000042069330200A1330200CD16020073
:10001000A5330200D9160200DF160200000000001E
:10002000000000000000000000000000BDC301004F
:10003000AD3302000000000055C4010065C401009A
:10004000D16F02006DE80100B3330200B333020048
:10005000B3330200B3330200B3330200B333020000
:10006000B3330200B3330200B3330200B3330200F0
:10007000B333020065710200B333020085E801006A
:10008000B3330200B3330200B3330200B3330200D0
:10009000B3330200B3330200B3330200B3330200C0
:1000A000B3330200B3330200B3330200B3330200B0
:1000B000B3330200B3330200000000000000000070
:1000C000B3330200B3330200B3330200B333020090
:1000D000B3330200B3330200B3330200B333020080
:1000E000B3330200B3330200B33302000000000058
:1000F00000000000B333020000000000B333020030
:1001000010B5054C237833B9044B13B10448AFF351
:1001100000800123237010BD0810002000000000A3
:100120009C8C030008B5034B1BB103490348AFF394
:10013000008008BD000000000C1000209C8C030013
:10014000154B002B08BF134B9D46A3F5803A0021A9
:100150008B460F461348144A121A1AF0A1FC0F4B93
:10016000002B00D098470E4B002B00D09847002062
:10017000002104000D000D48002802D00C4812F0A8
:100180003DF819F08DFF200029000EF0A5F912F0BE
:1001900032F800BF0000080000000420000000004A
:1001A00035E401000810002000B00120FD2102000C
:1001B0000000000010B5044613480AF040F928B9C1
:1001C0001249204600F026FB012010BD0E480AF01F
:1001D0000DF90D4809F082FF07EE100AF3EE097AD7
:1001E000C7EE277A17EE900A18F05EFF07EE900A26
:1001F000074B0849FDEEE77A2046C3ED007A00F090
:1002000009FB0020E1E700BF8C0B0120A0F00200F9
:1002100028100020B9F002002DE9FF47DFF8F48034
:10022000364FDFF8F4A081460D46164600244046BE
:1002300009F086FF50B103AB02AA01A9404609F0BC
:10024000D5FF28BB2E49484600F0E4FA002C50D0D8
:100250002C4B1A782AB12C4A1268C72AC4BF002234
:100260001A701B78002B44D1274B284819688B1B28
:10027000711ACA1896423DDD002B1A46B8BF03F525
:10028000167200EB82020133126845F8042BF0E786
:100290003B68DAF80020934202D001333B60C6E7A6
:1002A00019499FED1B7ADDED037A0A68174B67EE5B
:1002B000C77A03EB8200C0ED007ADDED027A67EECB
:1002C000877A03EB8203C0ED017ADDED017A67EEF8
:1002D000877AD01CB0F5167FC3ED027A4FF0010388
:1002E0003B60A8BF002308604FF00104A8BF0B606B
:1002F0009DE70024204604B0BDE8F08708020020F6
:100300008CF0020004020020241000202C10002099
:1003100000007A448C0B01202810002070B5114E8B
:10032000337805460C462BB901210D200BF0DAFF7E
:10033000012333702CB90C492846BDE8704000F009
:1003400069BA012C05D121460D200CF007F80749A8
:10035000F2E7022C05D100210D200BF0FFFF04492C
:10036000EAE770BD8C190020C7F002004AF10200D4
:10037000C3F1020030B52F4C2F4B22680568DFED2A
:100380002F6A03EB820101320D6045684D6185687B
:100390008D62C068C863042A4FF00001C8BF0A46D6
:1003A00022604FF0FF300A46F0EE665AB1EE046A62
:1003B000D3ED007A93ED017A77EEA57A411C77EEC2
:1003C000877A93ED027A77EE877A93ED037A77EE68
:1003D000877A93ED047A77EE877A87EE867A24D04F
:1003E000B4EEE67AF1EE10FA1FDCB0EE667A013276
:1003F000042A03F1140315D1114B1A68002AC4BF53
:1004000002F1FF321A6003280BD0DFED0E7AB4EE52
:10041000E77AF1EE10FA0AD41A68002A07DC1922EA
:100420001A6030BDF0EE476AC2E71046DFE70320EE
:10043000F7E700BFE019002090190020000000003D
:10044000E4190020CDCC4C3F70470022C0E90022C7
:10045000826070470120704703689B6918470368F2
:10046000DB691847202930B50ED0D0F8A44000230E
:100470009C4209D05A018518AD698D4202D10432DF
:10048000104430BD0133F3E70020FAE7704730B580
:10049000D0F8C44000F1A80200239C4209D012F811
:1004A000015B8D4203D12C3350F8230030BD013362
:1004B000F3E70020FAE72DE9F041D0F8A4700446F4
:1004C000884605460026B7420FD0AB69202B09D1DC
:1004D0004146E8691AF048FD20B904EB46100430A3
:1004E000BDE8F08101362035EDE70020F8E7000097
:1004F00038B5124B124C1B68124A196912682068F1
:10050000FFF78AFEC8B1104D286802F02BFC0146A7
:1005100038B10E4B20681A680D49BDE8384000F02C
:1005200079B9286802F0ECF90069FFF723FF01466A
:100530002068BDE83840FFF7F1BE38BDF81900204B
:10054000000A0120FC190020F419002024100020CA
:100550001BF3020020292DE9F8430546884614467E
:10056000994609D1D0F8C80010B90120BDE8F88338
:100570001F4900F04FF9F8E703689B699847074661
:1005800040B1D5F8C8000028EFD04246194900F024
:1005900041F9EAE7D5F8A4C0BCF1040F09D9D5F8B0
:1005A000C8000028E1D005234246134900F032F983
:1005B000DBE70FCC05EB4C1E0EF104060FC694E8EA
:1005C0000F0086E80F000CF10103CEF81880C5F883
:1005D000A430D5F8C430EA18384682F8A88003F170
:1005E0002C02013345F82290C5F8C430BEE700BFA5
:1005F00044F2020089F20200D8F202002DE9F04133
:10060000624C8CB002F0E0FD2378BFF35B8FDB0718
:100610000BD4204611F000FE38B1204611F01EFE2A
:100620005B4A5C495C4811F0E4FD5C4C5A4B23602A
:100630005B4B5C4F1A68D118D3583960CB1A1A88B3
:10064000042A0CD99A8812B18A58032A09D00323A4
:100650005549514800F0DEF80CB0BDE8F0810022A9
:10066000F5E7DFF88C81514E98F80050BFF35B8FAF
:1006700015F0010511D1404611F0CEFD68B14C4B8B
:1006800033604046C6F8A450C6E9315511F0E6FD86
:100690003F4A4849304611F0ACFD04A804F012FE70
:1006A000454B4248454E04AA0321FFF753FF04A8D7
:1006B00005F0C0FA424B3D4804AA0421FFF74AFF67
:1006C00004A805F0E7FC3F4B384804AA0921FFF7CE
:1006D00041FF04A805F05EFE3B4B344804AA1121FB
:1006E000FFF738FF04A805F0DDFE384B2F4804AAB9
:1006F0001921FFF72FFF3378BFF35B8F13F001054C
:1007000017D1304611F088FD98B102952368019306
:100710004FF470430093254A39682D4B2D4802F061
:1007200087F8304611F09AFD194A2B49294811F0F3
:1007300060FD2A4D2748286002F036FA002128681B
:1007400002F0BAF8264B186043691A68042A0BD1E4
:100750005A68012A08D19A68802A05D1DB68032BE0
:1007600002D1037F012B04D01E49206800F052F80B
:1007700072E783691C4A20689B081360FFF71AFD23
:1007800000283FF469AF1949EFE700BFF0190020D6
:1007900000020020490401000C020020000A012090
:1007A000B8F30200040A012037F30200080A01200E
:1007B00020F202008D04010059090100EC1900200B
:1007C0002D0A0100090B0100DD0B0100C10C010025
:1007D000001A0020D40A012031290100F419002058
:1007E000F81900207EF30200FC190020A3F3020098
:1007F000E8190020013080007047000010289ABFDF
:10080000024B53F820000248704700BF58400300D5
:100810009C4003000EB403B503AA036852F8041BFE
:1008200001929B68984702B05DF804EB03B07047F3
:100830000CB407B504AA036852F8041B01929B6824
:10084000984703B05DF804EB02B070470068036896
:100850005B6818470138C0B204289ABF014B185C86
:10086000002070471441030020B101280CBF022072
:1008700000207047012070470368C01A03888B422C
:100880008CBF405A0020704710B50C210446FFF77A
:10089000F3FF231808B12058184410BD08B50346CB
:1008A00010460F2B2BD8DFE803F00C0812161A1E87
:1008B000201022180E241C2628140A230B70002056
:1008C00008BD0123FAE70B23F8E70723F6E7022325
:1008D000F4E71023F2E70323F0E70923EEE704230C
:1008E000ECE70D23EAE70523E8E70623E6E708231C
:1008F000E4E70C23E2E70E23E0E70F23DEE7002224
:100900000A701A460249FFF785FF0120D8E700BFA9
:10091000AE41030038B505461446FFF7ADFF00B100
:100920002C5C204638BD08B500220A21FFF7F2FFF3
:1009300008BD38B505461446FFF79EFF00B12C5898
:10094000204638BD38B505461446FFF795FF00B17F
:100950002C56204638BD00002DE9FF41984613680B
:10096000154607460E461B6804221821284698475C
:10097000044618B1182200211AF092F8CDE9025469
:10098000A4B9274B01934FF48B630093254A264B60
:1009900031463046FFF74CFF0124039911B102A8FC
:1009A000FFF754FF204604B0BDE8F0813846FFF75A
:1009B000BAFF012806462DD13846FFF765FF0546E8
:1009C00040B300220421FFF7BDFFC0B2FFF74CFF88
:1009D0000022207006212846FFF7ABFF002260604E
:1009E00008212846FFF7A5FF00220A21A06028461B
:1009F000FFF7A8FFC0B2FFF72DFF324620730C218E
:100A00002846FFF796FF324620610E212846FFF761
:100A100090FF60610023C8F8004003931C46BCE7C8
:100A2000944103007D410300194103002DE9FF417A
:100A30001F4613681546064688461B6804221C217B
:100A400028469847044618B11C2200211AF028F8BD
:100A5000CDE90254A4B9294B019340F2AD43009370
:100A6000274A284B41464046FFF7E2FE01240399FE
:100A700011B102A8FFF7EAFE204604B0BDE8F081FC
:100A80003046FFF750FF022833D13046FFF7FCFE17
:100A9000054670B300220421FFF754FFC0B2FFF7F0
:100AA000E3FE0022207006212846FFF742FF0022C5
:100AB000606008212846FFF73CFF0022A0600A2161
:100AC0002846FFF736FF00220C21E0602846FFF79A
:100AD00039FFC0B2FFF7BEFE012220740E21284666
:100AE000FFF727FF0122606110212846FFF721FF51
:100AF000A06100233C6003931C46B8E794410300C7
:100B00007D410300194103002DE9F0439846136825
:100B1000154685B081460E461B68012204212846F1
:100B20009847044608B100230360CDE90254A4B9F4
:100B3000264B01934FF4A5630093254A254B31467C
:100B40003046FFF775FE0124039911B102A8FFF7A3
:100B50007DFE204605B0BDE8F0834846FFF7E3FE82
:100B6000082807462CD14846FFF78EFE054638B3C5
:100B700000220421FFF7E6FEC0B2FFF76BFE002261
:100B8000207039462846FFF7C5FE003018BF012007
:100B9000A07000220A212846FFF7BCFE003018BFD3
:100BA0000120E070002206212846FFF7CBFE30B17D
:100BB000012804D008493046FFF72CFEC3E76070D7
:100BC0000023C8F8004003931C46BDE7944103008E
:100BD0007D41030019410300D24103002DE9FF418B
:100BE0001F4613681546064688461B6804222821BE
:100BF00028469847044618B12822002119F050FFD2
:100C0000CDE90254A4B9264B019340F26C630093E2
:100C1000244A254B41464046FFF70AFE012403992A
:100C200011B102A8FFF712FE204604B0BDE8F08122
:100C30003046FFF778FE05282DD13046FFF724FE19
:100C4000054640B300220421FFF77CFEC0B2FFF747
:100C50000BFE0022207006212846FFF76AFE0022C4
:100C6000606008212846FFF764FE0022A0600A2188
:100C70002846FFF75EFE0022E0600C212846FFF7C1
:100C800058FE002220610E212846FFF75BFEC0B20D
:100C9000FFF7E0FD207500233C6003931C46BEE790
:100CA000944103007D4103001941030038B5044617
:100CB0001546FFF7E1FD08B104442568284638BD14
:100CC0002DE9FF411F461368154604220646884653
:100CD0001B68114628469847044608B10023036064
:100CE000CDE90254A4B9144B019340F26773009309
:100CF000124A134B41464046FFF79AFD01240399DF
:100D000011B102A8FFF7A2FD204604B0BDE8F081B2
:100D10003046FFF708FE092808D13046FFF7B4FD3A
:100D200020B100220421FFF7C1FF206000233C60B6
:100D300003931C46E3E700BF944103007D41030099
:100D4000194103002DE9F843984605460023C8F8E9
:100D5000003091460F4605F083FF2B68EB1A0646DC
:100D60001A88082A0CD9198951B16C58912E09D9C1
:100D700032461C494846FFF74DFD0120BDE8F88387
:100D80000124F3E7202E11D03B6822461B68314630
:100D900038469847C8F8000008BB134A134952F870
:100DA000262023464846FFF735FDE6E7062A05D903
:100DB000DB88E91813B1EB58C91804D10C4948462F
:100DC000FFF728FDD9E73B6822465B6804313846C7
:100DD0009847C8F80000B0FA80F04009CEE700203C
:100DE000CCE700BF48440300FC4103009C440300DF
:100DF0003E450300836810B41BB9036D5DF8044BD6
:100E0000184703EB41105DF8044B7047C0EE807A41
:100E100073B5044615460E4617EE900A17F0ECF926
:100E200018F048F817F038FD9FED117A07EE900A98
:100E3000F4EEC77AF1EE10FA0FDB9FED0E7AF4EEC6
:100E4000C77AF1EE10FA08D8FDEEE77A002017EE27
:100E5000901A3144296002B070BD074B00932046C0
:100E60006569064A064940F25913A8470120F2E78E
:100E7000000000CF0000004F8D4B0300354B0300F6
:100E80007D410300002A51F8043B07DB934205DD56
:100E900051F82210002901DBFFF7ACBF002070479A
:100EA0000968FFF7EFBF4B68002A53F8041B07DB04
:100EB000914205DD53F82210002901DBFFF79ABFAC
:100EC00000207047FFF7ECBFD1ED027A92ED027A75
:100ED00067EE877A73B5F5EEC07AF1EE10FA1E462A
:100EE0000ADA0F4B009344690E4A0F4940F24B1344
:100EF000A047012002B070BD17EE900A17F07CF9F0
:100F00000446B0680D4617F077F90B4602462946AD
:100F1000204617F0F3FA069BC3E900010020E9E739
:100F2000B34B0300354B03007D410300000000007C
:100F30002DE9F74F0446886890469A460D4617F00B
:100F40005BF90646D8F808000F4617F055F9024637
:100F50000B463046394617F0A7F9DDE90C9B0646EB
:100F60000F46BAF1000F1CD0DAF8080017F044F968
:100F700002460B463046394616F0DEFF0646D9F8E3
:100F8000080021F0004717F037F902460B463046BB
:100F9000394617F0B3FA13A3D3E9002317F000FC86
:100FA00050B14B46424629462046CDF830B003B0FA
:100FB000BDE8F04FFFF788BF074B009320466569F7
:100FC000064A07494FF49F73A847012003B0BDE8C4
:100FD000F08F00BFAFF30080CC4B0300354B030014
:100FE0007D4103007B14AE47E17A943F2DE9F04345
:100FF0002DED028B9946137F85B0032B0646DDF855
:10100000388011D0092B2BD0072B2DD03B4B0093D0
:1010100044693B4A3B4940F29113A047012005B087
:10102000BDEC028BBDE8F083FF240025012992ED81
:10103000028AD7681CD103AADFED330A3946B0EE25
:10104000480A3046FFF7E2FE0028E8D1039BAB4296
:10105000ACBFC9F80030C9F80050C8F80040DEE75E
:101060007F246FF07F05E1E747F6FF74274DDDE74A
:10107000032924D103AADFED240A3946B0EE480A39
:101080003046FFF7C3FE0028C9D1039BAB42ACBF7B
:10109000C9F80030C9F8005003AAF1EE080A394631
:1010A000B0EE480A3046FFF7B1FE0028B7D1039BE7
:1010B000A342D4BFC8F80030C8F80040AFE7022907
:1010C00015D103AAFFEE000A3946B0EE480A3046B1
:1010D000FFF79CFE0028A2D1039BAB42ACBFC9F82E
:1010E0000030C9F8005003AAF7EE000AD7E7C9F8A4
:1010F00000500020C8F8004091E700BFEE4B03000D
:10110000354B03007D410300000000000080FFFF1D
:101110002DE9F04F91F800908FB0B9F1010F04461E
:101120000D4617469B46DDF880800FD001266C4B9C
:101130000193CDE902966B4B00934469DB236A4A25
:101140006A49A04701200FB0BDE8F08F1678012E44
:1011500008D0634B0193CDE90269654B0093446964
:10116000DD23ECE752683AB9624B00934469E72308
:101170005D4A6149A047E5E7D2F80090B9F1000F58
:1011800004D15E4B00934469E823F1E7D9F800A04D
:10119000BAF1010F35DD0B7F092B06D0072B04D0E8
:1011A000574B00934469ED23E2E73B7F092B0DD0B9
:1011B0000922CDE90232534B0193534B00936569E9
:1011C000EE23494A49492046A847BBE7D04508D005
:1011D0004E4B0193CDE902A84D4B00936569EF2377
:1011E000EFE77B69926803EB82035B68984508D060
:1011F000CDE90283474B0193444B00936569F22389
:10120000DFE7D5ED027A189BCDED057AD3ED027AB2
:1012100009F10403CDED067A07930026B0452EDDD3
:10122000BAF1010FC9BF079BD9F8040003EB86038D
:10123000186816F0E1FFCDE90801059816F0DCFF0B
:1012400002460B46DDE9080117F02EF8CDE908014A
:10125000069816F0D1FF02460B46DDE9080117F0AB
:101260004DF90CAB0BAA00F057F81E9A0B9B42F8F5
:1012700026301F9A0C9B42F826300136CEE72B7F92
:10128000032B1AD10EAB0020002163E90201019368
:10129000189B00933A465B4629462046FFF748FED6
:1012A00000287FF450AF0BAB1A9ADDE90C0100F077
:1012B00033F80B9B1B9A5B4213602B7F092B03D0E7
:1012C00003F0FB03032B09D1199B189A19781D9B76
:1012D000009320461C9BFFF789FE34E7002032E78D
:1012E0000E4C0300284C0300354B0300F44B030065
:1012F000414C03005B4C03007D4103006F4C030035
:101300008A4C0300C44C0300D04C0300DD4C0300A6
:10131000EA4C03000B4D0300F8B515461C460022AD
:10132000002306460F4617F027FA18B100232B605A
:101330002360F8BD22463046394617F089FD002269
:10134000104B16F0B1FF17F0B5FD17F05DFB4FF035
:1013500000420023824273EB010601DA17F01AFF04
:10136000994201BF9042236801332360236808BF7C
:101370004FF080401F33BEBF002300202360286051
:10138000D7E700BF0000E041F8B515461C46002233
:10139000084B06460F4617F017FA08B917F0FAFE81
:1013A00023462A4630463946FFF7B6FF2368002B0E
:1013B000F4DBF8BD0000F03F2DE9F14F06460A9836
:1013C0009946C0F11F00012303FA00F00F46904632
:1013D00016F000FF424604460D464B46304639465D
:1013E00016F062FF02460B462046294616F05CFFC7
:1013F0000BA3D3E90023DDE90BAB04460D4617F040
:10140000E3F910B106A5D5E900455B4652462046F2
:10141000294601B0BDE8F04FFFF7B6BFAFF300803B
:101420000000C0FFFFFFDF412DE9F84301248146A2
:1014300004FA00F001388846154616F0CBFE064641
:10144000A5EB09000F46C0F12003A0F1200124FA0A
:1014500003F304FA01F104FA00F0194316F0F6FE62
:1014600002460B463046394616F01EFFC8F12003EF
:101470000F46A8F1200124FA03F304FA01F106460D
:10148000194304FA08F016F0E1FE02460B46304616
:10149000394617F033F817F05BFC17F0B5F9BDE8E3
:1014A000F8830000884230B51DD100F100435C4252
:1014B0005C4180FB0123002A73F100010C49A8BFA5
:1014C0004FF080418CB9541843EBE175002C75F155
:1014D000000304DA6FF00040002124184D41E00FB2
:1014E00040EA450030BD0024E3E76FF00040F9E733
:1014F000010000C0002908B506DA0D4B0D4A4FF473
:10150000B3710D4817F04EFE1F2904DD0B4B094A3D
:1015100040F26711F5E701238B40013B03EA00022B
:101520005B1003EBD07308419A42C8BF013008BD7D
:10153000484D0300C24D0300564D0300B34D030058
:101540000368C31A1A880A2A07D95B89C21833B1FB
:10155000C358D01804D0D0587047002070471846A0
:10156000704700000368C31A10B51A88082A18D9F2
:101570001B89C418ABB1C258A318A258914206D314
:10158000094B0A4A0A484FF4837117F00BFE0433E3
:1015900003EB810053F82130BDE810401844FFF7F9
:1015A000CFBF00231B68FFDE1C4E0300914E0300DB
:1015B000274E03004B1E1844B0FBF1F04843704720
:1015C000B0FBF1F04843704701380844B0FBF1F03C
:1015D0004843704701380F2815D8DFE800F00C0C9D
:1015E000100E1410080E10080E120E14140C022304
:1015F0000B60002070470423FAE70823F8E7012373
:10160000F6E71023F4E7012070472DE9F3410D467A
:101610000168411A16460A88042A2ED98C8800EBE4
:10162000040C8CB104591CEB04070DD05CF8048049
:101630004FF0000C0124C44507D057F804EF0CF11B
:10164000010C0EFB04F4F6E70124062A16D9C9881A
:10165000B1B140561A460DF10701C0B2FFF71EF9AD
:1016600040B931469DF80700FFF7B4FF10B9336861
:101670005C432C6002B0BDE8F08101240020E9E762
:101680000846E7E7436873B50C4653B153F8046B5B
:10169000002101228E4205DD53F8045B01316A43CB
:1016A000F8E7012201A9007AFFF794FF10B9019B26
:1016B0005A43226002B070BD40680368DB68184777
:1016C00070477047406803681022DB68184740681D
:1016D00003685B691847406803680422DB682021BF
:1016E00018477047436910B50C46114633B140683E
:1016F00003680422DB68890098472060002010BD41
:1017000010B508210446FFF7B7F8231808B1205890
:10171000184410BD10B50A210446FFF7ADF8231890
:1017200008B12058184410BD10B506210446FFF733
:10173000A3F800B12056C0B210BD10B50E2104466A
:10174000FFF79AF800B1205C003018BF012010BDEF
:1017500010B504210446FFF78FF8231808B120586C
:10176000184410BD10B508210446FFF785F823186A
:1017700008B12058184410BD38B503680D46DB6821
:1017800004221C210446984738B1044BC560C0E9C7
:1017900000340023C0E90533037438BDD05303007F
:1017A00070B50E46102115460446FFF703FFA21937
:1017B0000146121A284601F0CDFC2946BDE87040CA
:1017C000FFF7DABF002343614068036804229B6887
:1017D00060211847037C70B504460E462BB11E49A4
:1017E000C068FFF717F8002522E001230374406862
:1017F00003680422DB680821984718B16368174A18
:10180000C0E90023A0602046FFF7DCFF0028EAD1F2
:101810003046FFF7A7FF656801682B682846DB683C
:101820000422C9009847054620B90D4800F0AEFDD6
:10183000284670BD23680246DB693146204698473A
:101840000028D0D123682A469B6931462046984714
:101850000028EDD0C7E700BFD64F0300B853030000
:101860002B50030008B5406801F098FC0421BDE846
:101870000840FFF79FBE00002DE9F041044688466E
:101880001F46FFF7EFFF002265691646954207D015
:1018900000EBC20301325B68013308BF0136F5E794
:1018A0000B2E07D90C220A49E068FEF7B3FF01208E
:1018B000BDE8F08100EBC5034FF0FF3240F8358002
:1018C0005A603D606369013363610020F0E700BF47
:1018D0009B520300036870B59B6804460D46984709
:1018E0002046FFF7BFFF61690022914206D043689E
:1018F000013308BF456001320830F6E760680368CD
:101900000C319B680422C900BDE870401847116083
:10191000002070478068704708B50368994206D375
:10192000054B064A06484FF4837117F03BFC00EB69
:10193000C100D0E9010108BD1C4E0300B2580300EC
:10194000274E030008B50368994206D3054B064AA3
:1019500006484FF4837117F025FC00EB81004068C6
:1019600008BD00BF1C4E0300E4570300274E0300D0
:1019700008B50368994206D3064B074A07484FF457
:10198000837117F00FFC043000EB810250F8210046
:10199000104408BD1C4E0300FA540300274E0300F8
:1019A0002DE9F74305468846164600244FF00C09FA
:1019B0004046FFF7CDFE03689C421FD22146FFF749
:1019C000D7FFFFF7BAFEB8B109FB04F701A9F01978
:1019D000FFF758FE68B96868019903681022DB6850
:1019E0009847F05140B9019A0549E868FEF712FF9F
:1019F000012003B0BDE8F0830134D9E70020F8E707
:101A0000A84F030008B50368994206D3064B074A5E
:101A100007484FF4837117F0C5FB043000EB8102D7
:101A200050F82100104408BD1C4E0300EA56030084
:101A3000274E03002DE9F3479846037C04460F46E2
:101A40003BB3154600263846FFF78CFE03689E42DE
:101A500027D23146FFF7D6FF236862691B6B8146A8
:101A6000414620469847C8B923680096D3F82CA071
:101A70006A68D8F8003039462046D04770B92368E4
:101A80006A681B6A494620469847083530B90136CE
:101A9000D9E70549C068FEF7BDFE012002B0BDE8E8
:101AA000F08700202074F9E7595003002DE9F04138
:101AB00005460F46164600243846FFF753FE0368D6
:101AC0009C4218D22146FFF79DFFFFF739FD6B6856
:101AD0001A684101D2F80C8018460422C04730B978
:101AE0000649E868FEF796FE0120BDE8F08146F859
:101AF00034000134E0E70020F7E700BFD1520300D3
:101B00002DE9F74F0C9F05460846164698468A462B
:101B1000FFF728FE3946FFF775FF2B6828465B6AFA
:101B20004FF000099847CDE900792B680446D3F8B7
:101B300028B00246434651462846D84740B10B4993
:101B4000E868FEF767FE4C46204603B0BDE8F08F1C
:101B5000002EF9D006EBC7060C23726803FB08F3CE
:101B6000D118D35823614B686361EDE70753030035
:101B70002DE9F3470A9F06460846984689461546CA
:101B8000FFF7F0FD3946FFF73DFF70680368042258
:101B90001B69202198470122CDE900723368044671
:101BA000D3F828A00246434649463046D04740B1C4
:101BB0000B49F068FEF72EFE0024204602B0BDE877
:101BC000F087002DF9D005EBC7050C236A6803FBED
:101BD00008F3D118D35823614B686361EDE700BF68
:101BE000F151030008B50368994206D3064B074A32
:101BF00007484FF4837117F0D5FA043000EB8102E7
:101C000050F82100104408BD1C4E0300045403008A
:101C1000274E030038B50C4608210546FEF72CFE7A
:101C200088B129582046FFF7DDFF044650B1042152
:101C3000FEF722FE221828B12358D11805D0D0581B
:101C400000B1081D38BD0146ECE70846FAE710B5BB
:101C50000446FEF711FE231808B12058184410BDA1
:101C60002DE9F7430B9C9046054620220E46204660
:101C700000211F4618F014FF4046FFF755FD0A9A51
:101C800004F11C01FEF70AFE002853D14046FFF77D
:101C900054FD3946A0774046FFF7BCFF206100287D
:101CA0004BD10223637701AA0A9B04F11801404635
:101CB000FFF7ABFC00283DD104214046FFF7C7FFEA
:101CC00000283CD13D4B63610C214046FEF7D4FD1A
:101CD00008EB000770B358F800003F18384629D0C9
:101CE000FFF70EFD8046002867D0006810B3384625
:101CF000FFF710FDF0B10068E0B1D8F80430A36040
:101D00003846FFF707FD0021FFF706FEE060384682
:101D1000FFF7F6FC2B68D0F8008096B11B6904220F
:101D20000C21284698470646B8B925490A98FEF777
:101D300071FD012003B0BDE8F0830123B2E76061CB
:101D4000C2E7DB6804220C21284698470646002893
:101D5000EBD02B68D3F80C9002E02B68D3F81090EE
:101D60004046FEF747FD042201462846C84705467F
:101D7000706008B91349D9E73846FFF7C1FC3060F5
:101D800045F8048B4FF00009C8450ADD3846FFF7D7
:101D9000C1FC4946FFF7C0FD45F8290009F10109DA
:101DA000F2E710213846FEF767FD00B13858B06001
:101DB0000123237066600020BCE7BBE78C4F030063
:101DC000515303007F5303002DE9F041069C264642
:101DD0000D460021C4E9001146F8081F9846284620
:101DE0001746FFF7A1FC31464246FEF757FD06466F
:101DF00058B939462846FFF70DFF042120602846D0
:101E0000FFF725FF20B9034B63603046BDE8F08142
:101E10006060FAE78C4F030010B50446FEF72CFD16
:101E2000231808B12058184410BD2DE9F04104468C
:101E3000084690461F460D46FFF794FC06999DF80C
:101E40001C60FFF7DFFDFFF783FC3946FFF790FDCD
:101E50000C2107462846FFF7DFFFE3680693CDF81D
:101E60001C8003463A4631466068BDE8F041FFF702
:101E7000F7BE00002DE9F04F85B006468846039274
:101E800000254FF00C094046FFF76CFC03689D42AB
:101E90003DD22946FFF7B6FD0290FFF759FCD0F876
:101EA00000A07068036809FB0AF4DB68042221467D
:101EB0009847074640B917492246F068FEF7AAFC42
:101EC000012005B0BDE8F08F0024544519D00298D8
:101ED000FFF73EFC2146FFF74BFD0C2183464046B1
:101EE000FFF79AFF09FB047300930246F3687068DA
:101EF0005946FFF769FF10B122460749DDE7013473
:101F0000E3E7039B03EBC50301355F60BBE70020FC
:101F1000D7E700BF355203007C5203002DE9F04F94
:101F200097B004460846934609938846FFF71AFC83
:101F30002099FFF767FD0290FFF70AFC62690368CA
:101F40006068D318182605937343039303680399B5
:101F50001B6904229847064648B9039AB649E068C7
:101F6000FEF758FC0122104617B0BDE8F08F02982A
:101F7000FFF7EEFB03680493636906931021E3689F
:101F800007934046FEF778FC08EB0001002846D096
:101F900058F800208B1871D08A5808924FF0000929
:101FA0001F1DCA46089B53453AD03D4604212A6866
:101FB00015442846FEF760FC04372A1808B1285853
:101FC000104417229D49043019F0A8F920BB0C21B8
:101FD0004046FFF721FF062181462846FEF74CFCCC
:101FE000C0B129584846FFF7FDFD04210546FEF71C
:101FF00043FC2B18002800F09A812858034403F171
:102000001009DA68049B934206D08D490798FEF7C1
:1020100001FCA7E70146E5E70AF1010AC2E78146AC
:10202000DA46B046374600254FF0FF3B049BAB42F3
:1020300029D0C7F804A039465046FFF723FB0246D3
:10204000002890D1DAF80010C7E902BB51B9029814
:10205000FFF77EFB2946FFF78BFCFFF76EFB80F056
:102060000102D2B23A75B9F1000F09D059F8252012
:102070003A61013518370AF10C0AD7E79946CFE7DC
:10208000C7F810B0F5E70298FFF75AFA4FF0000BC7
:1020900082464FF018095F4606210298FFF7D7FDE8
:1020A00003685B4508D95946FFF74CFC09FB006003
:1020B0000BF1010B8760EFE74FF0000B4FF01809B1
:1020C00008210298FFF7C3FD03685B450AF1FF375B
:1020D00019D84FEA8709002FC0F2C2800A2102985E
:1020E000FEF7CAFB029B1918002800F022811A583B
:1020F0008B188A5897420FD3524B534A53484FF488
:10210000837117F04FF85946FFF71CFC09FB00607C
:102110000BF1010BC760D3E7043303EB090A53F853
:1021200009304FF0000B9A4406215046FFF78FFD0F
:1021300002685A450ED95946FFF704FC182303FBE1
:102140000060C268511C01D0974200DDC7600BF1EE
:10215000010BE9E74FF0000B08215046FFF777FD30
:1021600002685A450ED95946FFF7ECFB182303FBCA
:1021700000608268531C01D0974200DA87600BF13F
:10218000010BE9E7013FA9F10409A4E71021606808
:1021900001F006F805466068036829461B691022AD
:1021A0009847014658B9E168294B019340F2D23370
:1021B0000093284A284B0846FEF73AFBD2E62A4607
:1021C0000BA804F0F9FBD4F80C9035460027059BCA
:1021D000BB426CD02B7D13B901371835F7E71021BE
:1021E0002868FFF7F1F92B69591C02460FD1EB68FB
:1021F0000093AB6849460BA804F0A2FB02460028F6
:10220000EAD00BA8029204F097FB029AABE6019386
:10221000EB680093AB6849460BA804F0E9FBEDE7D7
:102220000BA804F0E4FC2B4602460C493846FEF7A6
:10223000F1FA0122E5E700BFA4500300904F03002C
:10224000E55003001C4E0300F0550300274E030029
:102250008A5103007D41030030510300A351030064
:102260002046FFF7FFFA6FF0070202FB0500069A0F
:10227000099918232A4403FB056396464FF0FF3C57
:102280000127AE4503F1180380D950F8352043F8F3
:10229000182C00EBC50243F8141C526843F808CC14
:1022A00043E9042203F8047C01350431E9E760685E
:1022B00003685B6998471021606800F071FF05466C
:1022C0000BA804F094FCA842E768A9D8606800F065
:1022D00065FF039B81461E4400254FF0FF3A4645AB
:1022E00016D098F8143083B12A460AAB39460BA8A9
:1022F000CDF828A004F098FC0246002881D10A9B62
:10230000D8F804204B441360013508F11808E6E7BB
:102310000BA804F06CFCA369834200D2A061606842
:10232000A169036810229B689847024669E7C36861
:10233000FFDE0368FCE700BF00B5C1B00B460246F4
:102340004FF48071684600F05FFD684600F036FF8C
:10235000024800F033FF41B05DF804FBBD8103008B
:1023600000B5C1B0134668460A464FF4807100F0CC
:102370004BFD684600F022FF034800F01FFF0020DD
:1023800041B05DF804FB00BFBD8103000FB407B589
:1023900004A951F8040B0191FFF7CEFF03B05DF8DB
:1023A00004EB04B0704700004369202B01D1806921
:1023B0007047DBB2912B9ABF024A52F823000248C1
:1023C000704700BFFC410300EC7D030070472DE91E
:1023D000F047D0F8148004460026A3691B689E428B
:1023E00020D266613146A068FFF7BCF84FEAC60A02
:1023F000814600274F4513D0236953F80A5005EB57
:102400004715EB6929695A691B68202A0CBFD5E971
:102410000512002213B160689847E8600137E9E7C8
:102420000136DAE7C4F814800020BDE8F0872DE912
:10243000F843476904460025A3691B689D421AD2E8
:1024400065612946A068FFF78DF84FEAC509804607
:10245000002646450DD0236953F8093003EB461397
:10246000DA6922B1526812B1D968606890470136C2
:10247000EFE70135E0E767610020BDE8F883000081
:102480002DE9F047476904460025A3691B689D4272
:102490002CD265612946A068FFF764F84FEAC509A8
:1024A0008046002646451FD0236953F8091001EBEA
:1024B0004611D1F81CA0DAF808307BB16068984763
:1024C000014658B15046FFF76FFF32460B460146B2
:1024D0000848FFF75BFF0120BDE8F0873146E06860
:1024E000FFF7F8F90136DDE70135CEE76761002037
:1024F000F2E700BF065A0300002310B50446C0E906
:10250000003222B1136810469B689847206020462D
:1025100010BD10B50446406818B103682168DB6837
:102520009847204610BD000083691A682DE9F347DB
:1025300004469142D0F8148061610F4607D32148C8
:10254000FFF724FF0125284602B0BDE8F087806828
:10255000FFF708F8FF00814600264E452ED023697C
:10256000DD5905EB4615D5F81CA05046FFF71CFFBA
:10257000636801465A6B6846FFF7BEFF2946DAF8E2
:102580000C30606898470546E06803689B68984788
:10259000012D0CD15046FFF707FF2B46014632466E
:1025A0000948FFF7F3FE6846FFF7B3FFCBE7002DBE
:1025B000F9D16846FFF7ADFF0136CEE7C4F81480C5
:1025C0000025C0E7A0590300D259030001617047FC
:1025D0002DE9F04F074685B000264FF00C0BB86987
:1025E00003689E4265D23146FFF70CFA4FEAC609EE
:1025F0008046002504214046FEF73EF908EB000125
:1026000000285BD058F800208B188A5895424ED28B
:10261000043303EB850453F825301C440E21204677
:10262000FEF72AF900283CD0235C002B39D03B6907
:102630004B440BFB05FA586803A95044FFF722F8F6
:102640000346002836D1019006212046FEF714F9F2
:1026500048B32256019B092A27D10C212046FEF7B8
:102660000BF9231890B124581C440A212046FEF788
:1026700003F9221810B32358D118D35843B9104B7B
:10268000104A11484FF4837116F08CFD0446ECE7B4
:1026900049683B69039A4B445B6853F80A0018F099
:1026A000FFF90135A6E70146F3E71946F1E70136E0
:1026B00095E70023184605B0BDE8F08F0368FFDEFC
:1026C0001C4E0300745A0300274E030010B5044645
:1026D000FEF7D2F8231808B12058184410BD70B581
:1026E0000C460546082180681646FFF7EFFF214695
:1026F000FFF788F90621FFF7AAFA3146FFF722F91A
:10270000296901EBC4010C224B6802FB003070BD4B
:1027100008B508218068FFF7D9FF006808BD10B52B
:1027200080680C460821FFF7D1FF2146FFF76AF9C0
:102730000621FFF78CFA006810BD10B580680C46C2
:102740000821FFF7C3FF2146FFF75CF90821FFF7D7
:102750007EFA006810BD000010B504460748C4E9C1
:1027600002230023C4E90001C4E9043322B1082193
:102770001046FFF7ABFFA061204610BD445A03008E
:1027800070B50C460546082180681646FFF79EFF87
:102790002146FFF737F90821FFF759FA3146FFF7CD
:1027A000D1F8296901EBC4010C224B6802FB00300F
:1027B00070BDC368986E0368DB681847C368D3F8B8
:1027C0008C3053F82100704737B5C468A06ED4F838
:1027D0008020036800925D68E26F0B462168A8477D
:1027E00003B030BDC268D2E91F3003EBC0030C2038
:1027F0005B6800FB01307047C3686C330B600020DE
:102800007047C0681346D0F88020806EFFF734B858
:102810000EB403B5C368986803AA036852F8041B92
:1028200001929B68984702B05DF804EB03B07047D3
:102830002DE9F041079F876000F10C05044698469A
:10284000C0E900120E465C220021284618F028F943
:102850003A4606994046FEF7A3FF32460346A06675
:10286000294604F16C00FFF777FF0A4A22620A4A00
:10287000E2650A4A22660023089A84F88830C4E98F
:102880002333C4F89430A461226484F8893020464C
:10289000BDE8F08111280100C9270100E5270100EA
:1028A00008B50821FFF712FF0021FFF7ABF806215A
:1028B000FFF7CDF9006808BD38B5054600680C463D
:1028C000FFF7EEFFA042034606D822460549A86856
:1028D000FDF7A0FF002038BDD5F8903053F8240054
:1028E000F9E700BF285D030008B50821FFF7EEFEF9
:1028F0000021FFF787F80821FFF7A9F9006808BD54
:1029000038B5054600680C46FFF7EEFFA0420346C7
:1029100006D822460549A868FDF77CFF002038BD8F
:10292000D5F8943053F82400F9E700BF805D030028
:1029300038B5C36F044600F16C0513B12846FFF7A4
:1029400076FD2846FFF742FD204638BD2DE9F04FC1
:1029500006468DB04FF0000906F16C00FFF7D8FE77
:10296000484540F30981346808212046FFF7AEFE50
:102970004946FFF747F8062182462046FDF77CFFCF
:10298000231848B3205803440293B06EFEF7C2FFE9
:1029900005905046FEF7D4FD4FEAC9030690039315
:1029A0004FF00008069B984500F0E3800A2150464E
:1029B000FDF762FF0AEB0001002800F0DF805AF803
:1029C00000208B188A58904508D36D4B6D4A6E488D
:1029D0004FF4837116F0E6FB0290D6E7043303EB65
:1029E000880553F828301D4404212846FDF744FF8C
:1029F00050B12F58029B1B68BB4207D86348394629
:102A0000FFF7C4FC012424E00746F3E7029B039A86
:102A1000043303EB870B53F827309B444FEA4813EA
:102A20000193F36F9B58019A13441C33D6E90112AA
:102A30005846FEF787F9044678B1584604F010F975
:102A4000912896BF524B534953F820105248FFF734
:102A50009DFC20460DB0BDE8F08F039AF36F9B58A4
:102A6000019A1344DB6913B939464C48C8E71F7D06
:102A70000890202F4FF00E01284653D1FDF7FCFEA1
:102A80002A18002846D14FF0000BCDF810B00621CF
:102A90002846FFF7DCF809AA0146B06EFEF737FFBB
:102AA00004460028D5D108212846FFF7D0F80AAA05
:102AB0000146B06EFEF72BFF04460028C9D1039AE9
:102AC000F36F9B58019A07939F1801461C223846C2
:102AD00017F0E6FF019B099A1946079B5A500A9B7B
:102AE0007B60089B3B61049B1421C7E9053B28469A
:102AF000FFF7ADF8014650B1036843B10BAAB06EC1
:102B0000FEF705FF04460028A3D10B9BBB6008F12C
:102B1000010847E72B58D118B5D00431049152F879
:102B200003B0B4E7FDF7A8FE2B1850B12A58D342E2
:102B300007D0912F96BF164B164953F82710184807
:102B40005EE77068036839461B6A9847044638B9DF
:102B5000912F96BF0E4B0F4953F8271011484FE79E
:102B600008AB059AB1682846A047044600288AD0D9
:102B70006FE709F10109EFE600246AE70368FFDE69
:102B80001C4E0300AC5D0300274E03004D5C0300A8
:102B9000FC410300EC7D0300775C0300A45C0300B0
:102BA000C55C03000B5D03002DE9F74F0168044687
:102BB000806EFEF70FFE014650B96149A0680125FD
:102BC000FDF728FE84F88950284603B0BDE8F08F51
:102BD00004F16C063046FFF7F9FC2046FFF7B6FE1D
:102BE00005460028F0D1574B6364574B2361C4E975
:102BF00013003046FFF7EBFB544BE3643046FFF71E
:102C00003FFC534B6564E5642365E26F2168A06E69
:102C100004F18C03FEF70EFF05460028D4D1A76E01
:102C20002068FFF73DFE3B688100DB683846984727
:102C3000C4F8900048B92068FFF732FE4549820089
:102C4000A068FDF7E7FD0125BEE7AA46D4F800809D
:102C50004046FFF725FED4F86890A842D9F80070E6
:102C600022D908214046FFF731FD0021FEF7CAFEB8
:102C70000621FEF7ECFF2946FEF764FECDF800A022
:102C800003463F68E26FD4F890B041464846B847E3
:102C9000D4F890304BF8250053F8253013B92A4664
:102CA0002D49CDE70135D1E74046FFF71DFEFB6812
:102CB000810048469847C4F8940028B92068FFF777
:102CC00013FE26498200BBE70025A946276838463F
:102CD000FFF70AFEA84227D908213846FFF7F6FC7D
:102CE0000021FEF78FFE0821FEF7B1FFD4F86880BF
:102CF0002946FEF727FED8F80030CDF80090D3F82B
:102D000000B0E26FD4F894A0034639464046D84755
:102D1000D4F894304AF8250053F8253013B92A46E0
:102D20000F498DE70135D1E73046FFF751FC0546E5
:102D300000287FF449AF012384F8883044E700BFBE
:102D40004C5B0300B3270100F927010003280100B1
:102D5000BD2701006F5B0300B85B0300DD5B030070
:102D6000275C030090F8893010B504462BB10A495E
:102D70008068FDF74FFD012010BD90F8883033B119
:102D800004F16C000021BDE81040FFF7CDBBFFF758
:102D90000BFF0028F4D0EFE7535D030030B5044685
:102DA000234601341D78002DFAD101390844013A37
:102DB00012F8011F21B1834202D203F8011BF7E789
:102DC00000221A70184630BD30B503460C46B3FBDE
:102DD000F2F502FB1530C3B2092894BF30335733E4
:102DE0002046DBB200F8013B2B464DB96570A1428D
:102DF00008D20B78227801F8012B04F80139F6E7A4
:102E00000446E4E730BD00002DE9F04F95B01746C9
:102E1000009003911E4601F1FF390025009A3B788E
:102E200054199BB34D4531DA252B07F101020BD123
:102E30007B78662B60D00AD8632B00F01781642B57
:102E400020D0252B36D1BA1C0135237032E0752BEA
:102E500032D0782B3AD0732B2CD1039A3368501B85
:102E6000311D013B04EB5000009A8442A4EB0205A3
:102E700000F0028113F8012F002A00F0FD8004F811
:102E8000012BF1E7A9EB05030A2B01DC681C23E009
:102E900030680028B8BF2D2306F10408BDBF611CAF
:102EA0002370404221460A22FFF78EFF001B054493
:102EB000BA1C46461746B1E7A9EB05030A2BE5DD28
:102EC00006F104080A2221463068EDE7A9EB050265
:102ED000092A05F1010004DC0023237015B0BDE8C8
:102EE000F08F4FF030022270009A023513545419BB
:102EF00006F104081022E6E7A9EB050307EE903A75
:102F0000F8EEE77AB2EE0C7AF4EEC77AF1EE10FA48
:102F1000BCD4F31D23F00703D3E9000103F1080635
:102F200015F0BAFCC0F3C7530028A3F17F0A019340
:102F30002346BCBF2D2203F8012B0022BAF1800FDB
:102F400004F12F0BC0F316081A7010D1ABEB03017C
:102F5000B8F1000F09D14A4A1846FFF71FFF804613
:102F6000A8EB04042544BA1CA4E7464AF4E7464A01
:102F70000DF1100C51681068E646AEE803004349B5
:102F800008328A42F446F5D110681279CEF8000072
:102F90008EF804204046002204A98956013228FAFE
:102FA00001F10D2A0844F7D131221A702E225A70ED
:102FB00003F1020800229A70ABEB0802072A029282
:102FC000CEDD424608334FF0300102F8011F934234
:102FD000F9D10A2208A9FFF7F7FE08AA029940468C
:102FE000FFF7DCFEA0EB08034FF03002D3F107013E
:102FF000027012D00246A0EB020C9C4508DA12F8CF
:1030000001CD02F801C04FF0300C82F800C0F2E7A9
:1030100023EAE373C3F10703184410F8012C302AA4
:1030200000F1FF3301D143451ED80023ABEB000173
:103030000370174AFFF7B2FEBAF1000FBFBF2D238E
:103040008DF82030019BC3F17F0A8046ABEB000B6B
:10305000B4BF0DF1210108A90A225046FFF7B4FEC2
:1030600008AA5946404678E71846D6E733682370E1
:103070000135BA1C04361DE7BA1C0E461AE700BF1C
:10308000B35E0300B75E0300A65E0300AE5E0300FE
:10309000BB5E0300704703698361704737B505461F
:1030A0000C4680691146FEF785FA6B691B1AA3422C
:1030B00009D2E21A0092054968682246FDF7AAFB88
:1030C000002003B030BD0444AC61FAE7BF5E0300EA
:1030D00037B5044640690D46401B1146FEF770FAAD
:1030E000236983420AD91B1A00932A46EB1A044922
:1030F0006068FDF78FFB002003B030BD6061FBE727
:10310000085F030037B583690D460169994204469B
:1031100006D00E494068FDF77DFB012003B030BDAD
:1031200011468068FEF746FA63691B1A9D4207D96B
:10313000EA1A0092064960682A46FDF76BFBECE745
:1031400028442061A0610020E8E700BF515F030030
:10315000A65F030010B50A4488B00F4C0791CDE973
:103160000312CDE905120422CDE901401C210DEB2B
:103170000200FFF7ADFF60B1029B4360039B8360D9
:10318000049BC360059B0361069B4361079B04602E
:10319000836108B010BD00BFF05F03008068704716
:1031A00070B5044680690E46FEF704FA31460546BE
:1031B0006069FEF705FA401B70BD0000014601483A
:1031C00008F0C7BF801101204FF41651014807F0E5
:1031D00081BC00BF8011012001EB8202436D516868
:1031E00018470968FFF7F8BF4BB1012803D0022840
:1031F00007D0002303E01944013991FBF3F318468B
:1032000070470098013A504319440130091AF4E715
:103210000B7B012B70B504460D46164603D10023E7
:103220002363124B04E0032B15D100230363104BDF
:103230006363287800F0C4FA336863807368A380FE
:103240006B686381AB68A3812B69E3816B69207034
:103250002382204670BD022B04D1064B03634FF03E
:103260007E53E5E76FF40003DAE700BFFFFF7F7FDF
:103270000000C040000080BF13695B4270B543612D
:1032800053695B4283619369C361D3690362136AC3
:1032900015465B420446436208780E4600F090FAF9
:1032A0006B68A3802B686380B368A38173686381B4
:1032B000736923823369E381EB6AA3622B6B20700D
:1032C000E362204670BD00002DE9F04F9A460B687E
:1032D0001B688FB0023B012B0546894690461E9E17
:1032E0000AD95B4B009344695A4A5B495623A0476D
:1032F00001200FB0BDE8F08F4B681C68012C0CD08A
:103300000126CDE90246554B0193554B0093446984
:10331000504A54495723A047EAE7936892F800B00F
:103320000A93536817690B9353690C93199A0B9B73
:10333000009751465846FFF757FF0C9B1A9A189969
:103340000D90009358460A9BFFF74EFF1A9B0C9A6C
:10335000013B53430A9A0133013802FB0030189BAA
:103360000D9AC01A199B013B7B43571E0B9A0133E0
:1033700002FB0737A7EB0A0A2AEAEA7A4FEA6A034E
:1033800020EAE07033600AF00107431000F001000A
:10339000F0607360B760002249462846FDF780FD63
:1033A000824640B9304B6E6900936123294A2A490D
:1033B0002846B0479CE7224649462846FDF770FD5F
:1033C000074620B9294B00936E696323EEE749460F
:1033D00002222846FDF776FD49468346002228460C
:1033E000FDF761FD814620B9214B00936E6967238B
:1033F000DCE79DF87430012B09D1DAF80C30336129
:10340000FB687361D9F80C30B361002071E77B6908
:103410005B680893B36A0793736A069306F13003F7
:10342000059306F12C03049306F12003039306F1A0
:103430001C03029308F10C03CDE900033A465B46F6
:1034400051462846FDF764FE0028D6D051E700BF5C
:1034500076600300186003007D4103008487030049
:103460009A600300F44B0300AE600300BF600300EA
:10347000D16003000B7C012B70B504460D46164647
:1034800003D100232363134B04E0032B17D1002344
:103490000363114B6363287800F092F9336863800B
:1034A0007368A3806B686381AB68A3816B69E381F8
:1034B000AB692382EB6820706382204670BD022BCB
:1034C00004D1064B03634FF07E53E3E76FF4000330
:1034D000D8E700BFFFFF7F7F0000C040000080BF33
:1034E00013695B4270B5436153695B4283619369C1
:1034F000C361D3690362136A15465B4204464362A3
:1035000008780E4600F05CF96B68A3802B68638036
:10351000B368A38173686381B36923827369E381AC
:10352000F3686382EB6AA3622B6B2070E362204630
:1035300070BD00002DE9F04F9A460B681B688FB0F4
:10354000023B012B0546894690461E9E0AD95D4BDB
:10355000009344695C4A5D495723A04701200FB09E
:10356000BDE8F08F4B681C68012C0CD00126CDE91A
:103570000246574B0193574B00934469524A5649B0
:103580005823A047EAE7936892F800B00A9353687B
:1035900057690B9393690C93199A0B9B00975146AB
:1035A0005846FFF721FE0C9B1A9A18990D9000932C
:1035B00058460A9BFFF718FE1A9B0C9A013B53438F
:1035C0000A9A0133013802FB0030189B0D9AC01A89
:1035D000199B013B7B43571E0B9A013302FB0737B4
:1035E000A7EB0A0A2AEAEA7A4FEA6A0320EAE070BD
:1035F000336043107360394B0AF0010700F001009B
:10360000F060B7601A6849462846FDF749FC8246D3
:1036100040B9334B6E69009362232B4A2B492846ED
:10362000B0479BE72F4B49461A682846FDF738FC00
:10363000074620B92C4B00936E696423EDE72B4BB2
:1036400049461A682846FDF73DFC294B4946834602
:103650001A682846FDF727FC814620B9254B0093C0
:103660006E696823D9E79DF87430012B09D1DAF827
:103670000C303361FB687361D9F80C30B361002002
:103680006DE77B691B690893B36A0793736A0693B6
:1036900006F13003059306F12C03049306F1200391
:1036A000039306F11C03029308F11003CDE9000314
:1036B0003A465B4651462846FDF72AFD0028D6D0FB
:1036C0004DE700BF76600300F86003007D41030012
:1036D000848703009A600300F44B03000C6003002E
:1036E000AE60030014600300BF60030008600300C5
:1036F00010600300D1600300012903D10023C361DE
:10370000094B04E0032904D10023C361074B036282
:103710007047022904D1064BC3614FF07E53F6E790
:103720006FF40003EBE700BFFFFF7F7F0000C040A6
:10373000000080BF2DE9F04F85B0012A8046894600
:103740001F460E9EDDE9105427D004AB4FF0000A4F
:103750004FF0000B63E902AB3246CDE90053394626
:103760000F9BFDF7E5FBA8B9DDE90201231D224609
:10377000FDF7D2FDFB686361F368A361EB68E36169
:1037800004F10C0300932A4604F10803494640461D
:10379000FDF72CFC05B0BDE8F08F0020FAE710B56E
:1037A000044609B1496819B900232360204610BDB9
:1037B00051F8042B40F8042B920017F073F8F5E74A
:1037C000012803D002280CBF02200020704730B52A
:1037D00050F8045B00230122AB4207DA8B4214BF8E
:1037E00050F82340012462430133F5E7104630BD11
:1037F00008B50021FDF77EFE08BD08B5FDF752FEB5
:1038000008BD00002DE9F04104461448FFF7F0FF21
:1038100006461348FFF7ECFF04F18054804621462A
:103820002046FFF7EAFF21460546FFF7E6FF294657
:1038300007462846FFF7E1FF0221FDF75BFE414600
:103840003844FFF7DAFF01212844FDF753FE211821
:103850003046FFF7D2FF3044BDE8F08194A8F57000
:10386000ABAAAA2A2DE9F84340F07F44054660013F
:10387000FFF7C8FF81464248FFF7BAFF01464846B6
:10388000641BFFF7BAFFC4F30067C7F1000800EA42
:1038900008083C48FFF7ACFF013F07EA090788EA40
:1038A000070701463846FFF7A8FFC4F34068C8F190
:1038B000000900EA09093448FFF79AFF08F1FF38C8
:1038C00008EA070889EA080801464046FFF795FF1D
:1038D000C4F38069C9F1000707402C48FFF788FF4F
:1038E00009F1FF3909EA080987EA0909014648464A
:1038F000FFF783FFC4F3C067C7F1000800EA0808B8
:103900002348FFF775FF013F07EA090788EA070721
:1039100001463846FFF771FFC4F30076C6F1000890
:1039200000EA080006F1FF3808EA070880EA0808FC
:103930001848FFF75DFF01464046FFF75EFFC4F3FE
:1039400040777E42013F064007EA08004640F220E9
:10395000FFF74EFF01463046FFF74FFFC4F3807478
:1039600063421840013CB5FA85F334405B0944409A
:10397000581E5B42204023F000435840BDE8F883C6
:103980007BBEAF63F2CBA24D6CAC162FA4AA521132
:10399000B72A580211FE0A00B0F1804F2DE9D04835
:1039A00028DAB0F1404F4FF0FF324FF00004C8BFAB
:1039B000002210EB000B4FEAE07141EB010CBBF170
:1039C000004F7CF1FF3319DB6FF0004600275E45A6
:1039D00077EB0C03ACBF58466FF00040E343184050
:1039E00024F00044D3436040184002F000425040AD
:1039F000BDE8D0884FF0FF340022DAE74FF00040F6
:103A0000ECE700006FF000422DE9F84F14184FF07A
:103A1000000343EBE0756B1C08BFB4F1FF3F204689
:103A200018BF0124294618BF0025061941EB0507D8
:103A3000FB0FF01847F100014F104FEA30064FF02E
:103A40005A30FFF7D5FE05462748DFF8A090FFF76C
:103A5000CFFE01463046FDF725FDB0462C186FF02D
:103A600000460325002721464046FDF71BFDC0F117
:103A700000512046FDF716FDB0F1005F2CDA4845F5
:103A80004FF0FF314FF0000CA8BF00214FEAE07B60
:103A900082004FEA8B0343EA9073B2F1004F73F157
:103AA000FF301DDB964277EB0300B8BF6FF000429A
:103AB0006FEA0C031A402CF0004CCB4382EA0C0254
:103AC0001A4001F000414A40013D1444CBD1204648
:103AD000FFF762FFBDE8F88F4FF0FF3C0021D5E70C
:103AE0004FF00042E4E700BFC4C3C3C3010000E0DD
:103AF00010B5044611B90160204610BD496951F85E
:103B0000042B40F8042B920016F0CCFEF4E70000E2
:103B10002DE9F04F97B05C6814924A689442A8BFB0
:103B200014460A6903920F941A69039C9442A8BF31
:103B300014460C948C68C96804919968DB680593F5
:103B4000C3680D9303690E93059B0A944B439B0036
:103B500053431393209B0893059B0B9153439B0066
:103B6000129393001093039B00269B0011930196E0
:103B7000B7EE006A019B0F9A934280F29780089BF0
:103B8000079300270297029B0B9A934280F284804E
:103B9000079B06930024A646059B9E4572DA069B6A
:103BA00009934FF0000C0C9B634562DDB0F90220D5
:103BB0000499B0F90430DFED407AA21AA1EB0209B2
:103BC00081694CBFC2F100084FF000088945A8BFC9
:103BD00089460A99FB1AA1EB030A4169002BB4BF7D
:103BE0005D4200258A45A8BF8A46334404992B4488
:103BF00042444B43B0EE677A1592554519DA159A4F
:103C0000D118039A02FB01C1149AC34602EB810149
:103C1000CB450ADAD1ED006A119A37EE267A77EEB3
:103C2000867A0BF1010B1144F2E7049A0135134433
:103C3000E3E7F5EE407AF1EE10FA3BD0C7EE276AE3
:103C4000099B0CF1010CD0ED097A90ED0A7AF4EEA3
:103C5000E67AF1EE10FAD8BFF0EE667AB4EEE77AC3
:103C6000F1EE10FA58BFB0EE677AA3EC017A09932F
:103C700099E7069B109A134406930E9B0EF1010ED2
:103C80001C4489E7029B129A01330293079B134459
:103C900007930D9B1F4476E7019B139A0133019311
:103CA000089B134408930A9B1E4463E7012017B046
:103CB000BDE8F08F0020FAE7000000002DE9F04F8A
:103CC00099B05C6814924A689FED696A9442A8BFF3
:103CD00014460A6903920F941A69039C9442A8BF80
:103CE00014460E948C68C96804919968DB68059342
:103CF000C3680C9303690D93059B09944B439B0088
:103D000053431393229B0893059B0A9153439B00B3
:103D1000129393001193039B4FF0000E9B0010939E
:103D2000CDF800E0009B0F9A934280F29D80089BA3
:103D3000079300270197019B0A9A934280F28A8099
:103D4000079B069300240294029B059A934277DA1C
:103D5000069B0B934FF0000C0E9B9C4566DAB0F966
:103D600002200499B0F904308DED176AA21AA1EB74
:103D7000020681694CBFC2F100084FF000088E4274
:103D8000A8BF0E460999FB1AA1EB03094169002B54
:103D9000B4BF5D4200258945A8BF89467344049994
:103DA0002B4442444B4315924D4524DA159AD118C1
:103DB000039A02FB01C1149AC24602EB8101B2458B
:103DC0009DED177A13DAD1ED007AB4EEE77AF1EED1
:103DD00010FA17AA8B464CBF8B469346109ADBF815
:103DE00000B0CDF85CB00AF1010A1144E7E7049A8B
:103DF00001351344D8E7D0ED097ADDED176A90ED6F
:103E00000A7A0B9BF4EEE76AF1EE10FA58BFF0EE77
:103E1000667AB4EEE77AF1EE10FA58BFB0EE677A40
:103E2000A3EC017A0B930CF1010C95E7029B119A1C
:103E300001330293069B134406930D9B1C4483E7B6
:103E4000019B129A01330193079B134407930C9B28
:103E50001F4470E7009B139A01330093089B13449F
:103E60000893099B9E445DE719B0BDE8F08F00BF41
:103E7000FFFF7FFF2DE9F04F536991F800A0D3E9D0
:103E8000027385B0D1E90169D1E903580293012495
:103E9000009433462A460299DDF838B05046FFF7C1
:103EA000A3F9009403904B46424639465046FFF72B
:103EB0009BF9039B5C1E029B013806FB045509FB22
:103EC0000088ED1AA8EB070725EAE5756B1027EACD
:103ED000E777CBF8003005F001057B10002007F0F4
:103EE0000107CBF80430CBF80850CBF80C7005B0C4
:103EF000BDE8F08F2DE9F743002205460E46D1E9D3
:103F00000348FCF7CDFF814660B9274B6C690093ED
:103F10003A23264A26492846A0470126304603B0C0
:103F2000BDE8F083002231462846FCF7BCFF074677
:103F300020B9204B00936C693C23EAE703460094C8
:103F40004A4641462846FFF795FF06460028E5D138
:103F500099F81C30012B18D198F81430012B03D19B
:103F60000023A361144B04E0032B04D10023A361BD
:103F7000124BE361D2E7022B04D1114BA3614FF046
:103F80007E53F6E76FF40003EBE7092BC6D104F18B
:103F9000140398F8141000933A4604F110032846CD
:103FA000FDF724F8BAE700BFAE60030074610300B8
:103FB0007D410300D1600300FFFF7F7F0000C04010
:103FC000000080BF30B59BB0916812915168139189
:103FD000DDE91E541169D26815925A68ADF8402087
:103FE0001A681491ADF83E2029469A69DB69189247
:103FF00003A81993FFF7D3FB214609A82D68FFF703
:10400000CEFB04B12468009409AB2A4603A90FA88B
:10401000FFF77EFD1BB030BD30B59BB091681291AB
:1040200051681391DDE91E541169D26815925A68DE
:10403000ADF840201A681491ADF83E2029469A69DF
:10404000DB69189203A81993FFF7A9FB214609A879
:104050002D68FFF7A4FB04B12468009409AB2A463D
:1040600003A90FA8FFF72AFE1BB030BD07EE100A08
:10407000F7EE007A37EE277AC7EE877A17EE900AC6
:10408000704714F061BF3821836B184708B514F0EE
:10409000B3F814F00FFF14F0FFFB08BDF8B52DEDD9
:1040A0000E8B0AEE101A0BEE102ADFED537A159ED6
:1040B000DFED52BA9FED52CA7BEE4A8A07EE103A04
:1040C00068EEA78ADDED147A77EEC77A9FED4D7A18
:1040D000C7EE279A0546B71E0024B6EE009A68EE92
:1040E00089CAB0EE6BDA07EE904AF8EEE77AB0EEE6
:1040F0004A8AA7EEA88A013418EE100AA84778EE7B
:104100002C7A0EEE100A17EE900AA84707EE904A96
:10411000F8EEE77AB0EE4A7AA7EEA87A0DEE900AAA
:1041200017EE100AA84769EE8E7A0AEE900A17EE8B
:10413000900AFFF7ABFF07EE900AE9EEAA7A08EEC5
:10414000100A67EE897A17EE900AFFF79FFF69EE73
:10415000AD7A0AEE900A17EE900AFFF797FF07EE86
:10416000900A7AEEE7AA6AEE897A17EE900AFFF7CC
:104170008DFF07EE900A78EE677AF4EEEB7AF1EEB7
:1041800010FA33D4F4EE4C7AF1EE10FAC8BFF0EE28
:104190004C7AFDEEE77AB4F5007F17EE903A27F8F7
:1041A000023FA0D11BEE100AA84707EE900A67EE67
:1041B000A97A17EE900AFFF769FF07EE900AF4EE6E
:1041C000CD7AF1EE10FA14D49FED0D7AF4EE477A21
:1041D000F1EE10FAC8BFF0EE477ABDEC0E8BFDEEA3
:1041E000E77A17EE903AA6F80034F8BDDFED037ACF
:1041F000CFE7DFED027AF0E70000003B000000C7E8
:1042000000FEFF46000080472DE9F04F0B681E6856
:10421000012E89B0054689460FD001249B4B01939E
:10422000CDE902649A4B009345699A4A9A495D2305
:10423000A847204609B0BDE8F08F4B681C68012CE8
:104240000BD0924B0193CDE90246944B0093446905
:10425000904A91495E23A04757E00022FCF720FED8
:10426000804640B98E4B00936E696023894A8D4920
:104270002846B047DDE743691B68002B04DC8A4B06
:1042800000936E696123F1E7002249462846FCF756
:104290000AFE074620B9854B00936E696323E5E764
:1042A000D9F80C6026B9824B00936E696523DDE76F
:1042B00098F81C30072B17D1AB6B40F2024128460F
:1042C000984720B97B4B00936E696B23CEE7B062B1
:1042D000AB6B40F202412846984720B9764B0093D9
:1042E0006E696F23C2E7F0623A7F98F81C30072AA4
:1042F0000DD1092B3DD0072B17D0704B00936C6963
:104300007623644A67492846A047012491E79A42E8
:104310002FD0CDE902326A4B01936A4B00936C694E
:1043200078235C4A5C49284695E7FB684BB100223C
:10433000CDE90232644B0193644B00936C697D2399
:10434000EFE7B36A01934FF07E54614B61496248D5
:1043500000940022FFF7A2FEF36A019300945C4BE5
:104360005E4822460021FFF799FEFB68F361BB68B7
:10437000336298F81C40D9F81090092C39D0072CDA
:1043800040F02881FB684BB10022CDE902324E4B50
:1043900001934E4B00936C692523C2E7DFED507A01
:1043A00097ED027ADFED4F6AB4EEE77AF1EE10FA9C
:1043B000CCBF77EE677A77EEC77AF4EEE67AF1EE65
:1043C00010FA40F3C4804FF07C53002217EE100A1D
:1043D000CDE9042313F010FF434B0193CDE9020113
:1043E000424B00936C6927232A4A41492846A0473B
:1043F0008BE7387F072833D1FB6813F5004F09D0CE
:104400003C4ACDE902323C4B0193304B00936C693E
:104410002B2386E7DFED397A97ED027ADFED386AF4
:10442000B4EEE77AF1EE10FACCBF77EE677A77EE6A
:10443000C77AF4EEE67AF1EE10FA40F3A780314B3A
:10444000002217EE100ACDE9042313F0D5FE2E4BFF
:104450000193CDE90201254B00936C692D23C3E73D
:10446000092857D06E69FCF7C9F907462046FCF7C2
:10447000C5F9264B0193CDE90270114B00932F2310
:10448000044A23492846B0473FE700BF848703001A
:1044900041620300E0610300F44B0300516203003A
:1044A000AE6003007D41030062620300D16003003F
:1044B0007C62030097620300AE6203008A4C030033
:1044C000D1620300DE620300FC7A0300EA620300AB
:1044D000000080BF000020C1834001006D4001004A
:1044E000000000386F1203332463030030630300BD
:1044F000046303000080FFFF456303000000803772
:104500006F1283320000F03E4C630300C44C030082
:1045100058630300FB6813F1800F0AD06FF07F022D
:10452000CDE90232464B0193464B00936C69302330
:10453000F7E697ED027ADFED447AB4EE677AF1EEB2
:1045400010FA23D0414B00936C693123D9E6D8F897
:10455000080013F051FE8246D9F800008B4613F094
:104560004BFE02460B465046594613F09DFE06F19F
:10457000080431A3D3E9002313F0C0FF07AB2246A0
:10458000FCF7CAFE079BF360002452E6D8F8080047
:1045900013F032FE8246D9F800008B4613F02CFE51
:1045A00007AB0293052406F10803019352465B46CC
:1045B0000094FCF701FF0799F1601F222046FCF7E9
:1045C00033FF13F007FE01F10043194614F01CF904
:1045D000B061D9E7012C0FD020466E69FCF70EF9C7
:1045E00004460120FCF70AF9194B0193194B00937B
:1045F000CDE902404E2343E7387F012812D06E698F
:10460000FCF7FCF807462046FCF7F8F8104B01933E
:10461000114B0093CDE902704F23104A10492846F0
:10462000B04706E6D9F8000013F0E6FDC6E9000140
:10463000AAE700BFAFF30080140014001400243F69
:1046400072630300EA6203000000803B77630300AB
:1046500099630300DE620300D1620300E06103009E
:10466000586303003821836B184700002DE9F04F91
:104670005E4BADB01A6804468846D1E90357FCF793
:104680000FFC064658B95A4B6569009338232046FB
:10469000584A5949A84701202DB0BDE8F08F574B23
:1046A00041461A682046FCF7FBFB834620B9544B71
:1046B000009365693A23EAE7524B41461A6820465F
:1046C000FCF7F1FB814620B94F4B009365693C2311
:1046D000DDE773690993194617A851F8042B169260
:1046E000920016F0DFF8D9F814A051461DA851F831
:1046F000042B1C92920016F0D5F81D9A1799099B6D
:1047000020980E908A42A8BF0A469968DB680C93ED
:10471000DBF814300A9294469A680B910F921A991A
:10472000DA680D91CDE91021DAF808201392DAF851
:104730000C20CDF848C0CDE91420327F092A10D1D1
:10474000324A126803EB820320465B684FEA830A11
:104750005146A36B9847A36B686251462046984721
:10476000A8620695337F0593139B0493149B0393D0
:104770000F9B0293109B01930B9B00933A460C9B5B
:1047800041462046FEF7A0FD002885D1337F092B46
:1047900082D1F3685B422293D9F80C302393BB6833
:1047A00025937B6824937B6929933B6928936B68E5
:1047B00027932B682693EB6A2A932B6B2B930AA9DA
:1047C00012AB0EAA22A802F083FC011E09DD236CA5
:1047D00005F134022046984700287FF45DAF0020A1
:1047E0005AE74FF0FF336B63F9E700BF0C6003003B
:1047F000AE600300756403007D4103001460030094
:10480000BF60030010600300D1600300E460030098
:104810002DE9F04F9BB0CDE9171242690B92B0F928
:104820000A200492B0F90C200592B0F90E200692ED
:10483000B0F910200792B0F902200C92B0F90420D0
:104840000D92C269DDF8A4E00E92826A0892C26AF3
:10485000DEF8041009925A68DDF894809142A8BFEE
:10486000114615911A69D8F810109142A8BF114647
:104870000A91DEF81010D8F804209142A8BF114622
:104880009A681492DA681392D8F808200F92D8F830
:104890000C201092DEF808201192DEF80C20169100
:1048A00012924FF0000A159A924580F2E1800D9A1B
:1048B000524202924FF00009119A914580F2D28043
:1048C0000C9A524203924FF0000B129A934580F2D9
:1048D000C2800021169A914280F2B6800022029C8A
:1048E00000920F98009D854245DA0020039D0190BB
:1048F0001098019E864238DA002D30DB13988542ED
:104900002DDA002C2BDB1498844228DA00260A9832
:10491000B04224DD9868DF6800FB0A4007FB0050C6
:104920001F69BC46249F0CFB00700B9F80573844C6
:104930001990009FD8F8080000FB017CD8F80C7093
:10494000019807FB0C00D8F81070BC46269F0CFBA2
:104950000070199F8057013600FB0722D7E70198A6
:104960000130019006980544C2E70098013000909C
:1049700007980444B5E7289810B150F82100024484
:10498000179850F82150189850F8210020EAE07448
:10499000002802FA04F4D4BF40420020A54229D1E5
:1049A00005F100425642564184FB0545002C75F145
:1049B0000002314AA8BF4FF08042002E55D1A61800
:1049C00045EBE277002E77F1000207DA6FF0004442
:1049D000A4194FF000057D4126462F46F20F42EA0A
:1049E00047051F2808DD254B254A264840F2671158
:1049F00014F0D8FB0026D7E7012202FA00F6DEF811
:104A00000820DEF80C402A9F02FB0A9204FB02B247
:104A1000DEF81040013E04FB027406EA050276103F
:104A200006EBD57645FA00F0B242C8BF01300E9AC7
:104A30001044089A9042B8BF1046099A9042A8BF05
:104A400010466054013145E7DDE903210A440BF1CA
:104A5000010B039239E7029A05990A4409F1010909
:104A6000029229E70AF1010A1DE76FF00045B8E755
:104A70001BB0BDE8F08F00BF010000C0B34D0300C4
:104A8000F5650300564D03002DE9F04FADB0CDE9BB
:104A90002A12B0F902201292B0F904203B9D139221
:104AA000826A1B92C26A69681C925A68379E1C69A6
:104AB000D3F80CC09142A8BF114632690292A242BB
:104AC000A8BF22461D911F92296972688A42A8BF19
:104AD0000A461E929A68B3681493F3680793AB680A
:104AE00016921593EB68159A089353435B004B435A
:104AF00028933C9B1093169B0CFB03F35B006343D2
:104B00002993139B0CFB03F5129B6D42ED1A369B08
:104B1000620002FB05331193089B4B435B00269315
:104B2000B0F90C301A93490004FB0CF324911A9C41
:104B3000B0F90A1019915B005C4351432794259109
:104B4000149C07996143029C61432391B0F91010B2
:104B500018914B430799209323464B432293B0F976
:104B60000E30179353432193002303931D9B039A05
:104B70009A4280F20881139B5B420F93119B0E9324
:104B8000109B0D9300230493049B159A934280F28B
:104B9000EE80129B5B420C930E9B0B930D9B0A9332
:104BA00000230593089B059A9A4280F2D080389B97
:104BB000099300231E9A934280F2B98000220F9835
:104BC000099E0B9F06924FF0000A4FF0000B069AC9
:104BD000149CA24230DA0C9CB646B8464FF000094D
:104BE000079A91451EDA002C13DBA44511DD00283D
:104BF0000FDB169A82420CDD00221F998A4208DAE6
:104C00001EF902100D4638F812100132C1FB85ABB7
:104C1000F3E7179A1444219A9044029A09F1010982
:104C20009644DDE7069A01320692209A1744229AAA
:104C30001644189A1044CAE73A9A3AB102EBC302F2
:104C4000D2E900671AEB060A4BEB070B2A9A52F8D7
:104C500023602B9A002E52F8232005DA4B4B4C4A46
:104C6000B3214C4814F09EFA02F11F00262803D904
:104C7000494B474AB421F4E71AF100084BF50049C3
:104C80004FF6FF714FF0FF30494508BF404503D252
:104C9000424B3F4AB621E4E74149C2F10E008E4241
:104CA000A0F120074FF0010ED8BF06F50046C0F175
:104CB00020040EFA07F1D4BF361447F6FF762EFA19
:104CC00004F40F4627430EFA00F14FEAE67906FB9B
:104CD0000BF001970AFB0900A6FB0A670091074445
:104CE000DDE90001C2F10F02801979410646C2F1E7
:104CF0002004B2F1200001FA04F426FA02F242EA9A
:104D0000040258BF41FA00F01B9958BF02438A427F
:104D1000B8BF0A461C998A42A8BF0A460A9921F8D8
:104D20001320099A23990A440133099242E7059B0B
:104D3000249A013305930A9B13440A93259A0B9BEB
:104D400013440B93199A0C9B13440C932AE7049B6E
:104D5000269A013304930D9B13440D93279A0E9BBF
:104D600013440E931A9A0F9B13440F930CE7039B63
:104D7000289A01330393109B13441093299A119B93
:104D800013441193F2E62DB0BDE8F08FD564030013
:104D9000B0650300EF640300496503006365030029
:104DA000FFFFFE7FA74A0B6812682DE9F04F03EB67
:104DB00082030C46F1B05968426D05469047A24AFD
:104DC0002368126803EB820306466A6D5968284619
:104DD000904723681A68032A814625D19B4A1268A6
:104DE00003EB820328466A6D596890478046984ACB
:104DF0006368126803EB8203284659686A6D90471E
:104E00000746307A3B7A984211D0CDE90203914BA4
:104E10000193914B00936C69904A91494FF48273CE
:104E20002846A0470120E0E14FF00008DFE799F8AD
:104E300008309842D4E9034109D0072802D1092B50
:104E400000F005826B69874928469847EAE70728FA
:104E500000F0FD81092800F05281012840F02682EF
:104E6000224662A8FEF7D4F9314640A8FEF797FC27
:104E7000494646A83468FEF792FCD9F800302293E0
:104E800041464CA8FEF78BFCD8F800301593394604
:104E900052A8FEF784FC002158A83D68FEF77FFC6D
:104EA000BDF98A311693BDF98C31419A1793539B02
:104EB0005698439EDDED6E6A9DED6F6ADFED6A5A8E
:104EC0009A42A8BF1A462392449B4A9A9342194693
:104ED000A8BF1146249147998142A8BF0146259158
:104EE00042991891489919914999089154991A91A0
:104EF0001A9F559909917943890041432E91189938
:104F0000169FAB46179D71438900754359436D4207
:104F10002F91ED1B990001FB054A099C4443A40015
:104F200080002C947343BDF994412A90BDF99201FD
:104F300020949B005C431F9048432D942B90199C18
:104F400008986043800050432990BDF9980114905F
:104F500043432193089B53439B002693BDF996310D
:104F60001D934B4328939300279300230A930A9B96
:104F7000239A934280F23881179BCDF844B05B426C
:104F8000CDE912A300230B931A9B0B9A934240F393
:104F9000AE80169B5B421093129B0F93119B0E9356
:104FA00000230C93099B0C9A934240F390800E9B34
:104FB000229C1E930023259A934278DA0F99139A24
:104FC0009FED297A0D91254600271999B9424DDDAB
:104FD000DDF834E01099AC464FF0000808984045E1
:104FE00025DD00291ADB8E4218DD002A16DB189811
:104FF000904213DDCDE91BCE4FF000092498814586
:105000000CDA1C98B0EC015A1C901B98F0EC017A59
:1050100009F101091B90A5EE277AEFE71D980144DD
:1050200028988644279808F101088444D6E70D990A
:10503000219801440D9126990D44149901370A4491
:10504000C3E700BF0C6003001460030008600300A6
:1050500010600300D1620300DE6203007564030088
:10506000F44B0300C863030000000000159ADAB196
:1050700002EB8302D2ED007A1E9A77EE877A013333
:10508000F4EE676AF1EE10FAC8BFF0EE667AB4EE9D
:10509000676AF1EE10FA48BFF0EE467AE2EC017A68
:1050A0001E92299A144486E7F0EE657AE4E70C9B99
:1050B0002A9A01330C930E9B13440E932B9A0F9B49
:1050C00013440F931F9A109B134410936AE70B9B92
:1050D0002C9A01330B93119B134411932D9A129B1D
:1050E00013441293209A139B134413934CE70A9B87
:1050F00001330A932E9B9B442F9B9A4437E74B69BD
:10510000D1F810A05F93012BCDF878A170D1BAF13E
:10511000010F6DD123695B425893A36959938B6842
:105120005B934B685A9363685D9323685C93E36A6F
:105130006093236B6193636A30934946A36A31930A
:1051400046A8FEF72CFB31464CA8FEF728FB394653
:1051500052A8FEF724FB414662A8FEF720FB4D99BA
:10516000539B4A9A47989942A8BF1946509B34913D
:105170009A42A8BF1A46569B40918342A8BF034655
:105180004E9835904F98616B3893CDE93602489828
:10519000399049984393CDE93A02CDE93EA3549A18
:1051A00041920023559A42929942CDE93CAACDE919
:1051B000323303DB6B6C2846984732903B6806938A
:1051C00040AB0593D8F8003004933CAB0393D9F877
:1051D0000030029338AB01933368009330AA34ABAC
:1051E00058A932A801F018FF002071B0BDE8F08F77
:1051F000224662A8FEF740F8D4E909AB314640A840
:1052000046ACFEF7CCFA4CAD3368089349462046CD
:10521000FEF7C5FA52AE41462846D9F80090FEF78F
:10522000BEFA39463046D8F80080FEF7B8FA3A6838
:10523000089B0093CDE90562CDE90358CDE901490A
:1052400040AB5A46514662A8FFF7E2FACCE7224645
:1052500062A8FEF711F8D4E909AB314646A84CAC78
:10526000FEF79DFA52AD3368089349462046FEF793
:1052700096FA58AE41462846D9F80090FEF78FFAC4
:1052800039463046D8F80080FEF789FA3A68089B1C
:105290000093CDE90562CDE90358CDE9014946AB5C
:1052A0005A46514662A8FFF7EFFB9DE76C69FBF792
:1052B000A5FA337A024902462846A047B2E500BF64
:1052C0005964030070B5054D064604460FCD0FC462
:1052D00095E80F0084E80F00304670BDA863030016
:1052E0003821836B184700002DE9F04FA1B0CDE9BC
:1052F0001B12B0F90A200992B0F90C200A92B0F9F9
:105300000E200B92B0F910200C92B0F902200D92F1
:10531000B0F904200E92B0F9122002924269119263
:10532000C2691292826A0F92C26A10922F9A5168D1
:105330005A689142A8BF11469A681392DA681A9186
:1053400014921A6915922B9A926816922B9AD26827
:1053500017922F9A926818922F9AD2681992029AED
:10536000920005924FF0000E1A9A964580F2F38053
:105370000E9A524207924FF0000B189A934580F212
:10538000E4800D9A524204924FF0000A199A924515
:1053900080F2D4801B9A06924FF000081C9ADDF828
:1053A000B8900392CDF80480019A15998A4280F250
:1053B000BE802A9A0198024400211F92029A9142CB
:1053C00080F2A78001EB080208922C9D089E0798A6
:1053D0000022354417461E95169DAF4230DA049DD3
:1053E0004FF0000C179EB44526DA002D1FDB149EEB
:1053F000B5421CDA00281ADB139E864217DD9E6830
:10540000DC6806FB0E0604FB06561C6966431F9CFF
:10541000A657119C34191D942B9CE668246906FB41
:1054200007C666431E9CA6571D9C06FB04220B9CC8
:105430000CF1010C2544D5E70C9C01372044CBE747
:105440002E9810B159F821000244069850F82170A6
:10545000039850F8210020EAE076002802FA06F6C8
:10546000D4BF40420020B74229D107F10042554243
:10547000554186FB0767002E77F10002374AA8BF27
:105480004FF08042002D63D1B41847EBE275002C39
:1054900075F1000207DA6FF0004636194FF0000789
:1054A0006F4134463D46E60F46EA45061F2808DDB3
:1054B0002B4B2C4A2C4840F2671113F073FE002549
:1054C000D7E7012202FA00F72F9A2F9C9268E5682D
:1054D00002FB0EB205FB02A22569309C013F05FBD1
:1054E000024507EA06027F1007EBD67746FA00F07E
:1054F000BA42C8BF0130129A10440F9A9042B8BF06
:105500001046109A9042A8BF1046089A0131A8543C
:1055100054E7019A01320192DDE905120A4406922C
:10552000039A0A440392029A894490443CE7049AFD
:1055300009990A440AF1010A049227E7079A0A998D
:105540000A440BF1010B079217E70EF1010E0BE76E
:105550006FF00046AAE721B0BDE8F08F010000C05F
:10556000B34D0300A2670300564D03002DE9F04F31
:105570004A68446DD1E903638846AD49096802EB86
:105580008102F5B0516808930546A047A949D8F8AB
:10559000002009686F6D02EB8102044651682846BD
:1055A000B847A549D8F80020096802EB81010746F1
:1055B0006A6D496828469047D8F80020089B116812
:1055C0000329814619D19D496B6D096802EB81025F
:1055D000284651689847089B8046387A01280FD0A2
:1055E000092800F05B816C69FBF708F93B7A944964
:1055F00002462846A0470120CAE14FF00008ECE728
:105600001946324664A8FDF735FF394647A8FEF72C
:10561000C6F849464DA83D68FEF7C1F8D9F80030F4
:105620002393414653A8FEF7BAF8D8F800301993EF
:10563000214659A8FEF7B3F8002C00F0C08023687B
:105640001893BDF9A231489A08935A9B4A9FDDF8F6
:105650002CC1BDF99211DDED706A9DED716ADFED2F
:10566000795A9A42A8BF1A46499B1A934F9B249392
:10567000509B1B935B9B1C935C9B09931A9B2692EC
:105680007B43BDF994219B000CFB03F32D93534204
:105690007A432E9352424B422893521A4FEA8C037C
:1056A00003FB025216925D9A17921C99099A4A437B
:1056B00017994A432F92BDF99C212192219909986B
:1056C0000CFB07F2920051432B91179941432C9107
:1056D000BDF99A11209159432A91BDF9A0111D914C
:1056E0004A4322921B99519A514389002991BDF94D
:1056F0009E111E914B4325930026930027930A96F3
:105700000A9B269A934280F242812E9BCDE9146334
:10571000169B139300230B931C9B0B9A934240F30D
:10572000B380289B1293149B1193139B1093002317
:105730000C93099B0C9A934240F39680199B0E930D
:10574000109B0F9300230D930D9A94457CDD119AC5
:10575000D018189A02EB80021F92002208999142F9
:1057600058DD239CDDF83CE09FED367AD11804EB40
:105770008101159C4FF00008249D45452ADD129DAE
:105780008946F2464FF0000B1B98584519DD002D55
:105790000CDBAF420ADD002C08DB1A98A042C2BF26
:1057A0009AED005AD9ED007AA5EE277A1E980544A5
:1057B0002598824427980BF1010B8144E4E7189463
:1057C0003FE722988644299801441D9808F1010872
:1057D0000444D1E71999D1B10E9901EB8201D1EDC1
:1057E000007A1F9977EE877A0132F4EE676AF1EE5C
:1057F00010FAC8BFF0EE667AB4EE676AF1EE10FAFE
:1058000048BFF0EE467AE1EC017A1F91A6E7F0EE90
:10581000657AE6E70D9A089901320D92089A1344C9
:105820000E9A02EB81020E920F9A04320F928BE7CE
:10583000F0600300EC600300F4600300E860030024
:1058400059640300000000000C9B2A9A01330C935A
:10585000109B13441093179A119B13441193209A91
:10586000129B1344129364E70B9B2B9A01330B9307
:10587000139B134413932C9A149B13441493219A4F
:10588000159B1344159347E70A9B2D9A01330A93FE
:10589000169B134416932F9B1E4431E799695A694E
:1058A0006191012960920DF59A7A0DF5A67B72D16E
:1058B000012A70D13169089249425991B1695A91CE
:1058C00099685D9159685C9171685F913168DB6896
:1058D0005E916FF07F0162915B937F21736A6391A8
:1058E00031934946B36A329347A8FDF758FF3946CA
:1058F0005046FDF754FF21465846FDF750FF4146FC
:1059000064A8FDF74CFF4E98549B4F9A57993692D6
:105910009842A8BF1846509A4B9B3792519A38929A
:105920008B42489A3992A8BF0B46499A4A993A92B3
:10593000089A3F92CDE93B13716B4093CDE93D222C
:105940004493559A42920023569A35909942419039
:105950004392CDE9333303DB6B6C28469847339091
:105960003B68D9F80020D8F8001004B124680694E8
:1059700041A8CDE904103DA9CDE9022139AACDE91C
:10598000003259A935AB31AA33A802F09EFC0020A1
:1059900075B0BDE8F08F3246194664A8FDF7A0FD4A
:1059A000394641A8D6E90956FDF7F9FE494647A808
:1059B0003F68FDF7F4FE41465046D9F80090FDF7E8
:1059C000EEFE21465846D8F80080FDF7E8FE04B107
:1059D0002468CDF8089047ABCDE90073CDE905B454
:1059E000CDE903A841AB3246294664A8FFF77CFC09
:1059F000CDE700BF2DE9F04FD1E90363BBB004460A
:105A00000F937A4B1A688946FBF74AFA804658B9D1
:105A1000774B656900933823764A77492046A84733
:105A200001203BB0BDE8F08F744B49461A68204610
:105A3000FBF736FA074620B9714B009365693B23A3
:105A4000EAE7704B49461A682046FBF72CFA824673
:105A500020B96D4B009365693D23DDE7D8F814301C
:105A600098F81CB0DA689B680A937B690992DA6837
:105A70000B929A680C924269BBF1090FD168926847
:105A80000D910E9254D13D78012D0DD05F4B0193B5
:105A900001265F4B0093CDE9025665694923554ABB
:105AA0005C492046A847BBE77A6842B95A4B666909
:105AB00000934F234F4A50492046B047B0E7116842
:105AC00021B9564B009366695023F3E7506820B91B
:105AD000534B009366695123ECE70A68012A0BD007
