:020000021000EC
:1000000000000420714C0200A94C02003D0B0200CC
:10001000AD4C0200490B02004F0B02000000000033
:100020000000000000000000000000009D2302000E
:10003000B54C0200000000003524020045240200F7
:100040001189020021FF0100BB4C0200BB4C0200E1
:10005000BB4C0200BB4C0200BB4C0200BB4C02007C
:10006000BB4C0200BB4C0200BB4C0200BB4C02006C
:10007000BB4C0200A58A0200BB4C020039FF010004
:10008000BB4C0200BB4C0200BB4C0200BB4C02004C
:10009000BB4C0200BB4C0200BB4C0200BB4C02003C
:1000A000BB4C0200BB4C0200BB4C0200BB4C02002C
:1000B000BB4C0200BB4C020000000000000000002E
:1000C000BB4C0200BB4C0200BB4C0200BB4C02000C
:1000D000BB4C0200BB4C0200BB4C0200BB4C0200FC
:1000E000BB4C0200BB4C0200BB4C020000000000F5
:1000F00000000000BB4C020000000000BB4C0200EE
:1001000010B5054C237833B9044B13B10448AFF351
:1001100000800123237010BD0810002000000000A3
:100120003C9F030008B5034B1BB103490348AFF3E1
:10013000008008BD000000000C1000203C9F030060
:10014000154B002B08BF134B9D46A3F5803A0021A9
:100150008B460F461348144A121A1CF049F90F4BEC
:10016000002B00D098470E4B002B00D09847002062
:10017000002104000D000D48002802D00C4811F0A9
:10018000C9FA1BF039FC2000290011F07FFF11F0A3
:10019000BEFA00BF000008000000042000000000BC
:1001A000E91F02000810002020B3012015170200EB
:1001B0000000000010B5044613480AF0FEFF28B9FD
:1001C0001249204600F030FB012010BD0E480AF015
:1001D000CBFF0D480AF040FE07EE100AF3EE097A55
:1001E000C7EE277A17EE900A1AF00AFC07EE900A7B
:1001F000074B0849FDEEE77A2046C3ED007A00F090
:1002000013FB0020E1E700BF900B0120200A030050
:1002100028100020390A03002DE9FF47DFF8F48099
:10022000364FDFF8F4A081460D46164600244046BE
:100230000AF044FE50B103AB02AA01A940460AF0FD
:1002400093FE28BB2E49484600F0EEFA002C50D011
:100250002C4B1A782AB12C4A1268C72AC4BF002234
:100260001A701B78002B44D1274B284819688B1B28
:10027000711ACA1896423DDD002B1A46B8BF03F525
:10028000167200EB82020133126845F8042BF0E786
:100290003B68DAF80020934202D001333B60C6E7A6
:1002A00019499FED1B7ADDED037A0A68174B67EE5B
:1002B000C77A03EB8200C0ED007ADDED027A67EECB
:1002C000877A03EB8203C0ED017ADDED017A67EEF8
:1002D000877AD01CB0F5167FC3ED027A4FF0010388
:1002E0003B60A8BF002308604FF00104A8BF0B606B
:1002F0009DE70024204604B0BDE8F08708020020F6
:100300000C0A030004020020241000202C100020FE
:1003100000007A44900B01202810002070B5114E87
:10032000337805460C462BB901210D200CF09EFDBB
:10033000012333702CB90C492846BDE8704000F009
:1003400073BA012C05D121460D200CF0CBFD0749D5
:10035000F2E7022C05D100210D200CF0C3FD044969
:10036000EAE770BD8C190020470A0300CA0A03009F
:10037000430B030030B52F4C2F4B22680568DFED8F
:100380002F6A03EB820101320D6045684D6185687B
:100390008D62C068C863042A4FF00001C8BF0A46D6
:1003A00022604FF0FF300A46F0EE665AB1EE046A62
:1003B000D3ED007A93ED017A77EEA57A411C77EEC2
:1003C000877A93ED027A77EE877A93ED037A77EE68
:1003D000877A93ED047A77EE877A87EE867A24D04F
:1003E000B4EEE67AF1EE10FA1FDCB0EE667A013276
:1003F000042A03F1140315D1114B1A68002AC4BF53
:1004000002F1FF321A6003280BD0DFED0E7AB4EE52
:10041000E77AF1EE10FA0AD41A68002A07DC1922EA
:100420001A6030BDF0EE476AC2E71046DFE70320EE
:10043000F7E700BFE019002090190020000000003D
:10044000E4190020CDCC4C3F70470022C0E90022C7
:100450008260704703685B69184703689B691847A7
:10046000202930B50ED0D0F8A44000239C4209D0FA
:100470005A018518AD698D4202D10432104430BD55
:100480000133F3E70020FAE7704730B5D0F8C440F5
:1004900000F1A80200239C4209D012F8015B8D42B2
:1004A00003D12C3350F8230030BD0133F3E7002093
:1004B000FAE72DE9F041D0F8A470044688460546D5
:1004C0000026B7420FD0AB69202B09D14146E8691D
:1004D0001CF0FAF920B904EB46100430BDE8F081B5
:1004E00001362035EDE70020F8E710B5CC210446B1
:1004F00011F040FB204610BD10B50421044611F058
:1005000039FB204610BD000038B5124B124C1B6859
:10051000124A596812682068FFF77EFEC8B1104D74
:10052000286802F06BF9014638B10E4B20681A6852
:100530000D49BDE8384000F077B9286802F016F898
:100540004068FFF717FF01462068BDE83840FFF715
:10055000E5BE38BDF8190020000A0120FC19002072
:10056000F419002024100020970C030020292DE905
:10057000F843054688461446994609D1D0F8C80084
:1005800010B90120BDE8F8831F4900F04DF9F8E7E4
:1005900003685B699847074640B1D5F8C800002852
:1005A000EFD04246194900F03FF9EAE7D5F8A4C078
:1005B000BCF1040F09D9D5F8C8000028E1D0052303
:1005C0004246134900F030F9DBE70FCC05EB4C1E37
:1005D0000EF104060FC694E80F0086E80F000CF138
:1005E0000103CEF81880C5F8A430D5F8C430EA1855
:1005F000384682F8A88003F12C02013345F8229096
:10060000C5F8C430BEE700BFC00B0300050C0300F3
:10061000540C03002DE9F041614C2378BFF35B8F4C
:10062000DB078CB00BD4204611F082F838B120469D
:1006300011F0A0F85B4A5C495C4811F066F85C4C2C
:100640005A4B23605B4B5C4F1A68D118D358396002
:10065000CB1A1A88042A0CD99A8812B18A58032A0C
:1006600009D003235549514800F0DEF80CB0BDE82D
:10067000F0810022F5E7DFF88C81514E98F80050A8
:10068000BFF35B8F15F0010511D1404611F050F812
:1006900068B14C4B33604046C6F8A450C6E93155AA
:1006A00011F068F83F4A4849304611F02EF804A886
:1006B00004F01AF8454B4248454E04AA0321FFF7BF
:1006C00055FF04A804F0E4FC424B3D4804AA042171
:1006D000FFF74CFF04A805F0E9FA3F4B384804AA9D
:1006E0000921FFF743FF04A805F0EEFE3B4B344819
:1006F00004AA1121FFF73AFF04A806F055F9384B78
:100700002F4804AA1921FFF731FF3378BFF35B8F1D
:1007100013F0010517D1304611F00AF898B102958F
:10072000236801934FF470430093254A39682D4B99
:100730002D4801F06DFE304611F01CF8194A2B4986
:10074000294810F0E2FF2A4D2748286001F044FFB5
:100750000021286801F0F2FE264B186083681A68B1
:10076000042A0BD15A68012A08D19A68802A05D137
:10077000DB68032B02D10378012B04D01E492068CB
:1007800000F052F872E783691C4A20689B081360E6
:10079000FFF710FD00283FF469AF1949EFE700BFEC
:1007A000F019002000020020490401000C02002082
:1007B000000A0120300D0300040A0120B30C0300DD
:1007C000080A0120A00B0300890401006909010047
:1007D000EC1900203D0A0100190B0100ED0B01008E
:1007E000D10C0100001A0020D40A01209D2501002F
:1007F000F4190020F8190020FA0C0300FC1900205D
:100800001F0D0300E8190020013080007047000030
:100810000F289ABF024B53F820000248704700BFD0
:10082000D0590300105A03000EB403B503AA03689D
:1008300052F8041B01929B68984702B05DF804EBE4
:1008400003B070470CB407B504AA036852F8041B40
:1008500001929B68984703B05DF804EB02B07047C3
:10086000006803685B6818470138C0B204289ABF63
:10087000014B185C00207047875A030020B1012803
:100880000CBF022000207047012070470368C01A87
:1008900003888B428CBF405A0020704710B50C2152
:1008A0000446FFF7F3FF231808B12058184410BD81
:1008B00008B5034610460E2B29D8DFE803F00C08D4
:1008C0001214181C1E1020160E221A2426000A23A9
:1008D0000B70002008BD0123FAE70B23F8E707237C
:1008E000F6E70223F4E70323F2E70923F0E7042302
:1008F000EEE70D23ECE70523EAE70623E8E7082304
:10090000E6E70C23E4E70E23E2E70F23E0E700220B
:100910000A701A460249FFF787FF0120DAE700BF95
:100920001F5B030038B505461446FFF7AFFF00B163
:100930002C5C204638BD08B500220A21FFF7F2FFE3
:1009400008BD38B505461446FFF7A0FF00B12C5886
:10095000204638BD38B505461446FFF797FF00B16D
:100960002C56204638BD00002DE9FF4198461368FB
:10097000154607460E461B6804221821284698474C
:10098000044618B1182200211BF032FDCDE90254B3
:10099000A4B9274B019340F233430093254A264BD9
:1009A00031463046FFF74EFF0124039911B102A8EA
:1009B000FFF756FF204604B0BDE8F0813846FFF748
:1009C000BAFF012806462DD13846FFF767FF0546D6
:1009D00040B300220421FFF7BDFFC0B2FFF74EFF76
:1009E0000022207006212846FFF7ABFF002260603E
:1009F00008212846FFF7A5FF00220A21A06028460B
:100A0000FFF7A8FFC0B2FFF72FFF324620730C217B
:100A10002846FFF796FF324620610E212846FFF751
:100A200090FF60610023C8F8004003931C46BCE7B8
:100A3000055B0300EE5A03008C5A03002DE9FF41C9
:100A40001F4613681546064688461B6804221C216B
:100A500028469847044618B11C2200211BF0C8FC08
:100A6000CDE90254A4B9294B019340F27643009397
:100A7000274A284B41464046FFF7E4FE01240399EC
:100A800011B102A8FFF7ECFE204604B0BDE8F081EA
:100A90003046FFF750FF022833D13046FFF7FEFE05
:100AA000054670B300220421FFF754FFC0B2FFF7E0
:100AB000E5FE0022207006212846FFF742FF0022B3
:100AC000606008212846FFF73CFF0022A0600A2151
:100AD0002846FFF736FF00220C21E0602846FFF78A
:100AE00039FFC0B2FFF7C0FE012220740E21284654
:100AF000FFF727FF0122606110212846FFF721FF41
:100B0000A06100233C6003931C46B8E7055B03002B
:100B1000EE5A03008C5A03002DE9F04398461368FF
:100B2000154685B081460E461B68012204212846E1
:100B30009847044608B100230360CDE90254A4B9E4
:100B4000264B019340F2F1430093254A254B314651
:100B50003046FFF777FE0124039911B102A8FFF791
:100B60007FFE204605B0BDE8F0834846FFF7E3FE70
:100B7000082807462CD14846FFF790FE054638B3B3
:100B800000220421FFF7E6FEC0B2FFF76DFE00224F
:100B9000207039462846FFF7C5FE003018BF0120F7
:100BA000A07000220A212846FFF7BCFE003018BFC3
:100BB0000120E070002206212846FFF7CBFE30B16D
:100BC000012804D008493046FFF72EFEC3E76070C5
:100BD0000023C8F8004003931C46BDE7055B0300F3
:100BE000EE5A03008C5A0300435B03002DE9FF41DA
:100BF0001F4613681546064688461B6804222821AE
:100C000028469847044618B1282200211BF0F0FB23
:100C1000CDE90254A4B9264B019340F2136300932B
:100C2000244A254B41464046FFF70CFE0124039918
:100C300011B102A8FFF714FE204604B0BDE8F08110
:100C40003046FFF778FE05282DD13046FFF726FE07
:100C5000054640B300220421FFF77CFEC0B2FFF737
:100C60000DFE0022207006212846FFF76AFE0022B2
:100C7000606008212846FFF764FE0022A0600A2178
:100C80002846FFF75EFE0022E0600C212846FFF7B1
:100C900058FE002220610E212846FFF75BFEC0B2FD
:100CA000FFF7E2FD207500233C6003931C46BEE77E
:100CB000055B0300EE5A03008C5A030038B5044666
:100CC0001546FFF7E3FD08B104442568284638BD02
:100CD0002DE9FF411F461368154604220646884643
:100CE0001B68114628469847044608B10023036054
:100CF000CDE90254A4B9144B019340F2FE63009372
:100D0000124A134B41464046FFF79CFD01240399CC
:100D100011B102A8FFF7A4FD204604B0BDE8F081A0
:100D20003046FFF708FE092808D13046FFF7B6FD28
:100D300020B100220421FFF7C1FF206000233C60A6
:100D400003931C46E3E700BF055B0300EE5A030074
:100D50008C5A03002DE9F843984605460023C8F84D
:100D6000003091460F460AF05DF82B68EB1A0646F4
:100D70001A88082A0CD9198951B16C58872E09D9BB
:100D800032461C494846FFF74FFD0120BDE8F88375
:100D90000124F3E7202E11D03B6822461B68314620
:100DA00038469847C8F8000008BB134A134952F860
:100DB000262023464846FFF737FDE6E7062A05D9F1
:100DC000DB88E91813B1EB58C91804D10C4948461F
:100DD000FFF72AFDD9E73B6822465B6804313846B5
:100DE0009847C8F80000B0FA80F04009CEE700202C
:100DF000CCE700BF945D0300705B0300E85D030077
:100E00008A5E0300836810B41BB9036D5DF8044B60
:100E1000184703EB81105DF8044B7047D0ED007A62
:100E2000C0EE277A10B5044617EE900A18F092FE2D
:100E300019F0ECFC19F0DEF907EE900AFDEEE77A06
:100E4000636817EE900A184410BD002804DB88423E
:100E500002DA52F8200070474FF0FF3070470B68FD
:100E600010B51968044610461A1DFFF7EEFF011E63
:100E700004DB2046BDE81040FFF7C4BF002010BDD2
:100E80004B6810B51968044610461A1DFFF7DDFFC0
:100E9000011E04DB2046BDE81040FFF7B3BF002071
:100EA00010BDFFF7DCBF0000D1ED037A92ED037AAD
:100EB00067EE877A73B5F5EEC07AF1EE10FA1E464A
:100EC0000ADA0F4B009344690E4A0F4940F243136C
:100ED000A047012002B070BD17EE900A18F03AFE4C
:100EE0000446F0680D4618F035FE0B4602462946CA
:100EF000204618F0B1FF069BC3E900010020E9E796
:100F000053640300FD630300EE5A03000000000079
:100F10002DE9F74F0446C86890469A460D4618F0EA
:100F200019FE0646D8F80C000F4618F013FE0246CC
:100F30000B463046394618F065FEDDE90C9B064647
:100F40000F46BAF1000F1CD0DAF80C0018F002FEC0
:100F500002460B463046394618F09CFC0646D9F846
:100F60000C0021F0004718F0F5FD02460B46304614
:100F7000394618F071FF13A3D3E9002319F0BEF826
:100F800050B14B46424629462046CDF830B003B01A
:100F9000BDE8F04FFFF788BF074B00932046656917
:100FA000064A07494FF49B73A847012003B0BDE8E8
:100FB000F08F00BFAFF300806C640300FD6303009B
:100FC000EE5A03007B14AE47E17A943FF0B51F461A
:100FD000137885B0032B0A9E0ED0092B1FD0072B48
:100FE00021D0264B00934469254A26494FF4BB7310
:100FF000A047012005B0F0BDFF2400251369D26889
:1010000002920129039312D19FED1F0A02A8FFF754
:1010100005FF8542ACBF3D60386034601BE07F2433
:101020006FF07F05EAE747F6FF74184DE6E70329FE
:1010300013D19FED150A02A8FFF7F0FEB1EE080AE2
:101040008542ACBF3D60386002A8FFF7E7FE8442EE
:10105000D4BF346030600020CCE702290BD1BFEE52
:10106000000A02A8FFF7DAFEB7EE000A8542ACBF1D
:101070003D603860E8E73D60CFE700BF8E64030065
:10108000FD630300EE5A0300000000000080FFFF34
:101090002DE9F04F91F830908FB0B9F1010F04466F
:1010A0000D4617469B46DDF880800FD001266D4B1C
:1010B0000193CDE902966C4B00934469D3236B4AAC
:1010C0006B49A04701200FB0BDE8F08F92F8306067
:1010D000012E08D0634B0193CDE90269654B009363
:1010E0004469D523EBE7526B3AB9634B00934469EB
:1010F000DF235E4A6149A047E4E7D2F80090B9F1E6
:10110000000F04D15E4B00934469E023F1E7D9F866
:1011100000A0BAF1010F35DD0B78092B06D0072BA3
:1011200004D0584B00934469E523E2E73B78092B50
:101130000DD00922CDE90232534B0193534B00935A
:101140006569E623494A4A492046A847BAE7D04597
:1011500008D04F4B0193CDE902A84E4B009365692F
:10116000E723EFE7BB68926803EB82035B6898456F
:1011700008D0CDE90283484B0193454B0093656944
:10118000EA23DFE7D5ED037A189BCDED057AD3EDA1
:10119000037A09F10403CDED067A07930026B045E2
:1011A0002EDDBAF1010FC9BF079BD9F8040003EB8C
:1011B0008603186818F0CEFCCDE90801059818F0F0
:1011C000C9FC02460B46DDE9080118F01BFDCDE91C
:1011D0000801069818F0BEFC02460B46DDE908013E
:1011E00018F03AFE0CAB0BAA00F058F81E9A0B9BB5
:1011F00042F826301F9A0C9B42F826300136CEE783
:101200002B78032B1AD10EAB0020002163E90201D9
:101210000193189B00933A465B4629462046FFF708
:1012200077FE00287FF44FAF0BAB1A9ADDE90C0173
:1012300000F034F80B9B1B9A5B4213602B78092B50
:1012400003D003F0FB03032B09D1199B189A1978DB
:101250001D9B009320461C9BFFF7B8FE33E7002040
:1012600031E700BFAE640300C8640300FD63030000
:1012700094640300E1640300FB640300EE5A03007E
:101280000F6503002A6503006465030070650300B1
:101290007D6503008A650300AB650300F8B515465C
:1012A0001C460022002306460F4618F013FF18B113
:1012B00000232B602360F8BD22463046394619F0E2
:1012C00073FA0022104B18F09DFC19F09FFA19F0E8
:1012D00049F84FF000420023824273EB010601DA25
:1012E00019F004FC994201BF904223680133236046
:1012F000236808BF4FF080401F33BEBF002300208B
:1013000023602860D7E700BF0000E041F8B515462C
:101310001C460022084B06460F4618F003FF08B98A
:1013200019F0E4FB23462A4630463946FFF7B6FF5C
:101330002368002BF4DBF8BD0000F03F0000000044
:101340002DE9F14F06460A989946C0F11F00012386
:1013500003FA00F00F46904618F0EAFB42460446B6
:101360000D464B463046394618F04CFC02460B46BB
:101370002046294618F046FC0BA3D3E90023DDE9FB
:101380000BAB04460D4618F0CDFE10B106A5D5E90D
:1013900000455B4652462046294601B0BDE8F04F65
:1013A000FFF7B4BFAFF300800000C0FFFFFFDF41D5
:1013B0002DE9F8430124814604FA00F001388846FB
:1013C000154618F0B5FB0646A5EB09000F46C0F11F
:1013D0002003A0F1200124FA03F304FA01F104FA36
:1013E00000F0194318F0E0FB02460B463046394640
:1013F00018F008FCC8F120030F46A8F1200124FAD8
:1014000003F304FA01F10646194304FA08F018F050
:10141000CBFB02460B463046394618F01DFD19F04D
:1014200043F918F09FFEBDE8F8834B1E1844B0FB4B
:10143000F1F048437047B0FBF1F048437047013882
:101440000844B0FBF1F04843704701380C2814D829
:10145000DFE800F00B0B0F0D130F070D0F070D1139
:101460000D0002230B60002070470423FAE70823D5
:10147000F8E70123F6E71023F4E7012070472DE990
:10148000F3410D460168411A16460A88042A2ED9EE
:101490008C8800EB040C8CB104591CEB04070DD0B4
:1014A0005CF804804FF0000C0124C44507D057F8C5
:1014B00004EF0CF1010C0EFB04F4F6E70124062AFC
:1014C00016D9C988B1B140561A460DF10701C0B20C
:1014D000FFF7EEF940B931469DF80700FFF7B5FF79
:1014E00010B933685C432C6002B0BDE8F081012480
:1014F0000020E9E70846E7E7436873B50C4653B1B7
:1015000053F8046B002101228E4205DD53F8045B81
:1015100001316A43F8E7012201A9007AFFF795FF3C
:1015200010B9019B5A43226002B070BD4068036845
:10153000DB68184770477047406803681022DB6813
:101540001847406803685B691847406803680422CD
:10155000DB6840211847704710B51821044610F089
:1015600009FB204610BD10B50821044610F002FB0F
:10157000204610BD036910B50C46114633B14068D2
:1015800003680422DB68890098472060002010BDB2
:1015900010B508210446FFF779F9231808B120583F
:1015A000184410BD10B50A210446FFF76FF923183F
:1015B00008B12058184410BD10B506210446FFF7A5
:1015C00065F900B12056C0B210BD10B50E21044619
:1015D000FFF75CF900B1205C003018BF012010BD9E
:1015E00010B504210446FFF751F9231808B120581B
:1015F000184410BD38B503680D46DB680422182175
:101600000446984738B1044B8560C0E90034002394
:10161000C0E90433037338BDD46B030070B50E46C4
:10162000102115460446FFF700FFA2190146121AC1
:10163000284601F02FFB2946BDE87040FFF7DABFCE
:1016400038B50C46054608212046FFF71FF921183A
:1016500070B122588B188A58012A05D00549A8680C
:10166000FFF7E2F8002038BD181D5B681844FAE760
:101670000368FFDE326603002DE9F3411F46037B5A
:101680000446884616463BB913498068FFF7CCF8F4
:10169000012002B0BDE8F081FFF7D2FF2368226984
:1016A0005B6B05463946204698470028F1D13A68D9
:1016B000236800921F6B2A46334641462046B847AE
:1016C0000028E6D1236832465B6A294620469847BF
:1016D0000028DED12073DCE7B06603002DE9F74F68
:1016E00004461F4689461646FFF7AAFF236883462D
:1016F0009D6A32463B46494620464FF00008A847BF
:10170000CDE9007823680546D3F82CA05A46034655
:1017100049462046D04740B10749A068FFF784F802
:101720004546284603B0BDE8F08F002EF9D00C23C3
:101730007B43F3586B60F4E7BF6903002DE9F3477F
:10174000054689461F461646FFF77AFF82466868B7
:10175000036804221B69402198470122CDE90072E9
:101760002B680446D3F82C80524603464946284647
:10177000C04740B10749A868FFF756F80024204643
:1017800002B0BDE8F087002EF9D00C237B43F3585C
:101790006360F4E7A96803000023036140680368FD
:1017A00004229B68602118472DE9F0471F46037B00
:1017B000DDF8209005460E469046012433B11349CA
:1017C0008068FFF731F82046BDE8F0870473FFF723
:1017D000E3FF0028F8D12B684A461B6A31462846A9
:1017E00098470028F0D12B683A469B693146284635
:1017F00098470028E8D12B68DC693B6842463146AF
:101800002846A446BDE8F047604700BF5B6603007A
:1018100008B5406801F062FA0421BDE80840FFF70E
:1018200004BE00002DE9F041044688461746FFF744
:10183000EFFF002325691E469D4207D000EBC3023F
:1018400001335268013208BF0136F5E70B2E07D984
:101850000C220A49A068FEF7E7FF0120BDE8F081ED
:1018600000EBC5034FF0FF3240F835805A603D6011
:101870002369013323610020F0E700BF53690300AF
:10188000036870B59B6804460D4698472046FFF7ED
:10189000BFFF21690022914206D04368013308BF8F
:1018A000456001320830F6E7606803680C319B68D8
:1018B0000422C900BDE870401847000008B503685D
:1018C000994206D3054B064A06484FF4837119F036
:1018D00015F900EBC100D0E9010108BD406B030020
:1018E000C06F03004B6B030008B50368994206D331
:1018F000054B064A06484FF4837119F0FFF800EBD8
:101900008100406808BD00BF406B0300F26E030019
:101910004B6B030008B50368994206D3064B074A90
:1019200007484FF4837119F0E9F8043000EB8102A5
:1019300050F82100104408BD406B0300026D030005
:101940004B6B03002DE9F7430546884616460024F5
:101950004FF00C094046FFF743FE03689C421FD23C
:101960002146FFF7D7FFFFF730FEB8B109FB04F7B8
:1019700001A9F019FFF7C0FD68B96868019903680B
:101980001022DB689847F05140B9019A0549A868D0
:10199000FEF74AFF012003B0BDE8F0830134D9E728
:1019A0000020F8E70466030008B50368994206D3EF
:1019B000064B074A07484FF4837119F09FF804302B
:1019C00000EB810250F82100104408BD406B030079
:1019D000F86D03004B6B030008B50368994206D30A
:1019E000064B074A07484FF4837119F087F8043013
:1019F00000EB810250F82100104408BD406B030049
:101A00000C6C03004B6B030010B50446FEF73EFF61
:101A1000231808B12058184410BD38B50C460821C9
:101A20000546FEF733FF68B129582046FFF7D4FF7B
:101A3000034648B10421FFF7E7FF10B103681BB16B
:101A4000043038BD0146F0E71846FAE710B5044601
:101A5000FEF71CFF231808B12058184410BD0000E1
:101A60002DE9F7430B9C9046054640220E46204642
:101A700000211F461AF0BCFC4046FFF79DFD0A9A64
:101A80002146FEF715FF002854D14046FFF79DFD83
:101A9000394684F82D004046FFF7BFFF60600028FC
:101AA0004BD10223237501AA0A9B04F11801404679
:101AB000FFF7E5FC00283DD104214046FFF7C6FFB3
:101AC00000283CD13E4BA3600C214046FEF7DEFED1
:101AD00008EB000770B358F800003F18384629D0CB
:101AE000FFF756FD8046002868D0006810B33846DE
:101AF000FFF758FDF0B10068E0B1D8F80430E360BA
:101B00003846FFF74FFD0021FFF7D8FE2061384629
:101B1000FFF73EFD2B68D0F8008096B11B690422C8
:101B20000C21284698470646B8B926490A98FEF778
:101B30007BFE012003B0BDE8F0830123B2E7A06083
:101B4000C2E7DB6804220C21284698470646002895
:101B5000EBD02B68D3F80C9002E02B68D3F81090F0
:101B60004046FEF751FE042201462846C847054676
:101B7000706008B91449D9E73846FFF709FD3060AD
:101B800045F8048B4FF00009C8450ADD3846FFF7D9
:101B900009FD4946FFF792FE45F8290009F10109C0
:101BA000F2E710213846FEF771FE00B13858B060F8
:101BB000012384F8303066630020BBE7BAE700BF3A
:101BC000E8650300E46A0300126B03002DE9F041AD
:101BD000069C26460D460021C4E9001146F8081F60
:101BE000984628461746FFF7E7FC31464246FEF77F
:101BF0005FFE064658B939462846FFF70EFF042116
:101C000020602846FFF722FF20B9034B636030466F
:101C1000BDE8F0816060FAE7E865030010B50446AE
:101C2000FEF734FE231808B12058184410BD0000F8
:101C30002DE9F04F87B00E461C4693460746FFF746
:101C4000FFFC062100903046FEF720FE331818B343
:101C500035581D447B68544ACDE904234FF00009F0
:101C60000A210098FFF7DAFF0368994580F0998010
:101C70004946FFF799FE04218046FEF707FE68B14A
:101C800058F800602B68B868B34209D84749324613
:101C9000FEF7CAFD012324E00546DBE70646F1E72F
:101CA0002B1D03EB860A53F826309A44024604F1B2
:101CB000240359465046FFF74DF8B0B10090504606
:101CC000BC6809F0AFF8872898BF394A009B94BFD9
:101CD00052F82020374A384900932046FEF7A4FDE9
:101CE000009B184607B0BDE8F08F626A1AB9324609
:101CF0003249B868CCE792F814A00390BAF1200FEB
:101D00004FF00E01404622D1FFF77EFED8B90026E3
:101D1000B24606214046FFF799FE08210190404651
:101D2000FFF794FE24228046002120461AF060FB33
:101D3000019BE661C4E90038039B09F10109C4E98C
:101D4000053A28348CE700F1040A0668E1E7FFF75A
:101D50005BFE50B1BAF1870F98BF154BB86894BFBE
:101D600053F82A20134A164992E7DBF8003051460F
:101D7000DB6958469847064650B9BAF1870F98BFB5
:101D80000B4BB86894BF53F82A200A4A0D497FE7E5
:101D900003AB04AAB9684046B04703460028B6D052
:101DA0009FE700239DE700BFBC6B0300096A0300A7
:101DB000705B03007C8D0300336A0300606A0300DC
:101DC000816A0300C76A030070B516460446FFF730
:101DD00037FC0A21FFF722FF656801682B6828207D
:101DE0004143DB6804222846984728B90449A06883
:101DF000FEF71AFD012070BD30600020FBE700BF38
:101E00008969030010B50446FEF740FD231808B1A8
:101E10002058184410BD2DE9F041044610461F46D5
:101E20008846FFF7DDFB06999DF81C50FFF772FD11
:101E30000C2106464046FFF7E5FFA3680693079787
:101E40000346324629466068BDE8F041FFF708BE08
:101E50002DE9F04F85B08A4691460546FFF7F0FB25
:101E60000390FFF7BDFBD0F8008068680C2603687C
:101E700006FB08F4DB68042221469847074640B970
:101E800014492246A868FEF7CFFC012005B0BDE842
:101E9000F08F0024444519D00398FFF7A1FB214699
:101EA000FFF738FD0C2183465046FFF7ABFF06FBDA
:101EB000047300930246AB6868685946FFF786FED4
:101EC00010B122460449DDE70134E3E7C9F80070A8
:101ED0000020DBE7ED680300346903002DE9F04FD3
:101EE00097B004461046894617460993FFF778FBDA
:101EF000226903686068D318182606937343039316
:101F0000036803991B6904229847064648B9039A57
:101F1000B949A068FEF788FC0121084617B0BDE862
:101F2000F08F3846FFF75CFB03680493236907933F
:101F30001021A36805934846FEF7A8FC09EB0001B1
:101F4000002841D059F800208B1873D08A58089285
:101F50004FF0000A03F10408D346089B5B4534D0D8
:101F6000454604212A6815442846FEF78FFC08F1EF
:101F700004082A1808B12858104417229F49043031
:101F80001AF08CFEE8B90C214846FFF73BFF06210A
:101F900082462846FEF77AFC88B129585046FFF75A
:101FA0001BFD0421FFF730FD049BC268934200F142
:101FB000100A06D092490598FEF736FCACE70146B8
:101FC000ECE70BF1010BC8E78246DDF824B0B1461F
:101FD000B04600254FF0FF32049B0892AB422ED052
:101FE0004146C8F804B05846FFF786FA0146002873
:101FF00093D1089ADBF80000C8E9022258B93846A4
:10200000FFF7EEFA2946FFF785FCFFF7DEFA089A9C
:1020100080F00101C9B288F81410BAF1000F0BD09A
:102020005AF82510C8F81010013508F118080BF1FE
:102030000C0BD1E79A46C8E7C8F81020F4E74FF038
:10204000000B4FF0180AD84606213846FFF7FEFC71
:1020500003685B4509D95946FFF746FC0AFB006057
:102060000BF1010BC0F80880EEE74FF0000B4FF0CA
:10207000180A08213846FFF7E9FC0A21049038467F
:10208000FFF7CCFD049B026802F1FF381A685A453D
:1020900025D959461846FFF727FC0AFB00600BF1CB
:1020A000010BC0F80C80E4E74FF0000A0821584605
:1020B000FFF7CCFC026852450FD95146FFF714FCDC
:1020C000182303FB00608268531C01D0904501DA9D
:1020D000C0F808800AF1010AE8E708F1FF38B8F112
:1020E000000F20DB0A213846FFF798FD4146FFF735
:1020F0005BFC4FF0000A834606215846FFF7A6FC1A
:1021000002685245D0D95146FFF7EEFB182303FB76
:102110000060C268511C01D0904501DDC0F80C8000
:102120000AF1010AE8E733460022954274D0D968E3
:10213000481C08D1187D30B100919B683149059841
:10214000FEF772FBE8E601321833EEE71021606813
:1021500000F0C6FD05466068036829461B69102229
:102160009847014658B9A168274B019340F2334381
:102170000093264A264B0846FEF764FBCCE62A4627
:102180000BA804F03FFFD4F8088035460027069BD3
:10219000BB4268D02B7D13B901371835F7E7102102
:1021A0002868FFF74CF92B69591C02460FD1EB68E0
:1021B0000093AB6841460BA804F0E8FE01460028F6
:1021C000EAD00BA8039104F0D7FE0399A5E601938A
:1021D000EB680093AB6841460BA804F02FFFEDE7D6
:1021E0000BA805F02AF80B4902462B463846FEF7A5
:1021F0001BFB0121E5E700BFFB660300EC65030064
:102200003C6703008767030042680300EE5A03003F
:10221000EA6703005B6803002046FFF7F9FA6FF0F6
:10222000070202FB0500079A209918232A4403FBA2
:10223000056396464FF0FF3C0127AE4503F11803B6
:1022400084D950F8352043F8182C00EBC50243F828
:10225000141C526843F808CC43E9042203F8047CB8
:1022600001350431E9E7606803685B69984710212C
:10227000606800F035FD05460BA804F0DEFFA842BB
:10228000A768ADD8606800F029FD039B80461E4416
:1022900000254FF0FF3A4E4516D099F8143083B11F
:1022A00039460AAB2A460BA8CDF828A004F0E2FF75
:1022B0000146002885D10A9BD9F8042043441360C5
:1022C000013509F11809E6E70BA804F0B6FF6369C8
:1022D000834200D2606160686169036810229B6874
:1022E000984701466DE700BF00B5C1B01346684688
:1022F0000A464FF4807100F025FB684600F0FEFCB2
:10230000034800F0FBFC002041B05DF804FB00BF77
:10231000269103004369202B01D180697047DBB20D
:10232000872B9ABF024A52F823000248704700BF29
:10233000705B03007C8D0300C36818680368DB686A
:102340001847C3681B6953F82100704730B4C4684C
:10235000206803685D680B46AC46D4E9021230BCC5
:102360006047C368DB680C2000FB01307047C3681E
:102370001868FFF757BA0EB403B5C368586803AAC4
:10238000036852F8041B01929B68984702B05DF8FD
:1023900004EB03B0704710B50446006818B1036839
:1023A00061681B699847204610BD000070B54568FC
:1023B00004460E4628460821FEF768FA2A18E8B1B6
:1023C0002B58D118D258012A07D00D49E068FEF7E2
:1023D0002BFA012384F86D3070BD0B1D49686263D0
:1023E0000B44236704F17C03E361064B6362064BF5
:1023F0002366064B636666640023EBE70368FFDE33
:1024000032660300772301004D230100632301009E
:102410002DE9F041079F002504469846C0E9005188
:10242000C0E902270E4658222946103019F0E0FF75
:102430003A4606994046FFF7F1F8012384F86D30DB
:10244000E368A066C4E91F0384F86C502046C4E921
:102450001C55A567C4E92165C4E92355C4F8945007
:102460000899FFF7A3FF2046BDE8F0812DE9F74367
:10247000074600264FF00C093C6F04212046FEF76A
:1024800005FA2118002850D022588B188A589642F5
:1024900046D2043303EB860553F826301D440E2143
:1024A0002846FEF7F3F9002834D02B5C93B3786FFD
:1024B00009FB06F801A94044FFF71EF8044680BB5B
:1024C00006212846FEF7E2F930B32B56092B25D119
:1024D0000C212846FEF7DAF92B1890B12C581C4431
:1024E0000A212046FEF7D2F92218F0B12358D1185C
:1024F000D35843B90E4B0F4A0F484FF4837118F06D
:10250000FDFA0446ECE749687B6F019A53F808002E
:1025100019F06EFF0136AFE70146F5E72146F3E714
:102520000024204603B0BDE8F0830368FFDE00BF4F
:10253000406B03009B7203004B6B030038B50C46E5
:1025400005460621006FFFF781FA03689C4206D317
:1025500022460549E868FEF767F9002038BDD5F83E
:10256000903053F82400F9E7E371030038B50C46C6
:1025700005460821006FFFF769FA03689C4206D3FD
:1025800022460549E868FEF74FF9002038BDD5F826
:10259000943053F82400F9E76F720300F8B503682C
:1025A0000446B3B10025282600F110070A21206F48
:1025B000FFF734FB0368AB420BD9236806FB0533F6
:1025C0005A6A22B1526812B11969384690470135EA
:1025D000ECE72046F8BD00002DE9F34100F174035B
:1025E0000093D0E9011203460446806EFFF7DCF841
:1025F000054650B17849E0680125FEF715F984F8E1
:102600006D50284602B0BDE8F081266F636FC4F8B4
:10261000883004213046FEF739F93218002800F0DE
:10262000D9803358D3582361C4E914556B4BA36444
:1026300028270A21206FFFF7F1FA0368AB4212D96D
:10264000266807FB0566736A71695A691B68202A48
:102650000CBFD6E9061200221BB104F11000984706
:1026600030610135E5E75E4B23650025282704F13D
:1026700010080A21206FFFF7D1FA0368AB421BD97B
:10268000216807FB05114E6AB3687BB14046984745
:10269000014658B13046FFF73DFE2B4600910246F9
:1026A0005049E068FEF7C0F80125AAE72946A06E68
:1026B000FFF7E6F80135DCE70023A36423654A4B06
:1026C0006365626F6168A06E04F17803FEF7D4FF62
:1026D0000546002895D1A36FC4F88C300621206FE1
:1026E000A66EFFF7B3F933680168DB6889003046EE
:1026F0009847C4F8900058B90621206FFFF7A6F953
:1027000002683A499200E068FEF78EF8CCE701359E
:10271000D4F8708006214046FFF798F90368A66E4A
:102720009D42376815D22946FFF7DEF83F68626F91
:102730006168D4F8908003463046B847D4F89030AA
:1027400048F8250053F82530002BE0D12A462849C7
:10275000D9E708214046FFF779F90168FB6889004D
:1027600030469847C4F8940038B90821206FFFF725
:102770006DF902681F499200C5E700250821206F06
:10278000FFF764F903689D4219D2A66E2946FFF748
:10279000ABF83368626FD3F800806168D4F8947046
:1027A00003463046C047D4F8943047F8250053F824
:1027B000253013B92A461049A5E70135DEE7204642
:1027C000FFF754FE054600287FF41BAF012384F871
:1027D0006C3016E70368FFDEAC700300392301009C
:1027E0006F230100CF700300432301000571030034
:1027F0004E71030073710300BD7103002DE9F04FAA
:1028000090F86D3087B0044643B13149C068FEF797
:102810000BF80125284607B0BDE8F08F90F86C3022
:10282000002B46D000264FF0280A4FF000084FF04A
:1028300000090A21206FFFF7F1F903689E4245D293
:1028400025680AFB06556F6AFB68002B3CD03846AA
:10285000FFF760FDD4F844B0CDF810B00023014676
:102860000593BBF1000F0AD0DBF80020CDE9028907
:10287000CDE900635846936802229847059029469F
:10288000FB6804F1100098470546A06E03689B683A
:102890009847012D13D13846FFF73CFD00950246BD
:1028A00033460C49E068FDF7BFFF04A8FFF773FD4E
:1028B000B0E7FFF791FE05460028B3D0AAE7002D48
:1028C000F3D104A8FFF767FD0136B2E70025A1E7C1
:1028D0000E7203003B72030030B5044623460134F8
:1028E0001D78002DFAD101390844013A12F8011F70
:1028F00021B1834202D203F8011BF7E700221A70CC
:10290000184630BD30B503460C46B3FBF2F502FB6A
:102910001530C3B2092894BF303357332046DBB299
:1029200000F8013B2B464DB96570A14208D20B78E7
:10293000227801F8012B04F80139F6E70446E4E7B0
:1029400030BD00002DE9F04F95B090460090039106
:102950001E4601F1FF390025009A98F800305419FD
:102960008BB34D452FDA252B08F1010240F0188179
:1029700098F80130662B5AD006D8252B00F00E812E
:10298000642B1CD09046E7E7752B32D0782B39D0DA
:10299000732BF7D1039A3368501B311D013B04EBB5
:1029A0005000009A8442A4EB020500F0FC8013F86A
:1029B000012F002A00F0F78004F8012BF1E7A9EBC2
:1029C00005030A2B01DC681C22E030680028B8BF30
:1029D0002D2306F10407BDBF611C23704042214630
:1029E0000A22FFF78FFF001B054408F102023E4652
:1029F000C8E7A9EB05030A2BE5DD371D0A222146AE
:102A00003068EEE7A9EB0502092A05F1010004DCB4
:102A10000023237015B0BDE8F08F4FF03002227014
:102A2000009A023513545419371D1022E7E7A9EB19
:102A3000050307EE903AF8EEE77AB2EE0C7AF4EE80
:102A4000C77AF1EE10FABED4F31D23F00703D3E9E1
:102A5000000103F1080617F0CDFBC0F3C7530028AF
:102A6000A3F17F0A01932346BCBF2D2203F8012B5B
:102A70000022BAF1800F04F12F0BC0F3160E1A706A
:102A800010D1ABEB0301BEF1000F09D1484A184643
:102A9000FFF722FF07463C1B254408F1020271E7BD
:102AA000444AF4E7444A04AF51681068BC46ACE8B5
:102AB0000300424908328A426746F5D1106812790C
:102AC000CCF800008CF804207046002204A9895636
:102AD00001322EFA01F10D2A0844F7D131221A7081
:102AE0002E225A709F1C00229A70ABEB0702072A15
:102AF0000292D0DD3A4608334FF0300102F8011F50
:102B00009342F9D10A2208A9FFF7FCFE08AA02990C
:102B10003846FFF7E1FEC31B4FF03002D3F1070147
:102B2000027012D00246A0EB020C9C4508DA12F8A3
:102B300001CD02F801C04FF0300C82F800C0F2E77E
:102B400023EAE373C3F10703184410F8012C302A79
:102B500000F1FF3301D1BB421ED80023ABEB0001D3
:102B60000370174AFFF7B8FEBAF1000FBFBF2D235D
:102B70008DF82030019BC3F17F0A0746ABEB000BB9
:102B8000B4BF0DF1210108A90A225046FFF7BAFE91
:102B900008AA594638467BE71846D6E708F10202EC
:102BA00001352370EEE608F102020E46EAE600BFA8
:102BB0008073030084730300737303007B7303004B
:102BC00088730300704703698361704710B51C2147
:102BD00004460EF0CFFF204610BD000037B5054675
:102BE0000C4680691146FEF720FC6B691B1AA34254
:102BF00009D2E21A0092054968682246FDF714FEE0
:102C0000002003B030BD0444AC61FAE78C730300CC
:102C100037B5044640690D46401B1146FEF70BFCD4
:102C2000236983420AD91B1A00932A46EB1A0449E6
:102C30006068FDF7F9FD002003B030BD6061FBE77F
:102C4000D573030037B583690D460169994204467F
:102C500006D00E494068FDF7E7FD012003B030BD06
:102C600011468068FEF7E1FB63691B1A9D4207D994
:102C7000EA1A0092064960682A46FDF7D5FDECE79E
:102C800028442061A0610020E8E700BF1E74030013
:102C90007374030010B50A4488B00F4C0791CDE956
:102CA0000312CDE905120422CDE901401C210DEBF0
:102CB0000200FFF7ADFF60B1029B4360039B83609E
:102CC000049BC360059B0361069B4361079B0460F3
:102CD000836108B010BD00BFC074030080687047F6
:102CE00070B5044680690E46FEF79FFB31460546E7
:102CF0006069FEF7A0FB401B70BD000038B5084CB2
:102D00002378054633B94FF41651064808F0A0FD64
:102D10000123237029460348BDE8384009F0FBBF72
:102D20006C0B01208C1101200368052B10B50446A3
:102D300003DD406808B10EF029FF204610BD0000F9
:102D400022EAE273002A00FA03F0D4BF52420022C2
:102D500088422DE9304832D101F100435C425C41A8
:102D600080FB0101002871F100031B4BA8BF4FF04D
:102D700080436CBB10EB030B41EBE37CBBF1000F1A
:102D80007CF1000306DA6FF0004400251BEB040B16
:102D90004CEB050C4FEADB7343EA4C031F2A10DCB3
:102DA000012191400139481001EA030400EBD3707E
:102DB00013418442D4BF1846581CBDE83088002413
:102DC000CEE7064B064A074840F2671117F096FE19
:102DD0006FF00043E2E700BF010000C0D8740300B9
:102DE00042750300E774030070B5044611B9016031
:102DF000204670BD8D682B680360052B4FEA830663
:102E000008DD09488342D4BF30464FF0FF300EF052
:102E1000A3FE60602368052BCCBF6068201D32468E
:102E2000291D19F0E7F9E3E7FEFFFF1F0368052BF3
:102E3000C7BF436853F8210000EB8100406870472A
:102E400001EB8202436D516818470968FFF7F8BF2C
:102E50004A69524202608A6952424260CA6982608B
:102E60000A68C2604A6802618A684261CA6882610F
:102E700070470000012903D10023C361094B04E01E
:102E8000032904D10023C361074B03627047022961
:102E900004D1064BC3614FF07E53F6E76FF4000395
:102EA000EBE700BFFFFF7F7F0000C040000080BF56
:102EB0002DE9F04F85B0012A804689461F460E9EB7
:102EC000DDE9105427D004AB4FF0000A4FF0000B9F
:102ED00063E902AB3246CDE9005339460F9BFEF75A
:102EE00017F8A8B9DDE90201231D2246FEF7D6F93D
:102EF0003B6963613369A3612B69E36104F10C03EE
:102F000000932A4604F1080349464046FEF75EF85E
:102F100005B0BDE8F08F0020FAE7000070B5044668
:102F200009B14D681DB900232360204670BD2B6890
:102F30000360052B4FEA830608DD09488342D4BFAE
:102F400030464FF0FF300EF007FE60602368052B1F
:102F5000CCBF6068201D3246291D19F04BF9E4E70B
:102F6000FEFFFF1F10B50468052CCBBF406800EBC7
:102F7000810050F82110416810680528CBBF5268C5
:102F800002EB830252F8230050688842A8BF08462B
:102F900010BD30B50568052DCCBF4368031D002268
:102FA0000120AA4207DA8A4214BF53F822400124C2
:102FB00060430132F5E730BD884230B51DD100F1E4
:102FC00000435C425C4180FB0123002A73F1000155
:102FD0000C49A8BF4FF080418CB9541843EBE17500
:102FE000002C75F1000304DA6FF000400021241872
:102FF0004D41E00F40EA450030BD0024E3E76FF0AB
:103000000040F9E7010000C0002908B506DA0D4BC1
:103010000D4A4FF4B3710D4817F070FD1F2904DD00
:103020000B4B094A40F26711F5E701238B40013B46
:1030300003EA00025B1003EBD07308419A42C8BF59
:10304000013008BDAC750300BA750300E7740300D6
:10305000D874030008B50021FFF7D6FF08BD0000B3
:103060006FF000422DE9F84F14184FF0000343EBC6
:10307000E0756B1C05BFB4F1FF3F264601262F46C5
:1030800018BF0027A4197D41EB0FE01845F100019E
:103090004F104FEA30064FF05A30FFF7DBFF04467F
:1030A0003D48DFF8F890FFF7D5FF01463046FFF7BF
:1030B00083FFB046044403256FF0004600272146F5
:1030C0004046FFF779FFC0F100512046FFF774FF3B
:1030D000B0F1005F51DA48454FF0FF314FF0000C7E
:1030E000A8BF00214FEAE07B82004FEA8B0343EA4E
:1030F0009073B2F1004F73F1FF3042DB964277EBF1
:103100000300B8BF6FF000426FEA0C031A402CF0C6
:10311000004CCB4382EA0C021A4001F000414A40C5
:10312000013D1444CBD1B4F1804F2DDAB4F1404FBE
:103130004FF0FF302946C8BF0020E317261943EBA4
:103140000307B6F1004F77F1FF33224620DB6FF023
:1031500000440025B44275EB0703ACBF32466FF064
:103160000042CB431A4021F00041C3434A401A4079
:1031700000F000405040BDE8F88F4FF0FF3C0021C8
:10318000B0E74FF00042BFE74FF0FF312846D4E7E9
:103190004FF00042E5E700BFC4C3C3C3010000E035
:1031A00008B5FFF709FF08BD2DE9F04104461448B2
:1031B000FFF750FF06461348FFF74CFF04F1805419
:1031C000804621462046FFF7EBFF21460546FFF7E4
:1031D000E7FF294607462846FFF7E2FF0221FFF7EF
:1031E00013FF41463844FFF7DBFF01212844FFF776
:1031F0000BFF21183046FFF7D3FF3044BDE8F081C4
:1032000094A8F570ABAAAA2A07EE100AF7EE007A86
:1032100037EE277AC7EE877A17EE900A704717F0D5
:103220003FBB3821836B184708B516F093FC17F0A5
:10323000EDFA16F0DFFF08BD2DE9F0432DED0C8B04
:1032400085B00BEE101A189C9FED608ADFED609A36
:103250009FED609A04F1FF390CEE902A07EE909AE8
:103260003CEECB7AF8EEE77AF6EE008AC7EE27AAB4
:1032700005461F46A3F1020800262AEEA8DAB1454A
:1032800072DD07EE906AF8EEE77AB0EE4BCAA7EE71
:10329000AACA01361CEE100AA84707EE900A67EE8C
:1032A000887A17EE900AFFF7BFFF07EE906AF8EEF4
:1032B000E77AB0EE4B7AA7EEAA7A0AEE100A17EE7A
:1032C000100AA8470BEE900A1CEE100AA84707EE5A
:1032D000900A67EE887A17EE900AFFF7A5FF07EECF
:1032E000900AEBEE887A67EEA87A17EE900AFFF75D
:1032F0009BFF7CEE0D7A0BEE900A17EE900AA84722
:1033000007EE900A67EE887A17EE900AFFF78CFFB7
:1033100007EE900A7BEEE7BA6BEEA87A17EE900AFA
:10332000FFF782FF07EE900A7AEE677ACDED029AF8
:10333000F4EEE97AF1EE10FA54BF01AB02ABCDED39
:10334000017AD3ED007A8DED039AF4EEC97AF1EEAD
:1033500010FAC8BF03ABD3ED007AFDEEE77A17EEA3
:10336000903A28F8023F8AE71CEE900AA84707EE39
:10337000900A67EE887A17EE900AFFF755FF07EE7E
:10338000900AF4EEE97AF1EE10FA54BF01AA02AA0B
:103390000190CDED029AD2ED007A8DED039AF4EE14
:1033A000C97AF1EE10FAC8BF03AAD2ED007AFDEE99
:1033B000E77A04F10043013B17EE902A27F8132027
:1033C00005B0BDEC0C8BBDE8F08300BF00000047EA
:1033D000000000C700FEFF462DE9F04F0B681E6895
:1033E000012E89B0054689460FD00124914B0193E7
:1033F000CDE90264904B00934569904A904961235E
:10340000A847204609B0BDE8F08F4B681C68012C26
:103410000BD0884B0193CDE902468A4B0093446957
:10342000864A87496223A04759E00022FDF717FD2D
:10343000804640B9844B00936E6964237F4A834978
:103440002846B047DDE783681B68002B04DC804B0F
:1034500000936E696523F1E7002249462846FDF78F
:103460000FFD064620B97B4B00936E696723E5E7A5
:10347000D9F8107027B9784B00936E696923DDE79E
:1034800098F80030072B17D1AB6B40F20241284669
:10349000984720B9714B00936E696F23CEE7B862ED
:1034A000AB6B40F202412846984720B96C4B009321
:1034B0006E697323C2E7F862327898F80030072A01
:1034C0000FD1092B3ED003F0FB02032A17D0654B26
:1034D00000936C697B23594A5C492846A047012424
:1034E0008FE79A422ED0CDE902325F4B01935F4BBA
:1034F00000936C697D23514A5149284693E7072B75
:1035000020D133694BB10022CDE90232584B0193EF
:10351000584B00936C698223EDE740F2012400943C
:10352000BB6A554955480022FFF786FE0094FB6AA6
:1035300053484FF07E520021FFF77EFE3369FB6156
:10354000F3683B6298F80040D9F81490032C11D02E
:10355000092C5ED0072C40F041813369002B2DD01F
:103560000022CDE90232424B0193424B00936C6939
:103570002923C0E73078032812D06E69FDF748F997
:1035800007462046FDF744F93E4B0193CDE9027012
:10359000354B00932623294A3B492846B0479EE7EE
:1035A0003369002B00F0F6800022CDE90232304B67
:1035B0000193304B00936C6927239CE7DFED337A4E
:1035C00096ED037ADFED326AB4EEE77AF1EE10FAA7
:1035D000CCBF77EE677A77EEC77AF4EEE67AF1EE53
:1035E00010FA40F3B8804FF07C53002217EE100A17
:1035F000CDE9042316F0AEFA264B0193CDE9020182
:10360000254B00936C692B230C4A24492846A0477C
:1036100065E73078072870D1336913F5004F47D03C
:103620001F4ACDE902321F4B0193124B00936C6984
:103630002F2360E7249A03007376030014760300B7
:10364000946403008376030094760300EE5A03002B
:10365000A5760300BF760300D1760300EC76030065
:1036600003770300267703007F7703008C7703003E
:103670008C8A030098770300000020C11F320100EC
:1036800009320100CC770300B27703000000003854
:103690006F120333F977030005780300D97703002D
:1036A0000080FFFF1A780300000080376F1283321A
:1036B0005FED037A96ED037A5FED046AB4EEE77A84
:1036C000F1EE10FACCBF77EE677A77EEC77AF4EEB8
:1036D000E67AF1EE10FA5DDD5B4B002217EE100A80
:1036E000CDE9042316F036FA584B0193CDE90201D7
:1036F000574B00936C69312386E709280ED06E6919
:10370000FDF786F807462046FDF782F8514B0193F6
:10371000514B0093CDE9027033233CE7336913F139
:10372000800F0AD06FF07F02CDE902324B4B01933C
:103730004B4B00936C693423DDE696ED037ADFEDA5
:10374000497AB4EE677AF1EE10FA23D0464B009333
:103750006C693523BFE6D8F80C0016F0FBF98246F9
:10376000D9F800008B4616F0F5F902460B46504694
:10377000594616F047FA07F1080431A3D3E90023AC
:1037800016F06AFB07AB2246FDF788FD079BFB603E
:10379000002436E6D8F80C0016F0DCF98246D9F899
:1037A00000008B4616F0D6F907AB0293052407F10B
:1037B0000803019352465B460094FDF7C1FD07994B
:1037C000F9601F222046FDF7F3FD16F0B1F901F173
:1037D0000043194616F0C6FCB861D9E7012C0FD09A
:1037E00020466E69FDF714F804460120FDF710F835
:1037F0001E4B01931E4B0093CDE902405223CAE6B3
:103800003078012812D06E69FDF702F8074620468D
:10381000FCF7FEFF154B01930F4B0093CDE90270AF
:103820005323144A14492846B047EAE5D9F8000062
:1038300016F090F9C7E90001AAE700BFAFF30080D6
:10384000140014001400243F0000F03E217803000F
:1038500005780300646503007F7703002D7803007B
:10386000987703000000803B32780300547803000F
:103870008C77030014760300B27703002DE9F84338
:1038800040F07F4405466001FFF78EFC81464248C8
:10389000FFF7E0FB01464846641BFFF781FCC4F3D9
:1038A0000067C7F1000800EA08083C48FFF7D2FBB0
:1038B000013F07EA090788EA070701463846FFF78C
:1038C0006FFCC4F34068C8F1000900EA09093448F4
:1038D000FFF7C0FB08F1FF3808EA070889EA080883
:1038E00001464046FFF75CFCC4F38069C9F100075C
:1038F00007402C48FFF7AEFB09F1FF3909EA080938
:1039000087EA090901464846FFF74AFCC4F3C06745
:10391000C7F1000800EA08082348FFF79BFB013FB6
:1039200007EA090788EA070701463846FFF738FC27
:10393000C4F30076C6F1000800EA080006F1FF387B
:1039400008EA070880EA08081848FFF783FB0146E1
:103950004046FFF725FCC4F340777E42013F064016
:1039600007EA08004640F220FFF774FB01463046A4
:10397000FFF716FCC4F3807463421840013CB5FAAB
:1039800085F334405B094440581E5B42204023F0DD
:1039900000435840BDE8F8837BBEAF63F2CBA24D35
:1039A0006CAC162FA4AA5211B72A580211FE0A00B5
:1039B000012803D0022806D000207047194401399D
:1039C00091FBF3F070470098013A504319440130DD
:1039D000091AF5E73821836B184700002DE9F04FED
:1039E0002DED028B95B01D46B0F90A300393B0F966
:1039F0000C300493B0F90E300593B0F910300693F3
:103A0000B0F90230DDF88C800893B0F904300993E6
:103A10000C4600231946129290ED0C8AD0ED0D8AC7
:103A200042462046FFF79EFA032319460A902A468B
:103A30002046FFF797FA032342460B9000212846C1
:103A4000FFF790FA012107902046FFF7EFF90221D6
:103A50000C902046FFF7EAF901210D902846FFF768
:103A6000E5F902210E902846FFF7E0F901210F90B9
:103A70004046FFF7DBF9022110904046FFF7D6F9E8
:103A8000DFED546A11904FF0000E0A9B9E4580F2C4
:103A90009C80099B4FF0000BC3F10009109B9B45D4
:103AA00080F29080089B5B4202934FF0000A119BCA
:103AB0009A4580F282800022079B934276DD0023A4
:103AC000DFED447A019349460E9B0198984241DA12
:103AD00002984FF0000C0F9B9C4535DA00282EDB36
:103AE0000D9B83422BDD002929DB0C9B8B4226DDBD
:103AF00000260B9B9E4222DAA368E76803FB0E13A5
:103B000007FB0303276907FB0363129F07EB83038C
:103B10001393019FAB6803FB0273EF6807FB03C3BA
:103B20002F6907FB0363209F07EB8303139F93ED2C
:103B3000007A97ED006A0136E6EE077AD9E7059B31
:103B40000CF1010C1844C6E7019B01330193069B5D
:103B50001944B9E7229B33B303EB820393ED007A58
:103B6000D8F80830D8F80C1077EE877A03FB0EB33C
:103B7000F4EE487A01FB03A3F1EE10FAD8F8101026
:103B800048BFF0EE487A01FB0321F4EE678A249BDC
:103B9000F1EE10FA03EB810148BFF0EE687AC1ED57
:103BA000007A013288E7B0EE667AD9E7DDE90232C1
:103BB00013440AF1010A029379E7049B0BF1010B0C
:103BC00099446BE70EF1010E5FE715B0BDEC028B77
:103BD000BDE8F08F000000002DE9F04F9DB01C46BD
:103BE000B0F90A300493B0F90C300593B0F90E30F7
:103BF0000693B0F910300793B0F902300B93B0F987
:103C000004300C9343690D9383690E93C3690F933A
:103C1000036A1093436A1193836ADDF8A4900893B2
:103C2000C36A09938846002319461A9240464A46B9
:103C3000FFF798F903231946129022464046FFF7F2
:103C400091F903234A46139000212046FFF78AF991
:103C500001210A904046FFF7E9F8022114904046FE
:103C6000FFF7E4F8012115902046FFF7DFF8022165
:103C700016902046FFF7DAF8012117904846FFF723
:103C8000D5F8022118904846FFF7D0F84FF0000A07
:103C90001990129B9A4580F299800C9B5B4202938B
:103CA00000230093009B189A934280F28C800B9B18
:103CB0005B4203934FF0000B199B9B457BDA002579
:103CC0000A9BAB4270DD0020029A0190169B01997D
:103CD000994245DA03994FF0000C179B9C4539DA5D
:103CE000002932DB159B8B422FDD002A2DDB149B34
:103CF00093422ADD0026139B9E4226DA019FA36889
:103D000003FB0573E76807FB03C32769BE46269FCD
:103D10000EFB0373D8F80C7013F806E00E9B734487
:103D20001B93D8F8083003FB0A2307FB0313D8F8CA
:103D30001070BE461A9F0EFB03730D9F9B5D3B44A4
:103D40001B9F013603FB0700D5E7069B0CF1010C16
:103D50001944C2E7019B01330193079B1A44B5E75D
:103D6000289B13B153F825301844DDE91012FEF7F3
:103D7000E7FFD9F80830009A2A9903FB0A23D9F8FB
:103D80000C2002FB03B3D9F8102002FB03130F9A97
:103D90001044089A9042B8BF1046099A9042A8BFB2
:103DA0001046585501358BE7DDE9033213440BF11A
:103DB000010B039380E7009B059A01330093029B5C
:103DC000134402936EE70AF1010A62E71DB0BDE8F1
:103DD000F08F2DE9F04F9BB01D4643690B93B0F96E
:103DE0000A300493B0F90C300593B0F90E30069305
:103DF000B0F910300793B0F902300C93B0F90430E9
:103E00000D93C3690E93836ADDF8A4800893C36A97
:103E100009930023CDE91712284619464246FFF7B9
:103E2000A1F8DDF894900F90032319464A462846DE
:103E3000FFF798F803234246109000214846FFF709
:103E400091F801210A902846FEF7F0FF0221119017
:103E50002846FEF7EBFF012112904846FEF7E6FFE9
:103E6000022113904846FEF7E1FF012114904046DD
:103E7000FEF7DCFF022115904046FEF7D7FF4FF01A
:103E8000000A16900F9B9A4580F29B800D9B5B4227
:103E9000029300230093009B159A934280F28E8038
:103EA0000C9B5B4203934FF0000B169B9B457DDA06
:103EB00000240A9BA34272DD0020029A0190139B0A
:103EC0000199994243DA03994FF0000C149B9C45E9
:103ED00037DA002930DB129B8B422DDD002A2BDBE9
:103EE000119B934228DD0026109B9E4224DAAB688A
:103EF000EF6803FB0A2307FB03132F69BE46249FC9
:103F00000EFB0373019F13F906E00B9B7344199397
:103F1000D9F8083003FB0473D9F80C7007FB03C30E
:103F2000D9F81070BE46269F0EFB0373199F9B574E
:103F3000013603FB0700D7E7069B0CF1010C19447F
:103F4000C4E7019B01330193079B1A44B7E7289B01
:103F500013B153F824301844189B53F82420179BAE
:103F600053F82410FEF7ECFED8F80830009A2A998E
:103F700003FB0A23D8F80C2002FB03B3D8F8102067
:103F800002FB03130E9A1044089A9042B8BF1046E1
:103F9000099A9042A8BF10461855013489E7DDE917
:103FA000033213440BF1010B03937EE7009B059A48
:103FB00001330093029B134402936CE70AF1010A58
:103FC00060E71BB0BDE8F08F2DE9F04F1646CBB08F
:103FD000814648690D69569C39901F46136992695C
:103FE00008920128F26A0992D1E901CE3895C3F10D
:103FF0000003D6E900B1326BD6E9098A40F091801E
:10400000012D40F08E803293089B3393099BCDE9BC
:1040100036B120A85499CDE934CECDE93A32CDE974
:104020000A8AFEF77BFF394626A8FEF777FF21466E
:104030002CA8FEF773FF55993CA8FEF76FFF0023ED
:1040400019462CAA26A8FEF78DFF0323824619469F
:1040500020AA26A8FEF786FF03232CAA8346002168
:1040600020A8FEF77FFF2946804626A8CDF838A075
:10407000FEF7DCFE02210F9026A8FEF7D7FE2946A8
:10408000CDE9100B20A8CDF84880FEF7CFFE022125
:10409000139020A8FEF7CAFE2946CDE9140B2CA8E0
:1040A000CDE91655CDE91858CDF868A0FEF7BEFE4B
:1040B00002211B902CA8FEF7B9FE716B00239942D8
:1040C000CDE91C08CDE90C3304DBD9F8443048466F
:1040D00098470C90549A55993B681268096804B146
:1040E000246806941AA8CDE9041016A9CDE9022186
:1040F00012AA32A9CDE900320CA80EAB0AAA03F02D
:10410000A5FA3CA8FEF710FE2CA8FEF70DFE26A887
:10411000FEF70AFE20A8FEF707FE00204BB0BDE820
:10412000F08F4193089B4393ADF80001099BADF8D4
:10413000FE50ADF8F4102CA8394626ADADF8FCE0E1
:10414000ADF8FAC047924693ADF8F2B0FEF7E6FE3E
:104150005499D7F800902846FEF7E0FE20AE549B15
:104160005599D3F800B03046FEF7D8FE559B1AAFEC
:104170001B68089321463846FEF7D0FE089B04B121
:104180002468CDF8009052464146CDE903633CA82F
:104190002CABCDE90574CDE9015BFFF71AFE38467B
:1041A000FEF7C2FD3046FEF7BFFD2846FEF7BCFD18
:1041B0002CA8B0E72DE9F04F0A684D69436D8A4697
:1041C000B5B0516804469847DAF80020636D9168ED
:1041D000064620469847DAF800201368032B8146EC
:1041E0001ED1636DD168204698478046DAF80420D6
:1041F000636D516820469847337A027A93420746A6
:1042000011D0CDE90232874B0193874B009365694A
:10421000864A87494FF4D3732046A847012098E087
:104220004FF00008E2E799F80800984204D063696B
:10423000804920469847F1E70328DAF8102000F07B
:104240008B8009287CD0012840F0E3802B7B012B58
:104250006ED0032B71D09FED787ADFED786A022B58
:10426000F7EE007A18BFF0EE477ABFEE007A18BF7B
:10427000B0EE667A2B78012B03D0022B0CBF022301
:1042800000238DF898301368ADF89A305368ADF874
:104290009C306B68ADF8A230AB68ADF8A4302B69E8
:1042A000ADF8A63031466B69ADF8A83020A88DED89
:1042B000327ACDED337A14ADFEF730FE49461AA8B6
:1042C000D6F800A0FEF72AFE0EAE41462846D9F8E1
:1042D0000090FEF723FE39463046D8F80080FEF7FE
:1042E0001DFED7F800B008AF002138460024FEF7C5
:1042F00015FECDE90574CDE9036BCDE90158CDF884
:1043000000901AAB524620A926A8FFF767FB384653
:10431000FEF70AFD3046FEF707FD2846FEF704FDCE
:104320001AA8FEF701FD20A8FEF7FEFC204610E0CB
:10433000DFED417A9FED427A9CE7F1EE087AF9E7EA
:10434000CDE90187CDF80090334629462046FFF796
:104350003BFE35B0BDE8F08F287811695369946948
:104360000128C1F10001C3F1000303D002280CBFF2
:10437000022000208DF898001068ADF89A0050686F
:10438000ADF89C006868ADF8A200A868ADF8A4007C
:104390002869ADF8A6006869ADF8A800CDE92B132F
:1043A000D3692E93136A2D945B422F93D36A309373
:1043B0003146136B319320A8FEF7B0FD14AD49468A
:1043C0001AA8D6F800A0FEF7A9FD0EAE4146284671
:1043D000D9F80090FEF7A2FD39463046D8F80080A3
:1043E000FEF79CFDD7F800B008AF38460021002446
:1043F000FEF794FDCDE90644CDE904B7CDE9028688
:10440000CDE900951AAB524620A926A8FFF7E4FB98
:104410007DE76569FCF7FCF9337A0A4902462046D4
:10442000A847FBE67F7703008C77030084780300BE
:1044300094640300E2780300FFFF7F7FFFFF7FFFAC
:1044400000000000717903002DE9F04F0022B9B09F
:1044500005460F46D1E90446FCF701FD01228046DE
:1044600039462846FCF7FBFC00220F9039462846C7
:10447000FCF706FD4146824622A8FEF7B5FC5146F0
:1044800028A8FEF7B1FC0023194628AA22A8FEF7A7
:1044900069FDD8F8083016909A68DB681792834651
:1044A000032122A81893FEF7C1FC032119900B9059
:1044B00028A8FEF7BBFC0F9B1A90D3F808900B9B23
:1044C000D9F808201B92D9F80C201C92CDE91D3B8D
:1044D000DAF8083003219A68DB681F9228A8209335
:1044E000FEF7A4FCD9F8043021904FEA830949462D
:1044F000AB6B28469847AB6B6062494628469847A5
:104500003B68A0621B68023B012B12D9704B0093E1
:104510006C69704A704957232846A047012728A88C
:10452000FEF702FC22A8FEF7FFFB384639B0BDE8D3
:10453000F08F7B681B680B93012B0DD00127CDE911
:104540000237664B0193664B00936C69614A65497B
:1045500058232846A047E2E7189B0C93179B0D931E
:104560001C9B0E9398F800301493B36810937368F3
:1045700096F800B011937369129333690E9A0C99EF
:10458000139300935846119BDDF86C90FFF710FAD7
:10459000129B0D9915904A4600935846109BFFF7C1
:1045A00007FA129B139A119909F1FF3903FB09F9D4
:1045B000109B09F10109013803FB00900D9BC01A03
:1045C0000E9B013B53435A1C159B013B01FB0323EC
:1045D0000C9A9B1A23EAE3735A1020EAE0702260D7
:1045E00003F00103421000F001006260A360E0608C
:1045F000149B012B2ED10F9A98F800101269D8F84D
:10460000103062610929DAF810202361A2615AD1C1
:104610005B42CDE92E32B36831937368309373698E
:104620003593336934936368339323683293E36A31
:104630003693236B379316A91EAB1AAA2EA803F044
:1046400061F8011E3FDD2B6C04F1340228469847C7
:10465000074664E7394600222846FCF700FC394645
:1046600083460B9A2846FCF7FAFB3946814602221C
:104670002846FCF716FC39460B9000222846FCF72A
:10468000FFFBD9F808200B9B52680892A26A079298
:10469000626A069204F13002059204F12C0204923F
:1046A00004F12002039204F11C02029206F10C02B2
:1046B000CDE9000259464A462846FCF7E9FC074680
:1046C000002898D02BE74FF0FF336363002726E7DD
:1046D0008D79030084780300EE5A0300249A0300C6
:1046E000B17903009464030070B5054D0646044695
:1046F0000FCD0FC495E80F0084E80F00304670BD61
:10470000647803003821836B18472DE9F04FA1B07E
:104710001C46B0F90A300893B0F90C300993B0F98F
:104720000E300A93B0F910300B93B0F902300C93AD
:10473000B0F904300D93B0F912300193436910932E
:10474000C3691193836ADDF8BCA00E93C36A0F930B
:104750000023CDE91B12204619465246FEF702FC03
:10476000012112902046FEF761FB022113902046A2
:10477000FEF75CFB032114902046FEF757FB012156
:1047800015902B98FEF752FB022116902B98FEF7FE
:104790004DFB012117905046FEF748FB022118906F
:1047A0005046FEF743FB019B19909B0003934FF08B
:1047B0000009129B994580F2B0800D9B5B420793E4
:1047C0004FF0000B189B9B4580F2A4800C9B5B4232
:1047D000069300230093009B199A934280F29380E2
:1047E0001B9B02931C9B049300262E9B0593B046B3
:1047F000159B98457FDA2A9B434400251F93019B14
:104800009D4268DA2C9AAB19A9191A9300200A4420
:10481000079B1E928446169A944532DA069A4FF008
:10482000000E17998E4527DA002A20DB1499914251
:104830001DDD002B1BDB1399994218DDA168E76889
:1048400001FB093107FB0121276979431F9F795635
:10485000109F39441D912B992B9FC9683F6901FB1B
:104860000CE179431E9F79561D9F01FB07000A99B1
:104870000EF1010E0A44D4E70B9A0CF1010C13441B
:10488000C9E72E9B1BB1059B53F825301844049BA8
:1048900053F82520029B53F82510FEF751FADAF859
:1048A0000830DAF80C20009903FB09B302FB03136C
:1048B000DAF81020309902FB0313119A10440E9A73
:1048C0009042B8BF10460F9A9042A8BF10461A9A5D
:1048D0000135985493E7DDE9023213440293049BB7
:1048E000134404931346059A1A44019B059208F158
:1048F00001081E447CE7009B089A01330093069B45
:104900001344069367E7079B099A13440BF1010BC5
:10491000079357E709F101094BE721B0BDE8F08F94
:104920002DE9F04F1F4613694D69D1B016465B4221
:1049300080460993886992690A92D6E9003E012867
:10494000D1E901C2DDF868B15C9C3D903C950B93C8
:10495000C968D6E9099A40F09680012D40F093800D
:10496000099B35930A9B36930B9B3A93CDE938C24A
:104970007F236FF07F02379123A85946CDF8ECE0F2
:10498000CDE93E23CDE90D9AFEF7C8FA394629A8AC
:10499000FEF7C4FA21462FA8FEF7C0FA5B9940A89B
:1049A000FEF7BCFA002319462FAA29A8FEF7DAFA67
:1049B000032319462FAA814623A8FEF7D3FA2946D6
:1049C000824629A8CDF84490FEF730FA02211290D1
:1049D00029A8FEF72BFA0321139029A8FEF726FA3F
:1049E0000021149023A8FEF721FA2946159023A848
:1049F000FEF71CFA0221169023A8FEF717FA2946A3
:104A0000CDE9170A2FA8CDE91955CDE91B5ACDF8E4
:104A10007490FEF70BFA02211E902FA8FEF706FAFB
:104A2000716B00239942CDE91F0ACDE90F3304DBF6
:104A3000D8F84430404698470F905B993B68DBF8C4
:104A40000020096804B1246806941DA8CDE904106B
:104A500019A9CDE9022115AA35A9CDE900320FA87F
:104A600011AB0DAA04F037FA40A8FEF75DF92FA8A4
:104A7000FEF75AF929A8FEF757F923A8FEF754F9CB
:104A800051B0BDE8F08FBDF82C30ADF80231099B74
:104A90004593002346930A9B47936FF07F030126BB
:104AA000ADF80E51ADF81001ADF812114A93394628
:104AB0007F232FA829ADADF804E1ADF80AC1ADF808
:104AC0000C214B938DF80061FEF728FA23AE59466E
:104AD0002846D7F80080FEF721FA5B99DBF800B092
:104AE0003046FEF71BFA5B9B1DAF1B6809932146FE
:104AF0003846FEF713FA099B04B12468CDF800800C
:104B000052464946CDE9036340A82FABCDE9057471
:104B1000CDE9015BFFF7F9FD3846FEF705F93046B0
:104B2000FEF702F92846FEF7FFF82FA8A6E70000D7
:104B30002DE9F04F2DED028B99B09B46B0F90A306C
:104B40000893B0F90C300993B0F90E300A93B0F91C
:104B500010300B93B0F902300C93B0F90430279D5C
:104B60000D93B0F9123003930C46002319461692A8
:104B700090ED0C8AD0ED0D8A2A462046FEF7F2F918
:104B800001210E902046FEF751F902210F90204698
:104B9000FEF74CF9032110902046FEF747F901215A
:104BA00011905846FEF742F9022112905846FEF73E
:104BB0003DF9012113902846FEF738F9022114909F
:104BC0002846FEF733F9DFED5F6A15904FF00009D4
:104BD0000E9B994580F2B0800D9B5B4206930023AB
:104BE0000193019B149A934280F2A3800C9B5B4239
:104BF00005934FF0000A159B9A4580F29280269B00
:104C00000493002302939C46119B9C4580F2828072
:104C10000021039B994271DA029B0698DFED497AE5
:104C2000CB1807934FF0000E129B9E453ADA059E73
:104C30004FF00008139B98452FDA002E28DB109BBD
:104C4000B34225DD002823DB0F9B834220DDA368D0
:104C5000E26803FB090302FB0363226902FB03C250
:104C6000169B03EB82031793DBF81030DBF80C2064
:104C70001F46079B02FB0E8207FB0232249B03EBBD
:104C80008202179B92ED007A93ED006AE6EE077AB6
:104C90000A9B08F101081E44CCE70B9B0EF1010EA4
:104CA0001844C1E7269B33B3049B03EB810393EDC8
:104CB000007AAB68019A079877EE877A03FB09239D
:104CC000EA68F4EE487A02FB03A3F1EE10FA2A69CF
:104CD00048BFF0EE487A02FB0302F4EE678A289B95
:104CE000F1EE10FA03EB820248BFF0EE687AC2EDF3
:104CF000007A01318DE7B0EE667ADAE7DDE9032369
:104D000003EB820304931346029A1A440CF1010C3C
:104D1000029279E7059B089A13440AF1010A059368
:104D200069E7019B099A01330193069B134406939B
:104D300057E709F101094BE719B0BDEC028BBDE85B
:104D4000F08F00BF000000002DE9F04FD1E90453BF
:104D5000BFB000220C9304460F46FCF780F80122F6
:104D6000834639462046FCF77AF800220B903946F4
:104D70002046FCF785F89BF800301293DBF80830EA
:104D80001190DA689B680E930B9B0D929B68DA6812
:104D90000F929A681092129A092A4BD10B9A92F8A4
:104DA0003060012E0ED0A54B01930125A44B00933A
:104DB000CDE9026581236669A24AA3492046B0472E
:104DC00001260AE00B9A526B5AB9A04B6569009311
:104DD00087239C4A9E492046A84730463FB0BDE8FD
:104DE000F08F106820B99B4B009365698823F0E72A
:104DF000516821B9984B009365698923E9E70268F6
:104E0000012A07D01869824204D0944B0093656947
:104E10008D23DEE709688A420CD0914B0193914BB8
:104E20000093CDE902216569864A87498F23204690
:104E3000A847C5E71E69A36BB600314620469847D0
:104E4000A36B68623146204698473B68A8621B689E
:104E5000023B012B08D9844B00936569794A7C4950
:104E600049232046A847ABE77B68D3F80080B8F118
:104E7000010F0DD07D4B019301267D4B0093CDE9B1
:104E8000028665696F4A70494A232046A847A4E70D
:104E90004FF0FF336B630C9B0F9A1E780D99D3E98B
:104EA000019A30464B46CDF80080FEF781FD53460F
:104EB0001390CDF800803046109A0E99FEF778FDD9
:104EC000109B01380AFB003A0E9BAAEB030A139BC6
:104ED0005E1E0F9B09FB06390D9BA9EB030929EA0E
:104EE000E9792AEAEA7A4FEA69032B604FEA6A0312
:104EF0006B60129B09F001060AF00100012BAE6005
:104F0000E8600ED1DBF810302B610B9B1B696B61E5
:104F1000119B1B69AB619BF80030092B3AD000262E
:104F20005BE7002239462046FBF799FF42460646DA
:104F300039462046FBF793FF022280463946204639
:104F4000FBF7AFFF0022814639462046FBF798FF6A
:104F5000D8F808301B690893AB6A07936B6A06930D
:104F600005F13003059305F12C03049305F12003AB
:104F7000039305F11C0302930C9B1033CDE900034E
:104F800031464B4642462046FCF782F8064600284A
:104F9000B8D022E7594621A8FDF726FF119927A886
:104FA000FDF722FF0B992DA8FDF71EFF00231946E0
:104FB00027AA21A8FDF7D6FF03232DAA07461946E5
:104FC00027A8FDF7CFFF0E9B169306460D9B179360
:104FD000032121A81597FDF729FF109B1A930F9B1A
:104FE0001890012127A8CDE91B3619911D97FDF7CF
:104FF0001DFF02211E9027A8FDF718FF6B6839934B
:105000002B683893CDE91F0615A91DAB19AA33A843
:1050100003F096FF011E2DDD236C05F134022046BE
:105020009847064648B32DA8FDF77EFE27A8FDF752
:105030007BFE21A8FDF778FECFE600BFAE6403003B
:10504000E1640300E879030094640300FB64030057
:10505000EE5A03000F650300507A0300707A0300D4
:10506000F27A03008A6503008D790300249A030015
:10507000B17903004FF0FF336B632DA8FDF754FEA9
:1050800027A8FDF751FE21A8FDF74EFE47E700BF18
:1050900070B5054D064604460FCD0FC495E80F00C8
:1050A00084E80F00304670BDC87903002DE9F04F49
:1050B000A1B09B46B0F90A300793B0F90C300893C1
:1050C000B0F90E300993B0F910300A93B0F90230FC
:1050D0000B93B0F904300C93B0F912300393836A48
:1050E0000D93C36A0E9343690F9383691093C36949
:1050F0001193036ADDF8B4A01293436A13930C462C
:10510000002319461C9220465246FDF72BFF012131
:1051100014902046FDF78AFE022115902046FDF7E7
:1051200085FE032116902046FDF780FE0121179091
:105130005846FDF77BFE022118905846FDF776FE93
:10514000012119905046FDF771FE02211A90504638
:10515000FDF76CFE4FF000091B90149B994580F2FF
:10516000A6800C9B5B42059300230093009B1A9A38
:10517000934280F299800B9B5B420493002301933E
:10518000019B1B9A934280F287800023DDF8B08058
:1051900002931F46179B9F4276DA1C9B3B440025D7
:1051A0001F93039B9D4267DA029B2A9AEB18069392
:1051B0000699059B00200A4484461E92189A94453D
:1051C00034DA049A4FF0000E19998E4529DA002A34
:1051D00022DB169991421FDD002B1DDB15999942A8
:1051E0001ADDA168E66801FB093106FB0121266989
:1051F00071431F9E715C0F9E31441D91DBF80C10B2
:10520000DBF8106001FB0CE171431E9E715C109E87
:1052100031441D9E01FB060009990EF1010E0A445E
:10522000D2E70A9A0CF1010C1344C7E72C9B13B187
:1052300058F825301844DDE91212FDF781FDDAF83F
:105240000830009A019903FB0923DAF80C2002FBCD
:105250000313DAF810202E9902FB0313119A10445D
:105260000D9A9042B8BF10460E9A9042A8BF1046C1
:10527000069A0135985494E7039B029A1A44013721
:1052800008EB8308029285E7019B079A013301939B
:10529000049B1344049373E7009B089A0133009323
:1052A000059B1344059361E709F1010955E721B016
:1052B000BDE8F08F2DE9F04F4A68436D0E46C7B048
:1052C000D1E904895168834698473268DBF8543045
:1052D00051680446584698473268DBF85430916864
:1052E00005465846984732681368032B074679D11C
:1052F000DBF85430D16858469847064695F808A020
:10530000BAF1030F00F08580BAF1090F74D0BAF139
:10531000010F40F06A8199F81030012B64D0032B03
:1053200067D09FEDB87ADFEDB86A022BF7EE007A0E
:1053300018BFF0EE477ABFEE007A18BFB0EE667A7B
:1053400001238DF8D830D8F80030ADF8DA30D8F82D
:105350000430ADF8DC30D9F80430ADF8E230D9F8DB
:105360000830ADF8E430D9F81430ADF8E630D9F8AB
:105370001830ADF8E8302946D9F80C30ADF8EA30ED
:105380001EA88DED427ACDED437AFDF7C7FD394673
:10539000D5F8008024A82AADFDF7C0FD3146284687
:1053A0003F68FDF7BBFDD6F8009030AE2146304691
:1053B000FDF7B4FD04B124680097CDE90364CDE99D
:1053C000015924AB42461EA936A8FFF7B1FB30466F
:1053D000FDF7AAFC2846FDF7A7FC24A8FDF7A4FCCE
:1053E0001EA8DAE0002689E7DFED867A9FED877A4E
:1053F000A6E7F1EE087AF9E7CDE9016400972B46BC
:10540000424649465846FFF78BFA002047B0BDE8B0
:10541000F08F0122D8F81010D8F81430D8F81800FE
:105420008DF8D820D8F80020ADF8DA20D8F804207C
:10543000ADF8DC20D9F80420ADF8E220D9F8082036
:10544000ADF8E420D9F80C20B9F914C0B9F918B0B6
:10545000ADF8EA205B42D8F82C2040924942D8F8B7
:105460003020ADF8E6C0CDE93B13D8F81C303E93B0
:10547000D8F82030ADF8E8B05B42BCF1010F4192A2
:105480003D903F9340F08C80BBF1010F40F088804D
:10549000394624A8FDF742FD594624A8FDF7C6FC6D
:1054A0000221814624A8FDF7C1FC294680462AA88E
:1054B000FDF734FD59462AA8FDF7B8FC02211790E4
:1054C0002AA8FDF7B3FC514616902AA8FDF7AEFCBA
:1054D0002146824630A8FDF721FD594630A8FDF748
:1054E000A5FC0221834630A8FDF7A0FC169A179B65
:1054F0003F68179791B29AB21FFA8AF3BDF9DA7032
:1055000016933B9B18971B93BDF9DC703C9B199736
:105510001C93BDF9E2703D9B1A972D68BDF9EAA076
:10552000BDF9E470BDF9E6C0BDF9E8E036681D9349
:105530001FFA88F81FFA89F904B124683E9B149376
:105540003F9B1393419B1293409B11931D9B0D9383
:105550001C9B0C931B9B0797CDE90A631A9B069330
:10556000199B0593189B80B2CDE903A31FFA8BFB0F
:10557000179BCDF840B0CDE908CECDE90E40CDE97E
:10558000018900932846169B03F0A7F930A8FDF780
:10559000CBFB2AA8FDF7C8FB24A8FDF7C5FB34E721
:1055A00029461EA8FDF7BAFC3946D5F8008024A884
:1055B0002AADFDF7B3FC314628463F68FDF7AEFC47
:1055C000D6F8009030AE21463046FDF7A7FC04B176
:1055D00024680097CDE90364CDE9015924AB424624
:1055E0001EA936A8FFF762FDF1E65046DBF814402D
:1055F000FBF70EF92B7A064902465846A0470120D0
:1056000004E700BFFFFF7F7FFFFF7FFF0000000078
:10561000717903002421836B184700002DE9F04FB6
:10562000C7B01F46509E519C336881460D46904638
:10563000002B00F0A280214630A8FDF76FFC00216E
:1056400030A8FDF7F3FB0121834630A8FDF7EEFB00
:105650003946824636A8FDF761FC369936A80139ED
:10566000FDF7E4FB414609903CA8FDF757FC6B6948
:10567000099ACDF860B05B422A93EB692C93AB6931
:10568000CDF89CA05B422B93AB682D93EB682E93D7
:105690002B6814936B6815930123CDE91933CDE979
:1056A0001D33CDE91FA3CDE92133CDE925330023F7
:1056B000CDE91B22CDE923ABCDE91633296A994206
:1056C00004DBD9F84430484698471690D8F80020B3
:1056D00039683068002C43D02368069324ABCDE9A9
:1056E000040320ABCDE902131CABCDE900232AA9AA
:1056F00018AB14AA16A803F0A9FE002832D0D9F8D6
:105700001450D8F800303A68316804B1246806941F
:1057100024A8CDE9041020A9CDE902211CAACDE9D5
:1057200000322AA918AB14AA16A803F08FFE002392
:10573000CDE90203544B0193544B554A554900930C
:105740004846A823A8473CA8FDF7EEFA36A8FDF77F
:10575000EBFA30A8FDF7E8FA012047B0BDE8F08F7A
:105760002346BAE73CA8FDF7DFFA36A8FDF7DCFAD6
:1057700030A8FDF7D9FA0020EFE73CA8FDF768FB59
:10578000414636A8FDF7CAFB394630A8D8F8005084
:10579000FDF7C4FB3B68099331462AA8FDF7BEFB21
:1057A000214624A8D6F800B0FDF7B8FB04B1246860
:1057B0003C9B0A933D9B0B933E9B0C933F9B0D930D
:1057C000409B0E93419B0F930021429B109324A872
:1057D000FDF72CFB0121119024A8FDF727FB309940
:1057E0008246013930A8FDF721FBC5F100080746C4
:1057F0004FF00009119B4B453BDD099B0026B2454C
:1058000030DD9E46AC4600200CEB080297420FDDCF
:105810001CF9012B12920B991EF9012B0A441392C9
:105820000A99129A0A441146139A01FB0200EBE707
:10583000BBF1000F02D05BF826201044DDE90D1209
:105840001293FDF77DFA0C9B18440F9B9842B8BF4A
:105850001846109B9842A8BF1846129BA0553B447F
:105860000136CCE709F1010954443D44A8EB07088F
:10587000C0E724A8FDF758FA2AA8FDF755FA30A882
:10588000FDF752FA36A874E7817B0300927B030090
:10589000187B0300946403002DE9F04F494AD1E9D5
:1058A000046397B01268059304460D46FBF7D7FAD8
:1058B000454A8246126829462046FBF7D0FA434AF9
:1058C0002946126880462046FBF7EBFA404A2946F3
:1058D000814612682046FBF7D3FA07469AF8000083
:1058E0003978059B814216D06569FAF791FF064623
:1058F0003878FAF78DFF374B0193374B0093CDE99A
:1059000002604023354A36492046A84701252846EB
:1059100017B0BDE8F08F98F800208A4204D0636980
:10592000304920469847F1E74FF0FF3B1978C6F819
:1059300020B05346CDE90276CDE900892046FDF737
:10594000B7FA05460028E2D19AF80030092BDED1DB
:10595000B9F1000FDBD0D9F80430002BD7D0414685
:105960000AA8FDF741FA394610A8FDF73DFA0A9951
:105970000AA85944FDF75AFA0121069010A8CDE96A
:105980000711FDF753FA099006A803F092FD011ED6
:105990000DDD236C06F1200220469847054640B1F4
:1059A00010A8FDF7C1F90AA8FDF7BEF9AFE7C6F8E0
:1059B00020B010A8FDF7B8F90AA8FDF7B5F9002541
:1059C000A5E700BFA0750300A87503009C75030040
:1059D000A47503007F7703008C770300187B030016
:1059E000B2770300B67C03002DE9F04F2DED028B5A
:1059F000A84BD1F814A01A68B1B004468946FDF747
:105A000024FAA54B05461A6849462046FDF71DFABB
:105A1000A24B49461A6880462046FDF716FAA04A6E
:105A2000D9F80430126803EB820307465968626DA7
:105A3000204690470646287AD9F81010032800F02F
:105A40008A8009287BD0012840F019819AF800103B
:105A500026A8FDF70FFA29460EA8FDF75FFA414682
:105A600014A82C68FDF75AFA3946D8F80030049388
:105A70001AA8FDF753FA314620A83F68FDF74EFA01
:105A800006B13668209DDDF850A09DED2D8ADDED34
:105A90002E8A013D294620A8FDF77BFA2B4620AA35
:105AA000AAF10201804614A8FDF75CFA0AF1FF3161
:105AB000814614A8FDF7BAF94FEA8903DFED796A48
:105AC0000393314623464FEA800C0024A04540F35F
:105AD000C880049D8E46002291452BDDDFED717A52
