:020000021000EC
:1000000000000420355302006D53020079360200CF
:1000100071530200853602008B360200000000009A
:1000200000000000000000000000000021E00100CE
:100030007953020000000000BBE00100CBE00100AA
:1000400025940200050502007F5302007F53020041
:100050007F5302007F5302007F5302007F53020050
:100060007F5302007F5302007F5302007F53020040
:100070007F530200B99502007F5302001D05020064
:100080007F5302007F5302007F5302007F53020020
:100090007F5302007F5302007F5302007F53020010
:1000A0007F5302007F5302007F5302007F53020000
:1000B0007F5302007F530200000000000000000098
:1000C0007F5302007F5302007F5302007F530200E0
:1000D0007F5302007F5302007F5302007F530200D0
:1000E0007F5302007F5302007F5302000000000094
:1000F000000000007F530200000000007F53020058
:1001000010B5054C237833B9044B13B10448AFF351
:1001100000800123237010BD0810002000000000A3
:100120002C0C080008B5034B1BB103490348AFF37F
:10013000008008BD000000000C1000202C0C0800FE
:10014000154B002B08BF134B9D46A3F5803A0021A9
:100150008B460F461348144A121A1DF0D9F80F4B5C
:10016000002B00D098470E4B002B00D09847002062
:10017000002104000D000D48002802D00C4814F0A6
:1001800013F81CF0C7FB200029000FF0F1FF14F05A
:1001900008F800BF00000800000004200000000074
:1001A000CD00020008100020D0F00220A94102007A
:1001B000000000002DE9F0411F4E337807460C4641
:1001C00015466BB9012116200DF0B8FE012117204C
:1001D0000DF0B4FE012118200DF0B0FE01233370A4
:1001E000012117200DF0ECFE012116200DF0E8FE94
:1001F000002118200DF0E4FE64200DF041FE0121E5
:1002000018200DF0DDFEAC420FDD002117200DF0AF
:10021000D7FE012116200DF0D3FE2B46224638468C
:100220000649BDE8F04100F0A7BB012117200DF001
:10023000C7FE0021EEE700BF241000200C190300C8
:1002400010B51049044600F097FB0F480AF06AF910
:100250000D480AF06BF90C480AF06AF908224121AE
:1002600009480AF087F90028F8D00849204600F02C
:1002700083FB32200DF004FE03480AF057F90020FA
:1002800010BD00BF6C1903002C2000207D19030055
:100290002DE9F04F2DED028B89B08B465849594C12
:1002A00007931546069000F067FB574B57491A68AD
:1002B00020460CF06DF8616FD4F880309BFBF3F3AF
:1002C0000220C91A91FBF0F10B440493A36FD4F8F8
:1002D000842095FBF2F29B1A93FBF0F30293D31860
:1002E00001910593474C20460CF06AF8054600281A
:1002F0006ED0D4F88C20029B9A42F3DBD4F888307D
:1003000001998B42EEDB04998B42EBDA05998A4224
:10031000E8DA216E03910299D4F884509FED3C8A6B
:10032000521A5543019A9B1AD4F8802053430BFB71
:100330000535079B4FF0000A1D44D4F8843053451F
:10034000D0DD0027D4F88030BB423DDD039B33F87D
:10035000026B0393C6F3451080001AF0AFFB22A393
:10036000D3E900231AF014FC8046F00AC000894645
:100370001AF0A4FB1EA3D3E900231AF009FC0246DD
:100380000B46404649461AF04DFA804606F01F00DB
:10039000C00089461AF092FB17A3D3E900231AF094
:1003A000F7FB0B460246494640461AF03BFA1AF064
:1003B000E7FE07EE900A77EEC87AFDEEE77A17EED1
:1003C000903AEB550137BDE70AF1010A5D44B4E705
:1003D0001049069800F0D0FA284609B0BDEC028B0F
:1003E000BDE8F08FAFF30080A52C431CEBE2E63FA5
:1003F000BC96900F7A36CB3F5D6DC5FEB27BB23FA7
:100400008C190300E850022028200020261000202C
:1004100000000043B61903000722052101480AF035
:1004200023B800BF2C20002010B52349044600F05B
:10043000A3FA224809F07CFE012107200DF07EFD81
:10044000012107200DF0BCFD1D4809F0B5FD8022FB
:1004500007211C480AF062F864200DF011FD00220B
:10046000072118480AF05AF864200DF009FD5522BA
:10047000002114480AF052F8002112480AF076F8D8
:10048000552809D01049204600F076FA4FF47A70CA
:100490000DF0F6FC012010BD01210A480AF015F804
:1004A00008480AF0E7F8002106480AF0B5F8642089
:1004B0000DF0E6FC0020EEE731190300D4410220E4
:1004C000C04102202C2000204D1903002DE9F041ED
:1004D00005461E481E4C0AF053F81E49206002468D
:1004E000284600F049FA2368B3F5805F08D94FF435
:1004F00080521949284600F03FFA0120BDE8F081FA
:1005000023B91649284600F037FAF6E70F48DFF816
:100510005880134F09F0D5FF0C4809F0DFFF002683
:1005200023689E4206D20021404609F0D5FCB8550A
:100530000136F5E70F200DF0A5FC0A49284600F02A
:100540001BFA024809F0B9FF0020D7E72C20002051
:1005500028200020271A0300451A0300681A030008
:1005600026100020871A0300C04102202DE9F04127
:10057000154E337805460F46904663B9FFF754FF92
:10058000044630B11149284600F0F6F92046BDE88E
:10059000F081012333702846FFF752FE044608B16C
:1005A0000B49F0E72846FFF791FF044608B10949D7
:1005B000E9E7069B424639462846FFF769FE0446AE
:1005C0000028E3D00449DEE725100020D2190300FB
:1005D000E4190300FA1903000A1A03007047002205
:1005E000C0E90022826070470022C0E900228260D8
:1005F0007047012070470368DB69184703681B6A6E
:100600001847202930B50ED0D0F8A44000239C42D2
:1006100009D05A018518AD698D4202D104321044C7
:1006200030BD0133F3E70020FAE7704730B5D0F86A
:10063000C44000F1A80200239C4209D012F8015BDB
:100640008D4203D12C3350F8230030BD0133F3E742
:100650000020FAE72DE9F041D0F8A470044688465E
:1006600005460026B7420FD0AB69202B09D1414681
:10067000E8691DF0B9F820B904EB46100430BDE874
:10068000F08101362035EDE70020F8E737B5144B4F
:10069000144C1B6820681B690093602201231146DB
:1006A000FFF764FF18B11049206800F065F90F4D9D
:1006B000286802F049FC18B10D49206800F05CF987
:1006C0000021286802F00EFA0369206893F90020DF
:1006D00093F9011003B0BDE83040FFF76BBD00BFD8
:1006E0004C20002048200020B7B107004420002003
:1006F000CDB1070020292DE9F84305468846144668
:10070000994609D1D0F8C80010B90120BDE8F88396
:100710001F4900F031F9F8E70368DB69984707469D
:1007200040B1D5F8C8000028EFD04246194900F082
:1007300023F9EAE7D5F8A4C0BCF1040F09D9D5F82C
:10074000C8000028E1D005234246134900F014F9FF
:10075000DBE70FCC05EB4C1E0EF104060FC694E848
:100760000F0086E80F000CF10103CEF81880C5F8E1
:10077000A430D5F8C430EA18384682F8A88003F1CE
:100780002C02013345F82290C5F8C430BEE700BF03
:10079000E0B0070025B1070074B107002DE9F04172
:1007A000554C8CB002F010FE2378BFF35B8FDB0753
:1007B0000BD4204613F006FD38B1204613F024FD7B
:1007C0004E4A4F494F4813F0EAFC4F4D4D4B2B60BA
:1007D0004E4B4F4E1A68D118D3583160CB1A1A8835
:1007E000042A0CD99A8812B18A58032A09D0032303
:1007F0004849444800F0C0F80CB0BDE8F081002240
:10080000F5E7DFF85081444F98F80040BFF35B8F65
:1008100014F0010411D1404613F0D4FC68B13F4BF1
:100820003B604046C7F8A440C7E9314413F0ECFCF4
:10083000324A3B49384613F0B2FC04A805F040FDAB
:10084000384B3548384F04AA0121FFF753FF04A85D
:1008500004F030FF354B304804AA0321FFF74AFF6C
:1008600004A805F0CFFB324B2B4804AA0421FFF764
:1008700041FF04A803F0EAFD2E4B274804AA1621E5
:10088000FFF738FF04A805F0A3FD2B4B224804AA6C
:100890001921FFF72FFF3C78BFF35B8F14F00104A1
:1008A00018D1384613F08EFCA0B12B6801934FF499
:1008B0000833194A31680093CDE902441F4B2048A0
:1008C00002F0A4F8384613F09FFC0C4A1D491C485E
:1008D00013F065FC1C4C1A48206002F04BFA0146EC
:1008E00020B11A49286800F047F885E7206802F02F
:1008F000D5F8174B18607FE7402000200002002049
:10090000DD0501000402002048200020981A0300A1
:1009100050200020DCB1070054400220B8B007008E
:100920002B060100550D01003C200020A50B010005
:10093000790C0100D90A0100390E01005420002071
:1009400020410220152B01004420002023B2070083
:100950004C2000203820002001308000704700002B
:1009600010289ABF024B53F820000248704700BF7E
:100970003CB2070080B207000EB403B503AA0368B7
:1009800052F8041B01929B68984702B05DF804EB93
:1009900003B070470CB407B504AA036852F8041BEF
:1009A00001929B68984703B05DF804EB02B0704772
:1009B000006803685B6818470138C0B204289ABF12
:1009C000014B185C00207047F8B2070020B10128E5
:1009D0000CBF0220002070470120704738B5154633
:1009E0001A4628B90B492846FFF7C6FF012038BD33
:1009F0000468082C09D8043900EB8404A04206D00E
:100A000050F8043F41F8043FF8E70349EBE70020C2
:100A1000EDE700BF92B30700C0B307000368C01A38
:100A200003888B428CBF405A0020704710B50C21C0
:100A30000446FFF7F3FF231808B12058184410BDEF
:100A400008B5034610460F2B2BD8DFE803F00C083F
:100A500012161A1E201022180E241C2628140A23EF
:100A60000B70002008BD0123FAE70B23F8E70723EA
:100A7000F6E70223F4E71023F2E70323F0E7092364
:100A8000EEE70423ECE70D23EAE70523E8E7062376
:100A9000E6E70823E4E70C23E2E70E23E0E70F2371
:100AA000DEE700220A701A460249FFF765FF0120BF
:100AB000D8E700BF01B4070038B505461446FFF774
:100AC000ADFF00B12C5C204638BD08B500220A21DC
:100AD000FFF7F2FF08BD00002DE9FF411F46136834
:100AE0001546064688461B68042224212846984756
:100AF000044618B1242200211CF00AFCCDE902545E
:100B0000A4B91B4B01934FF4E2630093194A1A4BAB
:100B100041464046FFF73EFF0124039911B102A868
:100B2000FFF746FF204604B0BDE8F0813046FFF7EE
:100B3000CCFF112817D13046FFF778FF054690B15A
:100B40000421FFF76BFF2E1868B12D5870190AD0D9
:100B500021460A4B4246FFF741FF04460028DCD1FC
:100B6000039B72591A62039B3B6000240394D4E7F1
:100B700078B3070061B30700FDB207008AB307002E
:100B800038B505461446FFF749FF00B12C582046FA
:100B900038BD38B505461446FFF740FF00B12C5666
:100BA000204638BD2DE9FF41984613681546074693
:100BB0000E461B680422182128469847044618B19F
:100BC000182200211CF0A4FBCDE90254A4B9274B44
:100BD000019340F292430093254A264B314630461A
:100BE000FFF7D8FE0124039911B102A8FFF7E0FE38
:100BF000204604B0BDE8F0813846FFF766FF0128C3
:100C000006462DD13846FFF711FF054640B30022B6
:100C10000421FFF7BEFFC0B2FFF7D8FE002220700C
:100C200006212846FFF7ACFF002260600821284615
:100C3000FFF7A6FF00220A21A0602846FFF7A9FFC0
:100C4000C0B2FFF7B9FE324620730C212846FFF7E9
:100C500097FF324620610E212846FFF791FF606121
:100C60000023C8F8004003931C46BCE778B3070094
:100C700061B30700FDB207002DE9FF411F4613686D
:100C80001546064688461B6804221C2128469847BC
:100C9000044618B11C2200211CF03AFBCDE9025495
:100CA000A4B9294B019340F2E7430093274A284B0C
:100CB00041464046FFF76EFE0124039911B102A898
:100CC000FFF776FE204604B0BDE8F0813046FFF71E
:100CD000FCFE022833D13046FFF7A8FE054670B36C
:100CE00000220421FFF755FFC0B2FFF76FFE00227C
:100CF000207006212846FFF743FF0022606008218C
:100D00002846FFF73DFF0022A0600A212846FFF792
:100D100037FF00220C21E0602846FFF73AFFC0B2FF
:100D2000FFF74AFE012220740E212846FFF728FF14
:100D30000122606110212846FFF722FFA0610023F5
:100D40003C6003931C46B8E778B3070061B3070023
:100D5000FDB207002DE9FF411F4613681546064600
:100D600088461B680422282128469847044618B163
:100D7000282200211CF0CCFACDE90254A4B9264B5C
:100D8000019340F2A6630093244A254B4146404616
:100D9000FFF700FE0124039911B102A8FFF708FE36
:100DA000204604B0BDE8F0813046FFF78EFE0528EE
:100DB0002DD13046FFF73AFE054640B3002204210C
:100DC000FFF7E7FEC0B2FFF701FE00222070062108
:100DD0002846FFF7D5FE0022606008212846FFF76D
:100DE000CFFE0022A0600A212846FFF7C9FE00229C
:100DF000E0600C212846FFF7C3FE002220610E218F
:100E00002846FFF7C6FEC0B2FFF7D6FD20750023C7
:100E10003C6003931C46BEE778B3070061B307004C
:100E2000FDB2070038B504461546FFF7F7FD08B1D7
:100E300004442568284638BD2DE9FF411F46136844
:100E400015460422064688461B68114628469847E0
:100E5000044608B100230360CDE90254A4B9144B41
:100E6000019340F2A1730093124A134B414640464E
:100E7000FFF790FD0124039911B102A8FFF798FD37
:100E8000204604B0BDE8F0813046FFF71EFE092879
:100E900008D13046FFF7CAFD20B100220421FFF738
:100EA000C1FF206000233C6003931C46E3E700BFC2
:100EB00078B3070061B30700FDB207002DE9F843DE
:100EC000984605460023C8F8003091460F4605F0C5
:100ED0001BFF2B68EB1A06461A88082A0CD91989B9
:100EE00051B16C58952E09D932461C494846FFF736
:100EF00043FD0120BDE8F8830124F3E7202E11D043
:100F00003B6822461B68314638469847C8F80000BF
:100F100008BB134A134952F8262023464846FFF7D8
:100F20002BFDE6E7062A05D9DB88E91813B1EB5853
:100F3000C91804D10C494846FFF71EFDD9E73B68A4
:100F400022465B68043138469847C8F80000B0FA7A
:100F500080F04009CEE70020CCE700BF84B6070050
:100F600028B40700D8B607007AB70700836810B422
:100F70001BB9036D5DF8044B184703EB41105DF896
:100F8000044B7047C0EE807A73B5044615460E4692
:100F900017EE900A19F0A4FD1AF000FC1AF0F0F810
:100FA0009FED117A07EE900AF4EEC77AF1EE10FA8F
:100FB0000FDB9FED0E7AF4EEC77AF1EE10FA08D847
:100FC000FDEEE77A002017EE901A3144296002B056
:100FD00070BD074B009320466569064A064940F2FA
:100FE0005913A8470120F2E7000000CF0000004F8E
:100FF00005BE0700ADBD070061B30700002A51F828
:10100000043B07DB934205DD51F82210002901DB88
:10101000FFF7ACBF002070470968FFF7EFBF4B68D0
:10102000002A53F8041B07DB914205DD53F8221018
:10103000002901DBFFF79ABF00207047FFF7ECBFE4
:10104000D1ED027A92ED027A67EE877A73B5F5EE0A
:10105000C07AF1EE10FA1E460ADA0F4B009344698B
:101060000E4A0F4940F24B13A047012002B070BD59
:1010700017EE900A19F034FD0446B0680D4619F0D9
:101080002FFD0B4602462946204619F0ABFE069B73
:10109000C3E900010020E9E72BBE0700ADBD070052
:1010A00061B30700000000002DE9F74F044688688F
:1010B00090469A460D4619F013FD0646D8F80800EA
:1010C0000F4619F00DFD02460B463046394619F021
:1010D0005FFDDDE90C9B06460F46BAF1000F1CD000
:1010E000DAF8080019F0FCFC02460B463046394697
:1010F00019F096FB0646D9F8080021F0004719F0D0
:10110000EFFC02460B463046394619F06BFE13A33E
:10111000D3E9002319F0B8FF50B14B4642462946A7
:101120002046CDF830B003B0BDE8F04FFFF788BFE0
:10113000074B009320466569064A07494FF49F73A1
:10114000A847012003B0BDE8F08F00BFAFF30080D7
:1011500044BE0700ADBD070061B307007B14AE4776
:10116000E17A943F2DE9F0432DED028B9946137FF0
:1011700085B0032B0646DDF8388011D0092B2BD023
:10118000072B2DD03B4B009344693B4A3B4940F22F
:101190009113A047012005B0BDEC028BBDE8F083A0
:1011A000FF240025012992ED028AD7681CD103AAE9
:1011B000DFED330A3946B0EE480A3046FFF7E2FE6B
:1011C0000028E8D1039BAB42ACBFC9F80030C9F896
:1011D0000050C8F80040DEE77F246FF07F05E1E7AC
:1011E00047F6FF74274DDDE7032924D103AADFED7D
:1011F000240A3946B0EE480A3046FFF7C3FE0028FD
:10120000C9D1039BAB42ACBFC9F80030C9F800504C
:1012100003AAF1EE080A3946B0EE480A3046FFF755
:10122000B1FE0028B7D1039BA342D4BFC8F8003059
:10123000C8F80040AFE7022915D103AAFFEE000A63
:101240003946B0EE480A3046FFF79CFE0028A2D18E
:10125000039BAB42ACBFC9F80030C9F8005003AAE9
:10126000F7EE000AD7E7C9F800500020C8F80040A0
:1012700091E700BF66BE0700ADBD070061B3070080
:10128000000000000080FFFF2DE9F04F91F8009072
:101290008FB0B9F1010F04460D4617469B46DDF8A5
:1012A00080800FD001266C4B0193CDE902966B4BE9
:1012B00000934469DB236A4A6A49A04701200FB0C2
:1012C000BDE8F08F1678012E08D0634B0193CDE96D
:1012D0000269654B00934469DD23ECE752683AB933
:1012E000624B00934469E7235D4A6149A047E5E703
:1012F000D2F80090B9F1000F04D15E4B009344691D
:10130000E823F1E7D9F800A0BAF1010F35DD0B7F32
:10131000092B06D0072B04D0574B00934469ED23CB
:10132000E2E73B7F092B0DD00922CDE90232534B76
:101330000193534B00936569EE23494A494920467E
:10134000A847BBE7D04508D04E4B0193CDE902A892
:101350004D4B00936569EF23EFE77B69926803EBE0
:1013600082035B68984508D0CDE90283474B01931F
:10137000444B00936569F223DFE7D5ED027A189BB1
:10138000CDED057AD3ED027A09F10403CDED067AAD
:1013900007930026B0452EDDBAF1010FC9BF079BA8
:1013A000D9F8040003EB8603186819F099FBCDE91E
:1013B0000801059819F094FB02460B46DDE9080187
:1013C00019F0E6FBCDE90801069819F089FB024601
:1013D0000B46DDE9080119F005FD0CAB0BAA00F086
:1013E00057F81E9A0B9B42F826301F9A0C9B42F826
:1013F00026300136CEE72B7F032B1AD10EAB00200F
:10140000002163E902010193189B00933A465B4671
:1014100029462046FFF748FE00287FF450AF0BAB6B
:101420001A9ADDE90C0100F033F80B9B1B9A5B4222
:1014300013602B7F092B03D003F0FB03032B09D18F
:10144000199B189A19781D9B009320461C9BFFF747
:1014500089FE34E7002032E786BE0700A0BE070001
:10146000ADBD07006CBE0700B9BE0700D3BE0700C4
:1014700061B30700E7BE070002BF07003CBF0700DB
:1014800048BF070055BF070062BF070083BF0700C2
:10149000F8B515461C460022002306460F4619F0F3
:1014A000DFFD18B100232B602360F8BD22463046D3
:1014B00039461AF041F90022104B19F069FB1AF075
:1014C0006DF919F015FF4FF000420023824273EBD3
:1014D000010601DA1AF098FA994201BF9042236896
:1014E00001332360236808BF4FF080401F33BEBF25
:1014F0000023002023602860D7E700BF0000E04100
:10150000F8B515461C460022084B06460F4619F052
:10151000CFFD08B91AF078FA23462A4630463946F4
:10152000FFF7B6FF2368002BF4DBF8BD0000F03FA7
:101530002DE9F14F06460A989946C0F11F00012394
:1015400003FA00F00F46904619F0B8FA42460446F6
:101550000D464B463046394619F01AFB02460B46FB
:101560002046294619F014FB0BA3D3E90023DDE93B
:101570000BAB04460D4619F09BFD10B106A5D5E94D
:1015800000455B4652462046294601B0BDE8F04F73
:10159000FFF7B6BFAFF300800000C0FFFFFFDF41E1
:1015A0002DE9F8430124814604FA00F00138884609
:1015B000154619F083FA0646A5EB09000F46C0F15F
:1015C0002003A0F1200124FA03F304FA01F104FA44
:1015D00000F0194319F0AEFA02460B463046394680
:1015E00019F0D6FAC8F120030F46A8F1200124FA19
:1015F00003F304FA01F10646194304FA08F019F05E
:1016000099FA02460B463046394619F0EBFB1AF0C0
:1016100013F819F06DFDBDE8F8830000884230B57D
:101620001DD100F100435C425C4180FB0123002A94
:1016300073F100010C49A8BF4FF080418CB95418D8
:1016400043EBE175002C75F1000304DA6FF0004004
:10165000002124184D41E00F40EA450030BD002430
:10166000E3E76FF00040F9E7010000C0002908B58A
:1016700006DA0D4B0D4A4FF4B3710D481AF0CCF950
:101680001F2904DD0B4B094A40F26711F5E70123DE
:101690008B40013B03EA00025B1003EBD07308416F
:1016A0009A42C8BF013008BDC0BF07003AC007005A
:1016B000CEBF07002BC007000368C31A1A880A2A86
:1016C00007D95B89C21833B1C358D01804D0D05899
:1016D0007047002070471846704700000368C31A1F
:1016E00010B51A88082A18D91B89C418ABB1C2587A
:1016F000A318A258914206D3094B0A4A0A484FF44C
:1017000083711AF089F9043303EB810053F8213017
:10171000BDE810401844FFF7CFBF00231B68FFDE71
:1017200094C0070009C107009FC0070070477047B9
:101730004B1E1844B0FBF1F048437047B0FBF1F08A
:101740004843704701380844B0FBF1F04843704704
:1017500001380F2815D8DFE800F00C0C100E14101B
:10176000080E10080E120E0C140C02230B60002041
:1017700070470423FAE70823F8E70123F6E710236C
:10178000F4E7012070472DE9F3410D460168411A45
:1017900016460A88042A2ED98C8800EB040C8CB1DA
:1017A00004591CEB04070DD05CF804804FF0000CCA
:1017B0000124C44507D057F804EF0CF1010C0EFBCF
:1017C00004F4F6E70124062A16D9C988B1B14056B7
:1017D0001A460DF10701C0B2FFF732F940B93146A0
:1017E0009DF80700FFF7B4FF10B933685C432C6025
:1017F00002B0BDE8F08101240020E9E70846E7E7F0
:10180000436873B50C4653B153F8046B00210122B1
:101810008E4205DD53F8045B01316A43F8E701228B
:1018200001A9007AFFF794FF10B9019B5A43226087
:1018300002B070BD40680368DB68184770477047A6
:10184000406803681022DB681847406803685B69DA
:101850001847406803680422DB6820211847704756
:10186000836910B50C46114633B140680368042201
:10187000DB68890098472060002010BD10B5082162
:101880000446FFF7CBF8231808B12058184410BDC0
:1018900010B50A210446FFF7C1F8231808B12058F3
:1018A000184410BD10B506210446FFF7B7F800B183
:1018B0002056C0B210BD10B50E210446FFF7AEF899
:1018C00000B1205C003018BF012010BD10B504210C
:1018D0000446FFF7A3F8231808B12058184410BD98
:1018E00010B508210446FFF799F8231808B12058CD
:1018F000184410BD036870B5DB680E4615462021FC
:1019000004220446984740B1044BC0E90034002348
:10191000C0E90365C0E90633037570BD48C607001A
:1019200070B50E46102104461546FFF701FFA219B7
:101930000146121A284601F00DFD03680422DB68F7
:101940002C2104469847064608B104F0F3FF2A46C6
:1019500031462046BDE87040FFF7CCBF00238361CD
:101960004068036804229B6860211847037D70B5B6
:1019700004460E462BB11E490069FEF7FDFF002507
:1019800022E001230375406803680422DB68082114
:10199000984718B16368174AC0E90023A060204641
:1019A000FFF7DCFF0028EAD13046FFF799FF6568B2
:1019B00001682B682846DB680422C9009847054661
:1019C00020B90D4800F0CAFD284670BD23680246C4
:1019D000DB693146204698470028D0D123682A4643
:1019E0009B693146204698470028EDD0C7E700BFE5
:1019F0004EC2070030C60700A3C2070008B5406802
:101A000001F0CCFC0421BDE80840FFF791BE0000C6
:101A10002DE9F041044688461F46FFF7EFFF0022FC
:101A2000A5691646954207D000EBC20301325B68F8
:101A3000013308BF0136F5E70B2E07D90C220A49FE
:101A40002069FEF799FF0120BDE8F08100EBC50396
:101A50004FF0FF3240F835805A603D60A369013392
:101A6000A3610020F0E700BF13C50700036870B54D
:101A70009B6804460D4698472046FFF7BFFFA169C3
:101A80000022914206D04368013308BF456001320D
:101A90000830F6E7606803680C319B680422C900CF
:101AA000BDE87040184780687047000008B50368BB
:101AB000994206D3054B064A06484FF4837119F044
:101AC000ABFF00EBC100D0E9010108BD94C00700E5
:101AD0002ACB07009FC0070008B50368994206D3C8
:101AE000054B064A06484FF4837119F095FF00EB49
:101AF0008100406808BD00BF94C007005CCA0700B1
:101B00009FC0070008B50368994206D3064B074AF1
:101B100007484FF4837119F07FFF043000EB810216
:101B200050F82100104408BD94C0070072C7070098
:101B30009FC007002DE9F743054688461646002456
:101B40004FF00C094046FFF7C1FE03689C421FD2CC
:101B50002146FFF7D7FFFFF7AEFEB8B109FB04F748
:101B600001A9F019FFF74CFE68B96868019903688C
:101B70001022DB689847F05140B9019A054928695D
:101B8000FEF7FAFE012003B0BDE8F0830134D9E787
:101B90000020F8E720C2070008B50368994206D381
:101BA000064B074A07484FF4837119F035FF04309C
:101BB00000EB810250F82100104408BD94C00700DA
:101BC00062C907009FC007002DE9F3479846037DCF
:101BD00004460F463BB3154600263846FFF780FE05
:101BE00003689E4227D23146FFF7D6FF2368A269D9
:101BF0001B6B8146414620469847C8B9236800962A
:101C0000D3F82CA06A68D8F8003039462046D0476F
:101C100070B923686A681B6A4946204698470835A8
:101C200030B90136D9E705490069FEF7A5FE012064
:101C300002B0BDE8F08700202075F9E7D1C20700A7
:101C40002DE9F04105460F46164600243846FFF7B9
:101C500047FE03689C4218D22146FFF79DFFFFF71D
:101C60002BFD6B681A684101D2F80C8018460422DB
:101C7000C04730B906492869FEF77EFE0120BDE85D
:101C8000F08146F834000134E0E70020F7E700BFB8
:101C900049C507002DE9F74F0C9F05460846164633
:101CA00098468A46FFF71CFE3946FFF775FF2B68FA
:101CB00028465B6A4FF000099847CDE900792B6808
:101CC0000446D3F828B00246434651462846D84732
:101CD00040B10B492869FEF74FFE4C46204603B041
:101CE000BDE8F08F002EF9D006EBC7060C23726812
:101CF00003FB08F3D118D35823614B686361EDE708
:101D00007FC507002DE9F3470A9F06460846984617
:101D100089461546FFF7E4FD3946FFF73DFF706839
:101D2000036804221B69202198470122CDE9007233
:101D300033680446D3F828A0024643464946304655
:101D4000D04740B10B493069FEF716FE002420460B
:101D500002B0BDE8F087002DF9D005EBC7050C23D4
:101D60006A6803FB08F3D118D35823614B68636199
:101D7000EDE700BF69C4070008B50368994206D3C0
:101D8000064B074A07484FF4837119F045FE0430AB
:101D900000EB810250F82100104408BD94C00700F8
:101DA0007CC607009FC0070038B50C4608210546D1
:101DB000FEF734FE88B129582046FFF7DDFF0446C0
:101DC00050B10421FEF72AFE221828B12358D11859
:101DD00005D0D05800B1081D38BD0146ECE70846D3
:101DE000FAE710B50446FEF719FE231808B120588B
:101DF000184410BD2DE9F7430B9C90460546202260
:101E00000E46204600211F461BF082FA4046FFF78F
:101E100049FD0A9A04F11C01FEF712FE002853D175
:101E20004046FFF748FD3946A0774046FFF7BCFF24
:101E3000206100284BD10223637701AA0A9B04F199
:101E400018014046FFF79FFC00283DD10421404681
:101E5000FFF7C7FF00283CD13F4B63610C21404690
:101E6000FEF7DCFD08EB000770B358F800003F18E0
:101E7000384629D0FFF702FD804600286AD0006866
:101E800010B33846FFF704FDF0B10068E0B1D8F8B0
:101E90000430A3603846FFF7FBFC0021FFF706FE85
:101EA000E0603846FFF7EAFC2B68D0F80080A6B166
:101EB0001B6904220C21284698470646C8B92749C1
:101EC0000A98FEF759FD012003B0BDE8F083012315
:101ED000B2E7FFF72BFC6061C0E7DB6804220C214E
:101EE0002846984706460028E9D02B68D3F80C907E
:101EF00002E02B68D3F810904046FEF72DFD042237
:101F000001462846C847706008B91549D8E73846E1
:101F1000FFF7B4FCFFF70BFCD6F80490306049F8EB
:101F2000048B0025A84509DD3846FFF7B1FC29469A
:101F3000FFF7BCFD49F825000135F3E710213846CD
:101F4000FEF76CFD00B13858B06001232370666065
:101F50000020B9E7B8E700BF04C20700C9C5070001
:101F6000F7C507002DE9F041069C26460D460021E5
:101F7000C4E9001146F8081F984628461746FFF79F
:101F800091FC31464246FEF75BFD064658B939469C
:101F90002846FFF709FF042120602846FFF721FFAC
:101FA00020B9044B63603046BDE8F081FFF7BEFB0B
:101FB0006060F8E704C2070010B50446FEF72EFD86
:101FC000231808B12058184410BD2DE9F0410446EB
:101FD000084690461F460D46FFF782FC06999DF87D
:101FE0001C60FFF7D9FDFFF771FC3946FFF78AFD4A
:101FF0000C2107462846FFF7DFFF23690693CDF83B
:102000001C8003463A4631466068BDE8F041FFF760
:10201000F1BE00002DE9F04F85B0064688460392D8
:1020200000254FF00C094046FFF75AFC03689D421B
:102030003DD22946FFF7B0FD0290FFF747FCD0F8EC
:1020400000A07068036809FB0AF4DB6804222146DB
:102050009847074640B9174922463069FEF78CFC7D
:10206000012005B0BDE8F08F0024544519D0029836
:10207000FFF72CFC2146FFF745FD0C218346404627
:10208000FFF79AFF09FB04730093024633697068F7
:102090005946FFF767FF10B122460749DDE70134D3
:1020A000E3E7039B03EBC50301355F60BBE700205B
:1020B000D7E700BFADC40700F4C407002DE9F04F17
:1020C0008DB004460846CDE908238946FFF708FC91
:1020D0001699FFF761FD0646FFF7F8FBA269036852
:1020E0006068D318182505936B430393036803991D
:1020F0001B6904229847054630B9039AB7492069FD
:10210000FEF73AFC012066E13046FFF7DFFB03688B
:102110000493A36906931021236902934846FEF7AE
:102120007DFC09EB0001002848D059F800208B18ED
:1021300077D08A5807924FF0000A03F10408D3467B
:10214000079B5B453BD0474604213A681744384615
:10215000FEF764FC08F104083A1808B13858104436
:1021600017229F4904301BF019FD20BB0C21484663
:10217000FFF722FF062182463846FEF74FFCC0B12A
:1021800039585046FFF7F8FD04210746FEF746FC94
:102190003B18002800F0B2813858034403F1100ABC
:1021A000DA68049B934206D08E490298FEF7E4FB5E
:1021B000A8E70146E5E70BF1010BC1E78246DDF830
:1021C00020900295A84600274FF0FF3B049BBB429E
:1021D0002CD0C8F8049041464846FFF711FB002870
:1021E00040F0F980D9F80020C8E902BB52B9304666
:1021F000FFF76CFB3946FFF785FCFFF75CFB80F0CF
:102200000100C0B288F81400BAF1000F0BD05AF8E0
:102210002720C8F81020013708F1180809F10C0927
:10222000D4E79A46CBE7C8F810B0F4E73046FFF79A
:1022300043FA4FF0000B80464FF0180AD9460621AA
:102240003046FFF7CEFD60B103685B4509D95946BA
:10225000FFF742FC0AFB00500BF1010BC0F808909D
:10226000EDE74FF0000A08F1FF384FF01809082198
:102270003046FFF7B6FDC34610B10368534519D881
:102280004FEA8808BBF1000FC0F2CD800A2130462A
:10229000FEF7C4FB3118002800F0328132588B1849
:1022A0008A58934510D3504B504A51484FF483718C
:1022B00019F0B2FB5146FFF70FFC09FB00500AF181
:1022C000010AC0F80C80D2E7043303EB080953F885
:1022D00008304B4404934FF0000906210498FFF79F
:1022E00080FD8246A0B103684B450FD94946FFF7F0
:1022F000F3FB182303FB0050C3685A1C01D09B4515
:1023000001DDC0F80CB009F10109E6E74FF0000A61
:1023100008210498FFF765FD10B10268524504D802
:102320000BF1FF3BA8F10408ACE75146FFF7D4FBE3
:10233000182303FB00508268531C01D0934501DA37
:10234000C0F808B0C268511C01D0934501DDC0F847
:102350000CB00AF1010ADBE71021606801F020F8F7
:1023600006466068036831461B691022984701469B
:1023700058B921691F4B019340F2933300931E4AD1
:102380001E4B0846FEF706FBBCE6E0680268D7690C
:102390003246B847D4E903792E464FF00008059B32
:1023A000434567D0337D1BB908F101081836F6E7BD
:1023B00010213068FFF7C6F931694B1C02463B68B3
:1023C0001ED1F1680091D3F808A0B3684946384699
:1023D000D0470028E8D00DB0BDE8F08F1CC307003F
:1023E00008C207005DC3070094C0070068C8070063
:1023F0009FC0070002C4070061B30700A8C307001D
:102400000191F1680091D3F80CA0B36849463846B1
:10241000D047DEE7336830461B6998473B460246A3
:1024200038494046C2E62046FFF7E8FA6FF0070257
:1024300002FB0700069A099918233A4403FB075345
:1024400096464FF0FF3C0126BE4503F1180383D9A1
:1024500050F8372043F8182C00EBC70243F8141C3F
:10246000526843F808CC43E9042203F8046C0137AE
:102470000431E9E7606803685B6998471021606888
:1024800000F08EFF0746E06803681B699847B84272
:10249000D4E90368BED8606800F080FF039B8146E2
:1024A0001D4400274FF0FF3A029B9D4217D01B7D31
:1024B0008BB13368CDF82CA0D3F818B03A460BABEB
:1024C00041463046D847002885D1029B5A680B9B6D
:1024D0004B4413600137029B18330293E4E7E06832
:1024E00003681B699847E369834200D2E061606832
:1024F000E169036810229B6898476CE7C368FFDEB8
:102500000368FCE71BC4070000B5C1B00B460246D8
:102510004FF48071684600F069FD684600F04EFF98
:10252000024800F04BFF41B05DF804FBA300080037
:1025300000B5C1B0134668460A464FF4807100F0FA
:1025400055FD684600F03AFF034800F037FF0020D1
:1025500041B05DF804FB00BFA30008000FB407B54D
:1025600004A951F8040B0191FFF7CEFF03B05DF809
:1025700004EB04B0704700004369202B01D180694F
:102580007047DBB2952B9ABF024A52F823000248EB
:10259000704700BF28B40700D0FC070070472DE942
:1025A000F047D0F8148004460026E3691B689E4279
:1025B00020D266613146A068FFF790F84FEAC60A5C
:1025C000814600274F4513D0236953F80A5005EB85
:1025D0004715EB6929695A691B68202A0CBFD5E9A0
:1025E0000512002213B160689847E8600137E9E7F7
:1025F0000136DAE7C4F814800020BDE8F0872DE941
:10260000F843476904460025E3691B689D421AD2D6
:1026100065612946A068FFF761F84FEAC509804661
:10262000002646450DD0236953F8093003EB4613C5
:10263000DA6922B1526812B1D968606890470136F0
:10264000EFE70135E0E767610020BDE8F8830000AF
:102650002DE9F047476904460025E3691B689D4260
:102660002CD265612946A068FFF738F84FEAC50902
:102670008046002646451FD0236953F8091001EB18
:102680004611D1F81CA0DAF808307BB16068984791
:10269000014658B15046FFF76FFF32460B460146E0
:1026A0000848FFF75BFF0120BDE8F0873146E0688E
:1026B000FFF7DCF90136DDE70135CEE76761002081
:1026C000F2E700BF7ECC0700002310B50446C0E946
:1026D000003222B1136810469B689847206020465C
:1026E00010BD10B50446406818B103682168DB6866
:1026F0009847204610BD0000C3691A682DE9F347CA
:1027000004469142D0F8148061610F4607D32148F6
:10271000FFF724FF0125284602B0BDE8F087806856
:10272000FEF7DCFFFF00814600264E452ED02369D0
:10273000DD5905EB4615D5F81CA05046FFF71CFFE8
:10274000636801465A6B6846FFF7BEFF2946DAF810
:102750000C30606898470546E06803689B689847B6
:10276000012D0CD15046FFF707FF2B46014632469C
:102770000948FFF7F3FE6846FFF7B3FFCBE7002DEC
:10278000F9D16846FFF7ADFF0136CEE7C4F81480F3
:102790000025C0E718CC07004ACC0700016170474C
:1027A0002DE9F04F074685B000264FF00C0BF86975
:1027B00003689E4265D23146FFF7EEF94FEAC6093B
:1027C0008046002504214046FEF728F908EB000169
:1027D00000285BD058F800208B188A5895424ED2BA
:1027E000043303EB850453F825301C440E212046A6
:1027F000FEF714F900283CD0235C002B39D03B694C
:102800004B440BFB05FA586803A95044FEF7F8FF48
:102810000346002836D1019006212046FEF7FEF837
:1028200048B32256019B092A27D10C212046FEF7E6
:10283000F5F8231890B124581C440A212046FEF7CD
:10284000EDF8221810B32358D118D35843B9104BC0
:10285000104A11484FF4837119F0DEF80446ECE792
:1028600049683B69039A4B445B6853F80A001AF0C5
:102870004FFD0135A6E70146F3E71946F1E70136BA
:1028800095E70023184605B0BDE8F08F0368FFDE2A
:1028900094C00700ECCC07009FC0070010B50446A9
:1028A000FEF7BCF8231808B12058184410BD70B5C5
:1028B0000C460546082180681646FFF7EFFF2146C3
:1028C000FFF76AF90621FFF78CFA3146FFF704F9A2
:1028D000296901EBC4010C224B6802FB003070BD7A
:1028E00008B508218068FFF7D9FF006808BD10B55A
:1028F00080680C460821FFF7D1FF2146FFF74CF90D
:102900000621FFF76EFA006810BD10B580680C460E
:102910000821FFF7C3FF2146FFF73EF90821FFF723
:1029200060FA006810BD000010B50446C4E9022337
:1029300007480023C4E90433029BA361C4E90001F2
:1029400022B108211046FFF7A9FFE061204610BD23
:10295000BCCC070070B50C460546082180681646B9
:10296000FFF79CFF2146FFF717F90821FFF739FA17
:102970003146FFF7B1F8296901EBC4010C224B681D
:1029800002FB003070BDC368986E0368DB681847AF
:10299000C368D3F8903053F82100704737B5C46846
:1029A000A06ED4F88020036800925D68E26F0B4649
:1029B0002168A84703B030BDC268D2E91F3003EBDD
:1029C000C0030C205B6800FB01307047C3686C33A8
:1029D0000B6000207047C368D3F894007047C0684C
:1029E0001346D0F88020806EFFF712B80EB403B5FE
:1029F000C368986803AA036852F8041B01929B6895
:102A0000984702B05DF804EB03B070472DE9F3413D
:102A1000099F876000F10C0504469846C0E9001242
:102A20000E465C22002128461AF072FC3A460899AC
:102A30004046FEF775FF0A9AA066034600922946B3
:102A4000324604F16C00FFF76FFF0B4A22620B4A1B
:102A5000E2650B4A22660B9AA4610023204684F8A3
:102A60008C30C4E92433C4E92633226484F88D30E1
:102A700002B0BDE8F08100BFED2901009D290100F1
:102A8000B929010008B50821FFF708FF0021FFF769
:102A900083F80621FFF7A5F9006808BD38B505469B
:102AA00000680C46FFF7EEFFA042034606D8224618
:102AB0000549A868FDF760FF002038BDD5F89830BB
:102AC00053F82400F9E700BFA0CF070008B508219C
:102AD000FFF7E4FE0021FFF75FF80821FFF781F917
:102AE000006808BD38B5054600680C46FFF7EEFFE4
:102AF000A042034606D822460549A868FDF73CFFD8
:102B0000002038BDD5F89C3053F82400F9E700BF09
:102B1000F8CF070038B5C36F044600F16C0513B158
:102B20002846FFF76CFD2846FFF738FD204638BDE4
:102B30002DE9F04F05468BB04FF0000805F16C0011
:102B4000FFF7CEFE404540F3FB802C68082120466D
:102B5000FFF7A4FE4146FFF71FF8062181462046F5
:102B6000FDF75CFF231840B3205803440093A86E80
:102B7000FEF799FF04904846FEF79EFD4FEAC80312
:102B8000059001930026059B9E4200F0D6800A2105
:102B90004846FDF743FF09EB0001002800F0D38011
:102BA00059F800208B188A58964208D3674B684A18
:102BB00068484FF4837118F02FFF0090D7E7043373
:102BC00003EB860453F826301C4404212046FDF70D
:102BD00025FF58B12758009B1B68BB4208D85E48A8
:102BE0003946FFF7BBFC4FF0010B23E00746F2E745
:102BF000009B019A043303EB870A53F827309A4469
:102C000073010393EB6F9B58720113441C33D5E996
:102C100001125046FEF752F9834678B1504604F04F
:102C200073F8952896BF4D4B4D4953F820104D48E9
:102C3000FFF794FC58460BB0BDE8F08F019AEB6F9C
:102C40009B5872011344DB6913B939464648C8E7FB
:102C500093F814A00990BAF1200F4FF00E0120460E
:102C600042D1FDF7DBFE2218002835D14FF0000AD3
:102C7000CDF808A006212046FFF7B3F8FEF756FD71
:102C8000082106902046FFF7ACF8FEF74FFDEA6FEB
:102C9000019B079052F803B0039B0BEB03071C2228
:102CA000002138461AF034FB039B1A46069B4BF86A
:102CB0000230079B7B60099B3B61029B1421C7E9A3
:102CC000053A2046FFF78DF820B1036813B1FEF7EF
:102CD0002DFDB860013656E72358D118C6D004310F
:102CE000029152F803A0C5E7FDF798FE231858B1EA
:102CF0002258D34208D0BAF1950F96BF174B184906
:102D000053F82A1019486CE76868036851465B6AF3
:102D10009847074640B9BAF1950F96BF0F4B104937
:102D200053F82A1012485CE709AB049AA9682046B8
:102D3000B8478346002899D07CE708F10108FDE6F2
:102D40004FF0000B76E70368FFDE00BF94C007007A
:102D500024D007009FC00700C5CE070028B4070095
:102D6000D0FC0700EFCE07001CCF07003DCF0700C7
:102D700083CF07002DE9F74F01680446806EFEF708
:102D8000F5FD014650B96649A0680125FDF7F4FD3F
:102D900084F88D50284603B0BDE8F08F04F16C062E
:102DA0003046FFF7FBFC2046FFF7C2FE0546002831
:102DB000F0D15C4B63645C4B6063C4E91300236136
:102DC0003046FFF7ECFB05460028E3D1574BE364A0
:102DD000574B63633046FFF73BFC05460028D9D1CB
:102DE000544B6064E0642365E26F2168A06E04F1D7
:102DF0009003FEF7E9FE05460028CBD1A76E2068B8
:102E0000FFF740FE3B688100DB6838469847C4F80E
:102E1000980048B92068FFF735FE47498200A0684E
:102E2000FDF7AAFD0125B5E7AA4627683846FFF752
:102E300029FED4F86880A842D8F8009023D9082148
:102E40003846FFF72BFD0021FEF7A6FE0621FEF710
:102E5000C8FF2946FEF740FECDF800A00346D9F88A
:102E60000090E26FD4F898B039464046C847D4F88D
:102E700098304BF8250053F8253013B92A462F49CE
:102E8000CDE70135D1E73846FFF720FED9F80C3001
:102E9000810040469847C4F89C0028B92068FFF795
:102EA00015FE27498200BAE70025A946276838465B
:102EB000FFF70CFEA84227D908213846FFF7EEFCA1
:102EC0000021FEF769FE0821FEF78BFFD4F8688029
:102ED0002946FEF701FED8F80030CDF80090D3F86F
:102EE00000B0E26FD4F89CA0034639464046D8476C
:102EF000D4F89C304AF8250053F8253013B92A46F7
:102F000010498CE70135D1E73046FFF749FC05460B
:102F100000287FF43FAF012384F88C303AE700BFEC
:102F2000C4CD070087290100CD290100DF29010058
:102F3000D729010091290100E7CD070030CE070015
:102F400055CE07009FCE070090F88D3010B504468F
:102F50002BB10A498068FDF70FFD012010BD90F8E4
:102F60008C3033B104F16C000021BDE81040FFF754
:102F7000C3BBFFF7FFFE0028F4D0EFE7CBCF07007D
:102F800030B50446234601341D78002DFAD10139AD
:102F90000844013A12F8011F21B1834202D203F81A
:102FA000011BF7E700221A70184630BD30B5034602
:102FB0000C46B3FBF2F502FB1530C3B2092894BFEF
:102FC000303357332046DBB200F8013B2B464DB976
:102FD0006570A14208D20B78227801F8012B04F821
:102FE0000139F6E70446E4E730BD00002DE9F04F73
:102FF00095B01746009003911E4601F1FF39002558
:10300000009A3B7854199BB34D4531DA252B07F1D3
:1030100001020BD17B78662B60D00AD8632B00F0BD
:103020001781642B20D0252B36D1BA1C0135237093
:1030300032E0752B32D0782B3AD0732B2CD1039AF7
:103040003368501B311D013B04EB5000009A844251
:10305000A4EB020500F0028113F8012F002A00F012
:10306000FD8004F8012BF1E7A9EB05030A2B01DC35
:10307000681C23E030680028B8BF2D2306F104083F
:10308000BDBF611C2370404221460A22FFF78EFF1C
:10309000001B0544BA1C46461746B1E7A9EB0503D9
:1030A0000A2BE5DD06F104080A2221463068EDE727
:1030B000A9EB0502092A05F1010004DC00232370B5
:1030C00015B0BDE8F08F4FF030022270009A023543
:1030D0001354541906F104081022E6E7A9EB05037E
:1030E00007EE903AF8EEE77AB2EE0C7AF4EEC77A91
:1030F000F1EE10FABCD4F31D23F00703D3E900016D
:1031000003F1080618F03CF8C0F3C7530028A3F1F8
:103110007F0A01932346BCBF2D2203F8012B002216
:10312000BAF1800F04F12F0BC0F316081A7010D1FA
:10313000ABEB0301B8F1000F09D14A4A1846FFF77B
:103140001FFF8046A8EB04042544BA1CA4E7464AA6
:10315000F4E7464A0DF1100C51681068E646AEE8F7
:103160000300434908328A42F446F5D110681279C7
:10317000CEF800008EF804204046002204A98956AB
:10318000013228FA01F10D2A0844F7D131221A70D0
:103190002E225A7003F1020800229A70ABEB08024B
:1031A000072A0292CEDD424608334FF0300102F882
:1031B000011F9342F9D10A2208A9FFF7F7FE08AAD6
:1031C00002994046FFF7DCFEA0EB08034FF0300207
:1031D000D3F10701027012D00246A0EB020C9C450D
:1031E00008DA12F801CD02F801C04FF0300C82F875
:1031F00000C0F2E723EAE373C3F10703184410F8B1
:10320000012C302A00F1FF3301D143451ED80023A1
:10321000ABEB00010370174AFFF7B2FEBAF1000FE3
:10322000BFBF2D238DF82030019BC3F17F0A80465C
:10323000ABEB000BB4BF0DF1210108A90A225046E7
:10324000FFF7B4FE08AA5946404678E71846D6E785
:10325000336823700135BA1C04361DE7BA1C0E46CC
:103260001AE700BF2BD107002FD107001ED107009E
:1032700026D1070033D10700034610B553F8044B9D
:1032800000220120944204DD53F8041B013248431C
:10329000F8E710BD704703698361704737B505468D
:1032A0000C4680691146FEF743FA6B691B1AA3426C
:1032B00009D2E21A0092054968682246FDF75CFBD4
:1032C000002003B030BD0444AC61FAE737D10700F9
:1032D00037B5044640690D46401B1146FEF72EFAED
:1032E000236983420AD91B1A00932A46EB1A044920
:1032F0006068FDF741FB002003B030BD6061FBE773
:1033000080D1070037B583690D46016999420446AB
:1033100006D00E494068FDF72FFB012003B030BDF9
:1033200011468068FEF704FA63691B1A9D4207D9AB
:10333000EA1A0092064960682A46FDF71DFBECE791
:1033400028442061A0610020E8E700BFC9D1070040
:103350001ED2070010B50A4488B00F4C0791CDE982
:103360000312CDE905120422CDE901401C210DEB29
:103370000200FFF7ADFF60B1029B4360039B8360D7
:10338000049BC360059B0361069B4361079B04602C
:10339000836108B010BD00BF68D207008068704725
:1033A00070B5044680690E46FEF7C2F931460546FF
:1033B0006069FEF7C3F9401B70BD0000014601487B
:1033C0000AF0F1BC785102204FF41651014809F07F
:1033D000DFB900BF785102204BB1012803D0022889
:1033E00007D0002303E01944013991FBF3F3184699
:1033F00070470098013A504319440130091AF4E724
:103400000B7B012B70B504460D46164603D10023F5
:103410002363124B04E0032B15D100230363104BED
:103420006363287800F09EFA336863807368A38032
:103430006B686381AB68A3812B69E3816B69207042
:103440002382204670BD022B04D1064B03634FF04C
:103450007E53E5E76FF40003DAE700BFFFFF7F7FED
:103460000000C040000080BF13695B4270B543613B
:1034700053695B4283619369C361D3690362136AD1
:1034800015465B420446436208780E4600F06AFA2D
:103490006B68A3802B686380B368A38173686381C2
:1034A000736923823369E381EB6AA3622B6B20701B
:1034B000E362204670BD00002DE9F04F9A460B688C
:1034C0001B688FB0023B012B0546894690461E9E25
:1034D0000AD95B4B009344695A4A5B495623A0477B
:1034E00001200FB0BDE8F08F4B681C68012C0CD098
:1034F0000126CDE90246554B0193554B0093446993
:10350000504A54495723A047EAE7936892F800B01D
:103510000A93536817690B9353690C93199A0B9B81
:10352000009751465846FFF757FF0C9B1A9A189977
:103530000D90009358460A9BFFF74EFF1A9B0C9A7A
:10354000013B53430A9A0133013802FB0030189BB8
:103550000D9AC01A199B013B7B43571E0B9A0133EE
:1035600002FB0737A7EB0A0A2AEAEA7A4FEA6A035C
:1035700020EAE07033600AF00107431000F0010018
:10358000F0607360B760002249462846FDF744FDAD
:10359000824640B9304B6E6900936123294A2A491B
:1035A0002846B0479CE7224649462846FDF734FDA9
:1035B000074620B9294B00936E696323EEE749461D
:1035C00002222846FDF73AFD494683460022284656
:1035D000FDF725FD814620B9214B00936E696723D5
:1035E000DCE79DF87430012B09D1DAF80C30336137
:1035F000FB687361D9F80C30B361002071E77B6917
:103600005B680893B36A0793736A069306F1300305
:10361000059306F12C03049306F12003039306F1AE
:103620001C03029308F10C03CDE900033A465B4604
:1036300051462846FDF728FE0028D6D051E700BFA6
:10364000EED2070090D2070061B3070074060800AD
:1036500012D307006CBE070026D3070037D307003C
:1036600049D307000B7C012B70B504460D46164666
:1036700003D100232363134B04E0032B17D1002352
:103680000363114B6363287800F06CF9336863803F
:103690007368A3806B686381AB68A3816B69E38106
:1036A000AB692382EB6820706382204670BD022BD9
:1036B00004D1064B03634FF07E53E3E76FF400033E
:1036C000D8E700BFFFFF7F7F0000C040000080BF41
:1036D00013695B4270B5436153695B4283619369CF
:1036E000C361D3690362136A15465B4204464362B1
:1036F00008780E4600F036F96B68A3802B6863806B
:10370000B368A38173686381B36923827369E381BA
:10371000F3686382EB6AA3622B6B2070E36220463E
:1037200070BD00002DE9F04F9A460B681B688FB002
:10373000023B012B0546894690461E9E0AD95D4BE9
:10374000009344695C4A5D495723A04701200FB0AC
:10375000BDE8F08F4B681C68012C0CD00126CDE928
:103760000246574B0193574B00934469524A5649BE
:103770005823A047EAE7936892F800B00A93536889
:1037800057690B9393690C93199A0B9B00975146B9
:103790005846FFF721FE0C9B1A9A18990D9000933A
:1037A00058460A9BFFF718FE1A9B0C9A013B53439D
:1037B0000A9A0133013802FB0030189B0D9AC01A97
:1037C000199B013B7B43571E0B9A013302FB0737C2
:1037D000A7EB0A0A2AEAEA7A4FEA6A0320EAE070CB
:1037E000336043107360394B0AF0010700F00100A9
:1037F000F060B7601A6849462846FDF70DFC82461E
:1038000040B9334B6E69009362232B4A2B492846FB
:10381000B0479BE72F4B49461A682846FDF7FCFB4B
:10382000074620B92C4B00936E696423EDE72B4BC0
:1038300049461A682846FDF701FC294B494683464C
:103840001A682846FDF7EBFB814620B9254B00930B
:103850006E696823D9E79DF87430012B09D1DAF835
:103860000C303361FB687361D9F80C30B361002010
:103870006DE77B691B690893B36A0793736A0693C4
:1038800006F13003059306F12C03049306F120039F
:10389000039306F11C03029308F11003CDE9000322
:1038A0003A465B4651462846FDF7EEFC0028D6D046
:1038B0004DE700BFEED2070070D3070061B30700E9
:1038C0007406080012D307006CBE070084D20700FC
:1038D00026D307008CD2070037D3070080D2070019
:1038E00088D2070049D3070010B5044611B901601A
:1038F000204610BD496951F8042B40F8042B920072
:1039000019F008FCF4E70B681946002A30B451F8A6
:10391000045B0BDB954209DD51F82210002905DB21
:1039200003EB820330BC426D59681047002030BC65
:103930007047FFF7E8BF4B6803EB8202436D5168A5
:10394000184710B5044609B1496819B90023236026
:10395000204610BD51F8042B40F8042B920019F0BA
:10396000D9FBF5E7012803D002280CBF0220002074
:10397000704730B550F8045B00230122AB4207DAF0
:103980008B4214BF50F82340012462430133F5E712
:10399000104630BD08B50021FDF768FE08BD08B52A
:1039A000FDF73CFE08BD00002DE9F0410446144837
:1039B000FFF7F0FF06461348FFF7ECFF04F18054D1
:1039C000804621462046FFF7EAFF21460546FFF7DD
:1039D000E6FF294607462846FFF7E1FF0221FDF7EB
:1039E00045FE41463844FFF7DAFF01212844FDF740
:1039F0003DFE21183046FFF7D2FF3044BDE8F0818C
:103A000094A8F570ABAAAA2A2DE9F84340F07F44A8
:103A100005466001FFF7C8FF81464248FFF7BAFF3D
:103A200001464846641BFFF7BAFFC4F30067C7F1BD
:103A3000000800EA08083C48FFF7ACFF013F07EA2E
:103A4000090788EA070701463846FFF7A8FFC4F3CD
:103A50004068C8F1000900EA09093448FFF79AFFF5
:103A600008F1FF3808EA070889EA080801464046D5
:103A7000FFF795FFC4F38069C9F1000707402C48A0
:103A8000FFF788FF09F1FF3909EA080987EA090900
:103A900001464846FFF783FFC4F3C067C7F100083B
:103AA00000EA08082348FFF775FF013F07EA090706
:103AB00088EA070701463846FFF771FFC4F300762E
:103AC000C6F1000800EA080006F1FF3808EA070816
:103AD00080EA08081848FFF75DFF01464046FFF7F7
:103AE0005EFFC4F340777E42013F064007EA0800CC
:103AF0004640F220FFF74EFF01463046FFF74FFFEA
:103B0000C4F3807463421840013CB5FA85F3344035
:103B10005B094440581E5B42204023F0004358405C
:103B2000BDE8F8837BBEAF63F2CBA24D6CAC162F21
:103B3000A4AA5211B72A580211FE0A00B0F1804F10
:103B40002DE9D04828DAB0F1404F4FF0FF324FF066
:103B50000004C8BF002210EB000B4FEAE07141EBFC
:103B6000010CBBF1004F7CF1FF3319DB6FF0004615
:103B700000275E4577EB0C03ACBF58466FF0004062
:103B8000E343184024F00044D3436040184002F05F
:103B900000425040BDE8D0884FF0FF340022DAE701
:103BA0004FF00040ECE700006FF000422DE9F84FC5
:103BB00014184FF0000343EBE0756B1C08BFB4F121
:103BC000FF3F204618BF0124294618BF00250619CB
:103BD00041EB0507FB0FF01847F100014F104FEACA
:103BE00030064FF05A30FFF7D5FE05462748DFF87C
:103BF000A090FFF7CFFE01463046FDF70FFDB0461F
:103C00002C186FF000460325002721464046FDF79B
:103C100005FDC0F100512046FDF700FDB0F1005F49
:103C20002CDA48454FF0FF314FF0000CA8BF0021BF
:103C30004FEAE07B82004FEA8B0343EA9073B2F1D4
:103C4000004F73F1FF301DDB964277EB0300B8BFE6
:103C50006FF000426FEA0C031A402CF0004CCB438B
:103C600082EA0C021A4001F000414A40013D14442E
:103C7000CBD12046FFF762FFBDE8F88F4FF0FF3C45
:103C80000021D5E74FF00042E4E700BFC4C3C3C33F
:103C9000010000E02DE9F04F97B05C6814924A688B
:103CA0009442A8BF14460A6903920F941A69039CB0
:103CB0009442A8BF14460C948C68C9680491996812
:103CC000DB680593C3680D9303690E93059B0A9403
:103CD0004B439B0053431393209B0893059B0B91ED
:103CE00053439B00129393001093039B00269B0069
:103CF00011930196B7EE006A019B0F9A934280F2EE
:103D00009780089B079300270297029B0B9A934288
:103D100080F28480079B06930024A646059B9E455F
:103D200072DA069B09934FF0000C0C9B634562DD31
:103D3000B0F902200499B0F90430DFED407AA21AFC
:103D4000A1EB020981694CBFC2F100084FF00008E5
:103D50008945A8BF89460A99FB1AA1EB030A416964
:103D6000002BB4BF5D4200258A45A8BF8A46334474
:103D700004992B4442444B43B0EE677A1592554563
:103D800019DA159AD118039A02FB01C1149AC34695
:103D900002EB8101CB450ADAD1ED006A119A37EEC8
:103DA000267A77EE867A0BF1010B1144F2E7049A3A
:103DB00001351344E3E7F5EE407AF1EE10FA3BD01B
:103DC000C7EE276A099B0CF1010CD0ED097A90ED42
:103DD0000A7AF4EEE67AF1EE10FAD8BFF0EE667ADF
:103DE000B4EEE77AF1EE10FA58BFB0EE677AA3ECC2
:103DF000017A099399E7069B109A134406930E9B48
:103E00000EF1010E1C4489E7029B129A01330293C2
:103E1000079B134407930D9B1F4476E7019B139A5E
:103E200001330193089B134408930A9B1E4463E7E4
:103E3000012017B0BDE8F08F0020FAE70000000075
:103E40002DE9F04F99B05C6814924A689FED696A59
:103E50009442A8BF14460A6903920F941A69039CFE
:103E60009442A8BF14460E948C68C968049199685E
:103E7000DB680593C3680C9303690D93059B099454
:103E80004B439B0053431393229B0893059B0A913A
:103E900053439B00129393001193039B4FF0000E2A
:103EA0009B001093CDF800E0009B0F9A934280F2A4
:103EB0009D80089B079300270197019B0A9A9342D4
:103EC00080F28A80079B069300240294029B059A45
:103ED000934277DA069B0B934FF0000C0E9B9C45A8
:103EE00066DAB0F902200499B0F904308DED176A52
:103EF000A21AA1EB020681694CBFC2F100084FF083
:103F000000088E42A8BF0E460999FB1AA1EB0309CF
:103F10004169002BB4BF5D4200258945A8BF894691
:103F2000734404992B4442444B4315924D4524DA83
:103F3000159AD118039A02FB01C1149AC24602EBEA
:103F40008101B2459DED177A13DAD1ED007AB4EE16
:103F5000E77AF1EE10FA17AA8B464CBF8B469346D0
:103F6000109ADBF800B0CDF85CB00AF1010A1144F8
:103F7000E7E7049A01351344D8E7D0ED097ADDED7F
:103F8000176A90ED0A7A0B9BF4EEE76AF1EE10FAED
:103F900058BFF0EE667AB4EEE77AF1EE10FA58BF49
:103FA000B0EE677AA3EC017A0B930CF1010C95E764
:103FB000029B119A01330293069B134406930D9BB7
:103FC0001C4483E7019B129A01330193079B13441E
:103FD00007930C9B1F4470E7009B139A01330093D7
:103FE000089B13440893099B9E445DE719B0BDE804
:103FF000F08F00BFFFFF7FFF2DE9F04F536991F86D
:1040000000A0D3E9027385B0D1E90169D1E9035871
:1040100002930124009433462A460299DDF838B011
:104020005046FFF7D9F9009403904B464246394673
:104030005046FFF7D1F9039B5C1E029B013806FB3B
:10404000045509FB0088ED1AA8EB070725EAE5757A
:104050006B1027EAE777CBF8003005F001057B10FD
:10406000002007F00107CBF80430CBF80850CBF85C
:104070000C7005B0BDE8F08F2DE9F743002205462E
:104080000E46D1E90348FCF7C7FF814660B9274BCC
:104090006C6900933A23264A26492846A047012600
:1040A000304603B0BDE8F083002231462846FCF7D5
:1040B000B6FF074620B9204B00936C693C23EAE722
:1040C000034600944A4641462846FFF795FF0646B8
:1040D0000028E5D199F81C30012B18D198F814303C
:1040E000012B03D10023A361144B04E0032B04D163
:1040F0000023A361124BE361D2E7022B04D1114BE1
:10410000A3614FF07E53F6E76FF40003EBE7092B52
:10411000C6D104F1140398F8141000933A4604F140
:1041200010032846FDF71EF8BAE700BF26D30700A4
:10413000DCD3070061B3070049D30700FFFF7F7F8F
:104140000000C040000080BF30B59BB09168129164
:1041500051681391DDE91E541169D26815925A68AD
:10416000ADF840201A681491ADF83E2029469A69AE
:10417000DB69189203A81993FFF7E3FB214609A80E
:104180002D68FFF7DEFB04B12468009409AB2A46D2
:1041900003A90FA8FFF77EFD1BB030BD30B59BB063
:1041A0009168129151681391DDE91E541169D2682A
:1041B00015925A68ADF840201A681491ADF83E2067
:1041C00029469A69DB69189203A81993FFF7B9FB8E
:1041D000214609A82D68FFF7B4FB04B124680094B8
:1041E00009AB2A4603A90FA8FFF72AFE1BB030BD72
:1041F00073B5002204460E46FFF79BFB3146054689
:1042000000222046FFF797FB01A90646287AFDF712
:104210009FFA044650B96868FFF72EF8019B2A6898
:104220005843336801909A4203D10024204602B0DB
:1042300070BD2046019B8342F7D92B681A5C336816
:104240001A540130F6E700002DE9F043002285B052
:1042500004460F46FCF7E0FE064658B9464B656932
:1042600000932323454A46492046A847012005B02C
:10427000BDE8F083002239462046FCF7D0FE054613
:1042800020B9404B009365692523EBE7D6F814C0AD
:104290005CF8049B4FF0000E01220023F1450CDD79
:1042A0005CF8048B4046C117514308FB0311A2FB85
:1042B00008230B440EF1010EF0E73B68696943B136
:1042C0001B68012B05D10B68012B02D14B6803B988
:1042D0000B608C464FF0FF305CF8048B0123002705
:1042E000B8451ADD5CF804EBBEF1FF3F0FD1B0F129
:1042F000FF3F10D0244B0193CDE9020E234B65699B
:1043000000933A231D4A22492046A847AEE70EFBF8
:1043100003F30137E4E73846FBE7471C1CBF01EB1A
:10432000800192FBF3F7307F18BF4F60297F18BFE1
:104330007B43814212D06669FCF712FB0746287F57
:10434000FCF70EFB134B0193134B0093CDE9027066
:1043500045230A4A11492046B04787E79A4208D0C8
:10436000CDE902230E4B01930E4B00936569462362
:10437000C8E700207BE700BF26D3070068D407000A
:1043800061B3070049D30700C2D40700C5D40700B2
:104390006CBE0700EBD40700F8D40700D1D40700A7
:1043A00004D5070018D50700F0B50B6885B00546A1
:1043B0000C46002B30D01B68013B012B2CD84B68DE
:1043C00013B11E68012E11D06E6903B11B68174A24
:1043D00017490124CDE90234164B0193164B009383
:1043E00028464C23B047012005B0F0BDFFF72CFF55
:1043F0000028F9D0214628466F69FFF725FF0023E2
:10440000CDE902030D4B01930D4B0093074A084978
:104410004D232846B847E6E70A4B00936C69034AE8
:1044200009494B232846A047DDE700BF68D40700B1
:104430006CBE0700740608002BD507003CD50700AA
:1044400046D5070063D5070061B3070070B5054D79
:10445000064604460FCD0FC495E80F0084E80F0010
:10446000304670BD48D4070007EE100AF7EE007A18
:1044700037EE277AC7EE877A17EE900A704717F063
:10448000D7B93821836B184708B516F029FB17F008
:1044900085F916F075FE08BDF8B52DED0E8B0AEE08
:1044A000101A0BEE102ADFED537A159EDFED52BA8B
:1044B0009FED52CA7BEE4A8A07EE103A68EEA78A51
:1044C000DDED147A77EEC77A9FED4D7AC7EE279A25
:1044D0000546B71E0024B6EE009A68EE89CAB0EE13
:1044E0006BDA07EE904AF8EEE77AB0EE4A8AA7EE6A
:1044F000A88A013418EE100AA84778EE2C7A0EEE3E
:10450000100A17EE900AA84707EE904AF8EEE77AED
:10451000B0EE4A7AA7EEA87A0DEE900A17EE100ACE
:10452000A84769EE8E7A0AEE900A17EE900AFFF716
:10453000ABFF07EE900AE9EEAA7A08EE100A67EEE2
:10454000897A17EE900AFFF79FFF69EEAD7A0AEEBF
:10455000900A17EE900AFFF797FF07EE900A7AEE9F
:10456000E7AA6AEE897A17EE900AFFF78DFF07EE49
:10457000900A78EE677AF4EEEB7AF1EE10FA33D423
:10458000F4EE4C7AF1EE10FAC8BFF0EE4C7AFDEE84
:10459000E77AB4F5007F17EE903A27F8023FA0D1F2
:1045A0001BEE100AA84707EE900A67EEA97A17EEED
:1045B000900AFFF769FF07EE900AF4EECD7AF1EE6C
:1045C00010FA14D49FED0D7AF4EE477AF1EE10FA5A
:1045D000C8BFF0EE477ABDEC0E8BFDEEE77A17EE22
:1045E000903AA6F80034F8BDDFED037ACFE7DFEDAF
:1045F000027AF0E70000003B000000C700FEFF4623
:1046000000008047000000002DE9F04F0B6889B0E2
:104610000446894613B11A68012A0FD0666903B1AE
:104620001B680125CDE902359B4B01939B4B009301
:104630005D239B4A9B492046B0471DE04B6813B160
:104640001D68012D0BD0666903B11B680125CDE9FA
:104650000235914B0193944B00935E23E9E70022CE
:10466000FCF7DAFC804658B9904B009366696023EA
:104670008B4A8F492046B047284609B0BDE8F08FE5
:1046800043691B68002B04DC8A4B00936669612335
:10469000EEE7002249462046FCF7C1FC074620B958
:1046A000854B009366696323E2E7D9F80C6026B96D
:1046B000824B009366696523DAE798F81C30072B74
:1046C0001BD1A36B40F202412046984740B97C4B76
:1046D000009365696B23724A75492046A84728E014
:1046E000B062A36B40F202412046984720B9754B57
:1046F000009365696F23EEE7F0623A7F98F81C300B
:10470000072A08D1092B3AD0072B14D06E4B0093FF
:1047100065697623DFE79A4231D0CDE902326B4BEF
:1047200001936B4B0093656978235D4A5D49204690
:10473000A8470125A0E7FB684BB10022CDE9023272
:10474000644B0193644B009365697D23EDE7B36A85
:1047500001934FF07E55614B6149624800950022FC
:10476000FFF79AFEF36A019300955C4B5E482A4678
:104770000021FFF791FEFB68F361BB68336298F894
:104780001C50D9F81090092D39D0072D40F0288100
:10479000FB684BB10022CDE902324E4B01934E4BE8
:1047A000009365692523C0E7DFED507A97ED027A23
:1047B000DFED4F6AB4EEE77AF1EE10FACCBF77EE98
:1047C000677A77EEC77AF4EEE67AF1EE10FA40F304
:1047D000C4804FF07C53002217EE100ACDE9042369
:1047E00016F07EF9434B0193CDE90201424B009351
:1047F000656927232A4A41492046A84799E7387F17
:10480000072833D1FB6813F5004F09D03C4ACDE9A6
:1048100002323C4B0193304B009365692B2384E7B4
:10482000DFED397A97ED027ADFED386AB4EEE77A98
:10483000F1EE10FACCBF77EE677A77EEC77AF4EE36
:10484000E67AF1EE10FA40F3A780314B002217EE22
:10485000100ACDE9042316F043F92E4B0193CDE95C
:104860000201254B009365692D23C3E7092857D022
:104870006669FCF775F807462846FCF771F8264B81
:104880000193CDE90270114B00932F23044A234971
:104890002046B0474DE700BF74060800F1D5070079
:1048A00090D507006CBE07002BD5070026D3070064
:1048B00061B3070001D6070049D307001BD60700E4
:1048C00036D607004DD6070002BF0700EBD407001D
:1048D000F8D40700E0F9070070D60700000080BF99
:1048E000000020C17F44010069440100000000383D
:1048F0006F120333AAD60700B6D607008AD6070080
:104900000080FFFFCBD60700000080376F12833294
:104910000000F03ED2D607003CBF0700D1D407000C
:10492000FB6813F1800F0AD06FF07F02CDE90232ED
:10493000454B0193454B009365693023F5E697EDB0
:10494000027ADFED437AB4EE677AF1EE10FA23D003
:10495000404B009365693123BDE6D8F8080016F096
:10496000BFF88246D9F800008B4616F0B9F8024627
:104970000B465046594616F00BF906F1080430A3D1
:10498000D3E9002316F02EFA07AB2246FCF780FD90
:10499000079BF36000256FE6D8F8080016F0A0F832
:1049A0008246D9F800008B4616F09AF807AB0293BE
:1049B000052406F10803019352465B460094FCF778
:1049C000B7FD0799F1601F222046FCF7E9FD16F0BC
:1049D00075F801F10043194616F08AFBB061D9E77A
:1049E000012D0FD028466669FBF7BAFF0546012066
:1049F000FBF7B6FF184B0193184B0093CDE902501B
:104A00004E2343E7387F012810D06669FBF7A8FFE3
:104A100007462846FBF7A4FF0F4B0193104B00936A
:104A2000CDE902704F230F4A0F4904E6D9F8000080
:104A300016F056F8C6E90001ACE700BFAFF30080FE
:104A4000140014001400243FDED6070070D60700BF
:104A50000000803BE3D6070005D70700F8D4070025
:104A6000EBD4070090D50700D1D407003821836B21
:104A7000184700002DE9F04F5E4BADB01A680446B0
:104A80008846D1E90357FCF7C7FA064658B95A4B8E
:104A90006569009338232046584A5949A8470120A0
:104AA0002DB0BDE8F08F574B41461A682046FCF701
:104AB000B3FA834620B9544B009365693A23EAE779
:104AC000524B41461A682046FCF7A9FA814620B9A4
:104AD0004F4B009365693C23DDE7736909931946E1
:104AE00017A851F8042B1692920018F013FBD9F86E
:104AF00014A051461DA851F8042B1C92920018F0E6
:104B000009FB1D9A1799099B20980E908A42A8BF0D
:104B10000A469968DB680C93DBF814300A929446D5
:104B20009A680B910F921A99DA680D91CDE91021CC
:104B3000DAF808201392DAF80C20CDF848C0CDE955
:104B40001420327F092A10D1324A126803EB820303
:104B500020465B684FEA830A5146A36B9847A36BD4
:104B60006862514620469847A8620695337F0593B0
:104B7000139B0493149B03930F9B0293109B01932D
:104B80000B9B00933A460C9B41462046FEF794FC53
:104B9000002885D1337F092B82D1F3685B422293B1
:104BA000D9F80C302393BB6825937B6824937B69E9
:104BB00029933B6928936B6827932B682693EB6AAC
:104BC0002A932B6B2B930AA912AB0EAA22A802F0F0
:104BD000E3FA011E09DD236C05F1340220469847F3
:104BE00000287FF45DAF00205AE74FF0FF336B637E
:104BF000F9E700BF84D2070026D30700E1D70700FA
:104C000061B307008CD2070037D3070088D20700B2
:104C100049D307005CD307002DE9F04F9BB0CDE9E5
:104C2000171242690B92B0F90A200492B0F90C20D5
:104C30000592B0F90E200692B0F910200792B0F953
:104C400002200C92B0F904200D92C269DDF8A4E0B4
:104C50000E92826A0892C26ADEF8041009925A68BB
:104C6000DDF894809142A8BF114615911A69D8F8D1
:104C700010109142A8BF11460A91DEF81010D8F822
:104C800004209142A8BF11469A681492DA681392E0
:104C9000D8F808200F92D8F80C201092DEF80820DF
:104CA0001192DEF80C20169112924FF0000A159A1C
:104CB000924580F2E1800D9A524202924FF0000933
:104CC000119A914580F2D2800C9A524203924FF091
:104CD000000B129A934580F2C2800021169A9142ED
:104CE00080F2B6800022029C00920F98009D8542BF
:104CF00045DA0020039D01901098019E864238DA23
:104D0000002D30DB139885422DDA002C2BDB149814
:104D1000844228DA00260A98B04224DD9868DF68C9
:104D200000FB0A4007FB00501F69BC46249F0CFB98
:104D300000700B9F805738441990009FD8F80800E6
:104D400000FB017CD8F80C70019807FB0C00D8F828
:104D50001070BC46269F0CFB0070199F80570136CF
:104D600000FB0722D7E7019801300190069805441F
:104D7000C2E700980130009007980444B5E72898EE
:104D800010B150F821000244179850F8215018989B
:104D900050F8210020EAE074002802FA04F4D4BF9D
:104DA00040420020A54229D105F100425642564119
:104DB00084FB0545002C75F10002314AA8BF4FF075
:104DC0008042002E55D1A61845EBE277002E77F1F0
:104DD000000207DA6FF00044A4194FF000057D418E
:104DE00026462F46F20F42EA47051F2808DD254BCD
:104DF000254A264840F2671116F00EFE0026D7E736
:104E0000012202FA00F6DEF80820DEF80C402A9FA4
:104E100002FB0A9204FB02B2DEF81040013E04FBE2
:104E2000027406EA0502761006EBD57645FA00F024
:104E3000B242C8BF01300E9A1044089A9042B8BFDF
:104E40001046099A9042A8BF10466054013145E7C8
:104E5000DDE903210A440BF1010B039239E7029AC1
:104E600005990A4409F10109029229E70AF1010AA8
:104E70001DE76FF00045B8E71BB0BDE8F08F00BF3D
:104E8000010000C02BC0070061D90700CEBF07009A
:104E90002DE9F04FADB0CDE92A12B0F902201292FF
:104EA000B0F904203B9D1392826A1B92C26A696822
:104EB0001C925A68379E1C69D3F80CC09142A8BF57
:104EC000114632690292A242A8BF22461D911F924A
:104ED000296972688A42A8BF0A461E929A68B36816
:104EE0001493F3680793AB6816921593EB68159AC1
:104EF000089353435B004B4328933C9B1093169BB2
:104F00000CFB03F35B0063432993139B0CFB03F53A
:104F1000129B6D42ED1A369B620002FB0533119322
:104F2000089B4B435B002693B0F90C301A93490061
:104F300004FB0CF324911A9CB0F90A1019915B0040
:104F40005C43514327942591149C07996143029C2B
:104F500061432391B0F9101018914B4307992093A6
:104F600023464B432293B0F90E30179353432193BA
:104F7000002303931D9B039A9A4280F20881139B9E
:104F80005B420F93119B0E93109B0D930023049390
:104F9000049B159A934280F2EE80129B5B420C9325
:104FA0000E9B0B930D9B0A9300230593089B059A78
:104FB0009A4280F2D080389B099300231E9A934234
:104FC00080F2B98000220F98099E0B9F06924FF045
:104FD000000A4FF0000B069A149CA24230DA0C9C97
:104FE000B646B8464FF00009079A91451EDA002CE4
:104FF00013DBA44511DD00280FDB169A82420CDD7D
:1050000000221F998A4208DA1EF902100D4638F86C
:1050100012100132C1FB85ABF3E7179A1444219AB1
:105020009044029A09F101099644DDE7069A01329B
:105030000692209A1744229A1644189A1044CAE7F6
:105040003A9A3AB102EBC302D2E900671AEB060AB8
:105050004BEB070B2A9A52F823602B9A002E52F83A
:10506000232005DA4B4B4C4AB3214C4816F0D4FCB4
:1050700002F11F00262803D9494B474AB421F4E71F
:105080001AF100084BF500494FF6FF714FF0FF3061
:10509000494508BF404503D2424B3F4AB621E4E7A9
:1050A0004149C2F10E008E42A0F120074FF0010EDF
:1050B000D8BF06F50046C0F120040EFA07F1D4BFB0
:1050C000361447F6FF762EFA04F40F4627430EFAFD
:1050D00000F14FEAE67906FB0BF001970AFB0900A5
:1050E000A6FB0A6700910744DDE90001C2F10F0247
:1050F000801979410646C2F12004B2F1200001FA7C
:1051000004F426FA02F242EA040258BF41FA00F01F
:105110001B9958BF02438A42B8BF0A461C998A426B
:10512000A8BF0A460A9921F81320099A23990A442C
:105130000133099242E7059B249A013305930A9BA8
:1051400013440A93259A0B9B13440B93199A0C9BB7
:1051500013440C932AE7049B269A013304930D9B76
:1051600013440D93279A0E9B13440E931A9A0F9B88
:1051700013440F930CE7039B289A01330393109B6E
:1051800013441093299A119B13441193F2E62DB006
:10519000BDE8F08F41D807001CD907005BD8070095
:1051A000B5D80700CFD80700FFFFFE7F2DE9F04FED
:1051B000B14BF1B01A680C460646FEF7BAFBAF4B8E
:1051C00007461A6821463046FEF7B3FB256881463C
:1051D0004DB12B68032B21D1A94B21461A683046CB
:1051E000FEF7A7FB0546A74B21461A683046FEF797
:1051F000A2FB8046387A98F80830984210D0CDE962
:105200000203A14B0193A14B00937469A04AA149E9
:105210004FF482733046A0470120DFE10025E2E72A
:1052200099F808309842D4E9034109D0072802D1FF
:10523000092B00F005827369974930469847EBE7E0
:10524000072800F0FD81092800F05281012840F074
:105250002682224662A8FEF7D3F8394640A8FEF718
:1052600070FB494646A83C68FEF76BFBD9F8003056
:10527000219329464CA8FEF764FB2B681493414602
:1052800052A8FEF75EFB002158A8D8F80050FEF7A0
:1052900058FBBDF98A311593BDF98C31419A1693AB
:1052A000539B5698439EDDED6E6A9DED6F6ADFED70
:1052B0007B5A9A42A8BF1A462292449B4A9A93422A
:1052C0001946A8BF1146239147998142A8BF0146BC
:1052D00024914299179148991891499908915499A4
:1052E0001991199F559909917943890041432E914C
:1052F0001799159FAB46169D714389007543594315
:105300006D422F91ED1B990001FB054A099C444316
:10531000A40080002C947343BDF994412A90BDF9F8
:10532000920120949B005C431F9048432D942B9046
:10533000189C08986043800050432990BDF998015B
:105340001D9043432693089B53439B002593BDF92F
:1053500096311C934B4328939300279300230A9381
:105360000A9B229A934280F23881169BCDF844B072
:105370005B42CDE912A300230B93199B0B9A934236
:1053800040F3AE80159B5B421093129B0F93119BD1
:105390000E9300230C93099B0C9A934240F3908048
:1053A0000E9B219C1E930023249A934278DA0F9936
:1053B000139A9FED3A7A0D91254600271899B94224
:1053C00038DDDDF834E01099AC464FF0000808985D
:1053D000404525DD00291ADB8E4218DD002A16DB48
:1053E0001798904213DDCDE91ACE4FF000092398AB
:1053F00081450CDA1B98B0EC015A1B901A98F0EC1E
:10540000017A09F101091A90A5EE277AEFE71C98B5
:10541000014428988644279808F101088444D6E777
:105420000D99269801440D9125990D441D99013738
:105430000A44C3E7149ADAB102EB8302D2ED007A90
:105440001E9A77EE877A0133F4EE676AF1EE10FA6E
:10545000C8BFF0EE667AB4EE676AF1EE10FA48BFA4
:10546000F0EE467AE2EC017A1E92299A14449BE708
:10547000F0EE657AE4E700BF84D207008CD2070023
:1054800080D2070088D20700EBD40700F8D40700C9
:10549000E1D707006CBE070034D70700000000000A
:1054A0000C9B2A9A01330C930E9B13440E932B9A58
:1054B0000F9B13440F931F9A109B134410936AE79A
:1054C0000B9B2C9A01330B93119B134411932D9A30
:1054D000129B13441293209A139B134413934CE78B
:1054E0000A9B01330A932E9B9B442F9B9A4437E7D8
:1054F0004B69D1F810A05F93012BCDF878A170D142
:10550000BAF1010F6DD123695B425893A369599396
:105510008B685B934B685A9363685D9323685C93D5
:10552000E36A6093236B6193636A30934946A36A8D
:10553000319346A8FEF705FA39464CA8FEF701FA62
:10554000414652A8FEF7FDF9294662A8FEF7F9F98F
:105550004D99539B4A9A47989942A8BF1946509B28
:1055600034919A42A8BF1A46569B40918342A8BFE5
:1055700003464E9835904F98616B3893CDE93602CB
:105580004898399049984393CDE93A02CDE93EA332
:10559000549A41920023559A42929942CDE93CAAED
:1055A000CDE9323303DB736C304698473290D8F83C
:1055B0000030069340AB05932B6804933CAB0393F8
:1055C000D9F80030029338AB01933B68009330AABE
:1055D00034AB58A932A801F083FD002071B0BDE8BA
:1055E000F08F224662A8FDF73FFFD4E909AB3946A8
:1055F00040A846ACFEF7A5F94CAE494620463F68A8
:10560000FEF79FF929463046D9F80090FEF799F940
:105610002B68089352AD41462846FEF792F9D8F818
:105620000020089B0097CDE90552CDE90363CDE941
:10563000014940AB5A46514662A8FFF7EDFACCE764
:10564000224662A8FDF710FFD4E909AB394646A807
:105650004CACFEF776F952AE494620463F68FEF75D
:1056600070F929463046D9F80090FEF76AF92B68A0
:10567000089358AD41462846FEF763F9D8F8002054
:10568000089B0097CDE90552CDE90363CDE90149B7
:1056900046AB5A46514662A8FFF7FAFB9DE774698C
:1056A000FBF75EF93B7A024902463046A047B3E574
:1056B000C5D7070070B5054D064604460FCD0FC48B
:1056C00095E80F0084E80F00304670BD14D707003E
:1056D0003821836B184700002DE9F04FA1B0CDE9C8
:1056E0001B12B0F90A200992B0F90C200A92B0F905
:1056F0000E200B92B0F910200C92B0F902200D92FE
:10570000B0F904200E92B0F912200292426911926F
:10571000C2691292826A0F92C26A10922F9A5168DD
:105720005A689142A8BF11469A681392DA681A9192
:1057300014921A6915922B9A926816922B9AD26833
:1057400017922F9A926818922F9AD2681992029AF9
:10575000920005924FF0000E1A9A964580F2F3805F
:105760000E9A524207924FF0000B189A934580F21E
:10577000E4800D9A524204924FF0000A199A924521
:1057800080F2D4801B9A06924FF000081C9ADDF834
:10579000B8900392CDF80480019A15998A4280F25C
:1057A000BE802A9A0198024400211F92029A9142D7
:1057B00080F2A78001EB080208922C9D089E0798B2
:1057C0000022354417461E95169DAF4230DA049DDF
:1057D0004FF0000C179EB44526DA002D1FDB149EF7
:1057E000B5421CDA00281ADB139E864217DD9E683C
:1057F000DC6806FB0E0604FB06561C6966431F9C0C
:10580000A657119C34191D942B9CE668246906FB4D
:1058100007C666431E9CA6571D9C06FB04220B9CD4
:105820000CF1010C2544D5E70C9C01372044CBE753
:105830002E9810B159F821000244069850F82170B2
:10584000039850F8210020EAE076002802FA06F6D4
:10585000D4BF40420020B74229D107F1004255424F
:10586000554186FB0767002E77F10002374AA8BF33
:105870004FF08042002D63D1B41847EBE275002C45
:1058800075F1000207DA6FF0004636194FF0000795
:105890006F4134463D46E60F46EA45061F2808DDBF
:1058A0002B4B2C4A2C4840F2671116F0B5F8002516
:1058B000D7E7012202FA00F72F9A2F9C9268E56839
:1058C00002FB0EB205FB02A22569309C013F05FBDD
:1058D000024507EA06027F1007EBD67746FA00F08A
:1058E000BA42C8BF0130129A10440F9A9042B8BF12
:1058F0001046109A9042A8BF1046089A0131A85449
:1059000054E7019A01320192DDE905120A44069238
:10591000039A0A440392029A894490443CE7049A09
:1059200009990A440AF1010A049227E7079A0A9999
:105930000A440BF1010B079217E70EF1010E0BE77A
:105940006FF00046AAE721B0BDE8F08F010000C06B
:105950002BC007000EDB0700CEBF07002DE9F04F7C
:10596000A84AD1E90363F5B0126808938A468046D5
:10597000FDF7E1FFA44A5146126804464046FDF790
:10598000D8FFA24A0746126851464046FDF7D1FFAC
:10599000DAF80050089B814655B12A68032A18D1CD
:1059A0009B4A514612684046FDF7C3FF089B0546D7
:1059B000387A01280FD0092800F05A81D8F814400D
:1059C000FAF7CEFF3B7A934902464046A0470120B2
:1059D000C8E10025ECE73246194664A8FDF742FE0F
:1059E000394647A8FDF7ADFF49464DA83E68FDF78B
:1059F000A8FFD9F800302293294653A8FDF7A1FF4C
:105A00002B681993214659A8FDF79BFF002C00F045
:105A1000C08023681893BDF9A231489A08935A9B15
:105A20004A9FDDF82CC1BDF99211DDED706A9DED44
:105A3000716ADFED795A9A42A8BF1A46499B1A93B8
:105A40004F9B2393509B1B935B9B1C935C9B0993E5
:105A50001A9B25927B43BDF994219B000CFB03F319
:105A60002D9353427A432E9352424B422693521A1D
:105A70004FEA8C0303FB026216925D9A17921C99FF
:105A8000099A4A4317994A432F92BDF99C212192C2
:105A9000219909980CFB07F2920051432B91179919
:105AA00041432C91BDF99A11209159432A91BDF996
:105AB000A0111D914A4328921B99519A5143890084
:105AC0002991BDF99E111E914B4327930026930007
:105AD00024930A960A9B259A934280F242812E9B38
