:020000021000EC
:1000000000000420554E02008D4E0200B93102005E
:10001000914E0200C5310200CB3102000000000009
:1000200000000000000000000000000061DB010093
:10003000994E020000000000F9DB010009DC01001C
:10004000458F0200110002009F4E02009F4E0200E9
:100050009F4E02009F4E02009F4E02009F4E0200E4
:100060009F4E02009F4E02009F4E02009F4E0200D4
:100070009F4E0200D99002009F4E0200290002000C
:100080009F4E02009F4E02009F4E02009F4E0200B4
:100090009F4E02009F4E02009F4E02009F4E0200A4
:1000A0009F4E02009F4E02009F4E02009F4E020094
:1000B0009F4E02009F4E0200000000000000000062
:1000C0009F4E02009F4E02009F4E02009F4E020074
:1000D0009F4E02009F4E02009F4E02009F4E020064
:1000E0009F4E02009F4E02009F4E02000000000043
:1000F000000000009F4E0200000000009F4E020022
:1001000010B5054C237833B9044B13B10448AFF351
:1001100000800123237010BD0810002000000000A3
:100120004C03080008B5034B1BB103490348AFF368
:10013000008008BD000000000C1000204C030800E7
:10014000154B002B08BF134B9D46A3F5803A0021A9
:100150008B460F461348144A121A1CF069FE0F4BC7
:10016000002B00D098470E4B002B00D09847002062
:10017000002104000D000D48002802D00C4813F0A7
:10018000B3FD1CF057F9200029000FF077FD13F0A4
:10019000A8FD00BF000008000000042000000000CF
:1001A000D9FB010008100020F8F00220E93C020011
:1001B000000000002DE9F0411F4E337807460C4641
:1001C00015466BB9012116200DF05EFC01211720A8
:1001D0000DF05AFC012118200DF056FC012333705C
:1001E000012117200DF08CFC012116200DF088FC58
:1001F000002118200DF084FC64200DF0E7FB0121A4
:1002000018200DF07DFCAC420FDD002117200DF011
:1002100077FC012116200DF073FC2B462246384650
:100220000649BDE8F04100F0B1BB012117200DF0F7
:1002300067FC0021EEE700BF241000204C140300EF
:1002400010B51049044600F0A1FB0F4809F03AFF31
:100250000D4809F03BFF0C4809F03AFF0822412104
:10026000094809F057FF0028F8D00849204600F057
:100270008DFB32200DF0AAFB034809F027FF002078
:1002800010BD00BFAC1403002C200020BD140300DF
:100290002DE9F04F2DED028B89B08B465849594C12
:1002A00007931546069000F071FB574B57491A68A3
:1002B00020460BF03DFE616FD4F880309BFBF3F3DA
:1002C0000220C91A91FBF0F10B440493A36FD4F8F8
:1002D000842095FBF2F29B1A93FBF0F30293D31860
:1002E00001910593474C20460BF03AFE0546002845
:1002F0006ED0D4F88C20029B9A42F3DBD4F888307D
:1003000001998B42EEDB04998B42EBDA05998A4224
:10031000E8DA216E03910299D4F884509FED3C8A6B
:10032000521A5543019A9B1AD4F8802053430BFB71
:100330000535079B4FF0000A1D44D4F8843053451F
:10034000D0DD0027D4F88030BB423DDD039B33F87D
:10035000026B0393C6F3451080001AF03FF922A305
:10036000D3E900231AF0A4F98046F00AC0008946B8
:100370001AF034F91EA3D3E900231AF099F90246C2
:100380000B464046494619F0DDFF804606F01F0047
:10039000C00089461AF022F917A3D3E900231AF006
:1003A00087F90B4602464946404619F0CBFF1AF042
:1003B00077FC07EE900A77EEC87AFDEEE77A17EE43
:1003C000903AEB550137BDE70AF1010A5D44B4E705
:1003D0001049069800F0DAFA284609B0BDEC028B05
:1003E000BDE8F08FAFF30080A52C431CEBE2E63FA5
:1003F000BC96900F7A36CB3F5D6DC5FEB27BB23FA7
:10040000CC140300DC5002202820002026100020FD
:1004100000000043F614030007220521014809F0FB
:10042000F3BD00BF2C20002010B52349044600F086
:10043000ADFA224809F050FC012107200DF024FB01
:10044000012107200DF05CFB1D4809F08AFB80228A
:1004500007211C4809F032FE64200DF0B7FA002293
:100460000721184809F02AFE64200DF0AFFA552242
:100470000021144809F022FE0021124809F046FE2E
:10048000552809D01049204600F080FA4FF47A70C0
:100490000DF09CFA012010BD01210A4809F0E5FD8C
:1004A000084809F0B7FE0021064809F085FE6420DF
:1004B0000DF08CFA0020EEE771140300C841022011
:1004C000B44102202C2000208D1403002DE9F041BE
:1004D00005461E481E4C09F023FE1E4920600246B8
:1004E000284600F053FA2368B3F5805F08D94FF42B
:1004F00080521949284600F049FA0120BDE8F081F0
:1005000023B91649284600F041FAF6E70F48DFF80C
:100510005880134F09F0A5FD0C4809F0AFFD0026E7
:1005200023689E4206D20021404609F0AAFAB85537
:100530000136F5E70F200DF04BFA0A49284600F086
:1005400025FA024809F089FD0020D7E72C20002079
:10055000282000206715030085150300A815030057
:1005600026100020C7150300B44102202DE9F041F8
:10057000154E337805460F46904663B9FFF754FF92
:10058000044630B11149284600F000FA2046BDE883
:10059000F081012333702846FFF752FE044608B16C
:1005A0000B49F0E72846FFF791FF044608B10949D7
:1005B000E9E7069B424639462846FFF769FE0446AE
:1005C0000028E3D00449DEE72510002012150300BF
:1005D000241503003A1503004A1503007047002252
:1005E000C0E90022826070470120704703689B6960
:1005F00018470368DB691847202930B50ED0D0F8BA
:10060000A44000239C4209D05A018518AD698D424F
:1006100002D10432104430BD0133F3E70020FAE781
:10062000704730B5D0F8C44000F1A80200239C42C6
:1006300009D012F8015B8D4203D12C3350F823000E
:1006400030BD0133F3E70020FAE72DE9F041D0F89F
:10065000A4700446884605460026B7420FD0AB6911
:10066000202B09D14146E8691CF04EFE20B904EB6D
:1006700046100430BDE8F08101362035EDE700205A
:10068000F8E710B5CC21044613F060FD204610BDFC
:1006900010B50421044613F059FD204610BD00009A
:1006A00037B5144B144C1B6820685B6800936022BC
:1006B00001231146FFF75AFF18B11049206800F0D6
:1006C00065F90F4D286802F0ADFB18B10D4920689F
:1006D00000F05CF90021286802F074F94368206892
:1006E00093F9002093F9011003B0BDE83040FFF703
:1006F00061BD00BF4C20002048200020F3AC070063
:100700004420002009AD070020292DE9F8430546C3
:1007100088461446994609D1D0F8C80010B901207E
:10072000BDE8F8831F4900F031F9F8E703689B69D9
:100730009847074640B1D5F8C8000028EFD0424698
:10074000194900F023F9EAE7D5F8A4C0BCF1040F79
:1007500009D9D5F8C8000028E1D00523424613493D
:1007600000F014F9DBE70FCC05EB4C1E0EF104068C
:100770000FC694E80F0086E80F000CF10103CEF8D5
:100780001880C5F8A430D5F8C430EA18384682F885
:10079000A88003F12C02013345F82290C5F8C4303B
:1007A000BEE700BF1CAC070061AC0700B0AC07009F
:1007B0002DE9F041554C8CB002F07CFD2378BFF35D
:1007C0005B8FDB070BD4204613F09CFA38B1204630
:1007D00013F0BAFA4E4A4F494F4813F080FA4F4D82
:1007E0004D4B2B604E4B4F4F1A68D118D358396080
:1007F000CB1A1A88042A0CD99A8812B18A58032A6B
:1008000009D003234849444800F0C0F80CB0BDE8C3
:10081000F0810022F5E7DFF85081444E98F800405F
:10082000BFF35B8F14F0010411D1404613F06AFA54
:1008300068B13F4B33604046C6F8A440C6E9314436
:1008400013F082FA324A3B49304613F048FA04A8C2
:1008500005F0CEF9384B3548384E04AA0121FFF790
:1008600053FF04A804F000FB354B304804AA0321D1
:10087000FFF74AFF04A805F009F8324B2B4804AAF9
:100880000421FFF741FF04A803F01CFB2E4B27486F
:1008900004AA1621FFF738FF04A805F0A1FC2B4B92
:1008A000224804AA1921FFF72FFF3378BFF35B8F8B
:1008B00013F0010417D1304613F024FA98B12B68D5
:1008C00001934FF4083300930294184A3968204B7F
:1008D000204802F033F8304613F036FA0C4A1E492D
:1008E0001C4813F0FCF91D4C1A48206002F0BCF9BA
:1008F000014620B11A49286800F048F886E72068C8
:1009000002F084F8174B186080E700BF40200020F9
:1009100000020020DD050100040200204820002024
:10092000D81503005020002018AD070054400220C5
:10093000F8AB070021060100690D01003C200020F2
:10094000B90B01008D0C0100ED0A01004D0E0100F4
:1009500054200020204102203D2A01004420002094
:100960005FAD07004C2000203820002001308000BF
:100970007047000010289ABF024B53F8200002482D
:10098000704700BF78AD0700BCAD07000EB403B5DB
:1009900003AA036852F8041B01929B68984702B0AF
:1009A0005DF804EB03B070470CB407B504AA036804
:1009B00052F8041B01929B68984703B05DF804EB62
:1009C00002B07047006803685B6818470138C0B21E
:1009D00004289ABF014B185C0020704734AE070012
:1009E00020B101280CBF0220002070470120704771
:1009F00038B515461A4628B90B492846FFF7C6FFF1
:100A0000012038BD0468082C09D8043900EB84049F
:100A1000A04206D050F8043F41F8043FF8E70349EC
:100A2000EBE70020EDE700BFCEAE0700FCAE07000D
:100A30000368C01A03888B428CBF405A002070475D
:100A400010B50C210446FFF7F3FF231808B1205816
:100A5000184410BD08B5034610460F2B2BD8DFE80D
:100A600003F00C0812161A1E201022180E241C2641
:100A700028140A230B70002008BD0123FAE70B237A
:100A8000F8E70723F6E70223F4E71023F2E703234E
:100A9000F0E70923EEE70423ECE70D23EAE705235B
:100AA000E8E70623E6E70823E4E70C23E2E70E2362
:100AB000E0E70F23DEE700220A701A460249FFF73B
:100AC00065FF0120D8E700BF3DAF070038B50546F8
:100AD0001446FFF7ADFF00B12C5C204638BD08B5C9
:100AE00000220A21FFF7F2FF08BD00002DE9FF41B7
:100AF0001F4613681546064688461B6804222421B3
:100B000028469847044618B1242200211CF090F989
:100B1000CDE90254A4B91B4B019340F2B163009399
:100B2000194A1A4B41464046FFF73EFF01240399FC
:100B300011B102A8FFF746FF204604B0BDE8F081DE
:100B40003046FFF7CCFF112817D13046FFF778FF6A
:100B5000054690B10421FFF76BFF2E1868B12D58A0
:100B600070190AD021460A4B4246FFF741FF04465E
:100B70000028DCD1039B72591A62039B3B6000245E
:100B80000394D4E7B4AE07009DAE070039AE07006A
:100B9000C6AE070038B505461446FFF749FF00B159
:100BA0002C58204638BD38B505461446FFF740FF9F
:100BB00000B12C56204638BD2DE9FF4198461368F8
:100BC000154607460E461B680422182128469847FA
:100BD000044618B1182200211CF02AF9CDE902546C
:100BE000A4B9274B019340F23B430093254A264B7F
:100BF00031463046FFF7D8FE0124039911B102A80F
:100C0000FFF7E0FE204604B0BDE8F0813846FFF76C
:100C100066FF012806462DD13846FFF711FF05462D
:100C200040B300220421FFF7BEFFC0B2FFF7D8FE99
:100C30000022207006212846FFF7ACFF00226060EA
:100C400008212846FFF7A6FF00220A21A0602846B7
:100C5000FFF7A9FFC0B2FFF7B9FE324620730C219F
:100C60002846FFF797FF324620610E212846FFF7FE
:100C700091FF60610023C8F8004003931C46BCE765
:100C8000B4AE07009DAE070039AE07002DE9FF4165
:100C90001F4613681546064688461B6804221C2119
:100CA00028469847044618B11C2200211CF0C0F8C1
:100CB000CDE90254A4B9294B01934FF492630093F8
:100CC000274A284B41464046FFF76EFE0124039910
:100CD00011B102A8FFF776FE204604B0BDE8F0810E
:100CE0003046FFF7FCFE022833D13046FFF7A8FE5E
:100CF000054670B300220421FFF755FFC0B2FFF78D
:100D00006FFE0022207006212846FFF743FF0022D5
:100D1000606008212846FFF73DFF0022A0600A21FD
:100D20002846FFF737FF00220C21E0602846FFF736
:100D30003AFFC0B2FFF74AFE012220740E21284676
:100D4000FFF728FF0122606110212846FFF722FFEC
:100D5000A06100233C6003931C46B8E7B4AE0700D3
:100D60009DAE070039AE07002DE9FF411F4613680D
:100D70001546064688461B680422282128469847BF
:100D8000044618B1282200211CF052F8CDE9025483
:100D9000A4B9264B019340F24F630093244A254B9C
:100DA00041464046FFF700FE0124039911B102A815
:100DB000FFF708FE204604B0BDE8F0813046FFF79B
:100DC0008EFE05282DD13046FFF73AFE054640B38A
:100DD00000220421FFF7E7FEC0B2FFF701FE002268
:100DE000207006212846FFF7D5FE0022606008210A
:100DF0002846FFF7CFFE0022A0600A212846FFF711
:100E0000C9FE0022E0600C212846FFF7C3FE002245
:100E100020610E212846FFF7C6FEC0B2FFF7D6FDBF
:100E2000207500233C6003931C46BEE7B4AE070068
:100E30009DAE070039AE070038B504461546FFF7EA
:100E4000F7FD08B104442568284638BD2DE9FF4167
:100E50001F46136815460422064688461B6811463D
:100E600028469847044608B100230360CDE90254A0
:100E7000A4B9144B019340F23A730093124A134BF6
:100E800041464046FFF790FD0124039911B102A8A5
:100E9000FFF798FD204604B0BDE8F0813046FFF72B
:100EA0001EFE092808D13046FFF7CAFD20B10022F6
:100EB0000421FFF7C1FF206000233C6003931C4620
:100EC000E3E700BFB4AE07009DAE070039AE0700F0
:100ED0002DE9F843984605460023C8F800309146AE
:100EE0000F4608F0B5FD2B68EB1A06461A88082A4B
:100EF0000CD9198951B16C588D2E09D932461C492B
:100F00004846FFF743FD0120BDE8F8830124F3E7DD
:100F1000202E11D03B6822461B6831463846984740
:100F2000C8F8000008BB134A134952F8262023468C
:100F30004846FFF72BFDE6E7062A05D9DB88E918C6
:100F400013B1EB58C91804D10C494846FFF71EFDF0
:100F5000D9E73B6822465B68043138469847C8F8B1
:100F60000000B0FA80F04009CEE70020CCE700BFD7
:100F7000A0B1070064AF0700F4B1070096B2070004
:100F8000836810B41BB9036D5DF8044B184703EB7D
:100F900081105DF8044B7047C0EE807A73B504464B
:100FA00015460E4617EE900A19F02AFB1AF086F93C
:100FB00019F076FE9FED117A07EE900AF4EEC77AEB
:100FC000F1EE10FA0FDB9FED0E7AF4EEC77AF1EE38
:100FD00010FA08D8FDEEE77A002017EE901A314497
:100FE000296002B070BD074B009320466569064A30
:100FF00006494FF4AC73A8470120F2E7000000CF88
:101000000000004FADB8070055B807009DAE0700BF
:10101000002804DB884202DA52F8200070474FF0C3
:10102000FF3070470B6810B51968044610461A1D4A
:10103000FFF7EEFF011E04DB2046BDE81040FFF77E
:101040009FBF002010BD4B6810B5196804461046BC
:101050001A1DFFF7DDFF011E04DB2046BDE810402E
:10106000FFF78EBF002010BDFFF7DCBFD1ED037A84
:1010700092ED037A67EE877A73B5F5EEC07AF1EEFA
:1010800010FA1E460ADA0F4B009344690E4A0F49C4
:101090004FF4A573A047012002B070BD17EE900A6F
:1010A00019F0AEFA0446F0680D4619F0A9FA0B469D
:1010B00002462946204619F025FC069BC3E900019B
:1010C0000020E9E7D3B8070055B807009DAE070038
:1010D0002DE9F74F0446C86890469A460D4619F028
:1010E0008FFA0646D8F80C000F4619F089FA024626
:1010F0000B463046394619F0DBFADDE90C9B064613
:101100000F46BAF1000F1CD0DAF80C0019F078FA8B
:1011100002460B463046394619F012F90646D9F810
:101120000C0021F0004719F06BFA02460B463046DE
:10113000394619F0E7FB13A3D3E9002319F034FD76
:1011400050B14B46424629462046CDF830B003B058
:10115000BDE8F04FFFF78ABF074B00932046656953
:10116000064A074940F23D13A847012003B0BDE8F5
:10117000F08F00BFAFF30080ECB8070055B8070050
:101180009DAE07007B14AE47E17A943F2DE9F04312
:101190002DED028B9946137885B0032B0646DDF8BA
:1011A000388011D0092B2BD0072B2DD03B4B00932F
:1011B00044693B4A3B494FF4C873A047012005B03E
:1011C000BDEC028BBDE8F083FF240025012992EDE0
:1011D000038A17691CD103AADFED330A3946B0EE42
:1011E000480A3046FFF7D8FE0028E8D1039BAB42FF
:1011F000ACBFC9F80030C9F80050C8F80040DEE7BD
:101200007F246FF07F05E1E747F6FF74274DDDE7A8
:10121000032924D103AADFED240A3946B0EE480A97
:101220003046FFF7B9FE0028C9D1039BAB42ACBFE3
:10123000C9F80030C9F8005003AAF1EE080A39468F
:10124000B0EE480A3046FFF7A7FE0028B7D1039B4F
:10125000A342D4BFC8F80030C8F80040AFE7022965
:1012600015D103AAFFEE000A3946B0EE480A30460F
:10127000FFF792FE0028A2D1039BAB42ACBFC9F896
:101280000030C9F8005003AAF7EE000AD7E7C9F802
:1012900000500020C8F8004091E700BF0EB90700D9
:1012A00055B807009DAE0700000000000080FFFF5A
:1012B0002DE9F04F91F830908FB0B9F1010F04464D
:1012C0000D4617469B46DDF880800FD001266D4BFA
:1012D0000193CDE902966C4B00934469DA236B4A83
:1012E0006B49A04701200FB0BDE8F08F92F8306045
:1012F000012E08D0634B0193CDE90269654B009341
:101300004469DC23EBE7526B3AB9634B00934469C1
:10131000E6235E4A6149A047E4E7D2F80090B9F1BC
:10132000000F04D15E4B00934469E723F1E7D9F83D
:1013300000A0BAF1010F35DD0B78092B06D0072B81
:1013400004D0584B00934469EC23E2E73B78092B27
:101350000DD00922CDE90232534B0193534B009338
:101360006569ED23494A4A492046A847BAE7D0456E
:1013700008D04F4B0193CDE902A84E4B009365690D
:10138000EE23EFE7BB68926803EB82035B68984546
:1013900008D0CDE90283484B0193454B0093656922
:1013A000F123DFE7D5ED037A189BCDED057AD3ED78
:1013B000037A09F10403CDED067A07930026B045C0
:1013C0002EDDBAF1010FC9BF079BD9F8040003EB6A
:1013D0008603186819F014F9CDE90801059819F089
:1013E0000FF902460B46DDE9080119F061F9CDE974
:1013F0000801069819F004F902460B46DDE90801D8
:1014000019F080FA0CAB0BAA00F058F81E9A0B9B4F
:1014100042F826301F9A0C9B42F826300136CEE760
:101420002B78032B1AD10EAB0020002163E90201B7
:101430000193189B00933A465B4629462046FFF7E6
:1014400047FE00287FF44FAF0BAB1A9ADDE90C0181
:1014500000F034F80B9B1B9A5B4213602B78092B2E
:1014600003D003F0FB03032B09D1199B189A1978B9
:101470001D9B009320461C9BFFF788FE33E700204E
:1014800031E700BF2EB9070048B9070055B807007B
:1014900014B9070061B907007BB907009DAE0700CA
:1014A0008FB90700AAB90700E4B90700F0B907002F
:1014B000FDB907000ABA07002BBA0700F8B51546B0
:1014C0001C460022002306460F4619F059FB18B1AE
:1014D00000232B602360F8BD22463046394619F0C0
:1014E000BBFE0022104B19F0E3F819F0E7FE19F0EB
:1014F0008FFC4FF000420023824273EB010601DAB9
:101500001AF012F8994201BF904223680133236018
:10151000236808BF4FF080401F33BEBF0023002068
:1015200023602860D7E700BF0000E041F8B515460A
:101530001C460022084B06460F4619F049FB08B925
:1015400019F0F2FF23462A4630463946FFF7B6FF28
:101550002368002BF4DBF8BD0000F03F0000000022
:101560002DE9F14F06460A989946C0F11F00012364
:1015700003FA00F00F46904619F030F84246044650
:101580000D464B463046394619F092F802460B4656
:101590002046294619F08CF80BA3D3E90023DDE996
:1015A0000BAB04460D4619F013FB10B106A5D5E9A7
:1015B00000455B4652462046294601B0BDE8F04F43
:1015C000FFF7B4BFAFF300800000C0FFFFFFDF41B3
:1015D0002DE9F8430124814604FA00F001388846D9
:1015E000154618F0FBFF0646A5EB09000F46C0F1B3
:1015F0002003A0F1200124FA03F304FA01F104FA14
:1016000000F0194319F026F802460B4630463946D9
:1016100019F04EF8C8F120030F46A8F1200124FA72
:1016200003F304FA01F10646194304FA08F019F02D
:1016300011F802460B463046394619F063F919F0A5
:101640008BFD19F0E5FABDE8F8834B1E1844B0FB9A
:10165000F1F048437047B0FBF1F048437047013860
:101660000844B0FBF1F04843704701380F2815D803
:10167000DFE800F00C0C100E1410080E10080E120B
:101680000E14140C02230B60002070470423FAE7A9
:101690000823F8E70123F6E71023F4E70120704759
:1016A0002DE9F3410D460168411A16460A88042ABD
:1016B0002ED98C8800EB040C8CB104591CEB040768
:1016C0000DD05CF804804FF0000C0124C44507D015
:1016D00057F804EF0CF1010C0EFB04F4F6E70124BB
:1016E000062A16D9C988B1B140561A460DF107012C
:1016F000C0B2FFF7AFF940B931469DF80700FFF7D8
:10170000B4FF10B933685C432C6002B0BDE8F081CF
:1017100001240020E9E70846E7E7436873B50C4673
:1017200053B153F8046B002101228E4205DD53F8BA
:10173000045B01316A43F8E7012201A9007AFFF74F
:1017400094FF10B9019B5A43226002B070BD4068FB
:101750000368DB68184770477047406803681022C9
:10176000DB681847406803685B691847406803688E
:101770000422DB6840211847704710B51C2104463D
:1017800012F0E4FC204610BD10B50821044612F00A
:10179000DDFC204610BD436910B50C46114633B13F
:1017A000406803680422DB688900984720600020B5
:1017B00010BD10B508210446FFF73AF9231808B107
:1017C0002058184410BD10B50A210446FFF730F91F
:1017D000231808B12058184410BD10B5062104463E
:1017E000FFF726F900B12056C0B210BD10B50E218A
:1017F0000446FFF71DF900B1205C003018BF01203E
:1018000010BD10B504210446FFF712F9231808B1E2
:101810002058184410BD10B508210446FFF708F9F8
:10182000231808B12058184410BD000038B50368CB
:101830000D46DB6804221C210446984738B1044B4E
:10184000C560C0E900340023C0E90533037438BD26
:1018500020BF070070B50E46102115460446FFF75D
:10186000F4FEA2190146121A284601F0E9FC2946A5
:10187000BDE87040FFF7DABF0023436140680368AA
:1018800004229B6860211847037C70B504460E460D
:101890002BB11E49C068FFF779F8002522E001232B
:1018A0000374406803680422DB680821984718B174
:1018B0006368174AC0E90023A0602046FFF7DCFFF9
:1018C0000028EAD13046FFF7A6FF656801682B685B
:1018D0002846DB680422C9009847054620B90D4810
:1018E00000F0BEFD284670BD23680246DB69314624
:1018F000204698470028D0D123682A469B69314664
:10190000204698470028EDD0C7E700BFB2BA0700CD
:1019100008BF070007BB070008B5406801F0B4FC2A
:101920000421BDE80840FFF790BE00002DE9F0411A
:10193000044688461F46FFF7EFFF002265691646FA
:10194000954207D000EBC20301325B68013308BF48
:101950000136F5E70B2E07D90C220A49E068FFF79C
:1019600015F80120BDE8F08100EBC5034FF0FF3210
:1019700040F835805A603D6063690133636100203F
:10198000F0E700BF77BD0700036870B59B680446A9
:101990000D4698472046FFF7BFFF6169002291423C
:1019A00006D04368013308BF456001320830F6E7CE
:1019B000606803680C319B680422C900BDE8704070
:1019C00018471160002070478068704708B50368A9
:1019D000994206D3054B064A06484FF4837119F025
:1019E000ABFD00EBC100D0E9010108BD89BE0700D5
:1019F00002C4070094BE070008B50368994206D3E5
:101A0000054B064A06484FF4837119F095FD00EB2B
:101A10008100406808BD00BF89BE070034C30700CD
:101A200094BE070008B50368994206D3064B074ADF
:101A300007484FF4837119F07FFD043000EB8102F9
:101A400050F82100104408BD89BE07004AC00700B5
:101A500094BE07002DE9F743054688461646002444
:101A60004FF00C094046FFF7CCFE03689C421FD2A2
:101A70002146FFF7D7FFFFF7B9FEB8B109FB04F71E
:101A800001A9F019FFF749FE68B968680199036870
:101A90001022DB689847F05140B9019A0549E8687F
:101AA000FEF774FF012003B0BDE8F0830134D9E7ED
:101AB0000020F8E784BA070008B50368994206D306
:101AC000064B074A07484FF4837119F035FD04307F
:101AD00000EB810250F82100104408BD89BE0700C8
:101AE0003AC2070094BE07002DE9F3479846037CED
:101AF00004460F463BB3154600263846FFF78BFEDB
:101B000003689E4227D23146FFF7D6FF23686269F9
:101B10001B6B8146414620469847C8B9236800960A
:101B2000D3F82CA06A68D8F8003039462046D04750
:101B300070B923686A681B6A494620469847083589
:101B400030B90136D9E70549C068FEF71FFF01200B
:101B500002B0BDE8F08700202074F9E735BB07002C
:101B60002DE9F84F05468846174600244FF02C090A
:101B70004046FFF750FE03689C4221D22146FFF702
:101B80009BFF6E6833680A218246D3F80CB0FEF7DB
:101B90004FFF0AEB0002A8B15AF80030D158304686
:101BA000042209FB01F1D84730B90749E868FEF77C
:101BB000EDFE0120BDE8F88F47F834000134D7E787
:101BC0000020F7E70368FFDEADBD07002DE9F74F02
:101BD0000C9F05460846164698468A46FFF71BFEA8
:101BE0003946FFF769FF2B6828465B6A4FF000090A
:101BF0009847CDE900792B680446D3F828B002460F
:101C0000434651462846D84740B10B49E868FEF79D
:101C1000BDFE4C46204603B0BDE8F08F002EF9D043
:101C200006EBC7060C23726803FB08F3D118D358E0
:101C300063604B68A360EDE7E3BD07002DE9F34760
:101C40000A9F06460846984689461546FFF7E3FD73
:101C50003946FFF731FF7068036804221B69402191
:101C600098470122CDE9007233680446D3F828A0D2
:101C70000246434649463046D04740B10B49F068DA
:101C8000FEF784FE0024204602B0BDE8F087002D58
:101C9000F9D005EBC7050C236A6803FB08F3D118DC
:101CA000D35863604B68A360EDE700BFCDBC07006D
:101CB00008B50368994206D3064B074A07484FF414
:101CC000837119F039FC043000EB810250F82100D7
:101CD000104408BD89BE070054BF070094BE07002A
:101CE00038B50C4608210546FEF7A2FE88B12958F2
:101CF0002046FFF7DDFF044650B10421FEF798FEB1
:101D0000221828B12358D11805D0D05800B1081D89
:101D100038BD0146ECE70846FAE710B50446FEF781
:101D200087FE231808B12058184410BD2DE9F74349
:101D30000B9C9046054640220E46204600211F4639
:101D40001BF076F84046FFF748FD0A9A2146FEF759
:101D500081FE002854D14046FFF748FD394684F8FB
:101D60002D004046FFF7BCFF606000284BD10223E6
:101D7000237501AA0A9B04F118014046FFF790FC65
:101D800000283DD104214046FFF7C7FF00283CD181
:101D90003E4BA3600C214046FEF74AFE08EB0007CD
:101DA00070B358F800003F18384629D0FFF701FDFE
:101DB0008046002868D0006810B33846FFF703FD5E
:101DC000F0B10068E0B1D8F80430E3603846FFF7BE
:101DD000FAFC0021FFF7FAFD20613846FFF7E9FC25
:101DE0002B68D0F8008096B11B6904220C2128468C
:101DF00098470646B8B926490A98FEF7C7FD01205C
:101E000003B0BDE8F0830123B2E7A060C2E7DB685E
:101E100004220C212846984706460028EBD02B6860
:101E2000D3F80C9002E02B68D3F810904046FEF7F0
:101E30009DFD042201462846C8470546706008B942
:101E40001449D9E73846FFF7B4FC306045F8048BF5
:101E50004FF00009C8450ADD3846FFF7B4FC494693
:101E6000FFF7B4FD45F8290009F10109F2E7102157
:101E70003846FEF7DDFD00B13858B060012384F824
:101E8000303066630020BBE7BAE700BF68BA0700DE
:101E90002DBE07005BBE07002DE9F041069C2646DB
:101EA0000D460021C4E9001146F8081F984628464F
:101EB0001746FFF792FC31464246FEF7CBFD064639
:101EC00058B939462846FFF70BFF04212060284601
:101ED000FFF723FF20B9034B63603046BDE8F08174
:101EE0006060FAE768BA070010B50446FEF7A0FD87
:101EF000231808B12058184410BD10B50446FEF749
:101F000097FD231808B12058184410BD2DE9F04161
:101F10000446084690461F460D46FFF77CFC06998E
:101F20009DF81C60FFF7C8FDFFF76BFC3946FFF713
:101F300079FD0C2107462846FFF7DFFFE36806938B
:101F4000CDF81C8003463A4631466068BDE8F04152
:101F5000FFF7ECBE2DE9F04F85B0064688460392A8
:101F600000254FF00C094046FFF755FC03689D42E1
:101F70003DD22946FFF7A0FD0290FFF742FCD0F8C2
:101F800000A07068036809FB0AF4DB68042221469C
:101F90009847074640B917492246F068FEF7F6FC15
:101FA000012005B0BDE8F08F0024544519D00298F7
:101FB000FFF727FC2146FFF735FD0C2183464046FD
:101FC000FFF79BFF09FB047300930246F3687068F8
:101FD0005946FFF761FF10B122460749DDE701349A
:101FE000E3E7039B03EBC50301355F60BBE700201C
:101FF000D7E700BF11BD070058BD07002DE9F04F1E
:1020000097B004460846934609938846FFF703FCB9
:102010002099FFF751FD0290FFF7F3FB6269036817
:102020006068D318182605937343039303680399D4
:102030001B6904229847064648B9039AB449E068E8
:10204000FEF7A4FC0122104617B0BDE8F08F0298FD
:10205000FFF7D7FB03680493636906931021E368D5
:1020600007934046FEF7E4FC08EB0001002846D049
:1020700058F800208B1871D08A5808924FF0000948
:102080001F1DCA46089B53453AD03D4604212A6885
:1020900015442846FEF7CCFC04372A1808B1285806
:1020A000104417229B4904301BF018FB20BB0C2165
:1020B0004046FFF722FF062181462846FEF7B8FC7E
:1020C000C0B129584846FFF7F3FD04210546FEF745
:1020D000AFFC2B18002800F096812858034403F128
:1020E0001009DA68049B934206D08B490798FEF7E3
:1020F0004DFCA7E70146E5E70AF1010AC2E7814680
:10210000DA46B046374600254FF0FF3B049BAB4212
:1021100029D0C7F804A039465046FFF7FEFA024618
:10212000002890D1DAF80010C7E902BB51B9029833
:10213000FFF767FB2946FFF775FCFFF757FB80F0B9
:102140000102D2B23A75B9F1000F09D059F8252031
:102150003A61013518370AF10C0AD7E79946CFE7FB
:10216000C7F810B0F5E74FF0000A4FF018095746CE
:1021700006210298FFF7D1FD0368534508D951465F
:10218000FFF73AFC09FB00600AF1010A8760EFE7FC
:102190004FF0000A4FF0180908210298FFF7BDFD23
:1021A0000A2183460298FFF79FFEDBF8003007689C
:1021B000534507F1FF3712D84FEA8709002FC0F2C5
:1021C000BB800A210298FFF78FFE03689F4210D35D
:1021D000524B534A53484FF4837119F0ADF95146AD
:1021E0005846FFF709FC09FB00600AF1010AC760C5
:1021F000D2E7043000EB090A50F809304FF0000B29
:102200009A4406215046FFF788FD02685A450ED9C8
:102210005946FFF7F1FB182303FB0060C268511C0D
:1022200001D0974200DDC7600BF1010BE9E74FF0E9
:10223000000B08215046FFF770FD02685A450ED981
:102240005946FFF7D9FB182303FB00608268531C33
:1022500001D0974200DA87600BF1010BE9E7013FFB
:10226000A9F10409AAE71021606801F00FF80546FA
:102270006068036829461B6910229847014658B9CF
:10228000E168294B019340F2CE330093274A284B53
:102290000846FEF789FBD5E62A460BA804F020FA8B
:1022A000D4F80C9035460027059BBB426BD02B7DA4
:1022B00013B901371835F7E710212868FFF7CFF970
:1022C0002B69591C02460FD1EB680093AB68494655
:1022D0000BA804F0C9F902460028EAD00BA8029224
:1022E00004F0B8F9029AAEE60193EB680093AB688C
:1022F00049460BA804F010FAEDE70BA804F00BFB1D
:102300002B4602460B493846FEF740FB0122E5E723
:1023100080BB07006CBA0700C1BB070089BE07007D
:1023200040C1070094BE070066BC07009DAE0700D1
:102330000CBC07007FBC07002046FFF7EDFA6FF0EA
:10234000070202FB0500069A099918232A4403FB99
:10235000056396464FF0FF3C0127AE4503F1180395
:1023600081D950F8352043F8182C00EBC50243F80A
:10237000141C526843F808CC43E9042203F8047C97
:1023800001350431E9E7606803685B69984710210B
:10239000606800F07BFF05460BA804F0BCFAA84279
:1023A000E768AAD8606800F06FFF039B81461E446F
:1023B00000254FF0FF3A464516D098F8143083B107
:1023C0002A460AAB39460BA8CDF828A004F0C0FA7B
:1023D0000246002882D10A9BD8F804204B4413609F
:1023E000013508F11808E6E70BA804F094FAA36990
:1023F000834200D2A0616068A169036810229B68D3
:10240000984702466AE7C368FFDE00BF00B5C1B067
:102410000B4602464FF48071684600F055FD684651
:1024200000F042FF024800F03FFF41B05DF804FBBE
:10243000C7F7070000B5C1B0134668460A464FF417
:10244000807100F041FD684600F02EFF034800F067
:102450002BFF002041B05DF804FB00BFC7F7070069
:102460000FB407B504A951F8040B0191FFF7CEFF93
:1024700003B05DF804EB04B0704700004369202B03
:1024800001D180697047DBB28D2B9ABF024A52F8A6
:1024900023000248704700BF64AF0700F4F3070051
:1024A000704710B51C21044611F050FE204610BDA7
:1024B000002310B50446C0E9003222B1136810466B
:1024C0009B6898472060204610BD10B504464068C0
:1024D00018B103682168DB689847204610BD016188
:1024E000704700002DE9F04F074685B000264FF0F9
:1024F0000C0BB86903689E4265D23146FFF7DCFADF
:102500004FEAC6098046002504214046FEF790FAAE
:1025100008EB000100285BD058F800208B188A587F
:1025200095424ED2043303EB850453F825301C4406
:102530000E212046FEF77CFA00283CD0235C002BBD
:1025400039D03B694B440BFB05FA586803A950444A
:10255000FFF7E3F80346002836D101900621204614
:10256000FEF766FA48B32256019B092A27D10C21AF
:102570002046FEF75DFA231890B124581C440A2126
:102580002046FEF755FA221810B32358D118D35815
:1025900043B9104B104A11484FF4837118F0CCFF27
:1025A0000446ECE749683B69039A4B445B6853F87F
:1025B0000A001AF03DFC0135A6E70146F3E719468B
:1025C000F1E7013695E70023184605B0BDE8F08F26
:1025D0000368FFDE89BE0700C4C5070094BE07007C
:1025E0002DE9F74F0446D0F81480806961610268D4
:1025F00091420F4607D32448FFF732FF01252846B2
:1026000003B0BDE8F08FFFF757FAFF0081460026C0
:102610004FF02C0A0A214846FFF766FC03689E42E9
:102620002ED22369DD590AFB0655D5F828B0584645
:10263000FFF724FF636801465A6B6846FFF738FFCF
:102640002946DBF80C30606898470546E068036867
:102650009B689847012D0CD15846FFF70FFF2B467A
:10266000014632460948FFF7FBFE6846FFF72DFF9B
:10267000C5E7002DF9D16846FFF727FF0136C9E706
:10268000C4F814800025BAE7F0C4070022C507008B
:102690002DE9F0474769044600254FF02C08A06952
:1026A00003689D421ED265612946FFF705FA4FEA8D
:1026B000C50A814600260A214846FFF715FC036833
:1026C0009E420DD2236953F80A3008FB06339A6AFA
:1026D00022B1526812B11969606890470136EAE781
:1026E0000135DCE767610020BDE8F0872DE9F84F90
:1026F000D0F81480054600264FF02C09A86903681D
:102700009E4224D26E613146FFF7D6F94FEAC60BDE
:10271000824600270A215046FFF7E6FB03689F42E6
:1027200013D22B6953F80B4009FB0744A36A616974
:102730005A691B68202A0CBFD4E90612002213B183
:102740006868984720610137E4E70136D6E7C5F8A5
:1027500014800020BDE8F88F2DE9F84F4769044642
:1027600000254FF02C08A06903689D4230D26561B6
:102770002946FFF7A1F94FEAC50A814600260A213A
:102780004846FFF7B1FB03689E421FD2236953F806
:102790000A1008FB0611D1F828B0DBF808307BB12D
:1027A00060689847014658B15846FFF767FE3246C1
:1027B0000B4601460848FFF753FE0120BDE8F88F9D
:1027C0003146E068FFF7E0F80136D8E70135CAE79F
:1027D00067610020F2E700BF56C5070010B5044648
:1027E000FEF726F9231808B12058184410BD70B51B
:1027F0000C460546082180681646FFF7EFFF214684
:10280000FFF75AF90621FFF788FA3146FFF7F4F887
:10281000296901EBC4010C224B6802FB003070BD3A
:1028200008B508218068FFF7D9FF006808BD10B51A
:1028300080680C460821FFF7D1FF2146FFF73CF9DD
:102840000621FFF76AFA006810BD10B580680C46D3
:102850000821FFF7C3FF2146FFF72EF90821FFF7F4
:102860005CFA006810BD000010B504460748C4E9D2
:1028700002230023C4E90001C4E9043322B1082182
:102880001046FFF7ABFFA061204610BD94C50700BE
:1028900070B50C460546082180681646FFF79EFF76
:1028A0002146FFF709F90821FFF737FA3146FFF70C
:1028B000A3F8296901EBC4010C224B6802FB00302C
:1028C00070BDC368586E0368DB681847C368D3F8E7
:1028D000883053F82100704737B5C468606EE26FE6
:1028E000036800925D68A26F0B462168A84703B099
:1028F00030BDC268D2E91E3003EBC0030C205B6818
:1029000000FB01307047C36868330B6000207047DC
:10291000C0681346C26F406EFFF708B80EB403B527
:10292000C368986803AA036852F8041B01929B6865
:10293000984702B05DF804EB03B070472DE9F04111
:10294000079F876000F10C0504469846C0E9001215
:102950000E465822002128461AF06AFA3A4606998D
:102960004046FEF777FF324603466066294604F18B
:102970006800FFF779FF0A4A22620A4AE2650A4ABA
:1029800022660023089A84F88430C4E92233C4F80C
:102990009030A461226484F885302046BDE8F0813F
:1029A0001D290100D9280100F328010008B50821DC
:1029B000FFF714FF0021FFF77FF80821FFF7ADF9BB
:1029C000006808BD38B5054600680C46FFF7EEFF05
:1029D000A042034606D822460549A868FDF7D6FF5F
:1029E000002038BDD5F8903053F82400F9E700BF37
:1029F000D0C8070008B50821FFF7F0FE0021FFF757
:102A00005BF80621FFF789F9006808BD38B505466F
:102A100000680C46FFF7EEFFA042034606D82246A8
:102A20000549A868FDF7B2FF002038BDD5F88C3005
:102A300053F82400F9E700BF78C8070038B5836F62
:102A4000044600F1680513B12846FFF721FE284629
:102A5000FFF726FD204638BD2DE9F04F054689B029
:102A60004FF0000A05F16800FFF7DAFE504540F329
:102A7000E8802C6808212046FFF7B0FE5146FFF79A
:102A80001BF8062100902046FDF7D2FF231870B3F3
:102A900026581E44686EFEF797FF4FEACA0303905C
:102AA00001934FF000080A210098FDF7C1FF009B39
:102AB0001918002800F0C7801A588B188A589045BA
:102AC00080F0BC80043303EB880453F828301C44A6
:102AD00004212046FDF7ACFF58B127583368BB42AC
:102AE00009D85A483946FFF7BBFC012329E00646BE
:102AF000D0E70746F2E7331D03EB870B53F8273087
:102B0000019A9B44AB6F4FF02C099B5809FB08F9C5
:102B10004B442833D5E901125846FEF7D9F9A0B144
:102B20000090584606F094FF8D2898BF484A009BB5
:102B300094BF52F82010474947480093FFF790FC94
:102B4000009B184609B0BDE8F08FAA6F0199525852
:102B50004A44926A12B939464048C4E792F814B020
:102B60000590BBF1200F4FF00E0120463DD1FDF73F
:102B70005FFF2218002831D1002702970621204646
:102B8000FFF7CBF806AA0146686EFEF71AFF034668
:102B90000028D6D108212046FFF7BFF807AA014632
:102BA000686EFEF70EFF03460028CAD1AA6F01998E
:102BB00052F801B00BEB09040146282220461AF016
:102BC00037F9069B4BF80930079B6360059B6361EF
:102BD000029B08F10108C4E9063764E72358D118BD
:102BE000CAD004310291D758C8E7FDF721FF231856
:102BF00058B12258D34208D0BBF18D0F96BF144B69
:102C0000144953F82B1016486DE768680368594655
:102C10001B6A9847074640B9BBF18D0F96BF0C4B16
:102C20000C4953F82B100F485DE705AB039AA968D0
:102C30002046B847034600289ED082E70AF1010AE1
:102C400010E700237DE70368FFDE00BF9DC7070094
:102C500064AF0700F4F30700C7C70700F4C7070015
:102C600015C807005BC807002DE9F74F0168044647
:102C7000406EFEF709FE014650B96149A068012582
:102C8000FDF784FE84F88550284603B0BDE8F08F38
:102C900004F168063046FFF722FC2046FFF7DCFE11
:102CA00005460028F0D1574B6364574B2361C4E9B4
:102CB00013003046FFF71AFD544BE3643046FFF72C
:102CC0004BFD534B6564E5642365A26F2168606E1C
:102CD00004F18803FEF708FF05460028D4D1676E8B
:102CE0002068FFF787FE3B688100DB68384698471D
:102CF000C4F88C0048B92068FFF77CFE4549820083
:102D0000A068FDF743FE0125BEE7AA46D4F800807F
:102D10004046FFF76FFED4F86490A842D9F80070DF
:102D200022D908214046FFF759FD0021FEF7C4FED5
:102D30000621FEF7F2FF2946FEF75EFECDF800A061
:102D400003463F68A26FD4F88CB041464846B84766
:102D5000D4F88C304BF8250053F8253013B92A46A7
:102D60002D49CDE70135D1E74046FFF71FFEFB684F
:102D7000810048469847C4F8900028B92068FFF7BA
:102D800015FE26498200BBE70025A946276838467C
:102D9000FFF70CFEA84227D908213846FFF71EFD91
:102DA0000021FEF789FE0821FEF7B7FFD4F8648002
:102DB0002946FEF721FED8F80030CDF80090D3F870
:102DC00000B0A26FD4F890A0034639464046D847D9
:102DD000D4F890304AF8250053F8253013B92A4624
:102DE0000F498DE70135D1E73046FFF77BFB0546FC
:102DF00000287FF449AF012384F8843044E700BF02
:102E00009CC60700C3280100072901001129010001
:102E1000CD280100BFC6070008C707002DC707005F
:102E200077C7070090F8853010B504462BB10A49E2
:102E30008068FDF7ABFD012010BD90F8843033B100
:102E400004F168000021BDE81040FFF7C9BBFFF79F
:102E50000BFF0028F4D0EFE7A3C8070030B5044605
:102E6000234601341D78002DFAD101390844013A76
:102E700012F8011F21B1834202D203F8011BF7E7C8
:102E800000221A70184630BD30B503460C46B3FB1D
:102E9000F2F502FB1530C3B2092894BF3033573323
:102EA0002046DBB200F8013B2B464DB96570A142CC
:102EB00008D20B78227801F8012B04F80139F6E7E3
:102EC0000446E4E730BD00002DE9F04F95B0174609
:102ED000009003911E4601F1FF390025009A3B78CE
:102EE00054199BB34D4531DA252B07F101020BD163
:102EF0007B78662B60D00AD8632B00F01781642B97
:102F000020D0252B36D1BA1C0135237032E0752B29
:102F100032D0782B3AD0732B2CD1039A3368501BC4
:102F2000311D013B04EB5000009A8442A4EB0205E2
:102F300000F0028113F8012F002A00F0FD8004F850
:102F4000012BF1E7A9EB05030A2B01DC681C23E048
:102F500030680028B8BF2D2306F10408BDBF611CEE
:102F60002370404221460A22FFF78EFF001B0544D2
:102F7000BA1C46461746B1E7A9EB05030A2BE5DD67
:102F800006F104080A2221463068EDE7A9EB0502A4
:102F9000092A05F1010004DC0023237015B0BDE807
:102FA000F08F4FF030022270009A023513545419FA
:102FB00006F104081022E6E7A9EB050307EE903AB4
:102FC000F8EEE77AB2EE0C7AF4EEC77AF1EE10FA88
:102FD000BCD4F31D23F00703D3E9000103F1080675
:102FE00017F05EFEC0F3C7530028A3F17F0A0193D8
:102FF0002346BCBF2D2203F8012B0022BAF1800F1B
:1030000004F12F0BC0F316081A7010D1ABEB0301BB
:10301000B8F1000F09D14A4A1846FFF71FFF804652
:10302000A8EB04042544BA1CA4E7464AF4E7464A40
:103030000DF1100C51681068E646AEE803004349F4
:1030400008328A42F446F5D110681279CEF80000B1
:103050008EF804204046002204A98956013228FA3D
:1030600001F10D2A0844F7D131221A702E225A702C
:1030700003F1020800229A70ABEB0802072A0292C1
:10308000CEDD424608334FF0300102F8011F934273
:10309000F9D10A2208A9FFF7F7FE08AA02994046CB
:1030A000FFF7DCFEA0EB08034FF03002D3F107017D
:1030B000027012D00246A0EB020C9C4508DA12F80E
:1030C00001CD02F801C04FF0300C82F800C0F2E7E9
:1030D00023EAE373C3F10703184410F8012C302AE4
:1030E00000F1FF3301D143451ED80023ABEB0001B3
:1030F0000370174AFFF7B2FEBAF1000FBFBF2D23CE
:103100008DF82030019BC3F17F0A8046ABEB000BAA
:10311000B4BF0DF1210108A90A225046FFF7B4FE01
:1031200008AA5946404678E71846D6E73368237020
:103130000135BA1C04361DE7BA1C0E461AE700BF5B
:1031400009C907000DC90700FCC8070004C907002A
:1031500011C90700034610B553F8044B00220120A3
:10316000944204DD53F8041B01324843F8E710BDD4
:10317000704703698361704710B51C21044610F045
:10318000E5FF204610BD000037B505460C468069B6
:103190001146FEF75AFA6B691B1AA34209D2E21ACA
:1031A0000092054968682246FDF7F0FB002003B055
:1031B00030BD0444AC61FAE715C9070037B50446D1
:1031C00040690D46401B1146FEF745FA23698342CC
:1031D0000AD91B1A00932A46EB1A04496068FDF7C6
:1031E000D5FB002003B030BD6061FBE75EC907007E
:1031F00037B583690D4601699942044606D00E49E8
:103200004068FDF7C3FB012003B030BD1146806864
:10321000FEF71BFA63691B1A9D4207D9EA1A00924E
:10322000064960682A46FDF7B1FBECE728442061B7
:10323000A0610020E8E700BFA7C90700FCC907009C
:1032400010B50A4488B00F4C0791CDE90312CDE9BF
:1032500005120422CDE901401C210DEB0200FFF70D
:10326000ADFF60B1029B4360039B8360049BC3601E
:10327000059B0361069B4361079B0460836108B063
:1032800010BD00BF48CA07008068704770B504468B
:1032900080690E46FEF7D9F9314605466069FEF7AA
:1032A000DAF9401B70BD0000014601480AF021BB5D
:1032B0006C5102204FF41651014808F0F9BF00BFCD
:1032C0006C5102200368052B10B5044603DD4068ED
:1032D00008B110F03DFF204610BD000070B5044657
:1032E00011B90160204670BD8D682B680360052B05
:1032F0004FEA830608DD09488342D4BF30464FF0C9
:10330000FF3010F00FFF60602368052BCCBF6068B2
:10331000201D3246291D19F08DFCE3E7FEFFFF1F3B
:103320000368052BC7BF436853F8210000EB8100F9
:10333000406870474BB1012803D0022807D0002312
:1033400003E01944013991FBF3F3184670470098E4
:10335000013A504319440130091AF4E70B7B012B61
:1033600070B504460D46164603D100232363124B65
:1033700004E0032B15D100230363104B636328780B
:1033800000F084FA336863807368A3806B6863819C
:10339000AB68A3812B69E3816B692070238220468F
:1033A00070BD022B04D1064B03634FF07E53E5E75B
:1033B0006FF40003DAE700BFFFFF7F7F0000C0402B
:1033C000000080BF13695B4270B5436153695B4283
:1033D00083619369C361D3690362136A15465B42D3
:1033E0000446436208780E4600F050FA6B68A380EA
:1033F0002B686380B368A3817368638173692382D8
:103400003369E381EB6AA3622B6B2070E362204691
:1034100070BD00002DE9F04F9A460B681B688FB015
:10342000023B012B0546894690461E9E0AD95B4BFE
:10343000009344695A4A5B495623A04701200FB0C4
:10344000BDE8F08F4B681C68012C0CD00126CDE93B
:103450000246554B0193554B00934469504A5449D9
:103460005723A047EAE7936892F800B00A9353689D
:1034700017690B9353690C93199A0B9B009751464C
:103480005846FFF757FF0C9B1A9A18990D90009316
:1034900058460A9BFFF74EFF1A9B0C9A013B534379
:1034A0000A9A0133013802FB0030189B0D9AC01AAA
:1034B000199B013B7B43571E0B9A013302FB0737D5
:1034C000A7EB0A0A2AEAEA7A4FEA6A0320EAE070DE
:1034D00033600AF00107431000F00100F0607360F0
:1034E000B760002249462846FDF79CFD824640B958
:1034F000304B6E6900936123294A2A492846B04718
:103500009CE7224649462846FDF78CFD074620B930
:10351000294B00936E696323EEE749460222284651
:10352000FDF7A2FD4946834600222846FDF78BFDA4
:10353000814620B9214B00936E696723DCE79DF833
:103540007430012B09D1DAF8103033613B697361B3
:10355000D9F81030B361002071E7BB685B6808934D
:10356000B36A0793736A069306F13003059306F175
:103570002C03049306F12003039306F11C0302932A
:1035800008F10C03CDE900033A465B465146284654
:10359000FDF78EFE0028D6D051E700BFCECA070047
:1035A00070CA07009DAE070098FD0700F2CA070029
:1035B00014B9070006CB070017CB070029CB07007B
:1035C0000B7C012B70B504460D46164603D1002333
:1035D0002363134B04E0032B17D100230363114B28
:1035E0006363287800F052F9336863807368A380BE
:1035F0006B686381AB68A3816B69E381AB692382EC
:10360000EB6820706382204670BD022B04D1064B0C
:1036100003634FF07E53E3E76FF40003D8E700BF86
:10362000FFFF7F7F0000C040000080BF13695B4246
:1036300070B5436153695B4283619369C361D36928
:103640000362136A15465B420446436208780E46DD
:1036500000F01CF96B68A3802B686380B368A381BA
:1036600073686381B36923827369E381F36863825A
:10367000EB6AA3622B6B2070E362204670BD0000F2
:103680002DE9F04F9A460B681B688FB0023B012B67
:103690000546894690461E9E0AD95D4B00934469B3
:1036A0005C4A5D495723A04701200FB0BDE8F08F69
:1036B0004B681C68012C0CD00126CDE90246574B03
:1036C0000193574B00934469524A56495823A047E7
:1036D000EAE7936892F800B00A93536857690B932E
:1036E00093690C93199A0B9B009751465846FFF724
:1036F00021FE0C9B1A9A18990D90009358460A9B2C
:10370000FFF718FE1A9B0C9A013B53430A9A0133A8
:10371000013802FB0030189B0D9AC01A199B013B1F
:103720007B43571E0B9A013302FB0737A7EB0A0AAC
:103730002AEAEA7A4FEA6A0320EAE070336043102B
:103740007360394B0AF0010700F00100F060B760C8
:103750001A6849462846FDF765FC824640B9334B56
:103760006E69009362232B4A2B492846B0479BE79A
:103770002F4B49461A682846FDF754FC074620B9E6
:103780002C4B00936E696423EDE72B4B49461A6876
:103790002846FDF769FC294B494683461A682846A6
:1037A000FDF751FC814620B9254B00936E696823D3
:1037B000D9E79DF87430012B09D1DAF81030336164
:1037C0003B697361D9F81030B36100206DE7BB68C5
:1037D0001B690893B36A0793736A069306F1300373
:1037E000059306F12C03049306F12003039306F1DD
:1037F0001C03029308F11003CDE900033A465B462F
:1038000051462846FDF754FD0028D6D04DE700BFAD
:10381000CECA070050CB07009DAE070098FD0700F9
:10382000F2CA070014B9070064CA070006CB0700F4
:103830006CCA070017CB070060CA070068CA0700F8
:1038400029CB070070B5044609B14D681DB90023A6
:103850002360204670BD2B680360052B4FEA83066A
:1038600008DD09488342D4BF30464FF0FF3010F0E6
:1038700059FC60602368052BCCBF6068201D324670
:10388000291D19F0D7F9E4E7FEFFFF1F012803D037
:1038900002280CBF02200020704770B515461E4656
:1038A000FFF73EFD314604462846FFF739FDA042AA
:1038B000A8BF204670BD30B50568052DCCBF436854
:1038C000031D00220120AA4207DA8A4214BF53F8DE
:1038D0002240012460430132F5E730BD884230B513
:1038E0001DD100F100435C425C4180FB0123002AB2
:1038F00073F100010C49A8BF4FF080418CB95418F6
:1039000043EBE175002C75F1000304DA6FF0004021
:10391000002124184D41E00F40EA450030BD00244D
:10392000E3E76FF00040F9E7010000C0002908B5A7
:1039300006DA0D4B0D4A4FF4B3710D4817F0FCFD3C
:103940001F2904DD0B4B094A40F26711F5E70123FB
:103950008B40013B03EA00025B1003EBD07308418C
:103960009A42C8BF013008BDBCCB070036CC070067
:10397000CACB070027CC070008B50021FFF7D6FF08
:1039800008BD08B5FFF7AAFF08BD00002DE9F0410A
:1039900004461448FFF7F0FF06461348FFF7ECFF14
:1039A00004F18054804621462046FFF7EAFF214675
:1039B0000546FFF7E6FF294607462846FFF7E1FFE1
:1039C0000221FFF7B3FF41463844FFF7DAFF012138
:1039D0002844FFF7ABFF21183046FFF7D2FF3044F1
:1039E000BDE8F08194A8F570ABAAAA2A2DE9F843A6
:1039F00040F07F4405466001FFF7C8FF814642481A
:103A0000FFF7BAFF01464846641BFFF7BAFFC4F34D
:103A10000067C7F1000800EA08083C48FFF7ACFF60
:103A2000013F07EA090788EA070701463846FFF71A
:103A3000A8FFC4F34068C8F1000900EA0909344846
:103A4000FFF79AFF08F1FF3808EA070889EA080833
:103A500001464046FFF795FFC4F38069C9F10007AE
:103A600007402C48FFF788FF09F1FF3909EA0809E8
:103A700087EA090901464846FFF783FFC4F3C06798
:103A8000C7F1000800EA08082348FFF775FF013F67
:103A900007EA090788EA070701463846FFF771FF7A
:103AA000C4F30076C6F1000800EA080006F1FF380A
:103AB00008EA070880EA08081848FFF75DFF014692
:103AC0004046FFF75EFFC4F340777E42013F064069
:103AD00007EA08004640F220FFF74EFF0146304655
:103AE000FFF74FFFC4F3807463421840013CB5FAFE
:103AF00085F334405B094440581E5B42204023F06C
:103B000000435840BDE8F8837BBEAF63F2CBA24DC3
:103B10006CAC162FA4AA5211B72A580211FE0A0043
:103B2000B0F1804F2DE9D04828DAB0F1404F4FF086
:103B3000FF324FF00004C8BF002210EB000B4FEA29
:103B4000E07141EB010CBBF1004F7CF1FF3319DB5D
:103B50006FF0004600275E4577EB0C03ACBF58467C
:103B60006FF00040E343184024F00044D34360402A
:103B7000184002F000425040BDE8D0884FF0FF34BA
:103B80000022DAE74FF00040ECE700006FF000425F
:103B90002DE9F84F14184FF0000343EBE0756B1C50
:103BA00008BFB4F1FF3F204618BF0124294618BFC3
:103BB0000025061941EB0507FB0FF01847F100013E
:103BC0004F104FEA30064FF05A30FFF7D5FE05464A
:103BD0002748DFF8A090FFF7CFFE01463046FFF7F9
:103BE0007DFEB0462C186FF00046032500272146C5
:103BF0004046FFF773FEC0F100512046FFF76EFE0E
:103C0000B0F1005F2CDA48454FF0FF314FF0000C67
:103C1000A8BF00214FEAE07B82004FEA8B0343EA12
:103C20009073B2F1004F73F1FF301DDB964277EBDA
:103C30000300B8BF6FF000426FEA0C031A402CF08B
:103C4000004CCB4382EA0C021A4001F000414A408A
:103C5000013D1444CBD12046FFF762FFBDE8F88F49
:103C60004FF0FF3C0021D5E74FF00042E4E700BFF2
:103C7000C4C3C3C3010000E00A68436D73B50E46B8
:103C80005168044698477268636D5168054620463E
:103C9000984701A90646287AFDF7E7FC044650B983
:103CA0006868FFF757FA019B2A6858433368019008
:103CB0009A4203D10024204602B070BD2046019BE9
:103CC0008342F7D92B681A5C33681A540130F6E73F
:103CD0002DE9F043002285B004460F46FDF7A2F916
:103CE000064658B9454B656900932323444A454924
:103CF0002046A847012005B0BDE8F08300223946E0
:103D00002046FDF7A0F9054620B93F4B00936569B1
:103D10002523EBE7D6F808C05CF8049B4FF0000EB3
:103D200001220023F1450CDD5CF8048B4046C117ED
:103D3000514308FB0311A2FB08230B440EF1010EB3
:103D4000F0E73B68A9681B68012B05D10B68012BC4
:103D500002D14B6803B90B608C464FF0FF305CF822
:103D6000048B01230027B8451ADD5CF804EBBEF193
:103D7000FF3F0FD1B0F1FF3F10D0244B0193CDE9AD
:103D8000020E234B656900933A231D4A21492046C0
:103D9000A847AFE70EFB03F30137E4E73846FBE73C
:103DA000471C1CBF01EB800192FBF3F7307818BF72
:103DB0004F60297818BF7B43814212D06669FCF7B7
:103DC000D9FD07462878FCF7D5FD134B0193134B1B
:103DD0000093CDE902704523094A11492046B047B6
:103DE00088E79A4208D0CDE902230E4B01930E4B8F
:103DF000009365694623C8E700207CE706CB0700EF
:103E0000B0CC07009DAE070029CB07000ACD070004
:103E10000DCD070014B9070033CD070040CD0700D2
:103E200019CD07004CCD070060CD07000B68F0B539
:103E30001B68013B012B85B005460C4609D9194B7F
:103E400000934469184A19494B23A047012005B043
:103E5000F0BD4B681E68012E0CD00124CDE9026430
:103E6000134B0193134B009345690F4A12494C239E
:103E7000A847EBE7FFF72CFF0028E8D021462846AB
:103E80006F69FFF725FF0023CDE902030B4B019378
:103E90000B4B009328464D23034A0749B847304649
:103EA000D5E700BF73CD0700B0CC07009DAE07007B
:103EB00098FD0700A0CD070014B90700B1CD070099
:103EC000BBCD070070B5054D064604460FCD0FC4A7
:103ED00095E80F0084E80F00304670BD90CC0700D5
:103EE00007EE100AF7EE007A37EE277AC7EE877AE8
:103EF00017EE900A704717F02BBA3821836B1847DA
:103F000008B516F07DFB17F0D9F916F0C9FE08BD0B
:103F10002DE9F0432DED0C8B85B00BEE101A189C9B
:103F20009FED608ADFED609A9FED609A04F1FF39A2
:103F30000CEE902A07EE909A3CEECB7AF8EEE77AF8
:103F4000F6EE008AC7EE27AA05461F46A3F102082F
:103F500000262AEEA8DAB14572DD07EE906AF8EE87
:103F6000E77AB0EE4BCAA7EEAACA01361CEE100AD9
:103F7000A84707EE900A67EE887A17EE900AFFF7D7
:103F8000BFFF07EE906AF8EEE77AB0EE4B7AA7EE45
:103F9000AA7A0AEE100A17EE100AA8470BEE900A4A
:103FA0001CEE100AA84707EE900A67EE887A17EE13
:103FB000900AFFF7A5FF07EE900AEBEE887A67EE0E
:103FC000A87A17EE900AFFF79BFF7CEE0D7A0BEEB6
:103FD000900A17EE900AA84707EE900A67EE887AD3
:103FE00017EE900AFFF78CFF07EE900A7BEEE7BA18
:103FF0006BEEA87A17EE900AFFF782FF07EE900AA1
:104000007AEE677ACDED029AF4EEE97AF1EE10FAE3
:1040100054BF01AB02ABCDED017AD3ED007A8DED4B
:10402000039AF4EEC97AF1EE10FAC8BF03ABD3EDF0
:10403000007AFDEEE77A17EE903A28F8023F8AE719
:104040001CEE900AA84707EE900A67EE887A17EEF2
:10405000900AFFF755FF07EE900AF4EEE97AF1EEC9
:1040600010FA54BF01AA02AA0190CDED029AD2ED36
:10407000007A8DED039AF4EEC97AF1EE10FAC8BF1A
:1040800003AAD2ED007AFDEEE77A04F10043013B8A
:1040900017EE902A27F8132005B0BDEC0C8BBDE875
:1040A000F08300BF00000047000000C700FEFF468D
:1040B0002DE9F04F0B681E68012E89B00546894630
:1040C0000FD00124A14B0193CDE90264A04B0093D2
:1040D0004569A04AA0495D23A847204609B0BDE82C
:1040E000F08F4B681C68012C0BD0984B0193CDE9E5
:1040F00002469A4B00934469964A97495E23A0472B
:1041000057E00022FCF78EFF804640B9944B0093A5
:104110006E6960238F4A93492846B047DDE783687C
:104120001B68002B04DC904B00936E696123F1E760
:10413000002249462846FCF786FF074620B98B4BEC
:1041400000936E696323E5E7D9F8106026B9884BC0
:1041500000936E696523DDE798F80030072B17D1CF
:10416000AB6B40F202412846984720B9814B00933F
:104170006E696B23CEE7B062AB6B40F2024128461A
:10418000984720B97C4B00936E696F23C2E7F062B9
:104190003A7898F80030072A0DD1092B3AD0072B2E
:1041A00017D0764B00936C6976236A4A6D4928468E
:1041B000A047012491E79A422CD0CDE90232704BFE
:1041C0000193704B00936C697823624A62492846D8
:1041D00095E73B694BB10022CDE902326A4B01936E
:1041E0006A4B00936C697D23EFE740F20124009451
:1041F000B36A674967480022FFF78AFE0094F36AB2
:1042000065484FF07E520021FFF782FE3B69F36163
:10421000FB68336298F80040D9F81490092C39D023
:10422000072C40F02A813B694BB10022CDE90232D4
:10423000554B0193554B00936C692523C5E7DFED82
:10424000577A97ED037ADFED566AB4EEE77AF1EE2E
:1042500010FACCBF77EE677A77EEC77AF4EEE67A9B
:10426000F1EE10FA40F3C6804FF07C53002217EEB7
:10427000100ACDE9042316F0C3F94A4B0193CDE9A6
:104280000201494B00936C692723324A474928466B
:10429000A0478EE73878072833D13B6913F5004FE4
:1042A00009D0434ACDE90232424B0193374B009388
:1042B0006C692B2389E7DFED407A97ED037ADFED18
:1042C0003F6AB4EEE77AF1EE10FACCBF77EE677A88
:1042D00077EEC77AF4EEE67AF1EE10FA40F3A980B1
:1042E000374B002217EE100ACDE9042316F088F9A7
:1042F000344B0193CDE902012B4B00936C692D23C4
:10430000C3E7092812D06E69FCF734FB0746204644
:10431000FCF730FB2C4B0193CDE90270184B009356
:104320002F230C4A29492846B04742E73B6913F13D
:10433000800F51D06FF07F02CDE90232244B019300
:10434000124B00936C6930233FE700BF98FD0700D4
:1043500039CE0700D8CD070014B90700A0CD07005B
:1043600006CB07009DAE070049CE070029CB07000A
:1043700063CE07007ECE070095CE0700AAB90700DE
:1043800033CD070040CD070004F10700B8CE070089
:10439000000020C1F73E0100E13E010000000038AE
:1043A0006F120333F2CE0700FECE0700D2CE070015
:1043B0000080FFFF13CF0700000080376F128332A9
:1043C0000000F03E1ACF0700E4B9070019CD07003E
:1043D00026CF07000000803B97ED037A5FED037A5C
:1043E000B4EE677AF1EE10FA23D03D4B00936C697E
:1043F0003123DAE6D8F80C0016F002F98246D9F833
:1044000000008B4616F0FCF802460B465046594613
:1044100016F04EF906F108042FA3D3E9002316F095
:1044200071FA07AB2246FDF749F8079BF3600024B9
:1044300053E6D8F80C0016F0E3F88246D9F80000ED
:104440008B4616F0DDF807AB0293052406F108034E
:10445000019352465B460094FDF782F80799F1609C
:104460001F222046FDF7B4F816F0B8F801F100431A
:10447000194616F0CDFBB061D9E7012C0FD02046CC
:104480006E69FCF777FA04460120FCF773FA154BC6
:104490000193154B0093CDE902404E2341E7387854
:1044A000012812D06E69FCF765FA07462046FCF732
:1044B00061FA0C4B01930D4B0093CDE902704F2331
:1044C0000B4A0C492846B04707E6D9F8000016F019
:1044D00097F8C6E90001AAE7140014001400243F6D
:1044E0002BCF07004DCF070040CD070033CD07008D
:1044F000D8CD070019CD07003821836B184700007D
:104500002DE9F04F2DED028B95B01D46B0F90A3024
:104510000393B0F90C300493B0F90E300593B0F961
:1045200010300693B0F90230DDF88C800893B0F9B2
:10453000043009930C4600231946129290ED0C8A20
:10454000D0ED0D8A42462046FFF7A7F9032319460E
:104550000A902A462046FFF7A0F9032342460B9013
:1045600000212846FFF799F9012107902046FEF720
:10457000D7FE02210C902046FEF7D2FE01210D90BD
:104580002846FEF7CDFE02210E902846FEF7C8FE13
:1045900001210F904046FEF7C3FE022110904046D5
:1045A000FEF7BEFEDFED546A11904FF0000E0A9B3D
:1045B0009E4580F29C80099B4FF0000BC3F10009DF
:1045C000109B9B4580F29080089B5B4202934FF0CA
:1045D000000A119B9A4580F282800022079B934239
:1045E00076DD0023DFED447A019349460E9B019866
:1045F000984241DA02984FF0000C0F9B9C4535DA47
:1046000000282EDB0D9B83422BDD002929DB0C9B30
:104610008B4226DD00260B9B9E4222DAA368E768C8
:1046200003FB0E1307FB0303276907FB0363129FBA
:1046300007EB83031393019FAB6803FB0273EF68DF
:1046400007FB03C32F6907FB0363209F07EB83036B
:10465000139F93ED007A97ED006A0136E6EE077A34
:10466000D9E7059B0CF1010C1844C6E7019B013307
:104670000193069B1944B9E7229B33B303EB8203F2
:1046800093ED007AD8F80830D8F80C1077EE877AD6
:1046900003FB0EB3F4EE487A01FB03A3F1EE10FA2C
:1046A000D8F8101048BFF0EE487A01FB0321F4EE71
:1046B000678A249BF1EE10FA03EB810148BFF0EE0C
:1046C000687AC1ED007A013288E7B0EE667AD9E700
:1046D000DDE9023213440AF1010A029379E7049BEF
:1046E0000BF1010B99446BE70EF1010E5FE715B07A
:1046F000BDEC028BBDE8F08F000000002DE9F04F0B
:104700009BB01C4643690B93B0F90A300493B0F98F
:104710000C300593B0F90E300693B0F910300793C2
:10472000B0F902300C93B0F904300D93C3690E93C5
:10473000836ADDF8A4800893C36A09930023CDE956
:104740001712204619464246FFF7A7F8DDF8949065
:104750000F90032319464A462046FFF79EF803238D
:104760004246109000214846FFF797F801210A9031
:104770002046FEF7D5FD022111902046FEF7D0FD20
:10478000012112904846FEF7CBFD022113904846C6
:10479000FEF7C6FD012114904046FEF7C1FD02213F
:1047A00015904046FEF7BCFD4FF0000A16900F9B97
:1047B0009A4580F2E1800D9B5B4202934FF0000E20
:1047C000159B9E4580F2D2800C9B5B4203934FF079
:1047D000000B169B9B4580F2C28000220A9B9342ED
:1047E00040F3B6800023029800931399009D8D42F8
:1047F00045DA0021039D01911499019E8E4238DA19
:10480000002D30DB1299A9422DDD00282BDB1199F8
:10481000814228DD002610998E4224DAA168E768DB
:1048200001FB0A0107FB01512769BC46249F0CFBD1
:1048300001710B9F895739441991009FD9F80810CD
:1048400001FB027CD9F80C70019907FB0C11D9F817
:104850001070BC46269F0CFB0171199F89570136C9
:1048600001FB0733D7E701990131019106990D4406
:10487000C2E700990131009107990844B5E72899EA
:1048800011B151F822100B441898179950F8225082
:1048900051F8221025EAE570002D03FA00F0D4BF8C
:1048A0006D420025814229D101F100435E425E4103
:1048B00080FB0101002871F10003314BA8BF4FF0CC
:1048C0008043002E55D1C61841EBE377002E77F1D7
:1048D000000307DA6FF0004080194FF000017941C2
:1048E00006460F46F00F40EA47001F2D08DD254B16
:1048F000254A264840F2671116F01EFE0026D7E72B
:10490000012303FA05F6D8F80830D8F80C102A9FCE
:1049100003FB0AE301FB03B3D8F81010013E01FBCF
:10492000037106EA0003761006EBD07640FA05F52F
:10493000B342C8BF01350E9B1D44089B9D42B8BFC2
:104940001D46099B9D42A8BF1D468D54013245E777
:10495000DDE9033213440BF1010B039339E7029BAA
:10496000059A13440EF1010E029329E70AF1010A98
:104970001DE76FF00040B8E71BB0BDE8F08F00BF47
:10498000010000C027CC070089D00700CACB070070
:104990009F4A0B6812682DE9F04F03EB82030D4626
:1049A000CBB05968426D044690479A4A2B6812680A
:1049B00003EB82030646626D5968204690472B68D8
:1049C0001A68032A824625D1934A126803EB8203B0
:1049D0002046626D596890478146904A6B6812681C
:1049E00003EB82032046626D59689047337A027A5E
:1049F0009342804611D0CDE90232894B0193894B15
:104A000000936569884A89494FF482732046A84714
:104A10000120F9E04FF00009DFE79AF8080098421A
:104A200004D06369824920469847F1E70128D5E917
:104A300004510AD0092848D06569FBF79BFF337AF7
:104A40007C4902462046A847E2E72A463CA8FEF7F2
:104A500085FC31461AA8FEF7F5FE26AD514620A882
:104A6000D6F800B0FEF7EEFE2CAE49462846DAF83E
:104A700000A0FEF7E7FE4146304632AFD9F800907D
:104A8000FEF7E0FED8F80080002138460024FEF74B
:104A9000D9FE20AB5A461AA93CA8CDE90574CDE948
:104AA0000368CDE90159CDF800A0FFF729FD38468C
:104AB000FEF708FC3046FEF705FC2846FEF702FC30
:104AC00020A8FEF7FFFB1AA89BE04B690F693993FA
:104AD000012B389740F0B080012F40F0AD802B695A
:104AE0005B423293AB6933938B6835934B68349355
:104AF0006B6837932B683693EB6A3A932B6B3B9337
:104B00006B6A0A935146AB6A0B9320A8FEF79AFE94
:104B1000314626A8FEF796FE41462CA8FEF792FEE7
:104B200049463CA8FEF78EFE002319462CAA26A86B
:104B3000FEF7B3FE03231946089020AA26A8FEF725
:104B4000ACFE2CAA09900323002120A8FEF7A5FEA5
:104B5000089B0E938346394626A8FEF7E1FB022107
:104B60000F9026A8FEF7DCFB099B1090394620A881
:104B7000CDE9113BFEF7D4FB0221139020A8FEF7EC
:104B8000CFFB099B1490CDE915373946089B1A9342
:104B90002CA8CDE91777CDF864B0FEF7C1FB022150
:104BA0001B902CA8FEF7BCFB696B00239942CDE952
:104BB0001C0BCDE90C3303DB636C204698470C904B
:104BC000D8F8003006931AAB0593D9F80030049357
:104BD00016AB0393DAF80030029312AB01933368FB
:104BE00000930AAA0EAB32A90CA802F094F83CA8D4
:104BF000FEF768FB2CA8FEF765FB26A8FEF762FB14
:104C000020A8FEF75FFB00204BB0BDE8F08F00BF8F
:104C100064CA07006CCA070060CA070068CA0700B8
:104C200033CD070040CD07007CCF070014B9070043
:104C3000DCCF07006DD007002A463CA8FEF7C2FB78
:104C400020AC31461AA8D5E9097BFEF7FBFD26AD5D
:104C50003368089351462046FEF7F4FD2CAE4946D2
:104C60002846DAF800A0FEF7EDFD41463046D9F8B7
:104C70000090FEF7E7FDD8F80020089B0093394626
:104C80001AABCDE905623CA85A46CDE90359CDE9F6
:104C9000014AFFF733FD3046FEF714FB2846FEF7C6
:104CA00011FB20460DE700BF2DE9F04F654BADB07D
:104CB0001A6804460E46D1E90458FCF7B3F90746D2
:104CC00060B9614B656900933823604A60492046AA
:104CD000A847012630462DB0BDE8F08F5D4B314628
:104CE0001A682046FCF79EF9814620B95A4B00937A
:104CF00065693A23E9E7594B31461A682046FCF7C3
:104D0000A2F9824620B9564B009365693C23DCE743
:104D1000394616A8FEF7E2FA51461CA8FEF7DEFA5D
:104D2000002319461CAA16A8FEF7B7FDBB680A9017
:104D30009A68DB680B928346032116A80C93FEF752
:104D4000EFFA03210D9009901CA8FEF7E9FAD9F8B3
:104D50000890099BD9F808200F92D9F80C200E90E2
:104D6000CDE9113BDAF80830109203219A68DB682C
:104D700014931CA81392FEF7D3FA3B781590092BD5
:104D800011D1384B1B6809EB83092046D9F8043050
:104D90004FEA83094946A36B9847A36B686249466B
:104DA00020469847A86206953B780593139B049389
:104DB000149B03930F9B0293109B01930B9B0093F7
:104DC00031460C9B42462046FEF724FB064600284F
:104DD0002BD13B78092B28D13B695B422293DAF82F
:104DE00010302393D8F808302593D8F80430249352
:104DF000D8F814302993D8F8103028936B6827938B
:104E00002B682693EB6A2A932B6B2B930AA912AB80
:104E10000EAA22A801F0DBFF011E0DDD236C05F1B7
:104E2000340220469847064648B11CA8FEF74AFAC5
:104E300016A8FEF747FA4DE74FF0FF336B630026E5
:104E4000F3E700BF64CA070006CB07007CCF07006A
:104E50009DAE07006CCA070017CB070068CA0700A1
:104E600029CB07003CCB070070B5054D064604462C
:104E70000FCD0FC495E80F0084E80F00304670BDD9
:104E80005CCF07003821836B184700002DE9F04FF5
:104E90002DED028B99B09B46B0F90A300893B0F91A
:104EA0000C300993B0F90E300A93B0F910300B931F
:104EB000B0F902300C93B0F90430279D0D93B0F98E
:104EC000123003930C4600231946169290ED0C8A7B
:104ED000D0ED0D8A2A462046FEF7DFFC01210E9018
:104EE0002046FEF71DFA02210F902046FEF718FA21
:104EF000032110902046FEF713FA01211190584625
:104F0000FEF70EFA022112905846FEF709FA012127
:104F100013902846FEF704FA022114902846FEF763
:104F2000FFF9DFED5F6A15904FF000090E9B994580
:104F300080F2B0800D9B5B42069300230193019B9E
:104F4000149A934280F2A3800C9B5B4205934FF02E
:104F5000000A159B9A4580F29280269B04930023B9
:104F600002939C46119B9C4580F282800021039B0A
:104F7000994271DA029B0698DFED497ACB180793C4
:104F80004FF0000E129B9E453ADA059E4FF0000846
:104F9000139B98452FDA002E28DB109BB34225DDAA
:104FA000002823DB0F9B834220DDA368E26803FB1C
:104FB000090302FB0363226902FB03C2169B03EB96
:104FC00082031793DBF81030DBF80C201F46079B99
:104FD00002FB0E8207FB0232249B03EB8202179B2B
:104FE00092ED007A93ED006AE6EE077A0A9B08F1EB
:104FF00001081E44CCE70B9B0EF1010E1844C1E7DB
:10500000269B33B3049B03EB810393ED007AAB68DB
:10501000019A079877EE877A03FB0923EA68F4EE92
:10502000487A02FB03A3F1EE10FA2A6948BFF0EEBA
:10503000487A02FB0302F4EE678A289BF1EE10FA2D
:1050400003EB820248BFF0EE687AC2ED007A0131CC
:105050008DE7B0EE667ADAE7DDE9032303EB82033E
:1050600004931346029A1A440CF1010C029279E758
:10507000059B089A13440AF1010A059369E7019B0D
:10508000099A01330193069B1344069357E709F1EC
:1050900001094BE719B0BDEC028BBDE8F08F00BFF2
:1050A000000000002DE9F04FA1B01C46B0F90A3015
:1050B0000A93B0F90C300B93B0F90E300C93B0F9A1
:1050C00010300D93B0F902300E93B0F904300F9305
:1050D000B0F91230039343691293C3691393836A3F
:1050E0001093C36A11930023CDE91C122046194680
:1050F0002F9AFEF7D2FB012114902046FEF710F9FB
:10510000022115902046FEF70BF903211690204648
:10511000FEF706F9012117902B98FEF701F90221FD
:1051200018902B98FEF7FCF8012119902F98FEF7A4
:10513000F7F802211A902F98FEF7F2F8039B1B90C4
:105140009B0005934FF0000E149B9E4580F2F28069
:105150000F9B5B4208934FF0000B1A9B9B4580F21C
:10516000E3800E9B5B4207934FF0000A1B9B9A451E
:1051700080F2D3801C9B06931D9B04930023CDE9F2
:105180000133DDF8B890019B179A934280F2BE80FC
:105190002A9B01990B4400221F93039B9A4280F2A1
:1051A000A580029B2C980899D3180993099E002387
:1051B00030441F461E90189887422FDA07984FF008
:1051C000000C199EB44525DA00281EDB169E864287
:1051D0001BDD002919DB159E8E4216DDA668E568E9
:1051E00006FB0E1605FB060625696E431F9DAE578E
:1051F000129D7519A8462B9DEE682D6906FB07C602
:105200006E431E9DAE5706FB08330C9D0CF1010C3E
:105210002844D6E70D9801370144CCE72E9911B107
:1052200059F822100B440498069950F8226051F85E
:10523000221026EAE670002E03FA00F0D4BF764270
:105240000026814227D101F100435F425F4180FB8C
:105250000101002871F10003384BA8BF4FF08043D3
:10526000002F64D1C71841EBE378002F78F10003D9
:1052700005DA6FF0004000213F1848EB0108F80FF5
:1052800040EA48001F2E08DD2D4B2E4A2E4840F2E2
:10529000671116F051F90027D9E7012303FA06F741
:1052A0002F9B2F999B68C968309D03FB0EB301FBB0
:1052B00003A32F990969013F01FB035107EA00038A
:1052C0007F1007EBD07740FA06F6BB42C8BF013625
:1052D000139B1E44109B9E42B8BF1E46119B9E42CC
:1052E000A8BF1E46099B0132CE5456E7019B0133ED
:1052F0000193DDE9052313440693049B13440493AF
:105300009144DDE902231A4402923CE7079B0A9A82
:1053100013440AF1010A079328E7089B0B9A1344E8
:105320000BF1010B089318E70EF1010E0CE76FF07B
:105330000040A7E721B0BDE8F08F00BF010000C02A
:1053400027CC070036D20700CACB0700AC4A4B680F
:1053500012682DE9F04F03EB82038846CFB0D1E904
:10536000046A426D596805469047A64AD8F800304D
:10537000126803EB8203044659686A6D2846904719
:10538000A14AD8F80030126803EB820207466B6D21
:10539000516828469847D8F800301A68032A83468F
:1053A00017D19A4A126803EB820328466A6D59683E
:1053B00090478146387A01280ED0092846D06C697A
:1053C000FBF7D8FA3B7A924902462846A0470120CB
:1053D00039E04FF00009EDE7324651463EA8FEF7AE
:1053E000EFF8394621A8FEF72DFA2DAD594627A82A
:1053F0003F6833AEFEF726FA49462846DBF80080C0
:10540000FEF720FA21463046D9F80090FEF71AFA46
:1054100004B12468CDF8008027AB3A4621A93EA804
:10542000CDE90364CDE90159FFF730FD3046FDF7C2
:1054300049FF2846FDF746FF27A8FDF743FF21A8AF
:10544000FDF740FF00204FB0BDE8F08FDAF81830CC
:10545000DAF814803B93012BCDF8E88040F095807A
:10546000B8F1010F40F0918033695B423393B36927
:105470003493DAF808303793DAF8043036937368E7
:105480003993336838936FF07F027F23CDE93C2353
:10549000DAF80C303593736A0B935946B36A0C9360
:1054A00021A8FEF7CFF9394627A8FEF7CBF9214608
:1054B0002DA8FEF7C7F949463EA8FEF7C3F9002319
:1054C00019462DAA27A8FEF7E8F903232DAA1946A5
:1054D000099021A8FEF7E1F9099B0F938246414606
:1054E00027A8FDF71DFF0221109027A8FDF718FF40
:1054F0000321119027A8FDF713FF0021129021A886
:10550000FDF70EFF4146139021A8FDF709FF022188
:10551000149021A8FDF704FF099B1B93CDE9150A00
:1055200041462DA8CDE91788CDE9198AFDF7F8FE87
:1055300002211C902DA8FDF7F3FE716B0023994208
:10554000CDE91D0ACDE90D3303DB6B6C2846984786
:105550000D903B68DBF80020D9F8001004B12468F6
:1055600006941BA8CDE9041017A9CDE9022113AABE
:10557000CDE9003233A90FAB0BAA0DA802F0FBFC5A
:105580003EA8FDF79FFE2DA854E7324651463EA89F
:10559000FEF74CF821AD39461BA8D6E9098AFEF77B
:1055A00051F927AE3B68099359462846FEF74AF958
:1055B0002DAF49463046DBF800B0FEF743F92146EF
:1055C0003846D9F80090FEF73DF9099B04B12468EC
:1055D000009352461BAB41463EA8CDE90574CDE988
:1055E0000369CDE9015BFFF75DFD3846FDF76AFE13
:1055F0003046FDF767FE2846FDF764FE1BA81FE74F
:1056000048CB070044CB07004CCB070040CB07003A
:105610006DD007002DE9F04FD1E90463BBB004461B
:105620000F93884B1A688946FBF7FCFC804660B9EB
:10563000854B656900933823844A85492046A847ED
:10564000012528463BB0BDE8F08F824B49461A68D9
:105650002046FBF7E7FC074620B97F4B00936569BE
:105660003B23E9E77D4B49461A682046FBF7EBFCF4
:10567000824620B97A4B009365693D23DCE7D8F870
:10568000083098F800B0DA689B680A93BB68099202
:10569000DA680B929A680C928268BBF1090FD168A4
:1056A00092680D910E9255D197F83050012D0DD082
:1056B0006C4B019301266C4B0093CDE90256656952
:1056C0004923624A69492046A847B9E77A6B42B93B
:1056D000674B666900934F235C4A5D492046B0479B
:1056E000AFE7116821B9634B009366695023F3E774
:1056F000506820B9604B009366695123ECE70A6853
:10570000012A0BD05D49096803EB810149688A428F
:1057100004D05B4B0093656955238DE701688A428D
:1057200008D0584B0193584B0093CDE9022165698D
:105730005723C6E7514A126803EB820320465D688F
:10574000A36BAD0029469847A36B7062294620469B
:105750009847B0620E9B04930D9B03930C9B02939E
:105760000B9B01930A9B0093CDE905B6099B0F9A09
:1057700049462046FDF784FF054600287FF461AFC7
:1057800098F80030092B7FF45CAF41461DA8FDF767
:10579000A5FD514623A8FDF7A1FD394629A8FDF72F
:1057A0009DFD2B46294623AA1DA8FEF776F8032364
:1057B000054629AA194623A8FEF76FF80A9B1293FB
:1057C0000746099B139303211DA81195FDF7A8FD1A
:1057D000012315930C9B16930B9B1490CDE917375F
:1057E0000E9B1A930D9B1995CDE91B377368359362
:1057F0003368349311A919AB15AA2FA802F0F0FB56
:10580000011E10DD236C06F1340220469847054640
:1058100060B129A8FDF756FD23A8FDF753FD1DA88B
:10582000FDF750FD0DE74FF0FF33736329A8FDF737
:1058300049FD23A8FDF746FD1DA8FDF743FD002502
:10584000FFE600BF44CB070006CB070004D10700EA
:105850009DAE07004CCB070017CB070048CB0700D5
:1058600029CB07002EB9070061B9070014B907005A
:105870007BB907008FB907006ED10700B8CB0700CE
:105880008ED1070010D207000ABA070070B5054D87
:10589000064604460FCD0FC495E80F0084E80F00BC
:1058A000304670BDE4D007002421836B1847000008
:1058B0002DE9F04F91B00D461E46002304461946CF
:1058C0000E9228463246FDF7E8FF0323194632467A
:1058D00005902846FDF7E1FF012107902846FDF7D6
:1058E0001FFD022108902846FDF71AFD01210990AD
:1058F0003046FDF715FD02210A903046FDF710FDF8
:10590000E3680C9323690B900D930027B7EE006AB0
:10591000059B9F4280F294804FF0000AD6460A9B76
:105920009E4580F28B80002301939B460B9B9B45F9
:105930007FDA4FF0000C079B9C4573DA019BB4F9AA
:105940000200B4F904109FED407A181A4CBF43428C
:1059500000230393099B1A1AA3699A42A8BF1A4607
:10596000089B0692AAEB0101A3EB010863690029D9
:10597000B4BF4A4200229845A8BF98465318CDF8B4
:1059800010800293F0EE476A029B049A5B1A9A42D7
:1059900023DDDDF80C90069B99451ADA029AAB6874
:1059A00003FB072300EB09020F92EA6890460F9A67
:1059B00008FB03232A6902FB03C30E9A02EB83034D
:1059C000D3ED007A37EE067A76EEA76A09F101097F
:1059D000E1E7029B01330293D6E7C6EE877AB3680C
:1059E000F26803FB07E302FB03B3326902FB03C265
:1059F0001A9B03EB82020CF1010CD4ED096A94EDC1
:105A00000A7AF4EE676AF1EE10FAC8BFF0EE667A31
:105A1000B4EE677AF1EE10FA48BFF0EE477AC2EDC5
:105A2000007A88E7019B0D9A13440BF1010B019357
:105A30007CE70C9B0EF1010E9A4470E7013767E793
:105A400011B0BDE8F08F00BF000000002DE9F04F5D
:105A500093B00D461E460023044619460E92284672
:105A60003246FDF71AFF03231946324604902846B2
:105A7000FDF713FF012105902846FDF751FC022197
:105A800006902846FDF74CFC012107903046FDF7B3
:105A900047FC022108903046FDF742FCE3680A9378
:105AA0009FED526A236909900B930027049B9F4244
:105AB00080F299804FF0000AD646089B9E4580F2FE
:105AC0009080002301939B46099B9B4580F2848034
:105AD0004FF0000C059B9C4577DA019BB4F902005E
