:020000021000EC
:10000000000004203DAE030075AE0300C59103005F
:1000100079AE0300D1910300D791030000000000E6
:10002000000000000000000000000000AD410300DF
:1000300081AE03000000000045420300554203006A
:1000400049E80300F965030087AE030087AE0300AB
:1000500087AE030087AE030087AE030087AE0300C0
:1000600087AE030087AE030087AE030087AE0300B0
:1000700087AE030051EC030087AE03001166030056
:1000800087AE030087AE030087AE030087AE030090
:1000900087AE030087AE030087AE030087AE030080
:1000A00087AE030087AE030087AE030087AE030070
:1000B00087AE030087AE03000000000000000000D0
:1000C00087AE030087AE030087AE030087AE030050
:1000D00087AE030087AE030087AE030087AE030040
:1000E00087AE030087AE030087AE03000000000068
:1000F0000000000087AE03000000000087AE030090
:1001000010B5054C237833B9044B13B10448AFF351
:1001100000800123237010BD40100020000000006B
:10012000BC25050008B5034B1BB103490348AFF3D9
:10013000008008BD0000000044100020BC25050020
:10014000154B002B08BF134B9D46A3F5803A0021A9
:100150008B460F461348144A121A33F031FB0F4BEB
:10016000002B00D098470E4B002B00D09847002062
:10017000002104000D000D48002802D00C4829F091
:10018000B9FD32F01DFE2000290026F06BF829F0A1
:10019000AEFD00BF000008000000042000000000C9
:1001A000C16103004010002058C90020F59C0300E5
:1001B0000000000070B5154D154C2B782DED028B0D
:1001C000064682B008EE102A2BB90121207823F0D0
:1001D00081FF01232B70F7EE007A38EE278ADFEDDE
:1001E0000D7A207828EE278AFDEEC87A17EE901A4D
:1001F000CDED017A23F0F4FE019A0749304602B0B2
:10020000BDEC028BBDE8704000F06CB95C100020C2
:10021000040200200000FF4247A904007047704715
:1002200010B50421044629F097FF204610BD0000B8
:10023000F0B5414C85B004F05DFA2378BFF35B8FD5
:10024000DA070BD4204629F063FD38B1204629F0A7
:1002500081FD3A4A3A493B4829F047FD3A4C394B2F
:1002600023603A4B3A4D1A68D118D3582960CB1AFB
:100270001A88042A0CD99A8812B18A58032A09D0FC
:1002800034493048032305B0BDE8F04000F02AB9F6
:100290000022F5E7304E3378BFF35B8FDB070ED4D7
:1002A000304629F035FD50B12C4802F06BF830464D
:1002B00029F050FD214A2A49284829F016FD294FE6
:1002C0003B78BFF35B8F13F0010617D1384629F056
:1002D0001FFD98B10296236801934FF4FA630093CF
:1002E0001E4A2968204B214803F030FD384629F08A
:1002F00031FD124A1E491D4829F0F7FC1D4E1B48CE
:10030000306003F0D1FE054630B11B49206805B0CE
:10031000BDE8F04000F0E6B80146306803F07EFD2D
:10032000164B29461860306803F054FD144B1860D2
:10033000144B1D6005B0F0BD6410002000020020C9
:100340001D0201000802002040180020088204005D
:100350004C180020A881040068100020EC18002030
:100360001F020100601000207010002054180020AF
:100370004D3E01006C100020EF8104004818002061
:1003800050180020441800202F4B70B51B682F4CCC
:100390002F4ED4ED007A07EE103AF8EEE77AB8EE79
:1003A000C77A2DED028B87EE878A82B00193294BA5
:1003B0001B685A68DFED287A28EE278AD3ED037A86
:1003C00088EE277AD3ED047AF8EEE77A77EE277A8B
:1003D000FDEEE77A17EE903A1370204B186803F0A1
:1003E00041FF054670B118EE100A2EF0FBFD0246E3
:1003F0000B4630681A4902B0BDEC028BBDE8704074
:1004000000F070B8174B30681A685368116993F997
:10041000003092ED037A5B1A07EE903AF8EEE77A35
:1004200018EE101A67EE877A17EE902AFFF7C2FED1
:100430002068019B01308342D8BF2846206002B06B
:10044000BDEC028B70BD00BF8C81040044180020FD
:100450004018002048180020DB0FC9406C10002015
:10046000908104005018002010B541F290210446FC
:1004700029F072FE204610BD01308000704730B573
:1004800018B9B1FA81F0400930BD04688C420DD131
:10049000043000239C4201DC0120F5E750F8045BA6
:1004A00052F823108D4201D10133F3E70020EBE72E
:1004B000884205D030B131B10A1D0968FFF7DFBFAE
:1004C00001207047704708467047000010289ABF07
:1004D000024B53F820000248704700BFC08B040055
:1004E000048C04000EB403B503AA036852F8041B7D
:1004F00001929B68984702B05DF804EB03B0704727
:100500000CB407B504AA036852F8041B01929B6857
:10051000984703B05DF804EB02B0704700680368C9
:100520005B6818470138C0B204289ABF014B185CB9
:10053000002070477C8C040020B101280CBF0220F1
:10054000002070470120704738B515461A4628B973
:100550000B492846FFF7C6FF012038BD0468082C68
:1005600009D8043900EB8404A04206D050F8043FB7
:1005700041F8043FF8E70349EBE70020EDE700BF4F
:100580001E8D04004C8D04000368C01A03888B4242
:100590008CBF405A0020704710B50C210446FFF76D
:1005A000F3FF231808B12058184410BD08B50346BE
:1005B00010460F2B2BD8DFE803F00C0812161A1E7A
:1005C000201022180E241C2628140A230B70002049
:1005D00008BD0123FAE70B23F8E70723F6E7022318
:1005E000F4E71023F2E70323F0E70923EEE70423FF
:1005F000ECE70D23EAE70523E8E70623E6E708230F
:10060000E4E70C23E2E70E23E0E70F23DEE7002216
:100610000A701A460249FFF765FF0120D8E700BFBC
:100620008D8D040000207047002070470020704727
:10063000002070470020704700207047002070475E
:10064000002070470020704700207047002070474E
:10065000002070470020704700207047002070473E
:10066000002070470020704700207047002070472E
:10067000002070470020704700207047002070471E
:10068000002070470020704700207047002070470E
:1006900000207047002070470020704700207047FE
:1006A00000207047002070470020704700207047EE
:1006B00000207047002070470020704700207047DE
:1006C0000020704738B505461446FFF75DFF00B1BE
:1006D0002C5C204638BD08B500220A21FFF7F2FF46
:1006E00008BD00002DE9FF411F4613681546064668
:1006F00088461B680422242128469847044618B1DE
:100700002422002133F05CF8CDE90254A4B91B4B3C
:10071000019340F2C3630093194A1A4B4146404685
:10072000FFF7EEFE0124039911B102A8FFF7F6FED0
:10073000204604B0BDE8F0813046FFF7CCFF112819
:1007400017D13046FFF728FF054690B10421FFF787
:100750001BFF2E1868B12D5870190AD021460A4B7C
:100760004246FFF7F1FE04460028DCD1039B725994
:100770001A62039B3B6000240394D4E7FC8C0400C2
:10078000E58C0400818C04000E8D04002DE9FF41EE
:100790001F4613681546064688461B680422242116
:1007A00028469847044618B12422002133F008F85F
:1007B000CDE90254A4B91D4B019340F2B6730093E6
:1007C0001B4A1C4B41464046FFF79AFE0124039901
:1007D00011B102A8FFF7A2FE204604B0BDE8F081E7
:1007E0003046FFF778FF1E2817D13046FFF7D4FEBA
:1007F000054690B10421FFF7C7FE2E1890B12D5881
:1008000070190FD021460C4B4246FFF79DFE04465F
:100810000028DCD1039B72591A62039B3B600024C1
:100820000394D4E700232362F7E700BFFC8C0400A5
:10083000E58C0400818C0400168D04002DE9FF4135
:100840001F4613681546064688461B68012202218A
:1008500028469847044610B1002303704370CDE941
:100860000254A4B91A4B019340F26D430093194A04
:10087000194B41464046FFF743FE0124039911B14D
:1008800002A8FFF74BFE204604B0BDE8F0813046D9
:10089000FFF721FF662815D13046FFF77DFE05469C
:1008A00080B100220421FFF70DFF003018BF0120A6
:1008B0002070002206212846FFF704FF003018BFF1
:1008C0000120607000233C6003931C46D6E700BF04
:1008D000FC8C0400E58C0400818C04002DE9FF41B0
:1008E0001F46136815460122064688461B681146B6
:1008F00028469847044608B100230370CDE9025406
:10090000A4B9154B019340F299630093134A144B19
:1009100041464046FFF7F4FD0124039911B102A8B6
:10092000FFF7FCFD204604B0BDE8F0813046FFF73C
:10093000D2FE1B280BD13046FFF72EFE38B1002225
:100940000421FFF7BFFE003018BF012020700023F4
:100950003C6003931C46E0E7FC8C0400E58C04003B
:10096000818C04002DE9FF411F4613681546064699
:1009700088461B680122022128469847044610B188
:10098000002303704370CDE90254A4B91C4B0193BA
:100990004FF4DD6300931B4A1B4B41464046FFF773
:1009A000AFFD0124039911B102A8FFF7B7FD20465E
:1009B00004B0BDE8F0813046FFF78DFE0F281AD154
:1009C0003046FFF7E9FD0546A8B100220821FFF7F0
:1009D00079FE003018BF0120207000220A2128462D
:1009E000FFF770FE003018BF0120607000233C60EC
:1009F00003931C46D6E7002323706370F6E700BF1D
:100A0000FC8C0400E58C0400818C04002DE9FF417E
:100A10001F4613681546064688461B6801220221B8
:100A200028469847044610B1002303704370CDE96F
:100A30000254A4B91C4B019340F2037300931B4A68
:100A40001B4B41464046FFF75BFD0124039911B162
:100A500002A8FFF763FD204604B0BDE8F0813046F0
:100A6000FFF739FE4A281AD13046FFF795FD0546B3
:100A7000A8B100220421FFF725FE003018BF012095
:100A80002070002206212846FFF71CFE003018BF08
:100A90000120607000233C6003931C46D6E70023CE
:100AA00023706370F6E700BFFC8C0400E58C040043
:100AB000818C040038B505461446FFF765FD00B18A
:100AC0002C58204638BD00002DE9FF411F46136811
:100AD00015460422064688461B6811462846984754
:100AE000044608B100230360CDE90254A4B9144BB5
:100AF00001934FF491630093124A134B41464046D1
:100B0000FFF7FEFC0124039911B102A8FFF706FDCF
:100B1000204604B0BDE8F0813046FFF7DCFD5E28DA
:100B200008D13046FFF738FD20B100220421FFF73D
:100B3000C1FF206000233C6003931C46E3E700BF35
:100B4000FC8C0400E58C0400818C04002DE9FF413D
:100B50001F4613681546064688461B68042208216E
:100B600028469847044610B10023C0E90033CDE978
:100B70000254A4B9174B01934FF4C7630093164A6C
:100B8000164B41464046FFF7BBFC0124039911B1C7
:100B900002A8FFF7C3FC204604B0BDE8F081304650
:100BA000FFF799FD3B280FD13046FFF7F5FC0546CE
:100BB00050B100220421FFF77DFF002220600621B2
:100BC0002846FFF777FF606000233C6003931C46D4
:100BD000DCE700BFFC8C0400E58C0400818C040081
:100BE0002DE9FF411F461368154604220646884634
:100BF0001B68114628469847044608B10023036045
:100C0000CDE90254A4B9144B019340F26E730093E2
:100C1000124A134B41464046FFF772FC01240399E8
:100C200011B102A8FFF77AFC204604B0BDE8F081BC
:100C30003046FFF750FD132808D13046FFF7ACFCD3
:100C400020B100220421FFF735FF206000233C6023
:100C500003931C46E3E700BFFC8C0400E58C040012
:100C6000818C04002DE9FF411F46136815460422BC
:100C7000064688461B68114628469847044608B130
:100C800000230360CDE90254A4B9144B019340F250
:100C900085730093124A134B41464046FFF730FCE0
:100CA0000124039911B102A8FFF738FC204604B0D3
:100CB000BDE8F0813046FFF70EFD232808D130460D
:100CC000FFF76AFC20B100220421FFF7F3FE206049
:100CD00000233C6003931C46E3E700BFFC8C040048
:100CE000E58C0400818C04002DE9FF411F46136848
:100CF00015460422064688461B6811462846984732
:100D0000044608B100230360CDE90254A4B9144B92
:100D1000019340F29D730093124A134B41464046A3
:100D2000FFF7EEFB0124039911B102A8FFF7F6FBD0
:100D3000204604B0BDE8F0813046FFF7CCFC4F28D8
:100D400008D13046FFF728FC20B100220421FFF72C
:100D5000B1FE206000233C6003931C46E3E700BF24
:100D6000FC8C0400E58C0400818C04002DE9FF411B
:100D70001F4613681546064688461B680422142140
:100D800028469847044618B11422002132F018FD75
:100D9000CDE90254A4B9204B01934FF4FD630093B5
:100DA0001E4A1F4B41464046FFF7AAFB0124039908
:100DB00011B102A8FFF7B2FB204604B0BDE8F081F4
:100DC0003046FFF788FC202821D13046FFF7E4FBAE
:100DD0000546E0B100220421FFF76CFE00222060EE
:100DE00006212846FFF766FE00226060082128469B
:100DF000FFF760FE0022A0600A212846FFF75AFE96
:100E00000022E0600C212846FFF754FE20610023F9
:100E10003C6003931C46CAE7FC8C0400E58C04008C
:100E2000818C04002DE9FF411F46136815460646D4
:100E300088461B680422082128469847044610B1BA
:100E40000023C0E90033CDE90254A4B9174B019344
:100E500040F663030093164A164B41464046FFF79F
:100E60004FFB0124039911B102A8FFF757FB20465D
:100E700004B0BDE8F0813046FFF72DFC40280FD1CB
:100E80003046FFF789FB054650B100220421FFF7E9
:100E900011FE0022206006212846FFF70BFE60604D
:100EA00000233C6003931C46DCE700BFFC8C04007D
:100EB000E58C0400818C040038B505461446FFF724
:100EC00063FB00B12C56204638BD00002DE9FF41E0
:100ED0001F4613681546064688461B6801220221F4
:100EE00028469847044610B1002303704370CDE9AB
:100EF0000254A4B91A4B019340F2A5330093194A46
:100F0000194B41464046FFF7FBFA0124039911B102
:100F100002A8FFF703FB204604B0BDE8F08130468D
:100F2000FFF7D9FB0B2815D13046FFF735FB0546F7
:100F300080B100220421FFF7BFFFC0B2FFF7F2FA31
:100F40000122207006212846FFF7BCFB003018BFA5
:100F50000120607000233C6003931C46D6E700BF6D
:100F6000FC8C0400E58C0400818C04002DE9FF4119
:100F7000984613681546012207460E461B6811461F
:100F800028469847044608B100230370CDE902546F
:100F9000A4B9194B01934FF471730093174A184B7E
:100FA00031463046FFF7ACFA0124039911B102A88B
:100FB000FFF7B4FA204604B0BDE8F0813846FFF7E9
:100FC0008AFB282805D0039BC8F80030002403942E
:100FD000EBE73846FFF7E0FA0028F4D000220421BE
:100FE000FFF76AFF21463246C0B2FFF7DFFA044638
:100FF0000028E8D0D9E700BFFC8C0400E58C040091
:10100000818C04002DE9FF419846136815460122A2
:1010100007460E461B68114628469847044608B105
:1010200000230370CDE90254A4B9194B019340F297
:10103000DD330093174A184B31463046FFF760FA0C
:101040000124039911B102A8FFF768FA204604B001
:10105000BDE8F0813846FFF73EFB392805D0039BF9
:10106000C8F8003000240394EBE73846FFF794FA01
:101070000028F4D000220421FFF71EFF214632464B
:10108000C0B2FFF793FA04460028E8D0D9E700BFC2
:10109000FC8C0400E58C0400818C04002DE9FF41E8
:1010A0001F4613681546064688461B680422082119
:1010B00028469847044610B1002303600371CDE928
:1010C0000254A4B9184B019340F232430093174ADB
:1010D000174B41464046FFF713FA0124039911B11B
:1010E00002A8FFF71BFA204604B0BDE8F0813046A5
:1010F000FFF7F1FA0A2812D13046FFF74DFA0546FC
:1011000068B100220621FFF7D7FEC0B2FFF70AFA46
:101110000022207104212846FFF7CCFC2060002328
:101120003C6003931C46D9E7FC8C0400E58C04006A
:10113000818C04002DE9FF41984613681546074647
:101140000E461B680422182128469847044618B109
:101150001822002132F034FBCDE90254A4B9274B08
:10116000019340F24D430093254A264B31463046C9
:10117000FFF7C6F90124039911B102A8FFF7CEF9D0
:10118000204604B0BDE8F0813846FFF7A4FA0128F4
:1011900006462DD13846FFF7FFF9054640B3002239
:1011A0000421FFF789FEC0B2FFF7C6F900222070C4
:1011B00006212846FFF77EFC0022606008212846B1
:1011C000FFF778FC00220A21A0602846FFF774FE92
:1011D000C0B2FFF7A7F9324620730C212846FFF76B
:1011E00069FC324620610E212846FFF763FC6061EE
:1011F0000023C8F8004003931C46BCE7FC8C0400A5
:10120000E58C0400818C04002DE9FF411F46136822
:101210001546064688461B6804221C212846984726
:10122000044618B11C22002132F0CAFACDE902545A
:10123000A4B9294B019340F2A2430093274A284BBB
:1012400041464046FFF75CF90124039911B102A819
:10125000FFF764F9204604B0BDE8F0813046FFF79F
:101260003AFA022833D13046FFF796F9054670B3B3
:1012700000220421FFF720FEC0B2FFF75DF9002233
:10128000207006212846FFF715FC00226060082127
:101290002846FFF70FFC0022A0600A212846FFF72E
:1012A00009FC00220C21E0602846FFF705FEC0B2D1
:1012B000FFF738F9012220740E212846FFF7FAFBC8
:1012C0000122606110212846FFF7F4FBA061002392
:1012D0003C6003931C46B8E7FC8C0400E58C0400DA
:1012E000818C04002DE9F04398461368154685B0BB
:1012F00081460E461B680122042128469847044671
:1013000008B100230360CDE90254A4B9264B019330
:1013100040F21D530093254A254B31463046FFF7D6
:10132000EFF80124039911B102A8FFF7F7F820465E
:1013300005B0BDE8F0834846FFF7CDF90828074619
:101340002CD14846FFF728F9054638B3002204217E
:10135000FFF7B2FDC0B2FFF7E5F800222070394672
:101360002846FFF7AFF9003018BF0120A070002217
:101370000A212846FFF7A6F9003018BF0120E070C7
:10138000002206212846FFF797FD30B1012804D03E
:1013900008493046FFF7A6F8C3E760700023C8F895
:1013A000004003931C46BDE7FC8C0400E58C040060
:1013B000818C0400B18D04002DE9FF411F461368A4
:1013C00015460122064688461B681146284698475E
:1013D000044608B100230370CDE90254A4B9154BAB
:1013E000019340F297530093134A144B41464046F1
:1013F000FFF786F80124039911B102A8FFF78EF8D0
:10140000204604B0BDE8F0813046FFF764F90C28AF
:101410000BD13046FFF7C0F838B100220421FFF7A6
:101420004BFDC0B2FFF77EF8207000233C600393B1
:101430001C46E0E7FC8C0400E58C0400818C040071
:101440002DE9FF411F4613681546012206468846CE
:101450001B68114628469847044608B100230370CC
:10146000CDE90254A4B9154B019340F20F630093E8
:10147000134A144B41464046FFF742F801240399B2
:1014800011B102A8FFF74AF8204604B0BDE8F08188
:101490003046FFF720F915280BD13046FFF77CF8CE
:1014A00038B100220421FFF707FDC0B2FFF73AF878
:1014B000207000233C6003931C46E0E7FC8C040092
:1014C000E58C0400818C04002DE9FF411F46136860
:1014D0001546064688461B68042228212846984758
:1014E000044618B12822002132F06AF9CDE90254ED
:1014F000A4B9264B019340F261630093244A254B23
:1015000041464046FEF7FCFF0124039911B102A8B1
:10151000FFF704F8204604B0BDE8F0813046FFF73D
:10152000DAF805282DD13046FFF736F8054640B3E6
:1015300000220421FFF7C0FCC0B2FEF7FDFF00222D
:10154000207006212846FFF7B5FA002260600821C6
:101550002846FFF7AFFA0022A0600A212846FFF7CD
:10156000A9FA0022E0600C212846FFF7A3FA002226
:1015700020610E212846FFF79FFCC0B2FEF7D2FF84
:10158000207500233C6003931C46BEE7FC8C0400DE
:10159000E58C0400818C04002DE9FF419846136816
:1015A0001546012207460E461B68114628469847F5
:1015B000044608B100230370CDE90254A4B9194BC5
:1015C000019340F22A730093174A184B3146304674
:1015D000FEF796FF0124039911B102A8FEF79EFFC2
:1015E000204604B0BDE8F0813846FFF774F837288C
:1015F00005D0039BC8F8003000240394EBE738467D
:10160000FEF7CAFF0028F4D000220421FFF754FCA3
:1016100021463246C0B2FEF7C9FF04460028E8D092
:10162000D9E700BFFC8C0400E58C0400818C040029
:101630002DE9FF411F4613681546064688461B687C
:101640000122022128469847044610B10023037066
:101650004370CDE90254A4B91A4B019340F6040338
:101660000093194A194B41464046FEF749FF0124B1
:10167000039911B102A8FEF751FF204604B0BDE85E
:10168000F0813046FFF727F81C2815D13046FEF7C9
:1016900083FF054680B100220421FFF70DFCC0B294
:1016A000FEF740FF0122207006212846FFF70AF8C6
:1016B000003018BF0120607000233C6003931C467B
:1016C000D6E700BFFC8C0400E58C0400818C04008C
:1016D0002DE9FF4198461368154607460E461B68DC
:1016E0000422082128469847044618B100230360C5
:1016F00003714371CDE90254A4B91E4B019340F626
:101700001E0300931C4A1D4B31463046FEF7F8FE7F
:101710000124039911B102A8FEF700FF204604B08E
:10172000BDE8F0813846FEF7D6FF062806461BD1F5
:101730003846FEF731FF0546B0B100220421FFF71D
:10174000B9F90022314620602846FFF7B5FBC0B248
:10175000FEF7E8FE0022207108212846FEF7B2FFBE
:10176000003018BF012060710023C8F800400393C7
:101770001C46CEE7FC8C0400E58C0400818C040040
:101780002DE9FF411F4613681546064688461B682B
:1017900004220C2128469847044618B10023C0E9CA
:1017A00001330370CDE90254A4B91C4B019340F6F8
:1017B0004B0300931A4A1B4B41464046FEF7A0FEDE
:1017C0000124039911B102A8FEF7A8FE204604B037
:1017D000BDE8F0813046FEF77EFF312818D1304653
:1017E000FEF7DAFE054698B100220421FFF764FBFC
:1017F000C0B2FEF7A1FE0022207006212846FFF7A6
:1018000059F90022606008212846FFF753F9A060CB
:1018100000233C6003931C46D3E700BFFC8C04000C
:10182000E58C0400818C040038B504461546FEF7AB
:10183000ABFE08B104442568284638BD2DE9FF41B8
:101840001F46136815460422064688461B68114643
:1018500028469847044608B100230360CDE90254A6
:10186000A4B9144B019340F2AF530093124A134BA7
:1018700041464046FEF744FE0124039911B102A8F7
:10188000FEF74CFE204604B0BDE8F0813046FEF77E
:1018900022FF4B2808D13046FEF77EFE20B1002201
:1018A0000421FFF7C1FF206000233C6003931C4626
:1018B000E3E700BFFC8C0400E58C0400818C04008D
:1018C0002DE9FF411F461368154604220646884647
:1018D0001B68114628469847044608B10023036058
:1018E000CDE90254A4B9144B019340F24C73009318
:1018F000124A134B41464046FEF702FE012403996B
:1019000011B102A8FEF70AFE204604B0BDE8F0813E
:101910003046FEF7E0FE092808D13046FEF73CFECF
:1019200020B100220421FFF77FFF206000233C60EC
:1019300003931C46E3E700BFFC8C0400E58C040025
:10194000818C04002DE9F843984605460023C8F829
:10195000003091460F4620F073FE2B68EB1A0646C6
:101960001A88082A0CD9198951B16C58912E09D9B5
:1019700032461C494846FEF7B5FD0120BDE8F88314
:101980000124F3E7202E11D03B6822461B68314624
:1019900038469847C8F8000008BB134A134952F864
:1019A000262023464846FEF79DFDE6E7062A05D990
:1019B000DB88E91813B1EB58C91804D10C49484623
:1019C000FEF790FDD9E73B6822465B680431384654
:1019D0009847C8F80000B0FA80F04009CEE7002030
:1019E000CCE700BF28900400DC8D04007C9004004C
:1019F0001E910400836810B41BB9036D5DF8044B9D
:101A0000184703EB81105DF8044B7047C0EE807AF5
:101A100073B5044615460E4617EE900A2DF0E2FA0D
:101A20002EF088FB2DF02EFE9FED117A07EE900A26
:101A3000F4EEC77AF1EE10FA0FDB9FED0E7AF4EEBA
:101A4000C77AF1EE10FA08D8FDEEE77A002017EE1B
:101A5000901A3144296002B070BD074B00932046B4
:101A60006569064A064940F25913A8470120F2E782
:101A7000000000CF0000004FC997040071970400D8
:101A8000E58C040070B515460A1E044601DBAA4227
:101A900006DB666908492B462046B047012070BD29
:101AA00053F82230591C03D1436904499847F5E79C
:101AB000049A00201360F2E7159704003F97040092
:101AC000002804DB884202DA52F8200070474FF009
:101AD000FF3070470B6810B51968044610461A1D90
:101AE000FFF7EEFF011E04DB2046BDE81040FFF7C4
:101AF00081BF002010BD7FB514461D460A6803ABA8
:101B000000932146131D12680646FFF7BBFF0446EB
:101B100020B903993046FFF76DFF2860204604B0D6
:101B200070BD4B6810B51968044610461A1DFFF7C2
:101B3000C7FF011E04DB2046BDE81040FFF75ABF77
:101B4000002010BD7FB514461D464A6803AB0093C4
:101B50002146131D12680646FFF794FF044620B97C
:101B600003993046FFF746FF2860204604B070BD59
:101B7000FFF7B0BFD1ED037A92ED037A67EE877A73
:101B800073B5F5EEC07AF1EE10FA1E460ADA0F4B85
:101B9000009344690E4A0F4940F24B13A0470120BD
:101BA00002B070BD17EE900A2DF01CFA0446F068E2
:101BB0000D462DF017FA0B460246294620462DF019
:101BC00093FB069BC3E900010020E9E7EF970400BF
:101BD00071970400E58C04002DE9F74F0446C868AE
:101BE00090469A460D462DF0FDF90646D8F80C00B1
:101BF0000F462DF0F7F902460B46304639462DF0D8
:101C000049FADDE90C9B06460F46BAF1000F1CD0DD
:101C1000DAF80C002DF0E6F902460B46304639465C
:101C20002DF080F80646D9F80C0021F000472DF081
:101C3000D9F902460B46304639462DF055FB13A321
:101C4000D3E900232DF0A2FC50B14B464246294671
:101C50002046CDF830B003B0BDE8F04FFFF78ABFA3
:101C6000074B009320466569064A07494FF49F7366
:101C7000A847012003B0BDE8F08F00BFAFF300809C
:101C80000898040071970400E58C04007B14AE47AB
:101C9000E17A943F2DE9F0432DED028B99461378BC
:101CA00085B0032B0646DDF8388011D0092B2BD0E8
:101CB000072B2DD03B4B009344693B4A3B4940F2F4
:101CC0009113A047012005B0BDEC028BBDE8F08365
:101CD000FF240025012992ED038A17691CD103AA6C
:101CE000DFED330A3946B0EE480A3046FFF78EFE84
:101CF0000028E8D1039BAB42ACBFC9F80030C9F85B
:101D00000050C8F80040DEE77F246FF07F05E1E770
:101D100047F6FF74274DDDE7032924D103AADFED41
:101D2000240A3946B0EE480A3046FFF76FFE002815
:101D3000C9D1039BAB42ACBFC9F80030C9F8005011
:101D400003AAF1EE080A3946B0EE480A3046FFF71A
:101D50005DFE0028B7D1039BA342D4BFC8F8003072
:101D6000C8F80040AFE7022915D103AAFFEE000A28
:101D70003946B0EE480A3046FFF748FE0028A2D1A7
:101D8000039BAB42ACBFC9F80030C9F8005003AAAE
:101D9000F7EE000AD7E7C9F800500020C8F8004065
:101DA00091E700BF2A98040071970400E58C0400B5
:101DB000000000000080FFFF2DE9F04F91F8309007
:101DC0008FB0B9F1010F04460D4617469B46DDF86A
:101DD00080800FD001266D4B0193CDE902966C4BAC
:101DE00000934469DB236B4A6B49A04701200FB085
:101DF000BDE8F08F92F83060012E08D0634B01935C
:101E0000CDE90269654B00934469DD23EBE7526B32
:101E10003AB9634B00934469E7235E4A6149A0479E
:101E2000E4E7D2F80090B9F1000F04D15E4B0093C3
:101E30004469E823F1E7D9F800A0BAF1010F35DDD4
:101E40000B78092B06D0072B04D0584B009344691C
:101E5000ED23E2E73B78092B0DD00922CDE90232D0
:101E6000534B0193534B00936569EE23494A4A490A
:101E70002046A847BAE7D04508D04F4B0193CDE99B
:101E800002A84E4B00936569EF23EFE7BB689268A9
:101E900003EB82035B68984508D0CDE90283484B89
:101EA0000193454B00936569F223DFE7D5ED037A93
:101EB000189BCDED057AD3ED037A09F10403CDED3E
:101EC000067A07930026B0452EDDBAF1010FC9BF8F
:101ED000079BD9F8040003EB860318682DF082F8FD
:101EE000CDE9080105982DF07DF802460B46DDE9A5
:101EF00008012DF0CFF8CDE9080106982DF072F811
:101F000002460B46DDE908012DF0EEF90CAB0BAAF9
:101F100000F062F81E9A0B9B42F826301F9A0C9B29
:101F200042F826300136CEE72B78032B1AD10EABC0
:101F30000020002163E902010193189B00933A46B7
:101F40005B4629462046FFF747FE00287FF44FAF47
:101F50000BAB1A9ADDE90C0100F03EF80B9B1B9AC3
:101F60005B4213602B78092B03D003F0FB03032B98
:101F700009D1199B189A19781D9B009320461C9B28
:101F8000FFF788FE33E7002031E700BF4A980400DE
:101F90006498040071970400309804007D98040050
:101FA00097980400E58C0400AB9804007FBB040004
:101FB00090B80400C6980400D3980400E098040088
:101FC0000199040008B589688068FEF771FA00304D
:101FD00018BF012008BD0000F8B515461C460022B8
:101FE000002306460F462DF0BDFA18B100232B60E2
:101FF0002360F8BD2246304639462EF069F80022AB
:10200000104B2DF047F82EF095F82DF0F3FB4FF024
:1020100000420023824273EB010601DA2FF028FF11
:10202000994201BF9042236801332360236808BFAF
:102030004FF080401F33BEBF002300202360286084
:10204000D7E700BF0000E041F8B515461C46002266
:10205000084B06460F462DF0ADFA08B92FF008FFE1
:1020600023462A4630463946FFF7B6FF2368002B41
:10207000F4DBF8BD0000F03FF7B517461E4600221E
:102080000D4B04460D462DF077FA08B92FF0F0FEFF
:1020900000220023204629462DF08CFA0028F5D096
:1020A00001AB3A4620462946FFF796FF019B002BDD
:1020B000ECDC336003B0F0BD0000F03F0000000036
:1020C0002DE9F14F06460A989946C0F11F000123F9
:1020D00003FA00F00F4690462CF072FF4246044689
:1020E0000D464B46304639462CF0D4FF02460B468F
:1020F000204629462CF0CEFF0BA3D3E90023DDE9CF
:102100000BAB04460D462DF055FA10B106A5D5E9E6
:1021100000455B4652462046294601B0BDE8F04FD7
:10212000FFF792BFAFF300800000C0FFFFFFDF4169
:102130002DE9F8430124814604FA00F0013888466D
:1021400015462CF03DFF0646A5EB09000F46C0F1F1
:102150002003A0F1200124FA03F304FA01F104FAA8
:1021600000F019432CF068FF02460B463046394612
:102170002CF090FFC8F120030F46A8F1200124FAAB
:1021800003F304FA01F10646194304FA08F02CF0AF
:1021900053FF02460B46304639462DF0A5F82DF088
:1021A00017FF2DF027FABDE8F8830022C0E90022CE
:1021B000826070470120704703689B691847036875
:1021C000DB691847202930B50FD041F20403C45809
:1021D00000239C4209D05A018518AD698D4202D175
:1021E0000432104430BD0133F3E70020FAE741F236
:1021F000882300F5805230B50832C45800239C4231
:102200000AD012F8015B8D4204D103F2224350F848
:10221000230030BD0133F2E70020FAE741F2040366
:102220002DE9F041C7580446884605460026B742C6
:102230000FD0AB69202B09D14146E86931F024FD6C
:1022400020B904EB46100430BDE8F081013620359A
:10225000EDE70020F8E7000020292DE9F0470546CA
:102260008846144699460AD141F28C23C05810B9C9
:102270000120BDE8F0872249FEF734F9F8E703684A
:102280009B699847074648B141F28C23E8580028DB
:10229000EED042461B49FEF725F9E9E741F2040E6C
:1022A00055F80EC0BCF17F0F0AD941F28C23E858D3
:1022B0000028DDD0802342461349FEF713F9D7E703
:1022C0000FCC05EB4C1A0AF104060FC694E80F0078
:1022D00086E80F0041F288220CF10103CAF8188049
:1022E00045F80E30AB5841F20801E81800F80180BB
:1022F00003F22241013345F821903846AB50B8E74C
:1023000089990400CE9904001D9A04002DE9F0413A
:1023100041F20406054683597F2B884614460CD9A2
:1023200041F28C23C05810B90120BDE8F0810A4663
:1023300080231249FEF7D6F8F6E70368DB69984771
:10234000074648B141F28C23E8580028ECD04246B9
:102350000B49FEF7C7F8E7E7AB595A1CAA5105EB42
:1023600043150FCC2E1D0FC694E80F0086E80F0012
:102370002023C5E906383846D7E700BF609A040035
:10238000A29A040041F2040330B50025C55041F281
:10239000882389B0C55041F28C230446C550E34BD5
:1023A0000360684609F0F6FFE14B6A466521204666
:1023B000FFF752FF684617F093FF2946DD4B6A4648
:1023C0002046FFF749FF684602F0CEFEDA4B6A4628
:1023D0006A212046FFF740FF684603F077F9D74BA4
:1023E0006A4638212046FFF737FF684603F078F940
:1023F000D34B6A464F212046FFF72EFF68461AF05E
:102400000FFED04B6A4601212046FFF725FF6846A4
:1024100003F06EFACC4B6A4625212046FFF71CFFDD
:10242000684603F02FFDC94B6A4668212046FFF736
:1024300013FF684606F048FFC54B6A460221204656
:10244000FFF70AFF684619F09BF8C24B6A46032162
:102450002046FFF701FF684609F0B8FFBE4B6A4609
:102460006C212046FFF7F8FE684607F093FDBB4B52
:102470006A4680212046FFF7EFFE684607F052FFCC
:10248000B74B6A4605212046FFF7E6FE684619F07D
:1024900089FDB44B6A4604212046FFF7DDFE6846FD
:1024A00008F022FBB04B6A4606212046FFF7D4FE17
:1024B00009F092FAAD4902462046FFF727FF684629
:1024C0000AF002F9AA4B6A466F212046FFF7C4FEC4
:1024D000684603F09BFDA74B6A4647212046FFF75D
:1024E000BBFE0AF0FFF8054630B10AF0FDF82A46B7
:1024F00001462046FFF70AFF68460AF003FA6A46DB
:102500009D4B46212046FFF7A7FE68460AF064FA75
:102510006A469A4B08212046FFF79EFE68460AF05D
:10252000FFFA6A46964B5A212046FFF795FE684609
:102530000AF0EEFC6A46934B5F212046FFF78CFEC3
:10254000684619F097FF6A468F4B09212046FFF72E
:1025500083FE684603F076FD6A468C4B3D2120469B
:10256000FFF77AFE684603F07BFD6A46884B3E2102
:102570002046FFF771FE68460AF07EFE6A46854BEC
:1025800075212046FFF768FE68460BF097FB6A4608
:10259000814B0B212046FFF75FFE68460BF088FA5F
:1025A0006A46684B0C212046FFF756FE68460BF042
:1025B0004FFF6A46794B62212046FFF74DFE684681
:1025C00003F05CFD6A46764B3A212046FFF744FE55
:1025D000684603F061FD6A46724B3F212046FFF7D3
:1025E0003BFE684609F000FF6A466F4B49212046D2
:1025F000FFF732FE68460CF0CDF86A466B4B562169
:102600002046FFF729FE684609F026FF6A46684B18
:1026100057212046FFF720FE68460CF0B1F86A46C5
:10262000644B54212046FFF717FE68460CF05AFA17
:102630006A46614B0E212046FFF70EFE68461AF0EF
:10264000FDFC6A463F4B11212046FFF705FE684618
:102650000CF0A2FC6A46594B37212046FFF7FCFDDF
:1026600068460FF067FD6A46554B28212046FFF764
:10267000F3FD68460CF09AFC6A46524B392120461D
:10268000FFF7EAFD684619F0FBFF6A464E4B122140
:102690002046FFF7E1FD68460DF012FA6A464B4B03
:1026A0003B212046FFF7D8FD684603F0BDFC6A4693
:1026B000474B48212046FFF7CFFD68460DF0C4FB8D
:1026C0006A46444B53212046FFF7C6FD68460DF08D
:1026D000C3FD6A46404B22212046FFF7BDFD6846F8
:1026E0000DF0C8FD6A463D4B3C212046FFF7B4FD86
:1026F00068460EF04FFD6A46394B36212046FFF7FB
:10270000ABFD68460EF0E4FF6A46364B7221204668
:10271000FFF7A2FD68460FF01BFD6A46284B5221C9
:102720002046FFF799FD68465EE000BF4899040027
:1027300025060100CD0E0100290601006D0F0100E4
:1027400005100100C91401002D0601003106010029
:102750009D10010035110100350601003D08010002
:10276000C90A010009120100390601006C99040030
:102770003D06010041060100450601004906010031
:102780004D06010051060100E51201005506010049
:10279000590601005D060100B91301003D18010052
:1027A0006106010065060100690601006D06010071
:1027B0007106010075060100790601007D06010021
:1027C000DD080100810601004114010085060100B9
:1027D000890601004D0B01008D06010091060100E4
:1027E000950601009906010002F054FA6A466B4B07
:1027F00013212046FFF730FD684602F059FA6A4679
:10280000674B15212046FFF727FD684610F06AFF49
:102810006A46644B16212046FFF71EFD684611F0FC
:1028200069F86A46604B17212046FFF715FD684698
:1028300011F07CFC6A465D4B61212046FFF70CFDE0
:10284000684611F0BFFF6A46594B74212046FFF7D6
:1028500003FD684609F0E4FD6A46564B4C212046CC
:10286000FFF7FAFC684612F019F86A46524B4D2100
:102870002046FFF7F1FC684609F09AFD6A464F4B87
:1028800042212046FFF7E8FC68461AF071FC6A46D0
:102890004B4B19212046FFF7DFFC684612F0F8FB8E
:1028A0006A46484B26212046FFF7D6FC684612F0C0
:1028B000B1FE6A46444B1A212046FFF7CDFC68461C
:1028C00013F036F86A46414B31212046FFF7C4FC2D
:1028D000684613F031FB6A463D4B66212046FFF700
:1028E000BBFC684609F08EFD6A463A4B4B212046F8
:1028F000FFF7B2FC684609F0A1FD6A46364B5C2141
:102900002046FFF7A9FC684613F07EFE6A46334B6B
:102910002B212046FFF7A0FC684614F073F86A46A6
:102920002F4B2D212046FFF797FC684614F0D0FE70
:102930006A462C4B29212046FFF78EFC68461BF087
:1029400011FB6A46284B1B212046FFF785FC684691
:1029500015F0F2FC6A46254B1C212046FFF77CFC53
:10296000684617F00DFA6A46214B43212046FFF7CF
:1029700073FC684616F0D8F86A461E4B272120469D
:10298000FFF76AFC684617F083FB1B4B6A46582129
:102990002046FFF761FC204609B030BD9D060100CE
:1029A000A1060100E5060100650901000D0A01000C
:1029B000A5060100A906010099150100AD06010058
:1029C000C1180100B1060100E10B0100650C010016
:1029D000E90C0100B5060100B90601008D070100F0
:1029E0006D0D010031160100D1160100BD06010078
:1029F00081170100C1060100250E01000368C31AFA
:102A00001A880A2A07D95B89C21833B1C358D0186B
:102A100004D0D05870470020704718467047000017
:102A20000368C31A10B51A88082A18D91B89C41854
:102A3000ABB1C258A318A258914206D3094B0A4A17
:102A40000A484FF483712FF01BFA043303EB810023
:102A500053F82130BDE810401844FFF7CFBF0023E2
:102A60001B68FFDEEF9A0400649B0400FA9A0400DE
:102A7000032905D8012994BF0078008800217047F8
:102A8000072901D80068F9E7D0E9000170474B1E1B
:102A90001844B0FBF1F048437047B0FBF1F04843F5
:102AA000704701380844B0FBF1F0484370470138E3
:102AB0000F2815D8DFE800F00C0C100E1410080ECB
:102AC00010080E120E14140C02230B600020704725
:102AD0000423FAE70823F8E70123F6E71023F4E7D5
:102AE000012070472DE9F3410D460168411A164651
:102AF0000A88042A2ED98C8800EB040C8CB1045966
:102B00001CEB04070DD05CF804804FF0000C01248E
:102B1000C44507D057F804EF0CF1010C0EFB04F488
:102B2000F6E70124062A16D9C988B1B140561A46DB
:102B30000DF10701C0B2FDF739FD40B931469DF8EE
:102B40000700FFF7B4FF10B933685C432C6002B094
:102B5000BDE8F08101240020E9E70846E7E7436883
:102B600073B50C4653B153F8046B002101228E4219
:102B700005DD53F8045B01316A43F8E7012201A93E
:102B8000007AFFF794FF10B9019B5A43226002B00C
:102B900070BD40680368DB6818477047704740683D
:102BA00003681022DB681847406803685B691847B0
:102BB000406803680422DB6840211847704710B55D
:102BC0001C21044627F0C8FA204610BD10B5082184
:102BD000044627F0C1FA204610BD436910B50C46E3
:102BE000114633B1406803680422DB6889009847C6
:102BF0002060002010BD10B508210446FDF7C4FC7C
:102C0000231808B12058184410BD10B50A210446F5
:102C1000FDF7BAFC231808B12058184410BD10B5B0
:102C200006210446FDF7B0FC00B12056C0B210BD2D
:102C300010B50E210446FDF7A7FC00B1205C003062
:102C400018BF012010BD10B504210446FDF79CFCFF
:102C5000231808B12058184410BD10B508210446A7
:102C6000FDF792FC231808B12058184410BD00004D
:102C700038B503680D46DB6804221C2104469847DA
:102C800038B1044BC560C0E900340023C0E9053306
:102C9000037438BDA4A0040070B50E46102115467B
:102CA0000446FFF7F4FEA2190146121A284601F065
:102CB000E7FC2946BDE87040FFF7DABF0023436117
:102CC0004068036804229B6860211847037C70B544
:102CD00004460E462BB11E49C068FDF703FC0025D3
:102CE00022E001230374406803680422DB680821A2
:102CF000984718B16368174AC0E90023A0602046CE
:102D0000FFF7DCFF0028EAD13046FFF7A6FF656831
:102D100001682B682846DB680422C90098470546ED
:102D200020B90D4800F0B2FD284670BD2368024668
:102D3000DB693146204698470028D0D123682A46CF
:102D40009B693146204698470028EDD0C7E700BF71
:102D5000AA9C04008CA00400FF9C040008B54068F5
:102D600001F0B2FC0421BDE80840FFF790BE00006E
:102D70002DE9F041044688461F46FFF7EFFF002289
:102D800065691646954207D000EBC20301325B68C5
:102D9000013308BF0136F5E70B2E07D90C220A498B
:102DA000E068FDF79FFB0120BDE8F08100EBC50363
:102DB0004FF0FF3240F835805A603D60636901335F
:102DC00063610020F0E700BF6F9F0400036870B5E7
:102DD0009B6804460D4698472046FFF7BFFF616990
:102DE0000022914206D04368013308BF456001329A
:102DF0000830F6E7606803680C319B680422C9005C
:102E0000BDE8704018471160002070478068704727
:102E100008B50368994206D3054B064A06484FF4A5
:102E200083712FF02DF800EBC100D0E9010108BD3E
:102E3000EF9A040086A50400FA9A040008B5036816
:102E4000994206D3054B064A06484FF483712FF08A
:102E500017F800EB8100406808BD00BFEF9A04003E
:102E6000B8A40400FA9A040008B50368994206D38E
:102E7000064B074A07484FF483712FF001F80430DE
:102E800000EB810250F82100104408BDEF9A0400C5
:102E9000CEA10400FA9A04002DE9F74305468846BE
:102EA000164600244FF00C094046FFF7CCFE03689D
:102EB0009C421FD22146FFF7D7FFFFF7B9FEB8B1FA
:102EC00009FB04F701A9F019FFF749FE68B9686822
:102ED000019903681022DB689847F05140B9019AC4
:102EE0000549E868FDF7FEFA012003B0BDE8F0836C
:102EF0000134D9E70020F8E77C9C040008B503689A
:102F0000994206D3064B074A07484FF483712EF0C7
:102F1000B7FF043000EB810250F82100104408BDD7
:102F2000EF9A0400BEA30400FA9A04002DE9F347C7
:102F30009846037C04460F463BB3154600263846A8
:102F4000FFF78BFE03689E4227D23146FFF7D6FF7C
:102F5000236862691B6B8146414620469847C8B981
:102F600023680096D3F82CA06A68D8F80030394658
:102F70002046D04770B923686A681B6A49462046D4
:102F80009847083530B90136D9E70549C068FDF7DB
:102F9000A9FA012002B0BDE8F08700202074F9E70B
:102FA0002D9D04002DE9F84305460F4616460024E2
:102FB0004FF02C083846FFF750FE03689C4219D2A8
:102FC0002146FFF79BFFFFF719FD6B681A6808FBA6
:102FD00000F1D2F80C9018460422C84730B90649CF
:102FE000E868FDF77FFA0120BDE8F88346F8340071
:102FF0000134DFE70020F7E7A59F04002DE9F74F34
:103000000C9F05460846164698468A46FFF725FE59
:103010003946FFF773FF2B6828465B6A4FF00009BB
:103020009847CDE900792B680446D3F828B00246CA
:10303000434651462846D84740B10B49E868FDF75A
:1030400051FA4C46204603B0BDE8F08F002EF9D06F
:1030500006EBC7060C23726803FB08F3D118D3589C
:1030600063604B68A360EDE7DB9F04002DE9F34745
:103070000A9F06460846984689461546FFF7EDFD25
:103080003946FFF73BFF7068036804221B69402143
:1030900098470122CDE9007233680446D3F828A08E
:1030A0000246434649463046D04740B10B49F06896
:1030B000FDF718FA0024204602B0BDE8F087002D85
:1030C000F9D005EBC7050C236A6803FB08F3D11898
:1030D000D35863604B68A360EDE700BFC59E040052
:1030E00008B50368994206D3064B074A07484FF4D0
:1030F00083712EF0C5FE043000EB810250F82100F0
:10310000104408BDEF9A0400D8A00400FA9A040005
:1031100038B50C4608210546FDF736FA88B129581E
:103120002046FFF7DDFF044650B10421FDF72CFADD
:10313000221828B12358D11805D0D05800B1081D45
:1031400038BD0146ECE70846FAE710B50446FDF73E
:103150001BFA231808B12058184410BD2DE9F74375
:103160000B9C9046054640220E46204600211F46F5
:1031700030F026FB4046FFF752FD0A9A2146FDF744
:1031800015FA002854D14046FFF752FD394684F81D
:103190002D004046FFF7BCFF606000284BD10223A2
:1031A000237501AA0A9B04F118014046FFF79AFC17
:1031B00000283DD104214046FFF7C7FF00283CD13D
:1031C0003E4BA3600C214046FDF7DEF908EB0007FB
:1031D00070B358F800003F18384629D0FFF70BFDB0
:1031E0008046002868D0006810B33846FFF70DFD10
:1031F000F0B10068E0B1D8F80430E3603846FFF77A
:1032000004FD0021FFF704FE20613846FFF7F3FCC0
:103210002B68D0F8008096B11B6904220C21284647
:1032200098470646B8B926490A98FDF75BF9012088
:1032300003B0BDE8F0830123B2E7A060C2E7DB681A
:1032400004220C212846984706460028EBD02B681C
:10325000D3F80C9002E02B68D3F810904046FDF7AD
:103260000BF9042201462846C8470546706008B994
:103270001449D9E73846FFF7BEFC306045F8048BA7
:103280004FF00009C8450ADD3846FFF7BEFC494645
:10329000FFF7BEFD45F8290009F10109F2E7102109
:1032A0003846FDF771F900B13858B060012384F851
:1032B000303066630020BBE7BAE700BF609C0400C3
:1032C00025A0040053A004002DE9F041069C2646E9
:1032D0000D460021C4E9001146F8081F984628460B
:1032E0001746FFF79CFC31464246FDF75FF906465C
:1032F00058B939462846FFF70BFF042120602846BD
:10330000FFF723FF20B9034B63603046BDE8F0812F
:103310006060FAE7609C040010B50446FDF734F9DC
:10332000231808B12058184410BD2DE9F041044677
:10333000084690461F460D46FFF78FFC06999DF8FC
:103340001C60FFF7DBFDFFF77EFC3946FFF78CFDC5
:103350000C2107462846FFF7DFFFE3680693CDF808
:103360001C8003463A4631466068BDE8F041FFF7ED
:10337000F5BE00002DE9F04F85B006468846039261
:1033800000254FF00C094046FFF767FC03689D429B
:103390003DD22946FFF7B2FD0290FFF754FCD0F86A
:1033A00000A07068036809FB0AF4DB680422214668
:1033B0009847074640B917492246F068FDF792F84A
:1033C000012005B0BDE8F08F0024544519D00298C3
:1033D000FFF739FC2146FFF747FD0C2183464046A5
:1033E000FFF79AFF09FB047300930246F3687068C5
:1033F0005946FFF769FF10B122460749DDE701345E
:10340000E3E7039B03EBC50301355F60BBE70020E7
:10341000D7E700BF099F0400509F04002DE9F04F3B
:1034200097B004460846934609938846FFF715FC73
:103430002099FFF763FD0290FFF705FC62690368BE
:103440006068D318182605937343039303680399A0
:103450001B6904229847064648B9039AB649E068B2
:10346000FDF740F80122104617B0BDE8F08F029832
:10347000FFF7E9FB03680493636906931021E3688F
:1034800007934046FDF780F808EB0001002846D07E
:1034900058F800208B1871D08A5808924FF0000914
:1034A0001F1DCA46089B53453AD03D4604212A6851
:1034B00015442846FDF768F804372A1808B128583B
:1034C000104417229D49043030F0C8FD20BB0C2168
:1034D0004046FFF721FF062181462846FDF754F8B4
:1034E000C0B129584846FFF7FBFD04210546FDF70A
:1034F0004BF82B18002800F09A812858034403F158
:103500001009DA68049B934206D08D490798FCF7AE
:10351000E9FFA7E70146E5E70AF1010AC2E78146AC
:10352000DA46B046374600254FF0FF3B049BAB42DE
:1035300029D0C7F804A039465046FFF710FB0246D1
:10354000002890D1DAF80010C7E902BB51B90298FF
:10355000FFF779FB2946FFF787FCFFF769FB80F04F
:103560000102D2B23A75B9F1000F09D059F82520FD
:103570003A61013518370AF10C0AD7E79946CFE7C7
:10358000C7F810B0F5E70298FFF738FA4FF0000BD4
:1035900082464FF018095F4606210298FFF7D5FDD5
:1035A00003685B4508D95946FFF748FC09FB0060F2
:1035B0000BF1010B8760EFE74FF0000B4FF018099C
:1035C00008210298FFF7C1FD03685B450AF1FF3748
:1035D00019D84FEA8709002FC0F2C2800A21029849
:1035E000FCF7D2FF029B1918002800F022811A581C
:1035F0008B188A5897420FD3524B534A53484FF473
:1036000083712EF03DFC5946FFF718FC09FB006062
:103610000BF1010BC760D3E7043303EB090A53F83E
:1036200009304FF0000B9A4406215046FFF78DFDFC
:1036300002685A450ED95946FFF700FC182303FBD0
:103640000060C268511C01D0974200DDC7600BF1D9
:10365000010BE9E74FF0000B08215046FFF775FD1D
:1036600002685A450ED95946FFF7E8FB182303FBB9
:1036700000608268531C01D0974200DA87600BF12A
:10368000010BE9E7013FA9F10409A4E710216068F3
:1036900001F01CF805466068036829461B69102282
:1036A0009847014658B9E168294B019340F2D2335B
:1036B0000093284A284B0846FCF722FFD2E62A4608
:1036C0000BA81AF0A3FCD4F80C9035460027059BF4
:1036D000BB426CD02B7D13B901371835F7E71021A9
:1036E0002868FFF7DEF92B69591C02460FD1EB68F9
:1036F0000093AB6849460BA81AF04CFC0246002820
:10370000EAD00BA802921AF03BFC029AABE60193B6
:10371000EB680093AB6849460BA81AF093FCEDE701
:103720000BA81AF08EFD2B4602460C493846FCF7D2
:10373000D9FE0122E5E700BF789D0400649C0400E7
:10374000B99D0400EF9A0400C4A20400FA9A040090
:103750005E9E0400E58C0400049E0400779E040035
:103760002046FFF7FBFA6FF0070202FB0500069AFE
:10377000099918232A4403FB056396464FF0FF3C42
:103780000127AE4503F1180380D950F8352043F8DE
:10379000182C00EBC50243F8141C526843F808CCFF
:1037A00043E9042203F8047C01350431E9E7606849
:1037B00003685B6998471021606800F087FF054641
:1037C0000BA81AF03EFDA842E768A9D8606800F08F
:1037D0007BFF039B81461E4400254FF0FF3A464580
:1037E00016D098F8143083B12A460AAB39460BA894
:1037F000CDF828A01AF042FD0246002881D10A9B8C
:10380000D8F804204B441360013508F11808E6E7A6
:103810000BA81AF016FDA369834200D2A06160686C
:10382000A169036810229B689847024669E7C3684C
:10383000FFDE0368FCE700BF00B5C1B00B460246DF
:103840004FF48071684600F05FFD684600F04CFF61
:10385000024800F049FF41B05DF804FB97150500F0
:1038600000B5C1B0134668460A464FF4807100F0B7
:103870004BFD684600F038FF034800F035FF00209C
:1038800041B05DF804FB00BF971505000FB407B504
:1038900004A951F8040B0191FFF7CEFF03B05DF8C6
:1038A00004EB04B0704700004369202B01D180690C
:1038B0007047DBB2912B9ABF024A52F823000248AC
:1038C000704700BFDC8D0400C4110500704710B5BF
:1038D0001C21044626F040FC204610BD2DE9F84F7F
:1038E000D0F81480044600264FF02C09A3691B6809
:1038F0009E4220D266613146A068FFF791F84FEAF8
:10390000C60B82460027574513D0236953F80B5046
:1039100009FB0755AB6A69695A691B68202A0CBF05
:10392000D5E90612002213B1606898472861013773
:10393000E9E70136DAE7C4F814800020BDE8F88F23
:103940002DE9F0474769044600254FF02C08A3698C
:103950001B689D421AD265612946A068FFF760F88E
:103960004FEAC50A814600264E450DD0236953F81B
:103970000A3008FB06339A6A22B1526812B11969FB
:10398000606890470136EFE70135E0E767610020A6
:10399000BDE8F0872DE9F84F4769044600254FF050
:1039A0002C08A3691B689D422CD265612946A0683A
:1039B000FFF736F84FEAC50A814600264E451FD06C
:1039C000236953F80A1008FB0611D1F828B0DBF878
:1039D00008307BB160689847014658B15846FFF7F8
:1039E00063FF32460B4601460848FFF74FFF0120B0
:1039F000BDE8F88F3146E068FFF7E8F90136DDE70A
:103A00000135CEE767610020F2E700BFDAA60400C7
:103A1000002310B50446C0E9003222B113681046F5
:103A20009B6898472060204610BD10B5044640684A
:103A300018B103682168DB689847204610BD000074
:103A400083692DE9F74F1A68D0F814800446914233
:103A50000F46616107D32248FFF718FF012528466A
:103A600003B0BDE8F08F8068FEF7DAFFFF00814603
:103A700000264FF02C0A4E452ED02369DD590AFB53
:103A80000655D5F828B05846FFF70EFF6368014683
:103A90005A6B6846FFF7BCFF2946DBF80C306068BC
:103AA00098470546E06803689B689847012D0CD14C
:103AB0005846FFF7F9FE2B46014632460948FFF704
:103AC000E5FE6846FFF7B1FFC9E7002DF9D168466A
:103AD000FFF7ABFF0136CEE7C4F814800025BEE740
:103AE00074A60400A6A60400016170472DE9F04FFA
:103AF000074685B000264FF00C0BB86903689E425C
:103B000065D23146FFF7FAF94FEAC609804600252B
:103B100004214046FCF738FD08EB000100285BD08B
:103B200058F800208B188A5895424ED2043303EB84
:103B3000850453F825301C440E212046FCF724FD53
:103B400000283CD0235C002B39D03B694B440BFB55
:103B500005FA586803A95044FFF701F80346002806
:103B600036D1019006212046FCF70EFD48B32256BF
:103B7000019B092A27D10C212046FCF705FD2318BB
:103B800090B124581C440A212046FCF7FDFC221861
:103B900010B32358D118D35843B9104B104A1148C9
:103BA0004FF483712EF06CF90446ECE749683B69E9
:103BB000039A4B445B6853F80A002FF001FE01356D
:103BC000A6E70146F3E71946F1E7013695E700233A
:103BD000184605B0BDE8F08F0368FFDEEF9A0400D9
:103BE00048A70400FA9A040010B50446FCF7CCFC80
:103BF000231808B12058184410BD70B50C4605466E
:103C0000082180681646FFF7EFFF2146FFF776F997
:103C10000621FFF79AFA3146FFF710F9296901EBFF
:103C2000C4010C224B6802FB003070BD08B50821AE
:103C30008068FFF7D9FF006808BD10B580680C46A2
:103C40000821FFF7D1FF2146FFF758F90621FFF7BA
:103C50007CFA006810BD10B580680C460821FFF79B
:103C6000C3FF2146FFF74AF90821FFF76EFA006803
:103C700010BD000010B504460748C4E90223002324
:103C8000C4E90001C4E9043322B108211046FFF75A
:103C9000ABFFA061204610BD18A7040070B50C460C
:103CA0000546082180681646FFF79EFF2146FFF76C
:103CB00025F90821FFF749FA3146FFF7BFF82969CE
:103CC00001EBC4010C224B6802FB003070BDC368DD
:103CD000986E0368DB681847C368D3F88C3053F8D4
:103CE0002100704737B5C468A06ED4F880200368FF
:103CF00000925D68E26F0B462168A84703B030BDB3
:103D0000C268D2E91F3003EBC0030C205B6800FBE4
:103D100001307047C3686C330B6000207047C06887
:103D20001346D0F88020806EFFF722B80EB403B59A
:103D3000C368986803AA036852F8041B01929B6841
:103D4000984702B05DF804EB03B070472DE9F041ED
:103D5000079F876000F10C0504469846C0E90012F1
:103D60000E465C22002128462FF02AFD3A4606998D
:103D70004046FEF791FF32460346A066294604F10D
:103D80006C00FFF777FF0A4A22620A4AE2650A4A94
:103D900022660023089A84F88830C4E92333C4F8E3
:103DA0009430A461226484F889302046BDE8F08113
:103DB0002D3D0100E53C0100013D010008B5082151
:103DC000FFF712FF0021FFF799F80821FFF7BDF96F
:103DD000006808BD38B5054600680C46FFF7EEFFE1
:103DE000A042034606D822460549A868FCF77AFB9C
:103DF000002038BDD5F8943053F82400F9E700BF0F
:103E000054AA040008B50821FFF7EEFE0021FFF7D1
:103E100075F80621FFF799F9006808BD38B5054621
:103E200000680C46FFF7EEFFA042034606D8224684
:103E30000549A868FCF756FB002038BDD5F890303E
:103E400053F82400F9E700BFFCA9040038B5C36F9C
:103E5000044600F16C0513B12846FFF771FD2846B2
:103E6000FFF734FD204638BD2DE9F04F05468BB0F5
:103E70004FF0000905F16C00FFF7D8FE484540F30C
:103E8000FB802C6808212046FFF7AEFE4946FFF76D
:103E900035F8062182462046FCF776FB231840B30E
:103EA00026581E44A86EFEF7B1FF04905046FEF758
:103EB000A5FD4FEAC903059002934FF00008059B4A
:103EC000984500F0D6800A215046FCF75DFB0AEBCE
:103ED0000001002800F0D2805AF800208B188A5880
:103EE000904508D3664B674A67484FF483712DF0BD
:103EF000C7FF0646D6E7043303EB880453F828309F
:103F00001C4404212046FCF73FFB48B12758336886
:103F1000BB4207D85D483946FFF7B8FC012328E0CB
:103F20000746F4E7331D03EB870B53F82730029A5B
:103F30009B442C2303FB08F30193EB6F9B58019ADE
:103F400013442833D5E901125846FDF7FBFCA0B114
:103F5000019058461EF074FB912898BF4C4A019B73
:103F600094BF52F820104B494B480193FFF78EFC49
:103F7000019B18460BB0BDE8F08F0299EA6F5258CA
:103F800001990A44926A12B939464448C4E792F842
:103F900014B00790BBF1200F4FF00E0120463FD127
:103FA000FCF7F2FA2218002833D1002703970621E4
:103FB0002046FFF7CAF808AA0146A86EFEF723FFBD
:103FC00003460028D5D108212046FFF7BEF809AAEC
:103FD0000146A86EFEF717FF03460028C9D1EA6F15
:103FE000029952F801B0019A0BEB02040146282213
:103FF00020462FF0E5FB019A089B4BF80230099B05
:104000006360079B6361039B08F10108C4E90637FD
:1040100055E72358D118C8D004310391D758C6E7C3
:10402000FCF7B2FA231858B12258D34208D0BBF19A
:10403000910F96BF164B174953F82B1018486BE792
:104040006868036859461B6A9847074640B9BBF140
:10405000910F96BF0E4B0F4953F82B1011485BE799
:1040600007AB049AA9682046B847034600289CD0AD
:104070007FE709F10109FDE600237AE70368FFDE27
:10408000EF9A040080AA0400FA9A040021A904000F
:10409000DC8D0400C41105004BA9040078A90400BC
:1040A00099A90400DFA904002DE9F74F016804462F
:1040B000806EFEF70BFE014650B96149A0680125EC
:1040C000FCF710FA84F88950284603B0BDE8F08F59
:1040D00004F16C063046FFF707FD2046FFF7C4FEEB
:1040E00005460028F0D1574B6364574B2361C4E960
:1040F00013003046FFF7F2FB544BE3643046FFF702
:1041000049FC534B6564E5642365E26F2168A06E4A
:1041100004F18C03FEF70AFF05460028D4D1A76EF0
:104120002068FFF76FFE3B688100DB6838469847E0
:10413000C4F8900048B92068FFF764FE4549820042
:10414000A068FCF7CFF90125BEE7AA46D4F80080A5
:104150004046FFF757FED4F86890A842D9F800709F
:1041600022D908214046FFF73FFD0021FEF7C6FE99
:104170000621FEF7EAFF2946FEF760FECDF800A013
:1041800003463F68E26FD4F890B041464846B847CE
:10419000D4F890304BF8250053F8253013B92A464F
:1041A0002D49CDE70135D1E74046FFF707FEFB6813
:1041B000810048469847C4F8940028B92068FFF762
:1041C000FDFD26498200BBE70025A9462768384641
:1041D000FFF7F4FDA84227D908213846FFF704FD70
:1041E0000021FEF78BFE0821FEF7AFFFD4F86880B0
:1041F0002946FEF723FED8F80030CDF80090D3F81A
:1042000000B0E26FD4F894A0034639464046D84740
:10421000D4F894304AF8250053F8253013B92A46CB
:104220000F498DE70135D1E73046FFF75FFC0546C2
:1042300000287FF449AF012384F8883044E700BFA9
:1042400020A80400CF3C0100153D01001F3D0100E6
:10425000D93C010043A804008CA80400B1A80400C4
:10426000FBA8040090F8893010B504462BB10A4928
:104270008068FCF737F9012010BD90F8883033B121
:1042800004F16C000021BDE81040FFF7D9BBFFF737
:104290000BFF0028F4D0EFE727AA040030B504464E
:1042A000234601341D78002DFAD101390844013A22
:1042B00012F8011F21B1834202D203F8011BF7E774
:1042C00000221A70184630BD30B503460C46B3FBC9
:1042D000F2F502FB1530C3B2092894BF30335733CF
:1042E0002046DBB200F8013B2B464DB96570A14278
:1042F00008D20B78227801F8012B04F80139F6E78F
:104300000446E4E730BD00002DE9F04F95B01746B4
:10431000009003911E4601F1FF390025009A3B7879
:1043200054199BB34D4531DA252B07F101020BD10E
:104330007B78662B60D00AD8632B00F01781642B42
:1043400020D0252B36D1BA1C0135237032E0752BD5
:1043500032D0782B3AD0732B2CD1039A3368501B70
:10436000311D013B04EB5000009A8442A4EB02058E
:1043700000F0028113F8012F002A00F0FD8004F8FC
:10438000012BF1E7A9EB05030A2B01DC681C23E0F4
:1043900030680028B8BF2D2306F10408BDBF611C9A
:1043A0002370404221460A22FFF78EFF001B05447E
:1043B000BA1C46461746B1E7A9EB05030A2BE5DD13
:1043C00006F104080A2221463068EDE7A9EB050250
:1043D000092A05F1010004DC0023237015B0BDE8B3
:1043E000F08F4FF030022270009A023513545419A6
:1043F00006F104081022E6E7A9EB050307EE903A60
:10440000F8EEE77AB2EE0C7AF4EEC77AF1EE10FA33
:10441000BCD4F31D23F00703D3E9000103F1080620
:104420002BF030F9C0F3C7530028A3F17F0A0193A2
:104430002346BCBF2D2203F8012B0022BAF1800FC6
:1044400004F12F0BC0F316081A7010D1ABEB030167
:10445000B8F1000F09D14A4A1846FFF71FFF8046FE
:10446000A8EB04042544BA1CA4E7464AF4E7464AEC
:104470000DF1100C51681068E646AEE803004349A0
:1044800008328A42F446F5D110681279CEF800005D
:104490008EF804204046002204A98956013228FAE9
:1044A00001F10D2A0844F7D131221A702E225A70D8
:1044B00003F1020800229A70ABEB0802072A02926D
:1044C000CEDD424608334FF0300102F8011F93421F
:1044D000F9D10A2208A9FFF7F7FE08AA0299404677
:1044E000FFF7DCFEA0EB08034FF03002D3F1070129
:1044F000027012D00246A0EB020C9C4508DA12F8BA
:1045000001CD02F801C04FF0300C82F800C0F2E794
:1045100023EAE373C3F10703184410F8012C302A8F
:1045200000F1FF3301D143451ED80023ABEB00015E
:104530000370174AFFF7B2FEBAF1000FBFBF2D2379
:104540008DF82030019BC3F17F0A8046ABEB000B56
:10455000B4BF0DF1210108A90A225046FFF7B4FEAD
:1045600008AA5946404678E71846D6E733682370CC
:104570000135BA1C04361DE7BA1C0E461AE700BF07
:1045800087AB04008BAB04007AAB040082AB040061
:104590008FAB0400034610B553F8044B00220120F2
:1045A000944204DD53F8041B01324843F8E710BD80
:1045B000704703698361704710B51C21044625F0DC
:1045C000CBFD204610BD000037B505460C4680697E
:1045D0001146FEF75CFA6B691B1AA34209D2E21A74
:1045E0000092054968682246FBF77CFF002003B073
:1045F00030BD0444AC61FAE793AB040037B5044620
:1046000040690D46401B1146FEF747FA2369834275
:104610000AD91B1A00932A46EB1A04496068FBF773
:1046200061FF002003B030BD6061FBE7DCAB04003C
:1046300037B583690D4601699942044606D00E4993
:104640004068FBF74FFF012003B030BD1146806882
:10465000FEF71DFA63691B1A9D4207D9EA1A0092F8
:10466000064960682A46FBF73DFFECE728442061D5
:10467000A0610020E8E700BF25AC04007AAC04008C
:1046800010B50A4488B00F4C0791CDE90312CDE96B
:1046900005120422CDE901401C210DEB0200FFF7B9
:1046A000ADFF60B1029B4360039B8360049BC360CA
:1046B000059B0361069B4361079B0460836108B00F
:1046C00010BD00BFC4AC04008068704770B50446DC
:1046D00080690E46FEF7DBF9314605466069FEF754
:1046E000DCF9401B70BD0000014601481FF0DBBB38
:1046F0009C2B00204FF4165101481EF09BB800BFC0
:104700009C2B00201C21836B18470421836B1847C6
:10471000F7B5002205460C69FDF7DCF950B9254BC9
:10472000009328466C69244A2449CD23A0470120E0
:1047300003B0F0BD0378092B1DD1D0ED037A0569D4
:10474000B1EE087AC7EE277A17EE900A2AF04AFCF3
:104750002BF0F0FC06460F4628462AF031FC324684
:104760003B462AF0E1FA2AF045FF00F307002070EB
:1047700065700020DCE7032BFBD1D0ED037A0569DF
:10478000B1EE087AC7EE277A17EE900A2AF02AFCD3
:104790002BF0D0FC06460F4628462AF011FC324684
:1047A0003B462AF0C1FA2AF025FF80F30800A070EA
:1047B000E570DEE7E6AD040088AD0400E58C04009A
:1047C0000368052B10B5044603DD406808B125F0E9
:1047D000C5FC204610BD10B501680529CCBF436853
:1047E000031D002201208A4204DA53F822400132DC
:1047F0006043F8E710BD0000F0B50A680F69436D2B
:104800000C468DB05168064698476268736D5168D2
:104810000546304698470446287A03284ED0092892
:104820002CD0012871D12946684608F083FE214624
:1048300006A82D6808F07EFE04B124686846FFF7DC
:10484000CAFFDFED366A2B460022B1EE087A9042AD
:1048500052DDF3EC017AF4EEC77AF1EE10FA0ADCDD
:10486000F5EE407AF1EE10FA48BFF0EE667AE4EC2D
:10487000017A0132EBE7F1EE087AF8E7294668465B
:1048800097F9016097F9007008F054FE214606A8D8
:104890002D6808F04FFE04B124686846FFF79BFFBF
:1048A0000023984228DDEA56974205DBB242B8BFA2
:1048B0003246E2540133F4E73A46FAE729466846BD
:1048C000FE78BF7808F036FE214606A82D6808F06D
:1048D00031FE04B124686846FFF77DFF002398424B
:1048E0000ADDEA5C974205D3B24238BF3246E25451
:1048F0000133F4E73A46FAE706A8FFF761FF684696
:10490000FFF75EFF00200DB0F0BD7469FBF7DEFD20
:10491000034902463046A0470120F4E700000000AA
:10492000F7AD040022EAE273002A00FA03F0D4BFD4
:104930005242002288422DE9304832D101F1004331
:104940005C425C4180FB0101002871F100031B4BBC
:10495000A8BF4FF080436CBB10EB030B41EBE37C33
:10496000BBF1000F7CF1000306DA6FF00044002574
:104970001BEB040B4CEB050C4FEADB7343EA4C03D7
:104980001F2A10DC012191400139481001EA03047B
:1049900000EBD37013418442D4BF1846581CBDE8C5
:1049A00030880024CEE7064B064A074840F26711DC
:1049B0002DF066FA6FF00043E2E700BF010000C08F
:1049C0001CAD040023AE04002BAD04002DE9F04122
:1049D0000A680D69436D0C468CB0516807469847CC
:1049E00062687B6D51680646384698470446307ABF
:1049F00003284AD0092822D0012876D131466846BA
:104A000008F098FD214606A8356808F093FD04B12A
:104A100024686846FFF7DFFE9FED387A2B460022B8
:104A2000904258DDF3EC017AF5EE407AF1EE10FA9F
:104A300048BFF0EE477AE4EC017A0132F0E7314604
:104A4000684608F077FD214606A808F073FD366831
:104A500004B124686846FFF7BEFE00278046B845CB
:104A600039DDEB68F057D5E90512C01AFFF75AFF98
:104A70002B6918446B689842B8BF1846AB689842D7
:104A8000A8BF1846E0550137E9E73146684608F007
:104A900051FD214606A808F04DFD366804B1246892
:104AA0006846FFF798FE00278046B84513DDEB689F
:104AB000F05DD5E90512C01AFFF734FF2B691844E1
:104AC0006B689842B8BF1846AB689842A8BF1846B2
:104AD000E0550137E9E706A8FFF772FE6846FFF7E1
:104AE0006FFE00200CB0BDE8F0817C69FBF7EEFCA6
:104AF000034902463846A0470120F3E700000000C2
:104B0000F7AD040070B5044611B90160204670BDD0
:104B10008D682B680360052B4FEA830608DD094882
:104B20008342D4BF30464FF0FF3025F001FB606078
:104B30002368052BCCBF6068201D3246291D2EF04E
:104B400041FDE3E7FEFFFF1F2DE9F04300228FB098
:104B500007460D460C69FCF7BDFF064658B9484BA1
:104B600000937C698E233846464A4749A047012076
:104B70000FB0BDE8F083294600223846FCF7D1FF8C
:104B8000054620B9414B00937C699023EBE73378CD
:104B9000092B40D196ED037AD0ED037AC7EE277A40
:104BA00017EE900A2AF01EFA8046894602A831467E
:104BB000FFF7A8FF294608A8FFF7A4FF04F1180390
:104BC00004F1140240464946FDF706FAD5ED037A92
:104BD0009FED2F7A2F69C7EE277A17EE900A2BF0F8
:104BE0007BFD07EE900AFDEEE77A6FF07F0317EE8C
:104BF000900A38449842ACBF606063607F23A36032
:104C0000336908A8C4E90337FFF7DAFD02A8FFF704
:104C1000D7FD0020ACE7032BFBD196ED037AD0ED56
:104C2000037AC7EE277A17EE900A2AF0DBF980465E
:104C3000894602A83146FFF765FF294608A8FFF715
:104C400061FF04F1180304F1140240464946FDF7E0
:104C5000C3F9D5ED037A9FED0E7A2F69C7EE277A57
:104C600017EE900A2BF038FD07EE900AFDEEE77A7A
:104C7000FF2317EE900A384420EAE0706060BEE738
:104C8000E6AD040088AD0400E58C0400BCB104006E
:104C90000000000070B5054D064604460FCD0FC458
:104CA00095E80F0084E80F00304670BDDCAC0400CE
:104CB00070B5054D064604460FCD0FC495E80F00AC
:104CC00084E80F00304670BDFCAC04002DE9F04FC5
:104CD0000B68D3F80080B8F1010F8DB005460F4680
:104CE00008DC7F4B009344697E4A7F493223A0470A
:104CF00001240FE04B681E68012E0FD001247B4B6E
:104D00000193CDE902647A4B00934569754A79496C
:104D10003323A84720460DB0BDE8F08F09AB002231
:104D2000FCF7E9FE04460028F4D102460AAB3946F6
:104D30002846FCF707FF04460028EBD10A9B1878A9
:104D4000099B1B78834213D06C69FBF7BFFB099B5F
:104D500007461878FBF7BAFB674B0193CDE9027061
:104D6000664B00933D235F4A65492846A047BFE74D
:104D70000BAB324639462846FCF7BDFE04460028F8
:104D8000C8D10B990998FDF71DF938B95D4B00930F
:104D90006C694123534A54492846A8E7099A0B9B5A
:104DA0001078197881420FD06C69FBF78FFB0B9B51
:104DB00006461878FBF78AFB534B01934E4B009342
:104DC000CDE902604223CEE7092916D1106919699D
:104DD000884204D04D4B00936C694723DAE792ED8B
:104DE000037AD3ED037AB4EE677AF1EE10FA04D0C9
:104DF000474B00936C694923CCE70136B045B7D1E6
:104E00000A9B187801280CD12B6C0BAA4FEA880159
:104E100028469847044600287FF47CAF0B9B3B61F3
:104E200078E7092854D1AB6B2821284698472B6C8A
:104E3000386100F1240206464FEA88012846984767
:104E4000044600287FF466AF099A0A9F1369D06868
:104E50005B42B3603B69F360142333622AF0C2F80B
:104E600002460B4682468B4629F05EFF8046F86874
:104E700089462AF0B7F80022264B2AF00BF90246A1
:104E80000B46404649462AF02FFA06F11803CDE9B1
:104E90000401079342464B4606F110075046594617
:104EA0002AF022FA079B3A46FDF7E6F8DDE904010D
:104EB00006F11C0306F11402FDF7DEF8331D009322
:104EC000214633460A9A2846FCF7E4FE044621E7C9
:104ED0006C69FBF7FBFA104902462846A04707E732
:104EE000F8AE0400A0AE0400E58C0400E3EB04007F
:104EF00008AF04003098040033AF040032F004001F
:104F000019AF04004CAF04004AF0040076AF04006F
:104F1000B8AF040000003041F0AF040088422DE932
:104F200030482CD100F100435C425C4180FB010120
:104F3000002871F100031F4BA8BF4FF0804304BB52
:104F400010EB030B41EBE37CBBF1000F7CF10003A2
:104F500006DA6FF0004400251BEB040B4CEB050C4C
:104F60004FEADB7040EA4C01002AC2F100040BDD7D
:104F7000114B124A4FF4B37111482CF081FF0024F9
:104F8000D4E76FF00041EFE71F3204DA0D4B0B4A14
:104F900040F26711F0E70123A340013B03EA01005F
:104FA0005B1003EBD17321419842D4BF0846481CE3
:104FB000BDE83088010000C01EB004002CB0040021
:104FC0002BAD04001CAD04002DE9F04F4A68436D81
:104FD00091B088465168074698470546007A0128EF
:104FE00039D1D8F80030D8F810101E687B6C3846DC
:104FF000984700248146A6420CDDD8F8003003EB28
:10500000840238467B6D51689847036849F824301C
:105010000134F0E729460AA808F08CFA0AA8FFF73D
:10502000DAFB2A6809EB860602EB800013469842F9
:1050300000F08580DFED4A7A9D1A4C46B44207D0D5
:1050400054F8041B294491ED007A77EE877AF5E74E
:10505000E3EC017AEBE7092878D1D8F80030D8F8EA
:1050600010B01C68DBF824107B6C384698474FF072
:10507000000906464C450DDDD8F8003003EB8902E7
:1050800038467B6D51689847036846F8293009F126
:105090000109EFE7DBF80C300093DBF814300193E3
:1050A000DBF81C300293DBF8003003932946DBF871
:1050B0000430DBF82070DBF80880DBF81090DBF8B8
:1050C00018A004930AA808F035FA2B6805930AA8DB
:1050D000FFF781FB08FA07F3069306EB8403834688
:1050E00007930024A3452AD0524649460698FFF765
:1050F00015FF33460546079A9A420DD053F8042B04
:105100001057404452464946B840CDE90833FFF7AE
:1051100005FF089B0544EEE7DDE901122846FFF78D
:10512000FDFE009B1844039B9842B8BF1846049BA1
:105130009842A8BF1846059B18550134D2E70AA823
:10514000FFF73EFB002011B0BDE8F08F7C69FBF754
:10515000BDF9044902463846A0470120F3E700BFE5
:1051600000000000F0AF040070B5054D064604468F
:105170000FCD0FC495E80F0084E80F00304670BDD6
:1051800080AE04000368052BC7BF436853F82100B5
:1051900000EB8100406870472DE9F04F14460A6823
:1051A000436D0E4691B051680546984732686B6D65
:1051B000916807462846984772686B6D516880462B
:1051C00028469847064698F80800022840F06D8265
:1051D000307A022840F06982387A032800F0D380C0
:1051E000092800F09081012840F05682394604A831
:1051F00008F0A0F93B68D8F80070019331460AA87E
:1052000008F098F935683B68049E002C5DD01C1EA0
:10521000B8BFA419214604A8FFF7B4FF4FF0000956
:1052200007464FF001084C4508DD494604A8FFF742
:10523000A9FF09F1010900FB08F8F4E704F10109ED
:1052400001244E452EDC002107FB04F24FEA840ABC
:105250002B4602920E468C46E04540F31382019A9B
:1052600002EB810E06FB0442521A92000020043A1F
:10527000844223DDFEEC017A012502EB0E094FF09A
:10528000000BAF4216DD99ED007AB4EEE77AF1EE4D
:1052900010FAD4BFB0EE677AAB46D1440135F0EED8
:1052A000477AEEE7494604A8FFF76CFF09F10109C8
:1052B0004443C6E743F820B00130D9E7029A0CF125
:1052C000010C53443E441144C6E71C1EB8BFA41948
:1052D000214604A8FFF756FF4FF0000907464FF09C
:1052E00001084C4508DD494604A8FFF74BFF09F1CA
:1052F000010900FB08F8F4E704F1010901244E4517
:105300002EDC002107FB04F24FEA840A2B460292AE
:105310000E468C46E04540F3B581019A02EB810EC2
:1053200006FB0442521A92000020043A844223DD14
:10533000FEEC017A012502EB0E094FF0000BAF42A3
:1053400016DD99ED007AB4EEE77AF1EE10FA54BF6B
:10535000B0EE677AAB46D1440135F0EE477AEEE71E
:10536000494604A8FFF70EFF09F101094443C6E7C7
:1053700043F820B00130D9E7029A0CF1010C5344F4
:105380003E441144C6E7394604A808F0D3F8D8F8DB
:1053900000803D6831460AA808F0CCF83768DDF88F
:1053A0001090D8F80030002C56D01C1EB8BF4C44CA
:1053B000214604A8FFF7E6FE4FF0000A06464FF02C
:1053C0000108544508DD514604A8FFF7DBFE0AF149
:1053D000010A00FB08F8F4E704F1010A0124D145B1
:1053E00026DCA30006FB04F20021029303923B4655
:1053F0008C462F46E04540F3458101FB0442AA1844
:105400000192002294421FDD019817F802E000EBA0
:10541000020A4FF0000B0120864211DD9AF800903D
:10542000F14594BFF1468346A2440130CE46F3E7EE
:10543000514604A8FFF7A6FE0AF1010A4443CEE74D
:1054400043F822B00132DDE7029A1344039A0CF1CB
:10545000010C17443144CDE71C1EB8BF4C44214613
:1054600004A8FFF78FFE4FF0000A06464FF0010830
:10547000544508DD514604A8FFF784FE0AF1010AED
:1054800000FB08F8F4E704F1010A0124D14526DC09
:10549000A30006FB04F20021029303923B468C46D4
:1054A0002F46E04540F3EE8001FB0442AA1801922A
:1054B000002294421FDD019817F802E000EB020A77
:1054C0004FF0000B0120864211DD9AF80090F14563
:1054D0002CBFF1468346A2440130CE46F3E7514645
:1054E00004A8FFF74FFE0AF1010A4443CEE743F850
:1054F00022B00132DDE7029A1344039A0CF1010C49
:1055000017443144CDE7394604A808F013F8D8F819
:1055100000803D6831460AA808F00CF83768DDF8CD
:105520001090D8F80030002C56D01C1EB8BF4C4448
:10553000214604A8FFF726FE4FF0000A06464FF06A
:105540000108544508DD514604A8FFF71BFE0AF187
:10555000010A00FB08F8F4E704F1010A0124D1452F
:1055600026DCA30006FB04F20021029303923B46D3
:105570008C462F46E04540F3858001FB0442AA1883
:105580000192002294421FDD019817F902E000EB1E
:10559000020A4FF0000B0120864211DD9AF90090BB
:1055A000F145D4BFF1468346A2440130CE46F3E72D
:1055B000514604A8FFF7E6FD0AF1010A4443CEE78D
:1055C00043F822B00132DDE7029A1344039A0CF14A
:1055D000010C17443144CDE71C1EB8BF4C44214692
:1055E00004A8FFF7CFFD4FF0000A06464FF0010870
:1055F000544508DD514604A8FFF7C4FD0AF1010A2D
:1056000000FB08F8F4E704F1010A0124D14525DC88
:10561000A30006FB04F20021029303923B468C4652
:105620002F46E0452EDD01FB0442AA18019200221C
:1056300094421FDD019817F902E000EB020A4FF0D7
:10564000000B0120864211DD9AF90090F145ACBFB4
:10565000F1468346A2440130CE46F3E7514604A802
:10566000FFF790FD0AF1010A4443CFE743F822B067
:105670000132DDE7029A1344039A0CF1010C17443E
:105680003144CEE70AA8FFF79BF804A8FFF798F883
:10569000002011B0BDE8F08F6C69FAF717FF0649DA
:1056A00002462846A0470120F3E76C69FAF70EFF8F
:1056B00002490246F5E700BF86B00400C8B0040006
:1056C0000022FFF769BD0122FFF766BD08B5202261
:1056D00000212EF075F8014AC26008BDC7560100CE
:1056E00008B5202200212EF06BF8014AC26008BDE7
:1056F000C15601002DE9FF410B681B68032B0546CD
:105700000E4610D00322CDE90232374B0193374BBE
:10571000009344692923364A3649A047012420468C
:1057200004B0BDE8F0814B681C68012C09D001264B
:10573000314B0193CDE90246304B009344692A2353
:10574000E9E70022FCF7C6F9314607460022284661
:10575000FCF7E7F9064607B140B9294B00936C699D
:10576000234A28492E232846A047D7E7BB681A6852
:10577000022A08DC244B6E69009330231C4A21491D
:105780002846B047CBE783681B68022B04DC1F4B1D
:1057900000936E693123F1E7042A04DD1C4B00936A
:1057A0006E693223EAE7042B04DD1A4B00936E691D
:1057B0003323E3E738783378834212D06F69FAF7FE
:1057C00085FE80463078FAF781FE134B0193134B28
:1057D0000093CDE902803423054A11492846B84791
:1057E0009DE700249BE700BF01CD040098B10400B1
:1057F00034B1040030980400E3EB040008AF040067
:10580000A8B10400E58C0400CEB1040002B204008B
:1058100037B204006BB2040032F004004AF0040016
:1058200019AF040038B505460868286005280C46FD
:1058300008DD0C4B9842D4BF80004FF0FF3024F0BD
:1058400077FC68602A682368052ACCBF6868281D31
:10585000052BCCBF6168211D92002DF0B3FE2846B8
:1058600038BD00BFFEFFFF1F70B50B68042B86B06C
:1058700005460C4604D1FFF7D5FF284606B070BD9B
:1058800006AA042342F8183D0121002300980528A8
:10589000CABF0198D018C15003F10403D8BF4160BA
:1058A000102BF3D100212046FFF76CFC009B052B49
:1058B000CABF019B0190186001212046FFF762FCDE
:1058C000009E052ECABF019B02905860022120460F
:1058D000FFF758FC052ECABF019B0490D8606946AB
:1058E0002846FFF79FFF6846FEF76AFFC5E70000FE
:1058F00070B5054D064604460FCD0FC495E80F0060
:1059000084E80F00304670BDF8B004002DE9F04F78
:1059100099B006460A9101460CA81F46239CFFF742
:10592000A3FF249912A8FFF79FFF022112A8FFF7F7
:1059300029FC0121029012A8FFF724FC002103900A
:1059400012A8FFF71FFC032183460CA8FFF71AFCDF
:10595000022105460CA8FFF715FC012104900CA8B4
:10596000FFF710FC002105900CA8FFF70BFC3B682B
:105970000793336822680690042B08BF7E6808925C
:1059800018BF0126042B0CBFA36800230093AB00B3
:1059900001930025069B9D4249DA95FBFBF9002700
:1059A0000BFB19530993B846059B98453DDA99FBC3
:1059B000F6F4089B3C44E41A32D4039BA3422FDD47
:1059C0004FF0000A5346049A934229DA99FBF6F005
:1059D000009A06FB10905044801A1ED4029A82420C
:1059E0001BDD0999149A0B9302FB0142159901FBE7
:1059F0000200169A0E9950430F9A01FB058102FB93
:105A00000131109A0A9B514303EB8101259B019AB6
:105A100003EB80002DF0D6FD0B9B0133B244D2E79F
:105A2000079B08F101081F44BEE70135B2E712A841
:105A3000FEF7C6FE0CA8FEF7C3FE19B0BDE8F08F56
:105A40002DE9F04F99B005460A9101460CA81E4673
:105A5000239CFFF709FF249912A8FFF705FF0221F5
:105A600012A8FFF78FFB0121019012A8FFF78AFB14
:105A70000021029012A8FFF785FB032183460CA8A2
:105A8000FFF780FB022103900CA8FFF77BFB0121AD
:105A900004900CA8FFF776FB002105900CA8FFF7F7
:105AA00071FB336807932B6822680690042B08BFAC
:105AB0007668089218BF0126042B0CBFA368002348
:105AC00000930025069B9D4249DA95FBFBF90027D0
:105AD0000BFB19530993B846059B98453DDA99FB92
