:020000021000EC
:1000000000000420E99003002191030079740300AB
:1000100025910300857403008B7403000000000029
:100020000000000000000000000000002924030080
:100030002D91030000000000C3240300D32403001B
:10004000F5CA0300AD480300339103003391030068
:100050003391030033910300339103003391030084
:100060003391030033910300339103003391030074
:1000700033910300FDCE030033910300C548030014
:100080003391030033910300339103003391030054
:100090003391030033910300339103003391030044
:1000A0003391030033910300339103003391030034
:1000B00033910300339103000000000000000000B2
:1000C0003391030033910300339103003391030014
:1000D0003391030033910300339103003391030004
:1000E00033910300339103003391030000000000BB
:1000F0000000000033910300000000003391030072
:1001000010B5054C237833B9044B13B10448AFF351
:1001100000800123237010BD40100020000000006B
:100120006C0C050008B5034B1BB103490348AFF342
:10013000008008BD00000000441000206C0C050089
:10014000154B002B08BF134B9D46A3F5803A0021A9
:100150008B460F461348144A121A31F089FC0F4B94
:10016000002B00D098470E4B002B00D09847002062
:10017000002104000D000D48002802D00C4827F093
:1001800013FF30F075FF2000290024F0C5F927F097
:1001900008FF00BF0000080000000420000000006D
:1001A000754403004010002060C90020A97F0300AF
:1001B0000000000070B5154D154C2B782DED028B0D
:1001C000064682B008EE102A2BB90121207822F0D1
:1001D000BFF801232B70F7EE007A38EE278ADFEDA7
:1001E0000D7A207828EE278AFDEEC87A17EE901A4D
:1001F000CDED017A22F032F8019A0749304602B07B
:10020000BDEC028BBDE8704000F05EB95C100020D0
:10021000040200200000FF42538D04007047704725
:10022000F0B5424C85B004F06BFE2378BFF35B8FD2
:10023000DA070BD4204627F0C5FE38B1204627F058
:10024000E3FE3B4A3B493C4827F0A9FE3B4C3A4B76
:1002500023603B4B3B4E1A68D118D3583160CB1A00
:100260001A88042A0CD99A8812B18A58032A09D00C
:1002700035493148032305B0BDE8F04000F024B90A
:100280000022F5E7314D2B78BFF35B8FDB070ED4EF
:10029000284627F097FE50B12D4802F07FFB2846F4
:1002A00027F0B2FE224A2B49294827F078FE2A4F30
:1002B0003D78BFF35B8F15F0010518D1384627F064
:1002C00081FEA0B1CDE90255236801934FF4FA6392
:1002D00000931F4A3168214B214804F07DF83846CD
:1002E00027F092FE124A1F491D4827F058FE1E4E65
:1002F0001B48306004F030FA054630B11B492068D5
:1003000005B0BDE8F04000F0DFB80146306804F009
:10031000ABF8174B29461860306804F0C9F8154B44
:100320001860154B1D6005B0F0BD00BF64100020C3
:10033000000200201D0201000802002040180020D9
:10034000C86404004C180020686404006810002091
:10035000F41800201F02010060100020701000201F
:1003600054180020E14401006C100020AF64040028
:100370004818002050180020441800202F4B70B55A
:100380001B682F4C2F4ED4ED007A07EE103AF8EE92
:10039000E77AB8EEC77A2DED028B87EE878A82B0B6
:1003A0000193294B1B681A69DFED287A28EE278A0A
:1003B000D3ED027A88EE277AD3ED037AF8EEE77A66
:1003C00077EE277AFDEEE77A17EE903A1370204B1E
:1003D000186804F0A3FA054670B118EE100A2CF064
:1003E00057FF02460B4630681A4902B0BDEC028B3B
:1003F000BDE8704000F068B8174B30681A681369A0
:10040000D16893F9003092ED027A5B1A07EE903AC8
:10041000F8EEE77A18EE101A67EE877A17EE902A50
:10042000FFF7C8FE2068019B01308342D8BF2846F1
:10043000206002B0BDEC028B70BD00BF4C640400B4
:10044000441800204018002048180020DB0FC94045
:100450006C1000205064040050180020013080000F
:10046000704730B518B9B1FA81F0400930BD046861
:100470008C420DD1043000239C4201DC0120F5E7C1
:1004800050F8045B52F823108D4201D10133F3E799
:100490000020EBE7884205D030B131B10A1D096870
:1004A000FFF7DFBF01207047704708467047000024
:1004B00010289ABF024B53F820000248704700BF33
:1004C000806E0400C46E04000EB403B503AA036872
:1004D00052F8041B01929B68984702B05DF804EB48
:1004E00003B070470CB407B504AA036852F8041BA4
:1004F00001929B68984703B05DF804EB02B0704727
:10050000006803685B6818470138C0B204289ABFC6
:10051000014B185C002070473C6F040020B101289B
:100520000CBF0220002070470120704738B51546E7
:100530001A4628B90B492846FFF7C6FF012038BDE7
:100540000468082C09D8043900EB8404A04206D0C2
:1005500050F8043F41F8043FF8E70349EBE7002077
:10056000EDE700BFDE6F04000C7004000368C01AE2
:1005700003888B428CBF405A0020704710B50C2175
:100580000446FFF7F3FF231808B12058184410BDA4
:1005900008B5034610460F2B2BD8DFE803F00C08F4
:1005A00012161A1E201022180E241C2628140A23A4
:1005B0000B70002008BD0123FAE70B23F8E707239F
:1005C000F6E70223F4E71023F2E70323F0E7092319
:1005D000EEE70423ECE70D23EAE70523E8E706232B
:1005E000E6E70823E4E70C23E2E70E23E0E70F2326
:1005F000DEE700220A701A460249FFF765FF012074
:10060000D8E700BF4D7004000020704700207047FD
:10061000002070470020704700207047002070477E
:10062000002070470020704700207047002070476E
:10063000002070470020704700207047002070475E
:10064000002070470020704700207047002070474E
:10065000002070470020704700207047002070473E
:10066000002070470020704700207047002070472E
:10067000002070470020704700207047002070471E
:10068000002070470020704700207047002070470E
:1006900000207047002070470020704700207047FE
:1006A00000207047002070470020704700207047EE
:1006B000002070470020704738B505461446FFF704
:1006C00055FF00B12C5C204638BD08B500220A2138
:1006D000FFF7F2FF08BD00002DE9FF411F46136838
:1006E0001546064688461B6804222421284698475A
:1006F000044618B12422002131F0BAF9CDE90254A0
:10070000A4B91B4B019340F205730093194A1A4B8D
:1007100041464046FFF7E6FE0124039911B102A8C5
:10072000FFF7EEFE204604B0BDE8F0813046FFF74B
:10073000CCFF112817D13046FFF720FF054690B1B6
:100740000421FFF713FF2E1868B12D5870190AD035
:1007500021460A4B4246FFF7E9FE04460028DCD159
:10076000039B72591A62039B3B6000240394D4E7F5
:10077000BC6F0400A56F0400416F0400CE6F04003D
:100780002DE9FF411F4613681546064688461B683B
:100790000422242128469847044618B12422002127
:1007A00031F066F9CDE90254A4B91D4B019340F62E
:1007B000170300931B4A1C4B41464046FFF792FE2D
:1007C0000124039911B102A8FFF79AFE204604B054
:1007D000BDE8F0813046FFF778FF1E2817D130467C
:1007E000FFF7CCFE054690B10421FFF7BFFE2E189F
:1007F00090B12D5870190FD021460C4B4246FFF78F
:1008000095FE04460028DCD1039B72591A62039BB3
:100810003B6000240394D4E700232362F7E700BF82
:10082000BC6F0400A56F0400416F0400D66F040084
:100830002DE9FF411D4613681646074688461B688A
:100840000422082130469847044610B10023C0E92D
:100850000033CDE90264A4B91C4B019340F6DE03DA
:1008600000931B4A1B4B41464046FFF73BFE0124C9
:10087000039911B102A8FFF743FE204604B0BDE87A
:10088000F0813846FFF721FF6F2819D13846FFF76E
:1008900075FE0646A0B10421FFF768FE331820B1AB
:1008A00032589B181CBF0433236006213046FFF7E3
:1008B0005DFE331820B132589B181CBF04336360AF
:1008C00000232C6003931C46D2E700BFBC6F0400DA
:1008D000A56F0400416F04002DE9FF411F46136816
:1008E0001546064688461B6801220221284698477D
:1008F000044610B1002303704370CDE90254A4B93B
:100900001A4B019340F2A7430093194A194B4146F1
:100910004046FFF7E7FD0124039911B102A8FFF754
:10092000EFFD204604B0BDE8F0813046FFF7CDFE74
:10093000662815D13046FFF721FE054680B100221A
:100940000421FFF7B9FE003018BF012020700022FB
:1009500006212846FFF7B0FE003018BF0120607066
:1009600000233C6003931C46D6E700BFBC6F040025
:10097000A56F0400416F04002DE9FF411F46136875
:1009800015460122064688461B68114628469847A8
:10099000044608B100230370CDE90254A4B9154BF5
:1009A000019340F2DB630093134A144B41464046E7
:1009B000FFF798FD0124039911B102A8FFF7A0FDEC
:1009C000204604B0BDE8F0813046FFF77EFE1B28CC
:1009D0000BD13046FFF7D2FD38B100220421FFF7DA
:1009E0006BFE003018BF0120207000233C60039391
:1009F0001C46E0E7BC6F0400A56F0400416F0400D3
:100A00002DE9FF411F4613681546064688461B68B8
:100A10000122022128469847044610B100230370A2
:100A20004370CDE90254A4B91C4B019340F22A73E0
:100A300000931B4A1B4B41464046FFF753FD0124E0
:100A4000039911B102A8FFF75BFD204604B0BDE891
:100A5000F0813046FFF739FE0F281AD13046FFF7F4
:100A60008DFD0546A8B100220821FFF725FE0030C4
:100A700018BF0120207000220A212846FFF71CFE23
:100A8000003018BF0120607000233C6003931C46B7
:100A9000D6E7002323706370F6E700BFBC6F040045
:100AA000A56F0400416F04002DE9FF411F46136844
:100AB0001546064688461B680122022128469847AB
:100AC000044610B1002303704370CDE90254A4B969
:100AD0001C4B019340F2457300931B4A1B4B41464C
:100AE0004046FFF7FFFC0124039911B102A8FFF76C
:100AF00007FD204604B0BDE8F0813046FFF7E5FD74
:100B00004A281AD13046FFF739FD0546A8B1002220
:100B10000421FFF7D1FD003018BF01202070002212
:100B200006212846FFF7C8FD003018BF012060707D
:100B300000233C6003931C46D6E7002323706370B8
:100B4000F6E700BFBC6F0400A56F0400416F04000E
:100B500038B505461446FFF709FD00B12C5820466C
:100B600038BD00002DE9FF411F46136815460422D9
:100B7000064688461B68114628469847044608B131
:100B800000230360CDE90254A4B9144B019340F251
:100B900033430093124A134B41464046FFF7A2FCF1
:100BA0000124039911B102A8FFF7AAFC204604B062
:100BB000BDE8F0813046FFF788FD672808D1304650
:100BC000FFF7DCFC20B100220421FFF7C1FF206009
:100BD00000233C6003931C46E3E700BFBC6F0400A6
:100BE000A56F0400416F04002DE9FF411F46136803
:100BF00015460422064688461B6811462846984733
:100C0000044608B100230360CDE90254A4B9144B93
:100C1000019340F2C2430093124A134B41464046AF
:100C2000FFF760FC0124039911B102A8FFF768FCEB
:100C3000204604B0BDE8F0813046FFF746FD5E284F
:100C400008D13046FFF79AFC20B100220421FFF7BB
:100C50007FFF206000233C6003931C46E3E700BF56
:100C6000BC6F0400A56F0400416F04002DE9FF4133
:100C70001F4613681546064688461B68042208214D
:100C800028469847044610B10023C0E90033CDE957
:100C90000254A4B9174B019340F272630093164AB1
:100CA000164B41464046FFF71DFC0124039911B144
:100CB00002A8FFF725FC204604B0BDE8F0813046CD
:100CC000FFF703FD3B280FD13046FFF757FC0546E1
:100CD00050B100220421FFF73BFF002220600621D3
:100CE0002846FFF735FF606000233C6003931C46F5
:100CF000DCE700BFBC6F0400A56F0400416F040077
:100D00002DE9FF411F461368154604220646884612
:100D10001B68114628469847044608B10023036023
:100D2000CDE90254A4B9144B01934FF4F763009337
:100D3000124A134B41464046FFF7D4FB0124039966
:100D400011B102A8FFF7DCFB204604B0BDE8F0813A
:100D50003046FFF7BAFC132808D13046FFF70EFCE7
:100D600020B100220421FFF7F3FE206000233C6045
:100D700003931C46E3E700BFBC6F0400A56F0400AB
:100D8000416F04002DE9FF411F46136815460422F8
:100D9000064688461B68114628469847044608B10F
:100DA00000230360CDE90254A4B9144B019340F22F
:100DB000CF730093124A134B41464046FFF792FB14
:100DC0000124039911B102A8FFF79AFB204604B051
:100DD000BDE8F0813046FFF778FC232808D1304683
:100DE000FFF7CCFB20B100220421FFF7B1FE206009
:100DF00000233C6003931C46E3E700BFBC6F040084
:100E0000A56F0400416F04002DE9FF411F461368E0
:100E100015460422064688461B6811462846984710
:100E2000044608B100230360CDE90254A4B9144B71
:100E3000019340F2E7730093124A134B4146404638
:100E4000FFF750FB0124039911B102A8FFF758FBEB
:100E5000204604B0BDE8F0813046FFF736FC4F284D
:100E600008D13046FFF78AFB20B100220421FFF7AA
:100E70006FFE206000233C6003931C46E3E700BF45
:100E8000BC6F0400A56F0400416F04002DE9FF4111
:100E90001F4613681546064688461B68042214211F
:100EA00028469847044618B11422002130F0E0FD8E
:100EB000CDE90254A4B9204B019340F649030093B5
:100EC0001E4A1F4B41464046FFF70CFB0124039985
:100ED00011B102A8FFF714FB204604B0BDE8F08171
:100EE0003046FFF7F2FB202821D13046FFF746FBC2
:100EF0000546E0B100220421FFF72AFE002220600F
:100F000006212846FFF724FE0022606008212846BB
:100F1000FFF71EFE0022A0600A212846FFF718FEF8
:100F20000022E0600C212846FFF712FE206100231A
:100F30003C6003931C46CAE7BC6F0400A56F040025
:100F4000416F04002DE9FF411F4613681546064610
:100F500088461B680422082128469847044610B199
:100F60000023C0E90033CDE90254A4B9174B019323
:100F700040F6C4030093164A164B41464046FFF71D
:100F8000B1FA0124039911B102A8FFF7B9FA20467A
:100F900004B0BDE8F0813046FFF797FB40280FD141
:100FA0003046FFF7EBFA054650B100220421FFF767
:100FB000CFFD0022206006212846FFF7C9FD6060B2
:100FC00000233C6003931C46DCE700BFBC6F0400B9
:100FD000A56F0400416F040038B505461446FFF7BD
:100FE000C5FA00B12C56204638BD00002DE9FF415E
:100FF0001F4613681546064688461B6801220221D3
:1010000028469847044610B1002303704370CDE989
:101010000254A4B91A4B01934FF46F730093194A09
:10102000194B41464046FFF75DFA0124039911B17F
:1010300002A8FFF765FA204604B0BDE8F08130460B
:10104000FFF743FB0B2815D13046FFF797FA05460B
:1010500080B100220421FFF7BFFFC0B2FFF754FAAE
:101060000122207006212846FFF726FB003018BF1A
:101070000120607000233C6003931C46D6E700BF4C
:10108000BC6F0400A56F0400416F04002DE9FF410F
:10109000984613681546012207460E461B681146FE
:1010A00028469847044608B100230370CDE902544E
:1010B000A4B9194B019340F2DB330093174A184B44
:1010C00031463046FFF70EFA0124039911B102A808
:1010D000FFF716FA204604B0BDE8F0813846FFF766
:1010E000F4FA282805D0039BC8F8003000240394A4
:1010F000EBE73846FFF742FA0028F4D0002204213B
:10110000FFF76AFF21463246C0B2FFF741FA0446B4
:101110000028E8D0D9E700BFBC6F0400A56F040029
:10112000416F04002DE9FF419846136815460122DE
:1011300007460E461B68114628469847044608B1E4
:1011400000230370CDE90254A4B9194B01934FF465
:101150007D730093174A184B31463046FFF7C2F9AA
:101160000124039911B102A8FFF7CAF9204604B07F
:10117000BDE8F0813846FFF7A8FA392805D0039B6F
:10118000C8F8003000240394EBE73846FFF7F6F97F
:101190000028F4D000220421FFF71EFF214632462A
:1011A000C0B2FFF7F5F904460028E8D0D9E700BF40
:1011B000BC6F0400A56F0400416F04002DE9FF41DE
:1011C0001F4613681546064688461B6804220821F8
:1011D00028469847044610B1002303600371CDE907
:1011E0000254A4B9184B019340F26C430093174A80
:1011F000174B41464046FFF775F90124039911B199
:1012000002A8FFF77DF9204604B0BDE8F081304622
:10121000FFF75BFA0A2812D13046FFF7AFF905460F
:1012200068B100220621FFF7D7FEC0B2FFF76CF9C4
:101230000022207104212846FFF78AFC2060002349
:101240003C6003931C46D9E7BC6F0400A56F040003
:10125000416F04002DE9FF41984613681546074683
:101260000E461B680422182128469847044618B1E8
:101270001822002130F0FCFBCDE90254A4B9274B21
:10128000019340F287430093254A264B314630466E
:10129000FFF728F90124039911B102A8FFF730F9EB
:1012A000204604B0BDE8F0813846FFF70EFA012869
:1012B00006462DD13846FFF761F9054640B30022B6
:1012C0000421FFF789FEC0B2FFF728F90022207041
:1012D00006212846FFF73CFC0022606008212846D2
:1012E000FFF736FC00220A21A0602846FFF774FEB3
:1012F000C0B2FFF709F9324620730C212846FFF7E8
:1013000027FC324620610E212846FFF721FC606150
:101310000023C8F8004003931C46BCE7BC6F0400E0
:10132000A56F0400416F04002DE9FF411F461368BB
:101330001546064688461B6804221C212846984705
:10134000044618B11C22002130F092FBCDE9025472
:10135000A4B9294B019340F2DC430093274A284B60
:1013600041464046FFF7BEF80124039911B102A897
:10137000FFF7C6F8204604B0BDE8F0813046FFF71D
:10138000A4F9022833D13046FFF7F8F8054670B3C8
:1013900000220421FFF720FEC0B2FFF7BFF80022B1
:1013A000207006212846FFF7D3FB00226060082149
:1013B0002846FFF7CDFB0022A0600A212846FFF750
:1013C000C7FB00220C21E0602846FFF705FEC0B2F3
:1013D000FFF79AF8012220740E212846FFF7B8FB88
:1013E0000122606110212846FFF7B2FBA0610023B3
:1013F0003C6003931C46B8E7BC6F0400A56F040073
:10140000416F04002DE9F04398461368154685B0F6
:1014100081460E461B68012204212846984704464F
:1014200008B100230360CDE90254A4B9264B01930F
:1014300040F257530093254A254B31463046FFF77B
:1014400051F80124039911B102A8FFF759F8204679
:1014500005B0BDE8F0834846FFF737F9082807468E
:101460002CD14846FFF78AF8054638B300220421FC
:10147000FFF7B2FDC0B2FFF747F8002220703946EF
:101480002846FFF719F9003018BF0120A07000228C
:101490000A212846FFF710F9003018BF0120E0703C
:1014A000002206212846FFF797FD30B1012804D01D
:1014B00008493046FFF708F8C3E760700023C8F812
:1014C000004003931C46BDE7BC6F0400A56F0400F9
:1014D000416F0400717004002DE9FF411F4613683D
:1014E00015460122064688461B681146284698473D
:1014F000044608B100230370CDE90254A4B9154B8A
:10150000019340F2D1530093134A144B4146404695
:10151000FEF7E8FF0124039911B102A8FEF7F0FFDE
:10152000204604B0BDE8F0813046FFF7CEF80C2825
:101530000BD13046FFF722F838B100220421FFF723
:101540004BFDC0B2FEF7E0FF207000233C60039328
:101550001C46E0E7BC6F0400A56F0400416F040067
:101560002DE9FF411F4613681546012206468846AD
:101570001B68114628469847044608B100230370AB
:10158000CDE90254A4B9154B019340F2496300938D
:10159000134A144B41464046FEF7A4FF0124039929
:1015A00011B102A8FEF7ACFF204604B0BDE8F081FF
:1015B0003046FFF78AF815280BD13046FEF7DEFFDC
:1015C00038B100220421FFF707FDC0B2FEF79CFFEF
:1015D000207000233C6003931C46E0E7BC6F0400CE
:1015E000A56F0400416F04002DE9FF411F461368F9
:1015F0001546064688461B68042228212846984737
:10160000044618B12822002130F032FACDE9025404
:10161000A4B9264B019340F29B630093244A254BC7
:1016200041464046FEF75EFF0124039911B102A82E
:10163000FEF766FF204604B0BDE8F0813046FFF7B4
:1016400044F805282DD13046FEF798FF054640B3F3
:1016500000220421FFF7C0FCC0B2FEF75FFF0022AA
:10166000207006212846FFF773FA002260600821E7
:101670002846FFF76DFA0022A0600A212846FFF7EE
:1016800067FA0022E0600C212846FFF761FA002289
:1016900020610E212846FFF79FFCC0B2FEF734FF01
:1016A000207500233C6003931C46BEE7BC6F04001A
:1016B000A56F0400416F04002DE9FF4198461368AF
:1016C0001546012207460E461B68114628469847D4
:1016D000044608B100230370CDE90254A4B9194BA4
:1016E000019340F26C730093174A184B3146304611
:1016F000FEF7F8FE0124039911B102A8FEF700FFDE
:10170000204604B0BDE8F0813846FEF7DEFF3728FA
:1017100005D0039BC8F8003000240394EBE738465B
:10172000FEF72CFF0028F4D000220421FFF754FC20
:1017300021463246C0B2FEF72BFF04460028E8D00F
:10174000D9E700BFBC6F0400A56F0400416F04001F
:101750002DE9FF411F4613681546064688461B685B
:101760000122022128469847044610B10023037045
:101770004370CDE90254A4B91A4B019340F66503B6
:101780000093194A194B41464046FEF7ABFE01242F
:10179000039911B102A8FEF7B3FE204604B0BDE8DC
:1017A000F0813046FEF791FF1C2815D13046FEF738
:1017B000E5FE054680B100220421FFF70DFCC0B212
:1017C000FEF7A2FE0122207006212846FEF774FFD4
:1017D000003018BF0120607000233C6003931C465A
:1017E000D6E700BFBC6F0400A56F0400416F040082
:1017F0002DE9FF4198461368154607460E461B68BB
:101800000422082128469847044618B100230360A3
:1018100003714371CDE90254A4B91E4B019340F604
:101820007F0300931C4A1D4B31463046FEF75AFE9B
:101830000124039911B102A8FEF762FE204604B00C
:10184000BDE8F0813846FEF740FF062806461BD16A
:101850003846FEF793FE0546B0B100220421FFF79B
:1018600077F90022314620602846FFF7B5FBC0B269
:10187000FEF74AFE0022207108212846FEF71CFFD1
:10188000003018BF012060710023C8F800400393A6
:101890001C46CEE7BC6F0400A56F0400416F040036
:1018A0002DE9FF411F4613681546064688461B680A
:1018B00004220C2128469847044618B10023C0E9A9
:1018C00001330370CDE90254A4B91C4B019340F6D7
:1018D000AC0300931A4A1B4B41464046FEF702FEFA
:1018E0000124039911B102A8FEF70AFE204604B0B4
:1018F000BDE8F0813046FEF7E8FE312818D13046C9
:10190000FEF73CFE054698B100220421FFF764FB78
:10191000C0B2FEF703FE0022207006212846FFF722
:1019200017F90022606008212846FFF711F9A0602E
:1019300000233C6003931C46D3E700BFBC6F040048
:10194000A56F0400416F040038B504461546FEF744
:101950000DFE08B104442568284638BD2DE9FF4135
:101960001F46136815460422064688461B68114622
:1019700028469847044608B100230360CDE9025485
:10198000A4B9144B019340F2E9530093124A134B4C
:1019900041464046FEF7A6FD0124039911B102A875
:1019A000FEF7AEFD204604B0BDE8F0813046FEF7FC
:1019B0008CFE4B2808D13046FEF7E0FD20B1002216
:1019C0000421FFF7C1FF206000233C6003931C4605
:1019D000E3E700BFBC6F0400A56F0400416F040083
:1019E0002DE9FF411F461368154604220646884626
:1019F0001B68114628469847044608B10023036037
:101A0000CDE90254A4B9144B019340F296730093AC
:101A1000124A134B41464046FEF764FD01240399E8
:101A200011B102A8FEF76CFD204604B0BDE8F081BC
:101A30003046FEF74AFE092808D13046FEF79EFDE3
:101A400020B100220421FFF77FFF206000233C60CB
:101A500003931C46E3E700BFBC6F0400A56F0400BE
:101A6000416F04002DE9F843984605460023C8F865
:101A7000003091460F461AF07FFD2B68EB1A0646A0
:101A80001A88082A0CD9198951B16C58942E09D991
:101A900032461C494846FEF717FD0120BDE8F88391
:101AA0000124F3E7202E11D03B6822461B68314603
:101AB00038469847C8F8000008BB134A134952F843
:101AC000262023464846FEF7FFFCE6E7062A05D90E
:101AD000DB88E91813B1EB58C91804D10C49484602
:101AE000FEF7F2FCD9E73B6822465B6804313846D2
:101AF0009847C8F80000B0FA80F04009CEE700200F
:101B0000CCE700BFF47204009C700400487304002A
:101B1000EA730400836810B41BB9036D5DF8044BCD
:101B2000184703EB41105DF8044B7047C0EE807A14
:101B300073B5044615460E4617EE900A2BF0A8FB27
:101B40002CF050FC2BF0F4FE9FED117A07EE900A7A
:101B5000F4EEC77AF1EE10FA0FDB9FED0E7AF4EE99
:101B6000C77AF1EE10FA08D8FDEEE77A002017EEFA
:101B7000901A3144296002B070BD074B0093204693
:101B80006569064A064940F25913A8470120F2E761
:101B9000000000CF0000004FC57A04006D7A0400F9
:101BA000A56F040070B515460A1E044601DBAA4263
:101BB00006DB666908492B462046B047012070BD08
:101BC00053F82230591C03D1436904499847F5E77B
:101BD000049A00201360F2E7117A04003B7A0400B3
:101BE000002A51F8043B07DB934205DD51F822102F
:101BF000002901DBFFF78EBF002070470968FFF75F
:101C0000EFBF7FB514461D460A6803AB009321461B
:101C1000131D12680646FFF7C5FF044620B9039955
:101C20003046FFF777FF2860204604B070BD4B6850
:101C3000002A53F8041B07DB914205DD53F82210FC
:101C4000002901DBFFF766BF002070477FB514460F
:101C50001D464A6803AB00932146131D12680646D1
:101C6000FFF7A0FF044620B903993046FFF752FF63
:101C70002860204604B070BDFFF7C0BFD1ED027AE6
:101C800092ED027A67EE877A73B5F5EEC07AF1EEDF
:101C900010FA1E460ADA0F4B009344690E4A0F49A8
:101CA00040F24B13A047012002B070BD17EE900A1E
:101CB0002BF0EEFA0446B0680D462BF0E9FA0B461D
:101CC0000246294620462BF065FC069BC3E900012D
:101CD0000020E9E7EB7A04006D7A0400A56F0400A8
:101CE0002DE9F74F0446886890469A460D462BF03A
:101CF000CFFA0646D8F808000F462BF0C9FA02467C
:101D00000B46304639462BF01BFBDDE90C9B0646A3
:101D10000F46BAF1000F1CD0DAF808002BF0B8FA21
:101D200002460B46304639462BF052F90646D9F8A2
:101D3000080021F000472BF0ABFA02460B46304674
:101D400039462BF027FC13A3D3E900232BF074FDB5
:101D500050B14B46424629462046CDF830B003B03C
:101D6000BDE8F04FFFF78ABF074B00932046656937
:101D7000064A07494FF49F73A847012003B0BDE806
:101D8000F08F00BFAFF30080047B04006D7A040085
:101D9000A56F04007B14AE47E17A943F2DE9F04330
:101DA0002DED028B9946137F85B0032B0646DDF897
:101DB000388011D0092B2BD0072B2DD03B4B009313
:101DC00044693B4A3B4940F29113A047012005B0CA
:101DD000BDEC028BBDE8F083FF240025012992EDC4
:101DE000028AD7681CD103AADFED330A3946B0EE68
:101DF000480A3046FFF79AFE0028E8D1039BAB4221
:101E0000ACBFC9F80030C9F80050C8F80040DEE7A0
:101E10007F246FF07F05E1E747F6FF74274DDDE78C
:101E2000032924D103AADFED240A3946B0EE480A7B
:101E30003046FFF77BFE0028C9D1039BAB42ACBF05
:101E4000C9F80030C9F8005003AAF1EE080A394673
:101E5000B0EE480A3046FFF769FE0028B7D1039B71
:101E6000A342D4BFC8F80030C8F80040AFE7022949
:101E700015D103AAFFEE000A3946B0EE480A3046F3
:101E8000FFF754FE0028A2D1039BAB42ACBFC9F8B8
:101E90000030C9F8005003AAF7EE000AD7E7C9F8E6
:101EA00000500020C8F8004091E700BF267B0400E6
:101EB0006D7A0400A56F0400000000000080FFFFA1
:101EC0002DE9F04F91F800908FB0B9F1010F044661
:101ED0000D4617469B46DDF880800FD001266C4BDF
:101EE0000193CDE902966B4B00934469DB236A4A68
:101EF0006A49A04701200FB0BDE8F08F1678012E87
:101F000008D0634B0193CDE90269654B00934469A6
:101F1000DD23ECE752683AB9624B00934469E7234A
:101F20005D4A6149A047E5E7D2F80090B9F1000F9A
:101F300004D15E4B00934469E823F1E7D9F800A08F
:101F4000BAF1010F35DD0B7F092B06D0072B04D02A
:101F5000574B00934469ED23E2E73B7F092B0DD0FB
:101F60000922CDE90232534B0193534B009365692B
:101F7000EE23494A49492046A847BBE7D04508D047
:101F80004E4B0193CDE902A84D4B00936569EF23B9
:101F9000EFE77B69926803EB82035B68984508D0A2
:101FA000CDE90283474B0193444B00936569F223CB
:101FB000DFE7D5ED027A189BCDED057AD3ED027AF5
:101FC00009F10403CDED067A07930026B0452EDD16
:101FD000BAF1010FC9BF079BD9F8040003EB8603D0
:101FE00018682BF055F9CDE9080105982BF050F948
:101FF00002460B46DDE908012BF0A2F9CDE9080104
:1020000006982BF045F902460B46DDE908012BF056
:10201000C1FA0CAB0BAA00F061F81E9A0B9B42F8B8
:1020200026301F9A0C9B42F826300136CEE72B7FD4
:10203000032B1AD10EAB0020002163E902010193AA
:10204000189B00933A465B4629462046FFF748FE18
:1020500000287FF450AF0BAB1A9ADDE90C0100F0B9
:102060003DF80B9B1B9A5B4213602B7F092B03D01F
:1020700003F0FB03032B09D1199B189A19781D9BB8
:10208000009320461C9BFFF789FE34E7002032E7CF
:10209000467B0400607B04006D7A04002C7B040006
:1020A000797B0400937B0400A56F0400A77B0400E8
:1020B000C27B0400CC9F0400FC7B0400097C04006C
:1020C000167C0400377C040008B549694069FEF7B6
:1020D000E1F9003018BF012008BD0000F8B5154631
:1020E0001C460022002306460F462BF091FB18B138
:1020F00000232B602360F8BD2246304639462CF081
:102100003FF90022104B2BF01BF92CF06BF92BF050
:10211000C7FC4FF000420023824273EB010601DA54
:102120002DF0FEFF994201BF9042236801332360E6
:10213000236808BF4FF080401F33BEBF002300203C
:1021400023602860D7E700BF0000E041F8B51546DE
:102150001C460022084B06460F462BF081FB08B9AF
:102160002DF0DEFF23462A4630463946FFF7B6FFFC
:102170002368002BF4DBF8BD0000F03FF7B51746ED
:102180001E4600220D4B04460D462BF04BFB08B9B2
:102190002DF0C6FF00220023204629462BF060FBCD
:1021A0000028F5D001AB3A4620462946FFF796FFB6
:1021B000019B002BECDC336003B0F0BD0000F03F6E
:1021C0002DE9F14F06460A989946C0F11F000123F8
:1021D00003FA00F00F4690462BF048F842460446BA
:1021E0000D464B46304639462BF0AAF802460B46C0
:1021F000204629462BF0A4F80BA3D3E90023DDE900
:102200000BAB04460D462BF02BFB10B106A5D5E910
:1022100000455B4652462046294601B0BDE8F04FD6
:10222000FFF794BFAFF300800000C0FFFFFFDF4166
:102230002DE9F8430124814604FA00F0013888466C
:1022400015462BF013F80646A5EB09000F46C0F122
:102250002003A0F1200124FA03F304FA01F104FAA7
:1022600000F019432BF03EF802460B463046394643
:102270002BF066F8C8F120030F46A8F1200124FADC
:1022800003F304FA01F10646194304FA08F02BF0AF
:1022900029F802460B46304639462BF07BF92BF0E5
:1022A000EFFF2BF0FDFABDE8F8830000884230B55F
:1022B0001DD100F100435C425C4180FB0123002AF8
:1022C00073F100010C49A8BF4FF080418CB954183C
:1022D00043EBE175002C75F1000304DA6FF0004068
:1022E000002124184D41E00F40EA450030BD002494
:1022F000E3E76FF00040F9E7010000C0884211D128
:1023000010F5004F14BF002301234143084858BF74
:102310004FF4804043B908444FF4004190FBF1F082
:1023200000B270470023F0E747F6FF70F8E700BF00
:1023300001C0FFFF002908B506DA0D4B0D4A4FF426
:10234000B3710D482DF0F4FE1F2904DD0B4B094A33
:1023500040F26711F5E701238B40013B03EA0002DD
:102360005B1003EBD07308419A42C8BF013008BD2F
:10237000747C0400EE7C0400827C0400DF7C04009A
:1023800010B5002A22EAE273D4BF544200249840D8
:10239000FFF78CFF2146FFF7CDFF10BD2DE9F74F6A
:1023A0000128019117461D4607DC6FF000431360BA
:1023B00000232B6003B0BDE8F08F0B232B60B0F13E
:1023C000005F2C6803DB013480102C60F7E7B0FA63
:1023D00080F3013B5B08013BE41A5B00984001215C
:1023E0002C600841FFF7A6FF052682464FF0805B70
:1023F00059465846FFF75AFF5946FFF757FFB0F1C5
:10240000007F7EDA464B98424FF0FF3C4FF00001D0
:10241000A8BF4FF0000C4FEAE07982014FEA891320
:1024200043EA9063B2F1004F73F1FF306EDB6FF05F
:10243000004890454FF0000979EB0300B8BF6FF0FA
:1024400000426FEA010808EA020221F0004882EA2D
:1024500008086FEA0C0208EA02080CF0004C594622
:102460004FF0C05088EA0C08FFF720FF4146814634
:102470005046FFF71BFFA9EB0000B0F1805F48DA80
:10248000284B98424FF0FF314FF0000CA8BF0021BD
:102490004FEAE079C2004FEAC90343EA5073B2F150
:1024A000004F73F1FF3038DB6FF0004890454FF07C
:1024B000000979EB0300B8BF6FF000426FEA0C0B24
:1024C0000BEA02022CF0004B82EA0B0BCA430BEA28
:1024D000020B01F00041013E8BEA010B88D1124949
:1024E0005846FFF7E3FE002CBFBF644200FA04F435
:1024F0003C602E602B68019AA8BF38605A4313468F
:1025000057E74FF0FF314FF0000C84E74FF00042E7
:1025100097E74FF0FF3C0021BAE74FF00042CDE7CC
:10252000010000FE010000F09A79825A08B51021DE
:10253000FFF700FF00B208BD08B509B200B2FFF70F
:10254000DDFE08BD2DE9F04104462048FFF7EEFF0F
:1025500006461F48FFF7EAFF04F58054A4B2804600
:1025600021462046FFF7E8FF21460546FFF7E4FF36
:10257000294607462846FFF7DFFF02B2C0F3C03006
:10258000431C07EBA20702F003009842D4BF384671
:10259000781C4146FFF7D0FF05442DB205F001013C
:1025A00021EAE57104EB650529443046FFF7C4FFD5
:1025B00006FA80F010F5004F06DD47F6FF739842EB
:1025C000A8BF1846BDE8F0810248FBE794A8F57063
:1025D000ABAAAA2A0080FFFF2DE9F04105B2074609
:1025E0006FEAC5506FEAD05084B20001FFF7AAFF2E
:1025F000804606B23348FFF799FFE41B014624B238
:102600004046A4B2FFF798FFC4F340277B42013F46
:1026100018403E4046402C48FFF788FF36B201463E
:102620003046FFF789FFC4F380277B42013F184003
:102630003E4046402548FFF779FF36B20146304616
:10264000FFF77AFFC4F3C0277B42013F18403E40AA
:1026500046401F48FFF76AFF36B201463046FFF793
:102660006BFFC4F300377B42013F18403E404640B9
:102670001848FFF75BFF36B201463046FFF75CFFB4
:10268000C4F340377B42013F18403E404640124869
:10269000FFF74CFF36B201463046FFF74DFFC4F35B
:1026A00080346342013C18403440B5FA85F344401D
:1026B0005B0920B25C1E5B422040C3F30E0358400E
:1026C000BDE8F0817BBEAF63F2CBA24D6CAC162FA0
:1026D000A4AA5211B72A580211FE0A00B0F5005FF1
:1026E000D0B525DA10F5005FCCBF002101214942A9
:1026F0000024C717134EBB00820043EA90734FF0CB
:10270000FF37B24273EB070016DBB2F5004F73F1EF
:10271000000013DA12B2E0430240C4F30E04C843CF
:102720006240024021F4FF4020F07F005040D0BDC5
:102730004FF0FF340021DCE7024AECE747F6FF7276
:10274000E9E700BF0080FFFF70B547F6FF7404FAA9
:1027500080F0431C14BF01244FF0FF3404440220D6
:1027600094FBF0F44FF05A30FFF7E0FE05461148B5
:10277000FFF7DCFE24B201462046FFF7BFFD05440B
:102780002DB2032629462046FFF7B8FDC0F50051BB
:1027900009B22846FFF7B2FDFFF7A0FF284480B238
:1027A000013E05B2EED1A0F5005000B2FFF796FF52
:1027B00070BD00BFC4C3C3C30022C0E90022826051
:1027C00070470022C0E900228260704701207047F4
:1027D0000368DB69184703681B6A1847202930B56E
:1027E0000FD041F20403C45800239C4209D05A017F
:1027F0008518AD698D4202D10432104430BD0133D9
:10280000F3E70020FAE741F2882300F5805230B563
:102810000832C45800239C420AD012F8015B8D4252
:1028200004D103F2224350F8230030BD0133F2E714
:102830000020FAE741F204032DE9F041C7580446AD
:10284000884605460026B7420FD0AB69202B09D138
:102850004146E8692FF078FB20B904EB46100430BC
:10286000BDE8F08101362035EDE70020F8E70000F3
:1028700020292DE9F04705468846144699460AD195
:1028800041F28C23C05810B90120BDE8F0872249DD
:10289000FDF71AFEF8E70368DB699847074648B179
:1028A00041F28C23E8580028EED042461B49FDF740
:1028B0000BFEE9E741F2040E55F80EC0BCF17F0FA4
:1028C0000AD941F28C23E8580028DDD08023424603
:1028D0001349FDF7F9FDD7E70FCC05EB4C1A0AF1C8
:1028E00004060FC694E80F0086E80F0041F2882224
:1028F0000CF10103CAF8188045F80E30AB5841F2CC
:102900000801E81800F8018003F22241013345F87C
:1029100021903846AB50B8E7957D0400DA7D04007D
:10292000297E04002DE9F04141F204060546835951
:102930007F2B884614460CD941F28C23C05810B91D
:102940000120BDE8F0810A4680231249FDF7BCFD55
:10295000F6E703681B6A9847074648B141F28C23A3
:10296000E8580028ECD042460B49FDF7ADFDE7E7FB
:10297000AB595A1CAA5105EB43150FCC2E1D0FC69F
:1029800094E80F0086E80F002023C5E90638384692
:10299000D7E700BF6C7E0400AE7E040041F2040362
:1029A00030B50025C55041F2882389B0C55041F2A9
:1029B0008C230446C550E34B0360684609F050F889
:1029C000E14B6A4665212046FFF752FF684616F044
:1029D000A7F92946DD4B6A462046FFF749FF6846BE
:1029E00002F030FFDA4B6A466A212046FFF740FFCB
:1029F000684603F0F5F8D74B6A4638212046FFF7C2
:102A000037FF684603F0F6F8D34B6A464F2120465D
:102A1000FFF72EFF684603F0A1F9D04B6A469021DC
:102A20002046FFF725FF684618F064FCCC4B6A4649
:102A300001212046FFF71CFF684603F04FFAC94BFF
:102A40006A4625212046FFF713FF684603F03AFC4B
:102A5000C54B6A4681212046FFF70AFF684603F00E
:102A60003DFDC24B6A4668212046FFF701FF6846DC
:102A700005F0ACFFBE4B6A4602212046FFF7F8FE88
:102A8000684617F0DBFABB4B6A4603212046FFF786
:102A9000EFFE684609F000F8B74B6A466C21204605
:102AA000FFF7E6FE684606F089FEB44B6A468021D1
:102AB0002046FFF7DDFE684606F060FFB04B6A4631
:102AC00005212046FFF7D4FE684617F06FFFAD4B97
:102AD0006A4604212046FFF7CBFE684607F050FA0D
:102AE000A94B6A4606212046FFF7C2FE07F0BEFC4E
:102AF000A64902462046FFF715FF684609F03CF953
:102B0000A34B6A466F212046FFF7B2FE684603F0EA
:102B1000E3FDA04B6A4647212046FFF7A9FE09F0D6
:102B200039F9054630B109F037F92A460146204601
:102B3000FFF7F8FE684609F045FA6A46964B2F21E2
:102B40002046FFF795FE684609F066FB6A46934B00
:102B500046212046FFF78CFE684609F0A7FC6A462E
:102B60008F4B5E212046FFF783FE684609F000FD8B
:102B70006A468C4B08212046FFF77AFE684609F02A
:102B80009BFD6A46884B5A212046FFF771FE684636
:102B900009F06EFF6A46854B5F212046FFF768FE0D
:102BA000684618F033F96A46814B09212046FFF741
:102BB0005FFE684603F0ACFD6A467E4B3D21204631
:102BC000FFF756FE684603F0B1FD6A467A4B3E2198
:102BD0002046FFF74DFE68460AF02CF86A46774B10
:102BE00075212046FFF744FE68460AF037FD6A4625
:102BF000734B0B212046FFF73BFE68460AF052FC60
:102C00006A46574B0C212046FFF732FE68460AF011
:102C100027FE6A466B4B62212046FFF729FE684675
:102C200003F092FD6A46684B3A212046FFF720FEEA
:102C3000684603F097FD6A46644B3F212046FFF744
:102C400017FE684608F036FF6A46614B4921204668
:102C5000FFF70EFE68460BF023F96A465D4B5621DE
:102C60002046FFF705FE684608F05CFF6A465A4BAF
:102C700057212046FFF7FCFD68460BF007F96A462E
:102C8000564B54212046FFF7F3FD68460BF012FA2D
:102C90006A46534B0E212046FFF7EAFD684618F0BE
:102CA00037FB6A462E4B11212046FFF7E1FD6846AF
:102CB0000BF0D8FC6A464B4B37212046FFF7D8FD76
:102CC00068460EF06BFF6A46474B28212046FFF707
:102CD000CFFD68460BF0D0FC6A46444B39212046B4
:102CE000FFF7C6FD684618F0B1F86A46404B12215E
:102CF0002046FFF7BDFD68460CF0D2FD6A463D4B0D
:102D00003B212046FFF7B4FD684603F0F3FC6A461A
:102D1000394B48212046FFF7ABFD68460CF034FFE5
:102D20006A46364B53212046FFF7A2FD68460DF058
:102D3000E9F86A46324B22212046FFF799FD6846A2
:102D400060E000BF507D040009060100ED0F0100A6
:102D50000D0601008D100100251101001106010072
:102D6000E915010015060100650B010019060100B7
:102D7000BD110100551201001D060100D908010016
:102D8000E90B01002913010021060100787D0400F0
:102D900025060100290601002D060100310601006B
:102DA00035060100390601003D060100410601001B
:102DB0000514010045060100490601004D06010009
:102DC000D91401005D1901005106010055060100EA
:102DD000590601005D06010061060100650601005B
:102DE000690601006D060100790901007106010004
:102DF0006115010075060100790601006D0C0100E6
:102E00007D0601000DF08CF86A46864B3C21204679
:102E1000FFF72EFD68460DF031FF6A46824B3621E2
:102E20002046FFF725FD68460EF0D4F96A467F4B31
:102E300072212046FFF71CFD68460EF0D3FC6A465F
:102E40007B4B8F212046FFF713FD68460EF0B4FE42
:102E50006A46784B52212046FFF70AFD684602F089
:102E60000DF96A46744B13212046FFF701FD6846B1
:102E700002F012F96A46714B15212046FFF7F8FC63
:102E800068460FF06DFF6A466D4B16212046FFF72E
:102E9000EFFC684610F06CF86A466A4B1721204632
:102EA000FFF7E6FC684610F055FC6A46664B612168
:102EB0002046FFF7DDFC684610F056FF6A46634B7C
:102EC00074212046FFF7D4FC684608F00FFE6A46DE
:102ED0005F4B4C212046FFF7CBFC684610F0B0FF5B
:102EE0006A465C4B4D212046FFF7C2FC684608F05D
:102EF000C5FD6A46584B42212046FFF7B9FC68469B
:102F000018F08EFA6A46554B19212046FFF7B0FC9F
:102F1000684611F055FB6A46514B26212046FFF7C3
:102F2000A7FC684611F0C6FD6A464E4B1A212046A2
:102F3000FFF79EFC684611F023FF6A464A4B312199
:102F40002046FFF795FC684612F0A4F96A46474B05
:102F500066212046FFF78CFC684608F0B9FD6A46FA
:102F6000434B4B212046FFF783FC684608F0CCFD1D
:102F70006A46404B5C212046FFF77AFC684612F017
:102F8000F1FC6A463C4B2B212046FFF771FC68465A
:102F900012F0D0FE6A46394B2D212046FFF768FC1F
:102FA000684613F0ABFB6A46354B29212046FFF7F4
:102FB0005FFC684619F03AF96A46324B1B212046FD
:102FC000FFF756FC684614F005F96A462E4B1C21A3
:102FD0002046FFF74DFC684614F084FB6A462B4BF5
:102FE00027212046FFF744FC684615F041FC6A465D
:102FF000274B43212046FFF73BFC684615F060FD58
:103000006A46244B58212046FFF732FC684615F0EB
:1030100091FD214B6A468E212046FFF729FC204670
:1030200009B030BD81060100850601008906010056
:103030008D06010079090100910601009506010045
:10304000D9060100010A0100A90A01009906010040
:103050009D060100B9160100A1060100E119010059
:10306000A5060100010D0100850D0100090E0100FA
:10307000A9060100AD060100810701008D0E0100C7
:1030800051170100F1170100B1060100B50601005A
:10309000A1180100450F0100310801000368C31A9F
:1030A0001A880A2A07D95B89C21833B1C358D018C5
:1030B00004D0D05870470020704718467047000071
:1030C0000368C31A10B51A88082A18D91B89C418AE
:1030D000ABB1C258A318A258914206D3094B0A4A71
:1030E0000A484FF483712DF023F8043303EB810079
:1030F00053F82130BDE810401844FFF7CFBF00233C
:103100001B68FFDEFB7E0400707F0400067F040066
:10311000032905D8012994BF007800880021704751
:10312000072901D80068F9E7D0E9000170474B1E74
:103130001844B0FBF1F048437047B0FBF1F048434E
:10314000704701380844B0FBF1F04843704701383C
:103150000F2815D8DFE800F00C0C100E1410080E24
:1031600010080E120E0C140C02230B600020704786
:103170000423FAE70823F8E70123F6E71023F4E72E
:10318000012070472DE9F3410D460168411A1646AA
:103190000A88042A2ED98C8800EB040C8CB10459BF
:1031A0001CEB04070DD05CF804804FF0000C0124E8
:1031B000C44507D057F804EF0CF1010C0EFB04F4E2
:1031C000F6E70124062A16D9C988B1B140561A4635
:1031D0000DF10701C0B2FDF7DBF940B931469DF8AA
:1031E0000700FFF7B4FF10B933685C432C6002B0EE
:1031F000BDE8F08101240020E9E70846E7E74368DD
:1032000073B50C4653B153F8046B002101228E4272
:1032100005DD53F8045B01316A43F8E7012201A997
:10322000007AFFF794FF10B9019B5A43226002B065
:1032300070BD40680368DB68184770477047406896
:1032400003681022DB681847406803685B69184709
:10325000406803680422DB682021184770478369AF
:1032600010B50C46114633B1406803680422DB6890
:10327000890098472060002010BD10B50821044641
:10328000FDF774F9231808B12058184410BD10B583
:103290000A210446FDF76AF9231808B1205818449A
:1032A00010BD10B506210446FDF760F900B12056A7
:1032B000C0B210BD10B50E210446FDF757F900B19C
:1032C000205C003018BF012010BD10B50421044659
:1032D000FDF74CF9231808B12058184410BD10B55B
:1032E00008210446FDF742F9231808B12058184474
:1032F00010BD0000036870B5DB680E46154620213E
:1033000004220446984740B1044BC0E9003400232E
:10331000C0E90365C0E90633037570BDB0840400DD
:1033200070B50E46102104461546FFF700FFA2199E
:103330000146121A284601F0A9FD03680422DB6841
:103340002C2104469847064608B118F0E7FF2A46A4
:1033500031462046BDE87040FFF7CCBF00238361B3
:103360004068036804229B6860211847037D70B59C
:1033700004460E462BB11E490069FDF7A5F800254D
:1033800022E001230375406803680422DB680821FA
:10339000984718B16368174AC0E90023A060204627
:1033A000FFF7DCFF0028EAD13046FFF798FF656899
:1033B00001682B682846DB680422C9009847054647
:1033C00020B90D4800F0B0FD284670BD23680246C4
:1033D000DB693146204698470028D0D123682A4629
:1033E0009B693146204698470028EDD0C7E700BFCB
:1033F000B6800400988404000B81040008B540687E
:1034000001F068FD0421BDE80840FFF790BE000010
:103410002DE9F041044688461F46FFF7EFFF0022E2
:10342000A5691646954207D000EBC20301325B68DE
:10343000013308BF0136F5E70B2E07D90C220A49E4
:103440002069FDF741F80120BDE8F08100EBC503DC
:103450004FF0FF3240F835805A603D60A369013378
:10346000A3610020F0E700BF7B830400036870B510
:103470009B6804460D4698472046FFF7BFFFA169A9
:103480000022914206D04368013308BF45600132F3
:103490000830F6E7606803680C319B680422C900B5
:1034A000BDE8704018471160002070478068704781
:1034B00008B50368994206D3054B064A06484FF4FF
:1034C00083712CF035FE00EBC100D0E9010108BD8D
:1034D000FB7E040092890400067F040008B503689F
:1034E000994206D3054B064A06484FF483712CF0E7
:1034F0001FFE00EB8100406808BD00BFFB7E04009A
:10350000C4880400067F040008B50368994206D306
:10351000064B074A07484FF483712CF009FE04302C
:1035200000EB810250F82100104408BDFB7E04002E
:10353000DA850400067F04002DE9F7430546884636
:10354000164600244FF00C094046FFF7BEFE036804
:103550009C421FD22146FFF7D7FFFFF7ABFEB8B161
:1035600009FB04F701A9F019FFF749FE68B968687B
:10357000019903681022DB689847F05140B9019A1D
:1035800005492869FCF7A0FF012003B0BDE8F083DE
:103590000134D9E70020F8E78880040008B5036803
:1035A000994206D3064B074A07484FF483712CF023
:1035B000BFFD043000EB810250F82100104408BD2B
:1035C000FB7E0400CA870400067F04002DE9F34750
:1035D0009846037D04460F463BB315460026384601
:1035E000FFF77DFE03689E4227D23146FFF7D6FFE4
:1035F0002368A2691B6B8146414620469847C8B99B
:1036000023680096D3F82CA06A68D8F800303946B1
:103610002046D04770B923686A681B6A494620462D
:103620009847083530B90136D9E705490069FCF7F4
:103630004BFF012002B0BDE8F08700202075F9E7BC
:10364000398104002DE9F04105460F461646002455
:103650003846FFF744FE03689C4218D22146FFF724
:103660009DFFFFF71BFD6B681A684101D2F80C80C3
:1036700018460422C04730B906492869FCF724FFE0
:103680000120BDE8F08146F834000134E0E7002075
:10369000F7E700BFB18304002DE9F74F0C9F054603
:1036A0000846164698468A46FFF719FE3946FFF740
:1036B00075FF2B6828465B6A4FF000099847CDE9F3
:1036C00000792B680446D3F828B002464346514699
:1036D0002846D84740B10B492869FCF7F5FE4C460F
:1036E000204603B0BDE8F08F002EF9D006EBC706E8
:1036F0000C23726803FB08F3D118D35823614B687D
:103700006361EDE7E78304002DE9F3470A9F06466E
:103710000846984689461546FFF7E1FD3946FFF70A
:103720003DFF7068036804221B692021984701222D
:10373000CDE9007233680446D3F828A00246434618
:1037400049463046D04740B10B493069FCF7BCFED2
:103750000024204602B0BDE8F087002DF9D005EB2B
:10376000C7050C236A6803FB08F3D118D3582361FB
:103770004B686361EDE700BFD182040008B50368C0
:10378000994206D3064B074A07484FF483712CF041
:10379000CFFC043000EB810250F82100104408BD3A
:1037A000FB7E0400E4840400067F040038B50C4668
:1037B00008210546FCF7DAFE88B129582046FFF7B4
:1037C000DDFF044650B10421FCF7D0FE221828B1D9
:1037D0002358D11805D0D05800B1081D38BD014676
:1037E000ECE70846FAE710B50446FCF7BFFE2318DD
:1037F00008B12058184410BD2DE9F7430B9C9046A2
:10380000054620220E46204600211F462EF030F9A4
:103810004046FFF746FD0A9A04F11C01FCF7B8FE8A
:10382000002853D14046FFF745FD3946A077404672
:10383000FFF7BCFF206100284BD10223637701AA68
:103840000A9B04F118014046FFF79CFC00283DD17B
:1038500004214046FFF7C7FF00283CD13D4B636180
:103860000C214046FCF782FE08EB000770B358F8C5
:1038700000003F18384629D0FFF7FFFC804600289B
:1038800067D0006810B33846FFF701FDF0B100685B
:10389000E0B1D8F80430A3603846FFF7F8FC002107
:1038A000FFF706FEE0603846FFF7E7FC2B68D0F82C
:1038B000008096B11B6904220C21284698470646D1
:1038C000B8B925490A98FCF7FFFD012003B0BDE80F
:1038D000F0830123B2E76061C2E7DB6804220C21B8
:1038E0002846984706460028EBD02B68D3F80C9062
:1038F00002E02B68D3F810904046FCF7AFFD04229D
:1039000001462846C8470546706008B91349D9E7FB
:103910003846FFF7B2FC306045F8048B4FF00009E1
:10392000C8450ADD3846FFF7B2FC4946FFF7C0FD3F
:1039300045F8290009F10109F2E710213846FCF7A2
:1039400015FE00B13858B060012323706660002076
:10395000BCE7BBE76C800400318404005F84040092
:103960002DE9F041069C26460D460021C4E90011D0
:1039700046F8081F984628461746FFF792FC31463E
:103980004246FCF705FE064658B939462846FFF779
:103990000DFF042120602846FFF725FF20B9034BC7
:1039A00063603046BDE8F0816060FAE76C80040037
:1039B00010B50446FCF7DAFD231808B12058184466
:1039C00010BD2DE9F0410446084690461F460D46BD
:1039D000FFF785FC06999DF81C60FFF7DFFDFFF7F8
:1039E00074FC3946FFF790FD0C2107462846FFF787
:1039F000DFFF23690693CDF81C8003463A46314623
:103A00006068BDE8F041FFF7F7BE00002DE9F04F18
:103A100085B006468846039200254FF00C094046C3
:103A2000FFF75DFC03689D423DD22946FFF7B6FDD6
:103A30000290FFF74AFCD0F800A07068036809FB09
:103A40000AF4DB68042221469847074640B9174923
:103A500022463069FCF738FD012005B0BDE8F08F43
:103A60000024544519D00298FFF72FFC2146FFF798
:103A70004BFD0C2183464046FFF79AFF09FB047378
:103A800000930246336970685946FFF769FF10B129
:103A900022460749DDE70134E3E7039B03EBC50357
:103AA00001355F60BBE70020D7E700BF1583040046
:103AB0005C8304002DE9F04F8DB004460846CDE943
:103AC00008238946FFF70BFC1699FFF767FD83462D
:103AD000FFF7FBFBA26903686068D31818250593FC
:103AE0006B430393036803991B69042298470546B7
:103AF00030B9039AB5492069FCF7E6FC01204FE193
:103B00005846FFF7E2FB03680493A369069310216C
:103B1000236902934846FCF729FD09EB00010028C0
:103B200046D059F800208B1872D08A5807924FF06F
:103B300000081F1DC246079B53453AD03E4604214C
:103B4000326816443046FCF711FD0437321808B1CC
:103B50003058104417229E4904302EF0DFFB20BB62
:103B60000C214846FFF724FF062180463046FCF72B
:103B7000FDFCC0B131584046FFF700FE0421064667
:103B8000FCF7F4FC3318002800F09F813058034400
:103B900003F11008DA68049B934206D08D4902981D
:103BA000FCF792FCAAE70146E5E70AF1010AC2E741
:103BB0008046DDF8209002952F4600264FF0FF3A10
:103BC000049BB34229D0C7F8049039464846FFF712
:103BD00016FB002840F0E480D9F80020C7E902AACB
:103BE00052B95846FFF771FB3146FFF78DFCFFF7DE
:103BF00061FB80F00100C0B23875B8F1000F09D048
:103C000058F826203A610136183709F10C09D7E730
:103C10009846CEE7C7F810A0F5E75846FFF73EFAFA
:103C20004FF0000A81464FF01808574606215846C3
:103C3000FFF7D9FD0368534508D95146FFF74EFCFD
:103C400008FB00500AF1010A8760EFE74FF0000A15
:103C50004FF0180808215846FFF7C5FD0368534583
:103C600009F1FF371AD84FEA8708002FC0F2C28047
:103C70000A215846FCF77AFC0BEB0001002800F003
:103C800026815BF800208B188A5897420FD3524B3D
:103C9000524A53484FF483712CF04AFA5146FFF7C9
:103CA0001DFC08FB00500AF1010AC760D2E704338B
:103CB00003EB080953F808304FF0000A9944062135
:103CC0004846FFF790FD026852450ED95146FFF76E
:103CD00005FC182303FB0050C268531C01D0974217
:103CE00000DDC7600AF1010AE9E74FF0000A082188
:103CF0004846FFF778FD026852450ED95146FFF756
:103D0000EDFB182303FB00508268511C01D0974241
:103D100000DA87600AF1010AE9E7013FA8F1040827
:103D2000A3E71021606801F0D7F8064660680368D1
:103D300031461B6910229847014658B92169294B21
:103D4000019340F2A6330093274A284B0846FCF71C
:103D5000C9FBD3E6E0680268D7693246B847D4E9C0
:103D600003792E464FF00008059B434569D0337D0B
:103D70001BB908F101081836F6E710213068FFF783
:103D8000E0F931694B1C02463B680CD1F1680091A7
:103D9000D3F808A0B36849463846D0470028E8D091
:103DA0000DB0BDE8F08F0191F1680091D3F80CA03F
:103DB000B36849463846D047F0E7336830461B6958
:103DC00098473B4602460A494046E9E6848104009A
:103DD00070800400C5810400FB7E0400D0860400CE
:103DE000067F04006A820400A56F040010820400AC
:103DF000838204002046FFF701FB6FF0070202FBFD
:103E00000600069A09991823324403FB0653964686
:103E10004FF0FF3C0127B64503F1180381D950F854
:103E2000362043F8182C00EBC60243F8141C5268E5
:103E300043F808CC43E9042203F8047C013604313A
:103E4000E9E7606803685B6998471021606801F0E2
:103E500043F80746E06803681B699847B842D4E90D
:103E60000368AAD8606801F035F8039B81461D44B9
:103E700000274FF0FF3A029B9D4217D01B7D8BB16C
:103E80003368CDF82CA0D3F818B03A460BAB4146B6
:103E90003046D847002883D1029B5A680B9B4B447D
:103EA00013600137029B18330293E4E7E06803686C
:103EB0001B699847E369834200D2E0616068E16969
:103EC000036810229B6898476AE7C368FFDE0368AF
:103ED000FCE700BF00B5C1B00B4602464FF480714D
:103EE000684600F011FE684601F004F8024801F04F
:103EF00001F841B05DF804FB67FC040000B5C1B0F7
:103F0000134668460A464FF4807100F0FDFD68468E
:103F100000F0F0FF034800F0EDFF002041B05DF835
:103F200004FB00BF67FC04000FB407B504A951F8F7
:103F3000040B0191FFF7CEFF03B05DF804EB04B072
:103F4000704700004369202B01D180697047DBB2C4
:103F5000942B9ABF024A52F823000248704700BFD0
:103F60009C70040094F8040070472DE9F047D0F8E5
:103F7000148004460026E3691B689E4220D26661D5
:103F80003146A068FFF79CF84FEAC60A8146002731
:103F90004F4513D0236953F80A5005EB4715EB69D9
:103FA00029695A691B68202A0CBFD5E9051200222D
:103FB00013B160689847E8600137E9E70136DAE74E
:103FC000C4F814800020BDE8F0872DE9F843476964
:103FD00004460025E3691B689D421AD265612946A3
:103FE000A068FFF76DF84FEAC509804600264645F0
:103FF0000DD0236953F8093003EB4613DA6922B177
:10400000526812B1D968606890470136EFE7013510
:10401000E0E767610020BDE8F88300002DE9F04784
:10402000476904460025E3691B689D422CD26561FF
:104030002946A068FFF744F84FEAC50980460026E4
:1040400046451FD0236953F8091001EB4611D1F8FA
:104050001CA0DAF808307BB160689847014658B177
:104060005046FFF76FFF32460B4601460848FFF700
:104070005BFF0120BDE8F0873146E068FFF7F6F905
:104080000136DDE70135CEE767610020F2E700BFCA
:10409000E68A0400002310B50446C0E9003222B1CC
:1040A000136810469B6898472060204610BD10B5E5
:1040B0000446406818B103682168DB6898472046C9
:1040C00010BD0000C3691A682DE9F3470446914208
:1040D000D0F8148061610F4607D32148FFF724FF11
:1040E0000125284602B0BDE8F0878068FEF7E8FFAA
:1040F000FF00814600264E452ED02369DD5905EB91
:104100004615D5F81CA05046FFF71CFF6368014612
:104110005A6B6846FFF7BEFF2946DAF80C30606834
:1041200098470546E06803689B689847012D0CD1C5
:104130005046FFF707FF2B46014632460948FFF776
:10414000F3FE6846FFF7B3FFCBE7002DF9D16846D1
:10415000FFF7ADFF0136CEE7C4F814800025C0E7B5
:10416000808A0400B28A0400016170472DE9F04F93
:10417000074685B000264FF00C0BF86903689E4295
:1041800065D23146FFF70AFA4FEAC6098046002594
:1041900004214046FCF7EAF908EB000100285BD057
:1041A00058F800208B188A5895424ED2043303EBFE
:1041B000850453F825301C440E212046FCF7D6F91F
:1041C00000283CD0235C002B39D03B694B440BFBCF
:1041D00005FA586803A95044FFF711F80346002870
:1041E00036D1019006212046FCF7C0F948B322568B
:1041F000019B092A27D10C212046FCF7B7F9231887
:1042000090B124581C440A212046FCF7AFF922182B
:1042100010B32358D118D35843B9104B104A114842
:104220004FF483712BF084FF0446ECE749683B6947
:10423000039A4B445B6853F80A002DF019FC0135D2
:10424000A6E70146F3E71946F1E7013695E70023B3
:10425000184605B0BDE8F08F0368FFDEFB7E040062
:10426000548B0400067F040010B50446FCF77EF969
:10427000231808B12058184410BD70B50C460546E7
:10428000082180681646FFF7EFFF2146FFF786F901
:104290000621FFF7A8FA3146FFF720F9296901EB5B
:1042A000C4010C224B6802FB003070BD08B5082128
:1042B0008068FFF7D9FF006808BD10B580680C461C
:1042C0000821FFF7D1FF2146FFF768F90621FFF724
:1042D0008AFA006810BD10B580680C460821FFF707
:1042E000C3FF2146FFF75AF90821FFF77CFA00685F
:1042F00010BD000010B50446C4E90223074800239E
:10430000C4E90433029BA361C4E9000122B108217E
:104310001046FFF7A9FFE061204610BD248B040082
:1043200070B50C460546082180681646FFF79CFFCD
:104330002146FFF733F90821FFF755FA3146FFF719
:10434000CDF8296901EBC4010C224B6802FB003057
:1043500070BDC368986E0368DB681847C368D3F8FC
:10436000903053F82100704737B5C468A06ED4F878
:104370008020036800925D68E26F0B462168A847C1
:1043800003B030BDC268D2E91F3003EBC0030C207C
:104390005B6800FB01307047C3686C330B60002022
:1043A0007047C368D3F894007047C0681346D0F8CC
:1043B0008020806EFFF72CB80EB403B5C3689868F0
:1043C00003AA036852F8041B01929B68984702B045
:1043D0005DF804EB03B070472DE9F341099F876056
:1043E00000F10C0504469846C0E900120E465C2216
:1043F000002128462DF03CFB3A4608994046FEF73E
:104400008FFF0A9AA066034600922946324604F1BD
:104410006C00FFF76FFF0B4A22620B4AE2650B4A02
:1044200022660B9AA4610023204684F88C30C4E9EC
:104430002433C4E92633226484F88D3002B0BDE809
:10444000F08100BFB94301006943010085430100C9
:1044500008B50821FFF708FF0021FFF79FF80621A4
:10446000FFF7C1F9006808BD38B5054600680C467D
:10447000FFF7EEFFA042034606D822460549A8688A
:10448000FCF722F8002038BDD5F8983053F8240006
:10449000F9E700BF088E040008B50821FFF7E4FE25
:1044A0000021FFF77BF80821FFF79DF9006808BDA0
:1044B00038B5054600680C46FFF7EEFFA0420346FC
:1044C00006D822460549A868FBF7FEFF002038BD44
:1044D000D5F89C3053F82400F9E700BF608E040043
:1044E00038B5C36F044600F16C0513B12846FFF7D9
:1044F0006CFD2846FFF738FD204638BD2DE9F04F0A
:1045000006468DB04FF0000906F16C00FFF7CEFEB5
:10451000484540F30981346808212046FFF7A4FE8E
:104520004946FFF73BF8062182462046FCF71EF875
:10453000231848B3205803440293B06EFEF7B6FF29
:1045400005905046FEF7AAFD4FEAC9030690039373
:104550004FF00008069B984500F0E3800A21504682
:10456000FCF704F80AEB0001002800F0DF805AF89D
:1045700000208B188A58904508D36D4B6D4A6E48C1
:104580004FF483712BF0D4FD0290D6E7043303EB94
:10459000880553F828301D4404212846FBF7E6FF20
:1045A00050B12F58029B1B68BB4207D8634839465D
:1045B000FFF7BAFC012424E00746F3E7029B039AC5
:1045C000043303EB870B53F827309B444FEA48131F
:1045D0000193F36F9B58019A13441C33D6E90112DF
:1045E0005846FDF73FFA044678B1584617F0C4FF25
:1045F000942896BF524B534953F820105248FFF766
:1046000093FC20460DB0BDE8F08F039AF36F9B58E2
:10461000019A1344DB6913B939464C48C8E71F7D3A
:104620000890202F4FF00E01284653D1FBF79EFF34
:104630002A18002846D14FF0000BCDF810B0062103
:104640002846FFF7D0F809AA0146B06EFEF72BFF07
:1046500004460028D5D108212846FFF7C4F80AAA45
:104660000146B06EFEF71FFF04460028C9D1039A29
:10467000F36F9B58019A07939F1801461C223846F6
:104680002DF0F6F9019B099A1946079B5A500A9B8F
:104690007B60089B3B61049B1421C7E9053B2846CE
:1046A000FFF7A1F8014650B1036843B10BAAB06E01
:1046B000FEF7F9FE04460028A3D10B9BBB6008F16E
:1046C000010847E72B58D118B5D00431049152F8AE
:1046D00003B0B4E7FBF74AFF2B1850B12A58D34276
:1046E00007D0942F96BF164B164953F82710184839
:1046F0005EE77068036839465B6A9847044638B9D4
:10470000942F96BF0E4B0F4953F8271011484FE7CF
:1047100008AB059AB1682846A047044600288AD00D
:104720006FE709F10109EFE600246AE70368FFDE9D
:10473000FB7E04008C8E0400067F04002D8D040097
:104740009C70040094F80400578D0400848D0400CC
:10475000A58D0400EB8D04002DE9F74F0168044698
:10476000806EFEF703FE014650B96249A06801253C
:10477000FBF7AAFE84F88D50284603B0BDE8F08F01
:1047800004F16C063046FFF7EFFC2046FFF7B6FE5B
:1047900005460028F0D1584B6364584B2361C4E9A7
:1047A000130060633046FFF7E0FB554BE364554B65
:1047B00063633046FFF732FC534B6564E564236561
:1047C000E26F2168A06E04F19003FEF7FFFE05463C
:1047D0000028D1D1A76E2068FFF73AFE3B68810020
:1047E000DB6838469847C4F8980048B92068FFF756
:1047F0002FFE46498200A068FBF766FE0125BBE755
:10480000AA46D4F800804046FFF722FED4F868900C
:10481000A842D9F8007022D908214046FFF724FDAC
:104820000021FEF7BBFE0621FEF7DDFF2946FEF75D
:1048300055FECDF800A003463F68E26FD4F898B06B
:1048400041464846B847D4F898304BF8250053F80D
:10485000253013B92A462E49CDE70135D1E7404628
:10486000FFF71AFEFB68810048469847C4F89C0091
:1048700028B92068FFF710FE26498200BBE7002513
:10488000A94627683846FFF707FEA84227D908211E
:104890003846FFF7E9FC0021FEF780FE0821FEF70D
:1048A000A2FFD4F868802946FEF718FED8F8003039
:1048B000CDF80090D3F800B0E26FD4F89CA0034686
:1048C00039464046D847D4F89C304AF8250053F87A
:1048D000253013B92A4610498DE70135D1E7304616
:1048E000FFF744FC054600287FF446AF012384F817
:1048F0008C3041E72C8C04005343010099430100A4
:10490000AB430100A34301005D4301004F8C040051
:10491000988C0400BD8C0400078D040090F88D3045
:1049200010B504462BB10A498068FBF7CDFD012084
:1049300010BD90F88C3033B104F16C000021BDE85B
:104940001040FFF7BFBBFFF707FF0028F4D0EFE7E9
:10495000338E0400002970B5144602DB83688B4255
:1049600004DC0A48FFF7E0FA012070BD036803EB9E
:104970000113D3E90256104600F01AFA32462946CE
:1049800020682CF077FF0020EFE700BFDA8F0400EB
:10499000002910B502DB84688C4204DC0B48FFF769
:1049A000C3FA012005E0046804EB0114A16809B111
:1049B000002010BD9969E160936B10469847A06094
:1049C0000028F5D10248FFF7AFFAEAE7DA8F0400D2
:1049D000AF900400002970B5154602DB83688B4256
:1049E00004DC0C48FFF7A0FA012070BD036803EB5C
:1049F00001118C681CB90848FFF796FAF4E7CE68F5
:104A0000104600F0D5F93246296820462CF032FFD6
:104A10000020EAE7DA8F04000F9004002DE9F84344
:104A2000876805460E4690460024A74211DD2A6895
:104A3000230102EB030926B1D15830462DF084FA48
:104A400028B9D9F8041040462DF07EFA18B1013487
:104A5000EBE74FF0FF342046BDE8F88370B504461D
:104A60000E461546FFF7DAFF002808DAD4E90110F0
:104A7000884205DB0848FFF757FA4FF0FF3070BD5A
:104A80002168431CA3600301CA18CE50002355605F
:104A9000C2E90233F3E700BF868F040030B5044655
:104AA000234601341D78002DFAD101390844013A1A
:104AB00012F8011F21B1834202D203F8011BF7E76C
:104AC00000221A70184630BD30B503460C46B3FBC1
:104AD000F2F502FB1530C3B2092894BF30335733C7
:104AE0002046DBB200F8013B2B464DB96570A14270
:104AF00008D20B78227801F8012B04F80139F6E787
:104B00000446E4E730BD00002DE9F04F95B01746AC
:104B1000009003911E4601F1FF390025009A3B7871
:104B200054199BB34D4531DA252B07F101020BD106
:104B30007B78662B60D00AD8632B00F01781642B3A
:104B400020D0252B36D1BA1C0135237032E0752BCD
:104B500032D0782B3AD0732B2CD1039A3368501B68
:104B6000311D013B04EB5000009A8442A4EB020586
:104B700000F0028113F8012F002A00F0FD8004F8F4
:104B8000012BF1E7A9EB05030A2B01DC681C23E0EC
:104B900030680028B8BF2D2306F10408BDBF611C92
:104BA0002370404221460A22FFF78EFF001B054476
:104BB000BA1C46461746B1E7A9EB05030A2BE5DD0B
:104BC00006F104080A2221463068EDE7A9EB050248
:104BD000092A05F1010004DC0023237015B0BDE8AB
:104BE000F08F4FF030022270009A0235135454199E
:104BF00006F104081022E6E7A9EB050307EE903A58
:104C0000F8EEE77AB2EE0C7AF4EEC77AF1EE10FA2B
:104C1000BCD4F31D23F00703D3E9000103F1080618
:104C200028F086FEC0F3C7530028A3F17F0A019342
:104C30002346BCBF2D2203F8012B0022BAF1800FBE
:104C400004F12F0BC0F316081A7010D1ABEB03015F
:104C5000B8F1000F09D14A4A1846FFF71FFF8046F6
:104C6000A8EB04042544BA1CA4E7464AF4E7464AE4
:104C70000DF1100C51681068E646AEE80300434998
:104C800008328A42F446F5D110681279CEF8000055
:104C90008EF804204046002204A98956013228FAE1
:104CA00001F10D2A0844F7D131221A702E225A70D0
:104CB00003F1020800229A70ABEB0802072A029265
:104CC000CEDD424608334FF0300102F8011F934217
:104CD000F9D10A2208A9FFF7F7FE08AA029940466F
:104CE000FFF7DCFEA0EB08034FF03002D3F1070121
:104CF000027012D00246A0EB020C9C4508DA12F8B2
:104D000001CD02F801C04FF0300C82F800C0F2E78C
:104D100023EAE373C3F10703184410F8012C302A87
:104D200000F1FF3301D143451ED80023ABEB000156
:104D30000370174AFFF7B2FEBAF1000FBFBF2D2371
:104D40008DF82030019BC3F17F0A8046ABEB000B4E
:104D5000B4BF0DF1210108A90A225046FFF7B4FEA5
:104D600008AA5946404678E71846D6E733682370C4
:104D70000135BA1C04361DE7BA1C0E461AE700BFFF
:104D8000E0900400E4900400D3900400DB90040061
:104D9000E8900400034610B553F8044B00220120AC
:104DA000944204DD53F8041B01324843F8E710BD78
:104DB00013B5044601A9007AFEF7C9F96068FFF748
:104DC000E9FF019B584302B010BD7047036983613E
:104DD0007047000037B505460C4680691146FEF75E
:104DE000A6F96B691B1AA34209D2E21A009205497F
:104DF00068682246FBF768FB002003B030BD04441E
:104E0000AC61FAE7EC90040037B5044640690D4602
:104E1000401B1146FEF791F9236983420AD91B1AF8
:104E200000932A46EB1A04496068FBF74DFB00200B
:104E300003B030BD6061FBE73591040037B583698D
:104E40000D4601699942044606D00E494068FBF7B9
:104E50003BFB012003B030BD11468068FEF767F9C7
:104E600063691B1A9D4207D9EA1A009206496068D5
:104E70002A46FBF729FBECE728442061A0610020CB
:104E8000E8E700BF7E910400D391040010B50A4406
:104E900088B00F4C0791CDE90312CDE90512042229
:104EA000CDE901401C210DEB0200FFF7ADFF60B121
:104EB000029B4360039B8360049BC360059B03616B
:104EC000069B4361079B0460836108B010BD00BF6F
:104ED000209204008068704770B5044680690E46D1
:104EE000FEF725F9314605466069FEF726F9401BB5
:104EF00070BD0000014601481DF013B9A42B00202D
:104F00004FF4165101481BF0D3BD00BFA42B002065
:104F10001C21836B18470221836B18472A4A0B68B0
:104F200012682DE9F04103EB82030C468EB0CF6886
:104F3000426D596805469047244A6368126803EB3E
:104F4000820306466A6D5968284690470446307ABF
:104F500001280AD009281ED06C69FBF7A9FA1C4960
:104F600002462846A047012010E0314602A808F07A
:104F700010F8214608A8356808F00BF84CB12368F2
:104F800008AA294602A800F039F900200EB0BDE8B1
:104F9000F0812346F4E7314602A808AD97F9018075
:104FA00097F9007007F0F5FF21462846366807F0AC
:104FB000F0FF04B12468CDE90054334602AA394613
:104FC000404600F041F9E0E71C9304002093040000
:104FD00078920400264A0B681268F0B503EB82034E
:104FE0000C468FB0CF68426D596805469047214AFC
:104FF0006368126803EB820306466A6D59682846A7
:1050000090470446307A01280AD009281DD06C69DF
:10501000FBF74EFA184902462846A047012010E047
:10502000314602A807F0B5FF214608A8356807F009
:10503000B0FF44B1236808AA294602A800F0C2F8CC
:1050400000200FB0F0BD2346F5E7314602A807F077
:10505000A0FF214608A807F09CFF336804B124682C
:10506000009408AA02A9384600F032F8E8E700BF29
:105070001C930400209304007892040070B5054D41
:10508000064604460FCD0FC495E80F0084E80F00D4
:10509000304670BD3892040070B5054D0646044692
:1050A0000FCD0FC495E80F0084E80F00304670BDA7
:1050B0005892040010B5011D0468002301209C4291
:1050C00004DD51F8232001335043F8E710BD000000
:1050D0002DE9F84F044608469846FFF7EBFF354B9D
:1050E00000214FF0010C814262DAE26818F9016098
:1050F0002569B61AD4E9057222EAE27E002A06FA88
:105100000EF6D4BF52420022B74231D107F1004E11
:10511000DEF1000949EB0E0986FB0767002E77F1E7
:10512000000EACBF4FF0804E9E46B9F1000F3CD14F
:1051300016EB0E094E4647EBEE7A002E7AF100068A
:10514000574608DA4E466FF000494FF0000A19EB57
:1051500006094AEB070A4E46F60F46EA4A071F2A97
:1051600009DD154B154A164840F267112AF0E0FF99
:105170004FF00009D0E70CFA02F6013E06EA0709F3
:10518000761006EBD77E47FA02F6F145C8BF013626
:105190002E4465680A9AB542B8BF3546A668AE4245
:1051A000A8BF2E46565401319DE76FF00047D6E761
:1051B000BDE8F88F010000C0DF7C040024930400E8
:1051C000827C040038B50D461C46FFF773FF9FED47
:1051D0000A7A23462946002282420CDAF1EC017A4F
:1051E000F5EE407AF1EE10FA48BFF0EE477AE3ECC4
:1051F000017A0132F0E738BD0000000038B50D46F5
:105200001C46FFF757FFDFED0F6A234629460022B1
:10521000B1EE087A824214DAF1EC017AF4EEC77A40
:10522000F1EE10FA0ADCF5EE407AF1EE10FA48BF22
:10523000F0EE667AE3EC017A0132EBE7F1EE087A00
:10524000F8E738BD000000002DE9F041079D074652
:1052500010460E469846FFF72DFF002282420BDAD9
:1052600018F90240B44205DCBC42B8BF3C46AC541D
:105270000132F3E73446FAE7BDE8F0812DE9F34166
:10528000002205460F46CC68FCF7B8FC064658B924
:10529000254B00936C6979232846244A2449A0476A
:1052A000012002B0BDE8F081394600222846FCF713
:1052B000BEFC074620B91F4B00936C697B23EBE7CC
:1052C000337F092B2ED196ED027AD0ED027AC7EE0C
:1052D000277A04F1140504F1180817EE900A27F054
:1052E000D7FF43462A46FCF7F9FED7ED027A9FED39
:1052F000127AFD68C7EE277A17EE900A29F044FB70
:1053000007EE900AFDEEE77A6FF07F0317EE900A42
:1053100028449842ACBF606063607F23A360F36859
:10532000C4E903350020BCE709930400A4920400FB
:10533000A56F04003098040000000000F7B50022BB
:105340000546CC68FCF75AFC50B9164B009328462A
:105350006C69154A15498923A047012003B0F0BDA7
:10536000037F092B1BD1D0ED027AC568B1EE087A14
:10537000C7EE277A17EE900A27F08AFF29F032F855
:1053800006460F46284627F071FF32463B4627F077
:1053900021FE28F085FA00F30700207065700020D8
:1053A000DCE700BF09930400A4920400A56F040089
:1053B0002DE9F04F0B68D3F80080B8F1010F8DB0E4
:1053C00005460F4608DC7F4B009344697E4A7F49BF
:1053D0003223A04701240FE04B681E68012E0FD036
:1053E00001247B4B0193CDE902647A4B009345691C
:1053F000754A79493323A84720460DB0BDE8F08FA0
:1054000009AB0022FCF7FDFB04460028F4D102465C
:105410000AAB39462846FCF719FC04460028EBD1B4
:105420000A9B187F099B1B7F834213D06C69FBF793
:105430003FF8099B0746187FFBF73AF8674B019343
:10544000CDE90270664B00933D235F4A65492846CB
:10545000A047BFE70BAB324639462846FCF7D1FBE5
:1054600004460028C8D10B990998FCF72DFE38B9DD
:105470005D4B00936C694123534A54492846A8E781
:10548000099A0B9B107F197F81420FD06C69FBF743
:105490000FF80B9B0646187FFBF70AF8534B019356
:1054A0004E4B0093CDE902604223CEE7092916D185
:1054B000D068D968884204D04D4B00936C6947236B
:1054C000DAE792ED027AD3ED027AB4EE677AF1EE82
:1054D00010FA04D0474B00936C694923CCE701369E
:1054E000B045B7D10A9B187F01280CD12B6C0BAAB1
:1054F0004FEA880128469847044600287FF47CAF8D
:105500000B9BFB6078E7092854D1AB6B2821284618
:1055100098472B6CF86000F1240206464FEA880198
:1055200028469847044600287FF466AF099A0A9FE8
:10553000D36890685B42B360FB68F3601423336206
:1055400027F0A6FE02460B4682468B4627F042FD18
:105550008046B868894627F09BFE0022264B27F03C
:10556000EFFE02460B464046494628F013F806F186
:105570001803CDE90401079342464B4606F1100794
:105580005046594628F006F8079B3A46FCF7F6FDC8
:10559000DDE9040106F11C0306F11402FCF7EEFD3F
:1055A000331D0093214633460A9A2846FCF7F6FB42
:1055B000044621E76C69FAF77BFF1049024628464A
:1055C000A04707E7F8930400A0930400A56F040028
:1055D00048AC0400089404002C7B040033940400BD
:1055E00026D70400199404004C9404003ED704000C
:1055F00076940400B894040000003041F094040054
:1056000088422DE930482CD100F100435C425C41D6
:1056100080FB0101002871F100031F4BA8BF4FF070
:10562000804304BB10EB030B41EBE37CBBF1000FA9
:105630007CF1000306DA6FF0004400251BEB040B3D
:105640004CEB050C4FEADB7040EA4C01002AC2F13A
:1056500000040BDD114B124A4FF4B37111482AF0CC
:1056600067FD0024D4E76FF00041EFE71F3204DA52
:105670000D4B0B4A40F26711F0E70123A340013BB9
:1056800003EA01005B1003EBD17321419842D4BFC0
:105690000846481CBDE83088010000C0747C040046
:1056A0001E950400827C0400DF7C04002DE9F04F8D
:1056B0004A68436D91B08846516807469847054649
:1056C000007A012839D1D8F80030D8F80C101E68BB
:1056D0007B6C3846984700248146A6420CDDD8F8FA
:1056E000003003EB840238467B6D516898470368AD
:1056F00049F824300134F0E729460AA807F049FCAC
:105700000AA8FFF7D7FC2A6809EB860602EB80009F
:105710001346984200F08580DFED487A9D1A4C468A
:10572000B44207D054F8041B294491ED007A77EE77
:10573000877AF5E7E3EC017AEBE7092875D1D8F829
:105740000030D8F80CB01C68DBF824107B6C3846AD
:1057500098474FF0000906464C450DDDD8F800305B
:1057600003EB890238467B6D51689847036846F819
:10577000293009F10109EFE7DBF80C300093DBF881
:1057800014300193DBF81C300293DBF800300393F4
:105790002946DBF80430DBF82070DBF80880DBF802
:1057A0001090DBF818A004930AA807F0F2FB2B680E
:1057B00005930AA8FFF77EFC08FA07F3069306EBA9
:1057C0008403834607930024A3452AD052464946C2
:1057D0000698FFF715FF33460546079A9A420DD003
:1057E00053F8042B1057404452464946B840CDE97F
:1057F0000833FFF705FF089B0544EEE7DDE90112DA
:105800002846FFF7FDFE009B1844039B9842B8BF53
:105810001846049B9842A8BF1846059B18550134AA
:10582000D2E7002011B0BDE8F08F7C69FAF740FEA6
:10583000034902463846A0470120F3E70000000074
:10584000F094040070B5054D064604460FCD0FC414
:1058500095E80F0084E80F00304670BD8093040087
:105860002DE9F04F15460A68436D0E4691B0516818
:10587000044698473268636D91680746204698470A
:105880007268636D5168804620469847064698F8CE
:105890000800022840F09481307A022840F090817C
:1058A000387A01280BD0092800F0D0806569FAF712
:1058B000FFFDC64902462046A84701207DE1394642
:1058C00004A807F066FBD8F800403B6801930AA8DB
:1058D000314607F05EFB336804982268002D5AD0E9
:1058E000002AB8BF121810A901EB82014FF0010E77
:1058F00051F82C7C00218A4201F1010406DD04A943
:1059000051F8241001FB0EFE2146F4E7511C012240
:10591000884201F101042DDC002007FB02F14FEA6F
:10592000820A029106468446E64540F34581019984
:1059300001EB800806FB0221091A890000240439C2
:10594000A24221DDF8EC017A012501EB08094FF0B4
:10595000000BAF4214DD99ED007AB4EEE77AF1EE78
:1059600010FAD4BFB0EE677AAB46D1440135F0EE01
:10597000477AEEE704A951F824104A432146C7E7C5
:1059800043F824B00134DBE702990CF1010C5344D5
:105990003E440844C8E7002AB8BF121810A901EB1A
:1059A00082014FF0010E51F82C7C00218A4201F156
:1059B000010406DD04A951F8241001FB0EFE214666
:1059C000F4E7511C0122884201F101042DDC002082
:1059D00007FB02F14FEA820A029106468446E64539
:1059E00040F3EA80019901EB800806FB0221091AC5
:1059F000890000240439A24221DDF8EC017A012556
:105A000001EB08094FF0000BAF4214DD99ED007A6D
:105A1000B4EEE77AF1EE10FA54BFB0EE677AAB4617
:105A2000D1440135F0EE477AEEE704A951F824108D
:105A30004A432146C7E743F824B00134DBE7029923
:105A40000CF1010C53443E440844C8E7394604A80D
:105A500007F09FFA3C68D8F800700AA8314607F0B2
:105A600098FA336804983A68002D52D0002AB8BFDB
:105A7000121810A901EB82014FF0010E51F82C6CA5
:105A800000218A4201F1010506DD04A951F8251023
:105A900001FB0EFE2946F4E7511C0122884201F168
:105AA000010524DC91000291002006FB02F1039124
:105AB00027468446E6457FDD00FB022161180191FF
:105AC00000218A421DDD019D17F9018005EB010AC5
:105AD0004FF0000B0125AE420FDD9AF90090C14551
