:020000021000EC
:10000000000004205DA6030095A60300E589030017
:1000100099A60300F1890300F7890300000000009E
:10002000000000000000000000000000CD390300C7
:10003000A1A6030000000000653A0300753A030022
:1000400069E00300195E0300A7A60300A7A603004A
:10005000A7A60300A7A60300A7A60300A7A6030060
:10006000A7A60300A7A60300A7A60300A7A6030050
:10007000A7A6030071E40300A7A60300315E0300F6
:10008000A7A60300A7A60300A7A60300A7A6030030
:10009000A7A60300A7A60300A7A60300A7A6030020
:1000A000A7A60300A7A60300A7A60300A7A6030010
:1000B000A7A60300A7A603000000000000000000A0
:1000C000A7A60300A7A60300A7A60300A7A60300F0
:1000D000A7A60300A7A60300A7A60300A7A60300E0
:1000E000A7A60300A7A60300A7A603000000000020
:1000F00000000000A7A6030000000000A7A6030060
:1001000010B5054C237833B9044B13B10448AFF351
:1001100000800123237010BD40100020000000006B
:100120007417050008B5034B1BB103490348AFF32F
:10013000008008BD00000000441000207417050076
:10014000154B002B08BF134B9D46A3F5803A0021A9
:100150008B460F461348144A121A32F041FF0F4BD8
:10016000002B00D098470E4B002B00D09847002062
:10017000002104000D000D48002802D00C4829F091
:10018000C9F932F02DFA2000290025F07BFC29F076
:10019000BEF900BF000008000000042000000000BD
:1001A000E15903004010002050C9002015950300BC
:1001B0000000000070B5154D154C2B782DED028B0D
:1001C000064682B008EE102A2BB90121207823F0D0
:1001D00091FB01232B70F7EE007A38EE278ADFEDD2
:1001E0000D7A207828EE278AFDEEC87A17EE901A4D
:1001F000CDED017A23F004FB019A0749304602B0A5
:10020000BDEC028BBDE8704000F06CB95C100020C2
:10021000040200200000FF424BA00400704770471A
:1002200010B50421044629F0A7FB204610BD0000AC
:10023000F0B5414C85B004F00BFA2378BFF35B8F27
:10024000DA070BD4204629F073F938B1204629F09B
:1002500091F93A4A3A493B4829F057F93A4C394B17
:1002600023603A4B3A4D1A68D118D3582960CB1AFB
:100270001A88042A0CD99A8812B18A58032A09D0FC
:1002800034493048032305B0BDE8F04000F02AB9F6
:100290000022F5E7304E3378BFF35B8FDB070ED4D7
:1002A000304629F045F950B12C4802F06BF8304641
:1002B00029F060F9214A2A49284829F026F9294FCE
:1002C0003B78BFF35B8F13F0010617D1384629F056
:1002D0002FF998B10296236801934FF4FA630093C3
:1002E0001E4A2968204B214803F0F6FC384629F0C5
:1002F00041F9124A1E491D4829F007F91D4E1B48B5
:10030000306003F07FFE054630B11B49206805B020
:10031000BDE8F04000F0E6B80146306803F044FD67
:10032000164B29461860306803F01AFD144B18600C
:10033000144B1D6005B0F0BD6410002000020020C9
:100340001D0201000802002040180020087A040065
:100350004C180020A879040068100020E81800203C
:100360001F020100601000207010002054180020AF
:10037000D93D01006C100020EF79040048180020DE
:1003800050180020441800202F4B70B51B682F4CCC
:100390002F4ED4ED007A07EE103AF8EEE77AB8EE79
:1003A000C77A2DED028B87EE878A82B00193294BA5
:1003B0001B685A68DFED287A28EE278AD3ED037A86
:1003C00088EE277AD3ED047AF8EEE77A77EE277A8B
:1003D000FDEEE77A17EE903A1370204B186803F0A1
:1003E000EFFE054670B118EE100A2EF00BFA024629
:1003F0000B4630681A4902B0BDEC028BBDE8704074
:1004000000F070B8174B30681A685368116993F997
:10041000003092ED037A5B1A07EE903AF8EEE77A35
:1004200018EE101A67EE877A17EE902AFFF7C2FED1
:100430002068019B01308342D8BF2846206002B06B
:10044000BDEC028B70BD00BF8C7904004418002005
:100450004018002048180020DB0FC9406C10002015
:10046000907904005018002010B541F29021044604
:1004700029F082FA204610BD01308000704730B567
:1004800018B9B1FA81F0400930BD04688C420DD131
:10049000043000239C4201DC0120F5E750F8045BA6
:1004A00052F823108D4201D10133F3E70020EBE72E
:1004B000884205D030B131B10A1D0968FFF7DFBFAE
:1004C00001207047704708467047000010289ABF07
:1004D000024B53F820000248704700BFC08304005D
:1004E000048404000EB403B503AA036852F8041B85
:1004F00001929B68984702B05DF804EB03B0704727
:100500000CB407B504AA036852F8041B01929B6857
:10051000984703B05DF804EB02B0704700680368C9
:100520005B6818470138C0B204289ABF014B185CB9
:10053000002070477C84040020B101280CBF0220F9
:10054000002070470120704738B515461A4628B973
:100550000B492846FFF7C6FF012038BD0468082C68
:1005600009D8043900EB8404A04206D050F8043FB7
:1005700041F8043FF8E70349EBE70020EDE700BF4F
:100580001E8504004C8504000368C01A03888B4252
:100590008CBF405A0020704710B50C210446FFF76D
:1005A000F3FF231808B12058184410BD08B50346BE
:1005B00010460F2B2BD8DFE803F00C0812161A1E7A
:1005C000201022180E241C2628140A230B70002049
:1005D00008BD0123FAE70B23F8E70723F6E7022318
:1005E000F4E71023F2E70323F0E70923EEE70423FF
:1005F000ECE70D23EAE70523E8E70623E6E708230F
:10060000E4E70C23E2E70E23E0E70F23DEE7002216
:100610000A701A460249FFF765FF0120D8E700BFBC
:100620008D8504000020704700207047002070472F
:10063000002070470020704700207047002070475E
:10064000002070470020704700207047002070474E
:10065000002070470020704700207047002070473E
:10066000002070470020704700207047002070472E
:10067000002070470020704700207047002070471E
:10068000002070470020704700207047002070470E
:1006900000207047002070470020704700207047FE
:1006A00000207047002070470020704700207047EE
:1006B00000207047002070470020704700207047DE
:1006C00038B505461446FFF75FFF00B12C5C2046A5
:1006D00038BD08B500220A21FFF7F2FF08BD00006F
:1006E0002DE9FF411F4613681546064688461B68DC
:1006F0000422242128469847044618B124220021C8
:1007000032F06EFCCDE90254A4B91B4B019340F2C8
:10071000C3630093194A1A4B41464046FFF7F0FE67
:100720000124039911B102A8FFF7F8FE204604B096
:10073000BDE8F0813046FFF7CCFF112817D13046D5
:10074000FFF72AFF054690B10421FFF71DFF2E1881
:1007500068B12D5870190AD021460A4B4246FFF75E
:10076000F3FE04460028DCD1039B72591A62039BF6
:100770003B6000240394D4E7FC840400E584040077
:10078000818404000E8504002DE9FF411F46136893
:100790001546064688461B680422242128469847A9
:1007A000044618B12422002132F01AFCCDE902548B
:1007B000A4B91D4B019340F2B67300931B4A1C4B26
:1007C00041464046FFF79CFE0124039911B102A85F
:1007D000FFF7A4FE204604B0BDE8F0813046FFF7E5
:1007E00078FF1E2817D13046FFF7D6FE054690B198
:1007F0000421FFF7C9FE2E1890B12D5870190FD0A3
:1008000021460C4B4246FFF79FFE04460028DCD1F0
:10081000039B72591A62039B3B6000240394D4E744
:1008200000232362F7E700BFFC840400E584040092
:1008300081840400168504002DE9FF411F461368DA
:100840001546064688461B6801220221284698471D
:10085000044610B1002303704370CDE90254A4B9DB
:100860001A4B019340F26D430093194A194B4146CC
:100870004046FFF745FE0124039911B102A8FFF796
:100880004DFE204604B0BDE8F0813046FFF721FF61
:10089000662815D13046FFF77FFE054680B100225D
:1008A0000421FFF70DFF003018BF01202070002247
:1008B00006212846FFF704FF003018BF01206070B2
:1008C00000233C6003931C46D6E700BFFC84040071
:1008D000E5840400818404002DE9FF411F4613686C
:1008E00015460122064688461B6811462846984749
:1008F000044608B100230370CDE90254A4B9154B96
:10090000019340F299630093134A144B41464046C9
:10091000FFF7F6FD0124039911B102A8FFF7FEFDD0
:10092000204604B0BDE8F0813046FFF7D2FE1B2818
:100930000BD13046FFF730FE38B100220421FFF71B
:10094000BFFE003018BF0120207000233C600393DD
:100950001C46E0E7FC840400E58404008184040074
:100960002DE9FF411F4613681546064688461B6859
:100970000122022128469847044610B10023037043
:100980004370CDE90254A4B91C4B01934FF4DD63CD
:1009900000931B4A1B4B41464046FFF7B1FD012423
:1009A000039911B102A8FFF7B9FD204604B0BDE8D4
:1009B000F0813046FFF78DFE0F281AD13046FFF741
:1009C000EBFD0546A8B100220821FFF779FE0030B3
:1009D00018BF0120207000220A212846FFF770FE70
:1009E000003018BF0120607000233C6003931C4658
:1009F000D6E7002323706370F6E700BFFC84040091
:100A0000E5840400818404002DE9FF411F4613683A
:100A10001546064688461B6801220221284698474B
:100A2000044610B1002303704370CDE90254A4B909
:100A30001C4B019340F2037300931B4A1B4B41462E
:100A40004046FFF75DFD0124039911B102A8FFF7AD
:100A500065FD204604B0BDE8F0813046FFF739FE61
:100A60004A281AD13046FFF797FD0546A8B1002263
:100A70000421FFF725FE003018BF0120207000225E
:100A800006212846FFF71CFE003018BF01206070C9
:100A900000233C6003931C46D6E700232370637059
:100AA000F6E700BFFC840400E584040081840400B0
:100AB00038B505461446FFF767FD00B12C582046AF
:100AC00038BD00002DE9FF411F461368154604227A
:100AD000064688461B68114628469847044608B1D2
:100AE00000230360CDE90254A4B9144B01934FF4E1
:100AF00091630093124A134B41464046FFF700FDB5
:100B00000124039911B102A8FFF708FD204604B0A3
:100B1000BDE8F0813046FFF7DCFD5E2808D13046A5
:100B2000FFF73AFD20B100220421FFF7C1FF20604A
:100B300000233C6003931C46E3E700BFFC840400F1
:100B4000E5840400818404002DE9FF411F461368F9
:100B50001546064688461B68042208212846984701
:100B6000044610B10023C0E90033CDE90254A4B912
:100B7000174B01934FF4C7630093164A164B414637
:100B80004046FFF7BDFC0124039911B102A8FFF70D
:100B9000C5FC204604B0BDE8F0813046FFF799FD62
:100BA0003B280FD13046FFF7F7FC054650B1002235
:100BB0000421FFF77DFF0022206006212846FFF771
:100BC00077FF606000233C6003931C46DCE700BFB6
:100BD000FC840400E5840400818404002DE9FF41C5
:100BE0001F46136815460422064688461B681146B0
:100BF00028469847044608B100230360CDE9025413
:100C0000A4B9144B019340F26E730093124A134B34
:100C100041464046FFF774FC0124039911B102A834
:100C2000FFF77CFC204604B0BDE8F0813046FFF7BA
:100C300050FD132808D13046FFF7AEFC20B100224A
:100C40000421FFF735FF206000233C6003931C461E
:100C5000E3E700BFFC840400E58404008184040011
:100C60002DE9FF411F4613681546042206468846B3
:100C70001B68114628469847044608B100230360C4
:100C8000CDE90254A4B9144B019340F2857300934B
:100C9000124A134B41464046FFF732FC01240399A8
:100CA00011B102A8FFF73AFC204604B0BDE8F0817C
:100CB0003046FFF70EFD232808D13046FFF76CFCC5
:100CC00020B100220421FFF7F3FE206000233C60E6
:100CD00003931C46E3E700BFFC840400E5840400A2
:100CE000818404002DE9FF411F4613681546042244
:100CF000064688461B68114628469847044608B1B0
:100D000000230360CDE90254A4B9144B019340F2CF
:100D10009D730093124A134B41464046FFF7F0FB88
:100D20000124039911B102A8FFF7F8FB204604B093
:100D3000BDE8F0813046FFF7CCFC4F2808D13046A3
:100D4000FFF72AFC20B100220421FFF7B1FE20604A
:100D500000233C6003931C46E3E700BFFC840400CF
:100D6000E5840400818404002DE9FF411F461368D7
:100D70001546064688461B680422142128469847D3
:100D8000044618B11422002132F02AF9CDE90254A8
:100D9000A4B9204B01934FF4FD6300931E4A1F4BEF
:100DA00041464046FFF7ACFB0124039911B102A86C
:100DB000FFF7B4FB204604B0BDE8F0813046FFF7F2
:100DC00088FC202821D13046FFF7E6FB0546E0B13C
:100DD00000220421FFF76CFE002220600621284635
:100DE000FFF766FE0022606008212846FFF760FEDC
:100DF0000022A0600A212846FFF75AFE0022E06088
:100E00000C212846FFF754FE206100233C60039329
:100E10001C46CAE7FC840400E584040081840400C5
:100E20002DE9FF411F4613681546064688461B6894
:100E30000422082128469847044610B10023C0E93F
:100E40000033CDE90254A4B9174B019340F6630374
:100E50000093164A164B41464046FFF751FB0124CA
:100E6000039911B102A8FFF759FB204604B0BDE871
:100E7000F0813046FFF72DFC40280FD13046FFF7B8
:100E80008BFB054650B100220421FFF711FE002222
:100E9000206006212846FFF70BFE606000233C60BF
:100EA00003931C46DCE700BFFC840400E5840400D7
:100EB0008184040038B505461446FFF765FB00B190
:100EC0002C56204638BD00002DE9FF411F4613680F
:100ED0001546064688461B68012202212846984787
:100EE000044610B1002303704370CDE90254A4B945
:100EF0001A4B019340F2A5330093194A194B41460E
:100F00004046FFF7FDFA0124039911B102A8FFF74B
:100F100005FB204604B0BDE8F0813046FFF7D9FB61
:100F20000B2815D13046FFF737FB054680B100226C
:100F30000421FFF7BFFFC0B2FFF7F4FA01222070CF
:100F400006212846FFF7BCFB003018BF0120607067
:100F500000233C6003931C46D6E700BFFC840400DA
:100F6000E5840400818404002DE9FF41984613685C
:100F70001546012207460E461B681146284698472B
:100F8000044608B100230370CDE90254A4B9194BFB
:100F900001934FF471730093174A184B3146304652
:100FA000FFF7AEFA0124039911B102A8FFF7B6FAD0
:100FB000204604B0BDE8F0813846FFF78AFB2828B8
:100FC00005D0039BC8F8003000240394EBE73846B3
:100FD000FFF7E2FA0028F4D000220421FFF76AFFAD
:100FE00021463246C0B2FFF7E1FA04460028E8D0B5
:100FF000D9E700BFFC840400E58404008184040078
:101000002DE9FF41984613681546012207460E4612
:101010001B68114628469847044608B10023037010
:10102000CDE90254A4B9194B019340F2DD3300938A
:10103000174A184B31463046FFF762FA01240399EC
:1010400011B102A8FFF76AFA204604B0BDE8F081AA
:101050003846FFF73EFB392805D0039BC8F800301F
:1010600000240394EBE73846FFF796FA0028F4D003
:1010700000220421FFF71EFF21463246C0B2FFF7CF
:1010800095FA04460028E8D0D9E700BFFC840400A4
:10109000E5840400818404002DE9FF411F461368A4
:1010A0001546064688461B680422082128469847AC
:1010B000044610B1002303600371CDE90254A4B9C2
:1010C000184B019340F232430093174A174B4146A5
:1010D0004046FFF715FA0124039911B102A8FFF762
:1010E0001DFA204604B0BDE8F0813046FFF7F1FA62
:1010F0000A2812D13046FFF74FFA054668B10022A0
:101100000621FFF7D7FEC0B2FFF70CFA00222071CC
:1011100004212846FFF7CCFC206000233C600393A9
:101120001C46D9E7FC840400E584040081840400A3
:101130002DE9FF4198461368154607460E461B6881
:101140000422182128469847044618B11822002185
:1011500031F046FFCDE90254A4B9274B019340F288
:101160004D430093254A264B31463046FFF7C8F9D8
:101170000124039911B102A8FFF7D0F9204604B069
:10118000BDE8F0813846FFF7A4FA012806462DD1C4
:101190003846FFF701FA054640B300220421FFF765
:1011A00089FEC0B2FFF7C8F9002220700621284648
:1011B000FFF77EFC0022606008212846FFF778FCDC
:1011C00000220A21A0602846FFF774FEC0B2FFF794
:1011D000A9F9324620730C212846FFF769FC3246F4
:1011E00020610E212846FFF763FC60610023C8F8E8
:1011F000004003931C46BCE7FC840400E584040023
:10120000818404002DE9FF411F46136815460646F8
:1012100088461B6804221C2128469847044618B1BA
:101220001C22002131F0DCFECDE90254A4B9294B87
:10123000019340F2A2430093274A284B414640467F
:10124000FFF75EF90124039911B102A8FFF766F9CF
:10125000204604B0BDE8F0813046FFF73AFA022894
:1012600033D13046FFF798F9054670B300220421C8
:10127000FFF720FEC0B2FFF75FF9002220700621C1
:101280002846FFF715FC0022606008212846FFF77A
:101290000FFC0022A0600A212846FFF709FC00226B
:1012A0000C21E0602846FFF705FEC0B2FFF73AF9CF
:1012B000012220740E212846FFF7FAFB012260610B
:1012C00010212846FFF7F4FBA06100233C60039344
:1012D0001C46B8E7FC840400E58404008184040013
:1012E0002DE9F04398461368154685B081460E46B1
:1012F0001B680122042128469847044608B10023B0
:101300000360CDE90254A4B9264B019340F21D536A
:101310000093254A254B31463046FFF7F1F801246A
:10132000039911B102A8FFF7F9F8204605B0BDE80E
:10133000F0834846FFF7CDF9082807462CD14846E8
:10134000FFF72AF9054638B300220421FFF7B2FD62
:10135000C0B2FFF7E7F80022207039462846FFF7B1
:10136000AFF9003018BF0120A07000220A212846E2
:10137000FFF7A6F9003018BF0120E0700022062117
:101380002846FFF797FD30B1012804D008493046C0
:10139000FFF7A8F8C3E760700023C8F80040039384
:1013A0001C46BDE7FC840400E5840400818404003D
:1013B000B18504002DE9FF411F461368154601223F
:1013C000064688461B68114628469847044608B1D9
:1013D00000230370CDE90254A4B9154B019340F2E8
:1013E00097530093134A144B41464046FFF788F841
:1013F0000124039911B102A8FFF790F8204604B028
:10140000BDE8F0813046FFF764F90C280BD1304677
:10141000FFF7C2F838B100220421FFF74BFDC0B23C
:10142000FFF780F8207000233C6003931C46E0E740
:10143000FC840400E5840400818404002DE9FF415C
:101440001F46136815460122064688461B6811464A
:1014500028469847044608B100230370CDE902549A
:10146000A4B9154B019340F20F630093134A144B38
:1014700041464046FFF744F80124039911B102A800
:10148000FFF74CF8204604B0BDE8F0813046FFF786
:1014900020F915280BD13046FFF77EF838B100222D
:1014A0000421FFF707FDC0B2FFF73CF820700023CE
:1014B0003C6003931C46E0E7FC840400E5840400E0
:1014C000818404002DE9FF411F4613681546064636
:1014D00088461B680422282128469847044618B1EC
:1014E0002822002131F07CFDCDE90254A4B9264B1D
:1014F000019340F261630093244A254B41464046E4
:10150000FEF7FEFF0124039911B102A8FFF706F8C8
:10151000204604B0BDE8F0813046FFF7DAF8052830
:101520002DD13046FFF738F8054640B3002204219C
:10153000FFF7C0FCC0B2FEF7FFFF002220700621BB
:101540002846FFF7B5FA0022606008212846FFF719
:10155000AFFA0022A0600A212846FFF7A9FA00226C
:10156000E0600C212846FFF7A3FA002220610E213B
:101570002846FFF79FFCC0B2FEF7D4FF207500237A
:101580003C6003931C46BEE7FC840400E584040031
:10159000818404002DE9FF41984613681546012215
:1015A00007460E461B68114628469847044608B170
:1015B00000230370CDE90254A4B9194B019340F202
:1015C0002A730093174A184B31463046FEF798FFAE
:1015D0000124039911B102A8FEF7A0FF204604B030
:1015E000BDE8F0813846FFF774F8372805D0039B33
:1015F000C8F8003000240394EBE73846FEF7CCFF30
:101600000028F4D000220421FFF754FC2146324682
:10161000C0B2FEF7CBFF04460028E8D0D9E700BFF0
:10162000FC840400E5840400818404002DE9FF416A
:101630001F4613681546064688461B68012202218C
:1016400028469847044610B1002303704370CDE943
:101650000254A4B91A4B019340F604030093194AAB
:10166000194B41464046FEF74BFF0124039911B147
:1016700002A8FEF753FF204604B0BDE8F0813046D3
:10168000FFF727F81C2815D13046FEF785FF0546E1
:1016900080B100220421FFF70DFCC0B2FEF742FF2B
:1016A0000122207006212846FFF70AF8003018BFF3
:1016B0000120607000233C6003931C46D6E700BF06
:1016C000FC840400E5840400818404002DE9FF41CA
:1016D00098461368154607460E461B6804220821E3
:1016E00028469847044618B10023036003714371EC
:1016F000CDE90254A4B91E4B019340F61E0300939A
:101700001C4A1D4B31463046FEF7FAFE0124039970
:1017100011B102A8FEF702FF204604B0BDE8F08137
:101720003846FEF7D6FF062806461BD13846FEF798
:1017300033FF0546B0B100220421FFF7B9F90022BA
:10174000314620602846FFF7B5FBC0B2FEF7EAFE3F
:101750000022207108212846FEF7B2FF003018BF92
:10176000012060710023C8F8004003931C46CEE7B7
:10177000FC840400E5840400818404002DE9FF4119
:101780001F4613681546064688461B6804220C212E
:1017900028469847044618B10023C0E90133037076
:1017A000CDE90254A4B91C4B019340F64B030093BE
:1017B0001A4A1B4B41464046FEF7A2FE01240399FC
:1017C00011B102A8FEF7AAFE204604B0BDE8F081E0
:1017D0003046FEF77EFF312818D13046FEF7DCFE9A
:1017E000054698B100220421FFF764FBC0B2FEF762
:1017F000A3FE0022207006212846FFF759F9002297
:10180000606008212846FFF753F9A06000233C6080
:1018100003931C46D3E700BFFC840400E584040066
:101820008184040038B504461546FEF7ADFE08B1C4
:1018300004442568284638BD2DE9FF411F4613683A
:1018400015460422064688461B68114628469847D6
:10185000044608B100230360CDE90254A4B9144B37
:10186000019340F2AF530093124A134B4146404656
:10187000FEF746FE0124039911B102A8FEF74EFEC1
:10188000204604B0BDE8F0813046FEF722FF4B2829
:1018900008D13046FEF780FE20B100220421FFF778
:1018A000C1FF206000233C6003931C46E3E700BFB8
:1018B000FC840400E5840400818404002DE9FF41D8
:1018C0001F46136815460422064688461B681146C3
:1018D00028469847044608B100230360CDE9025426
:1018E000A4B9144B019340F24C730093124A134B6A
:1018F00041464046FEF704FE0124039911B102A8B7
:10190000FEF70CFE204604B0BDE8F0813046FEF73D
:10191000E0FE092808D13046FEF73EFE20B1002245
:101920000421FFF77FFF206000233C6003931C46E7
:10193000E3E700BFFC840400E58404008184040024
:101940002DE9F843984605460023C8F80030914633
:101950000F4620F0A5FA2B68EB1A06461A88082ACB
:101960000CD9198951B16C58912E09D932461C49AC
:101970004846FEF7B7FD0120BDE8F8830124F3E7F0
:10198000202E11D03B6822461B68314638469847C6
:10199000C8F8000008BB134A134952F82620234612
:1019A0004846FEF79FFDE6E7062A05D9DB88E918D9
:1019B00013B1EB58C91804D10C494846FEF792FD03
:1019C000D9E73B6822465B68043138469847C8F837
:1019D0000000B0FA80F04009CEE70020CCE700BF5D
:1019E00028880400DC8504007C8804001E8904002B
:1019F000836810B41BB9036D5DF8044B184703EB03
:101A000081105DF8044B7047C0EE807A73B50446D0
:101A100015460E4617EE900A2CF0F4FE2DF09AFFB4
:101A20002DF040FA9FED117A07EE900AF4EEC77A96
:101A3000F1EE10FA0FDB9FED0E7AF4EEC77AF1EEBD
:101A400010FA08D8FDEEE77A002017EE901A31441C
:101A5000296002B070BD074B009320466569064AB5
:101A600006494FF4AC73A8470120F2E7000000CF0D
:101A70000000004FC98F0400718F0400E58404004A
:101A800070B515460A1E044601DBAA4206DB6669EC
:101A900008492B462046B047012070BD53F822303C
:101AA000591C03D1436904499847F5E7049A00207B
:101AB0001360F2E7158F04003F8F0400002804DB59
:101AC000884202DA52F8200070474FF0FF3070472A
:101AD0000B6810B51968044610461A1DFFF7EEFF93
:101AE000011E04DB2046BDE81040FFF781BF002047
:101AF00010BD7FB514461D460A6803AB009321460E
:101B0000131D12680646FFF7BBFF044620B9039970
:101B10003046FFF76DFF2860204604B070BD4B686B
:101B200010B51968044610461A1DFFF7C7FF011EBD
:101B300004DB2046BDE81040FFF75ABF002010BD6F
:101B40007FB514461D464A6803AB00932146131D1A
:101B500012680646FFF794FF044620B90399304601
:101B6000FFF746FF2860204604B070BDFFF7B0BF06
:101B7000D1ED037A92ED037A67EE877A73B5F5EECD
:101B8000C07AF1EE10FA1E460ADA0F4B0093446950
:101B90000E4A0F494FF4A573A047012002B070BD53
:101BA00017EE900A2CF02EFE0446F0680D462CF03D
:101BB00029FE0B460246294620462CF0A5FF069B2F
:101BC000C3E900010020E9E7EF8F0400718F0400F2
:101BD000E5840400000000002DE9F74F0446C868C2
:101BE00090469A460D462CF00DFE0646D8F80C009D
:101BF0000F462CF007FE02460B46304639462CF0C5
:101C000059FEDDE90C9B06460F46BAF1000F1CD0C9
:101C1000DAF80C002CF0F6FD02460B463046394649
:101C20002CF090FC0646D9F80C0021F000472CF06F
:101C3000E9FD02460B46304639462CF065FF13A3FA
:101C4000D3E900232DF0B2F850B14B464246294665
:101C50002046CDF830B003B0BDE8F04FFFF788BFA5
:101C6000074B009320466569064A074940F23D1339
:101C7000A847012003B0BDE8F08F00BFAFF300809C
:101C800008900400718F0400E58404007B14AE47C3
:101C9000E17A943F2DE9F0432DED028B99461378BC
:101CA00085B0032B0646DDF8388011D0092B2BD0E8
:101CB000072B2DD03B4B009344693B4A3B494FF4E3
:101CC000C873A047012005B0BDEC028BBDE8F083CE
:101CD000FF240025012992ED038A17691CD103AA6C
:101CE000DFED330A3946B0EE480A3046FFF78CFE86
:101CF0000028E8D1039BAB42ACBFC9F80030C9F85B
:101D00000050C8F80040DEE77F246FF07F05E1E770
:101D100047F6FF74274DDDE7032924D103AADFED41
:101D2000240A3946B0EE480A3046FFF76DFE002817
:101D3000C9D1039BAB42ACBFC9F80030C9F8005011
:101D400003AAF1EE080A3946B0EE480A3046FFF71A
:101D50005BFE0028B7D1039BA342D4BFC8F8003074
:101D6000C8F80040AFE7022915D103AAFFEE000A28
:101D70003946B0EE480A3046FFF746FE0028A2D1A9
:101D8000039BAB42ACBFC9F80030C9F8005003AAAE
:101D9000F7EE000AD7E7C9F800500020C8F8004065
:101DA00091E700BF2A900400718F0400E5840400CD
:101DB000000000000080FFFF2DE9F04F91F8309007
:101DC0008FB0B9F1010F04460D4617469B46DDF86A
:101DD00080800FD001266D4B0193CDE902966C4BAC
:101DE00000934469DA236B4A6B49A04701200FB086
:101DF000BDE8F08F92F83060012E08D0634B01935C
:101E0000CDE90269654B00934469DC23EBE7526B33
:101E10003AB9634B00934469E6235E4A6149A0479F
:101E2000E4E7D2F80090B9F1000F04D15E4B0093C3
:101E30004469E723F1E7D9F800A0BAF1010F35DDD5
:101E40000B78092B06D0072B04D0584B009344691C
:101E5000EC23E2E73B78092B0DD00922CDE90232D1
:101E6000534B0193534B00936569ED23494A4A490B
:101E70002046A847BAE7D04508D04F4B0193CDE99B
:101E800002A84E4B00936569EE23EFE7BB689268AA
:101E900003EB82035B68984508D0CDE90283484B89
:101EA0000193454B00936569F123DFE7D5ED037A94
:101EB000189BCDED057AD3ED037A09F10403CDED3E
:101EC000067A07930026B0452EDDBAF1010FC9BF8F
:101ED000079BD9F8040003EB860318682CF092FCEA
:101EE000CDE9080105982CF08DFC02460B46DDE992
:101EF00008012CF0DFFCCDE9080106982CF082FCEB
:101F000002460B46DDE908012CF0FEFD0CAB0BAAE6
:101F100000F062F81E9A0B9B42F826301F9A0C9B29
:101F200042F826300136CEE72B78032B1AD10EABC0
:101F30000020002163E902010193189B00933A46B7
:101F40005B4629462046FFF747FE00287FF44FAF47
:101F50000BAB1A9ADDE90C0100F03EF80B9B1B9AC3
:101F60005B4213602B78092B03D003F0FB03032B98
:101F700009D1199B189A19781D9B009320461C9B28
:101F8000FFF788FE33E7002031E700BF4A900400E6
:101F900064900400718F0400309004007D90040070
:101FA00097900400E5840400AB9004008BB104001A
:101FB0009CAE0400C6900400D3900400E09004009E
:101FC0000191040008B589688068FEF771FA003055
:101FD00018BF012008BD0000F8B515461C460022B8
:101FE000002306460F462CF0CDFE18B100232B60CF
:101FF0002360F8BD2246304639462DF079FC002298
:10200000104B2CF057FC2DF0A5FC2DF003F84FF0F1
:1020100000420023824273EB010601DA2FF038FB05
:10202000994201BF9042236801332360236808BFAF
:102030004FF080401F33BEBF002300202360286084
:10204000D7E700BF0000E041F8B515461C46002266
:10205000084B06460F462CF0BDFE08B92FF018FBC2
:1020600023462A4630463946FFF7B6FF2368002B41
:10207000F4DBF8BD0000F03FF7B517461E4600221E
:102080000D4B04460D462CF087FE08B92FF000FBDF
:1020900000220023204629462CF09CFE0028F5D083
:1020A00001AB3A4620462946FFF796FF019B002BDD
:1020B000ECDC336003B0F0BD0000F03F0000000036
:1020C0002DE9F14F06460A989946C0F11F000123F9
:1020D00003FA00F00F4690462CF082FB424604467D
:1020E0000D464B46304639462CF0E4FB02460B4683
:1020F000204629462CF0DEFB0BA3D3E90023DDE9C3
:102100000BAB04460D462CF065FE10B106A5D5E9D3
:1021100000455B4652462046294601B0BDE8F04FD7
:10212000FFF792BFAFF300800000C0FFFFFFDF4169
:102130002DE9F8430124814604FA00F0013888466D
:1021400015462CF04DFB0646A5EB09000F46C0F1E5
:102150002003A0F1200124FA03F304FA01F104FAA8
:1021600000F019432CF078FB02460B463046394606
:102170002CF0A0FBC8F120030F46A8F1200124FA9F
:1021800003F304FA01F10646194304FA08F02CF0AF
:1021900063FB02460B46304639462CF0B5FC2DF069
:1021A00027FB2CF037FEBDE8F8830022C0E90022AF
:1021B000826070470120704703689B691847036875
:1021C000DB691847202930B50FD041F20403C45809
:1021D00000239C4209D05A018518AD698D4202D175
:1021E0000432104430BD0133F3E70020FAE741F236
:1021F000882300F5805230B50832C45800239C4231
:102200000AD012F8015B8D4204D103F2224350F848
:10221000230030BD0133F2E70020FAE741F2040366
:102220002DE9F041C7580446884605460026B742C6
:102230000FD0AB69202B09D14146E86931F034F960
:1022400020B904EB46100430BDE8F081013620359A
:10225000EDE70020F8E7000020292DE9F0470546CA
:102260008846144699460AD141F28C23C05810B9C9
:102270000120BDE8F0872249FEF734F9F8E703684A
:102280009B699847074648B141F28C23E8580028DB
:10229000EED042461B49FEF725F9E9E741F2040E6C
:1022A00055F80EC0BCF17F0F0AD941F28C23E858D3
:1022B0000028DDD0802342461349FEF713F9D7E703
:1022C0000FCC05EB4C1A0AF104060FC694E80F0078
:1022D00086E80F0041F288220CF10103CAF8188049
:1022E00045F80E30AB5841F20801E81800F80180BB
:1022F00003F22241013345F821903846AB50B8E74C
:1023000089910400CE9104001D9204002DE9F04152
:1023100041F20406054683597F2B884614460CD9A2
:1023200041F28C23C05810B90120BDE8F0810A4663
:1023300080231249FEF7D6F8F6E70368DB69984771
:10234000074648B141F28C23E8580028ECD04246B9
:102350000B49FEF7C7F8E7E7AB595A1CAA5105EB42
:1023600043150FCC2E1D0FC694E80F0086E80F0012
:102370002023C5E906383846D7E700BF609204003D
:10238000A292040041F2040330B50025C55041F289
:10239000882389B0C55041F28C230446C550E34BD5
:1023A0000360684609F090FCE14B6A4665212046CF
:1023B000FFF752FF684617F0C3FB2946DD4B6A461C
:1023C0002046FFF749FF684602F07CFEDA4B6A467A
:1023D0006A212046FFF740FF684603F025F9D74BF6
:1023E0006A4638212046FFF737FF684603F026F992
:1023F000D34B6A464F212046FFF72EFF68461AF05E
:102400003FFAD04B6A4601212046FFF725FF684678
:1024100003F01CFACC4B6A4625212046FFF71CFF2F
:10242000684603F0DDFCC94B6A4668212046FFF789
:1024300013FF684606F0F6FEC54B6A4602212046A9
:10244000FFF70AFF684618F0CBFCC24B6A4603212F
:102450002046FFF701FF684609F052FCBE4B6A4672
:102460006C212046FFF7F8FE684607F041FDBB4BA4
:102470006A4680212046FFF7EFFE684607F000FF1E
:10248000B74B6A4605212046FFF7E6FE684619F07D
:10249000B9F9B44B6A4604212046FFF7DDFE6846D1
:1024A00008F0D0FAB04B6A4606212046FFF7D4FE6A
:1024B00009F084FAAD4902462046FFF727FF684637
:1024C00009F09CFDAA4B6A466F212046FFF7C4FE27
:1024D000684603F049FDA74B6A4647212046FFF7AF
:1024E000BBFE09F099FD054630B109F097FD2A467B
:1024F00001462046FFF70AFF684609F0EFFD6A46ED
:102500009D4B08212046FFF7A7FE684609F08AFE8A
:102510006A469A4B5A212046FFF79EFE68460AF00B
:1025200079F86A46964B5F212046FFF795FE68468C
:1025300019F0D0FB6A46934B09212046FFF78CFE29
:10254000684603F02DFD6A468F4B3D212046FFF77C
:1025500083FE684603F032FD6A468C4B3E212046DE
:10256000FFF77AFE68460AF009FA6A46884B752139
:102570002046FFF771FE68460BF046FA6A46854B27
:102580000B212046FFF768FE68460BF037F96A46D4
:102590006C4B0C212046FFF75FFE68460BF0FEFDFA
:1025A0006A467D4B62212046FFF756FE684603F0DF
:1025B00013FD6A46794B3A212046FFF74DFE6846E7
:1025C00003F018FD6A46764B3F212046FFF744FE94
:1025D000684609F0A3FB6A46724B49212046FFF783
:1025E0003BFE68460BF07CFF6A466F4B5621204647
:1025F000FFF732FE684609F0C9FB6A466B4B57216C
:102600002046FFF729FE68460BF060FF6A46684BDC
:1026100054212046FFF720FE68460CF009F96A466F
:10262000644B0E212046FFF717FE68461AF036F974
:102630006A46444B11212046FFF70EFE68460CF017
:1026400051FB6A465C4B37212046FFF705FE684682
:102650000FF006FC6A46594B28212046FFF7FCFD87
:1026600068460CF049FB6A46554B39212046FFF776
:10267000F3FD684619F034FC6A46524B122120469D
:10268000FFF7EAFD68460DF0C1F86A464E4B3B2164
:102690002046FFF7E1FD684603F074FC6A464B4BA9
:1026A00048212046FFF7D8FD68460DF073FA6A46C8
:1026B000474B53212046FFF7CFFD68460DF072FCD3
:1026C0006A46444B22212046FFF7C6FD68460DF0BE
:1026D00077FC6A46404B3C212046FFF7BDFD68462B
:1026E0000EF0F6FB6A463D4B36212046FFF7B4FD5F
:1026F00068460EF08BFE6A46394B72212046FFF782
:10270000ABFD68460FF0BAFB6A462C4B52212046BF
:10271000FFF7A2FD684602F06BFA6A46314B1321BF
:102720002046FFF799FD68465EE000BF489104002F
:1027300025060100C90E010029060100690F0100EC
:1027400001100100C51401002D0601003106010031
:10275000991001003111010035060100390801000E
:10276000C50A010005120100390601006C91040040
:102770003D06010041060100450601004906010031
:102780004D060100E112010051060100550601004D
:1027900059060100B5130100391801005D0601005A
:1027A0006106010065060100690601006D06010071
:1027B000710601007506010079060100D9080100C3
:1027C0007D0601003D14010081060100850601001F
:1027D000490B0100890601008D06010091060100E8
:1027E000950601009906010002F010FA6A46674B4F
:1027F00015212046FFF730FD684610F0A1FB6A4620
:10280000634B16212046FFF727FD684610F0A0FC19
:102810006A46604B17212046FFF71EFD684611F0FF
:10282000B3F86A465C4B61212046FFF715FD684608
:1028300011F0F6FB6A46594B74212046FFF70CFD58
:10284000684609F087FA6A46554B4C212046FFF747
:1028500003FD684611F050FC6A46524B4D2120465C
:10286000FFF7FAFC684609F03DFA6A464E4B4221F2
:102870002046FFF7F1FC68461AF0AAF86A464B4B6F
:1028800019212046FFF7E8FC684612F031F86A4645
:10289000474B26212046FFF7DFFC684612F0EAFA94
:1028A0006A46444B1A212046FFF7D6FC684612F0D0
:1028B0006FFC6A46404B31212046FFF7CDFC68464D
:1028C00012F06AFF6A463D4B66212046FFF7C4FCC2
:1028D000684609F031FA6A46394B4B212046FFF72A
:1028E000BBFC684609F044FA6A46364B5C21204638
:1028F000FFF7B2FC684613F0B7FA6A46324B2B2159
:102900002046FFF7A9FC684613F0ACFC6A462F4B43
:102910002D212046FFF7A0FC684614F009FB6A460B
:102920002B4B29212046FFF797FC68461AF04AFFF7
:102930006A46284B1B212046FFF78EFC684615F09F
:102940002BF96A46244B1C212046FFF785FC68467C
:1029500016F046FE6A46214B43212046FFF77CFCD9
:10296000684615F011FD6A461D4B27212046FFF7EA
:1029700073FC684616F0BCFF1A4B6A465821204685
:10298000FFF76AFC204609B030BD00BF9D0601007C
:10299000E106010061090100090A0100A106010028
:1029A000A506010095150100A9060100BD1801004A
:1029B000AD060100DD0B0100610C0100E50C01001A
:1029C000B1060100B506010089070100690D01008B
:1029D0002D160100CD160100B90601007D1701007A
:1029E000BD060100210E01004B1E1844B0FBF1F0A2
:1029F00048437047B0FBF1F0484370470138084442
:102A0000B0FBF1F04843704701380F2815D8DFE8D4
:102A100000F00C0C100E1410080E10080E120E14FC
:102A2000140C02230B60002070470423FAE70823EC
:102A3000F8E70123F6E71023F4E7012070472DE9BA
:102A4000F3410D460168411A16460A88042A2ED918
:102A50008C8800EB040C8CB104591CEB04070DD0DE
:102A60005CF804804FF0000C0124C44507D057F8EF
:102A700004EF0CF1010C0EFB04F4F6E70124062A26
:102A800016D9C988B1B140561A460DF10701C0B236
:102A9000FDF78CFD40B931469DF80700FFF7B4FF04
:102AA00010B933685C432C6002B0BDE8F0810124AA
:102AB0000020E9E70846E7E7436873B50C4653B1E1
:102AC00053F8046B002101228E4205DD53F8045BAC
:102AD00001316A43F8E7012201A9007AFFF794FF68
:102AE00010B9019B5A43226002B070BD4068036870
:102AF000DB68184770477047406803681022DB683E
:102B00001847406803685B691847406803680422F7
:102B1000DB6840211847704710B51C21044626F099
:102B20002BFF204610BD10B50821044626F024FFD7
:102B3000204610BD436910B50C46114633B14068BC
:102B400003680422DB68890098472060002010BDDC
:102B500010B508210446FDF717FD231808B12058C9
:102B6000184410BD10B50A210446FDF70DFD2318C9
:102B700008B12058184410BD10B506210446FDF7D1
:102B800003FD00B12056C0B210BD10B50E210446A1
:102B9000FDF7FAFC00B1205C003018BF012010BD29
:102BA00010B504210446FDF7EFFC231808B12058A6
:102BB000184410BD10B508210446FDF7E5FC2318A4
:102BC00008B12058184410BD38B503680D46DB68BD
:102BD00004221C210446984738B1044BC560C0E963
:102BE00000340023C0E90533037438BDA8970400FE
:102BF00070B50E46102115460446FFF7F5FEA219E2
:102C00000146121A284601F0E9FC2946BDE8704049
:102C1000FFF7DABF002343614068036804229B6822
:102C200060211847037C70B504460E462BB11E493F
:102C3000C068FDF757FC002522E0012303744068BB
:102C400003680422DB680821984718B16368174AB3
:102C5000C0E90023A0602046FFF7DCFF0028EAD18E
:102C60003046FFF7A7FF656801682B682846DB68D8
:102C70000422C9009847054620B90D4800F0BEFD62
:102C8000284670BD23680246DB69314620469847D6
:102C90000028D0D123682A469B69314620469847B0
:102CA0000028EDD0C7E700BF3A93040090970400D6
:102CB0008F93040008B5406801F0B4FC0421BDE81E
:102CC0000840FFF791BE00002DE9F0410446884618
:102CD0001F46FFF7EFFF002265691646954207D0B1
:102CE00000EBC20301325B68013308BF0136F5E730
:102CF0000B2E07D90C220A49E068FDF7F3FB0120EF
:102D0000BDE8F08100EBC5034FF0FF3240F835809D
:102D10005A603D606369013363610020F0E700BFE2
:102D2000FF950400036870B59B6804460D469847FC
:102D30002046FFF7BFFF61690022914206D0436839
:102D4000013308BF456001320830F6E76068036868
:102D50000C319B680422C900BDE87040184711601F
:102D6000002070478068704708B50368994206D311
:102D7000054B064A06484FF483712EF091FC00EB98
:102D8000C100D0E9010108BD119704008A9C04002C
:102D90001C97040008B50368994206D3054B064A00
:102DA00006484FF483712EF07BFC00EB81004068F5
:102DB00008BD00BF11970400BC9B04001C970400D1
:102DC00008B50368994206D3064B074A07484FF4F3
:102DD00083712EF065FC043000EB810250F8210075
:102DE000104408BD11970400D29804001C970400F9
:102DF0002DE9F74305468846164600244FF00C0996
:102E00004046FFF7CDFE03689C421FD22146FFF7E4
:102E1000D7FFFFF7BAFEB8B109FB04F701A9F01913
:102E2000FFF74AFE68B96868019903681022DB68F9
:102E30009847F05140B9019A0549E868FDF752FBFF
:102E4000012003B0BDE8F0830134D9E70020F8E7A2
:102E50000C93040008B50368994206D3064B074A51
:102E600007484FF483712EF01BFC043000EB810205
:102E700050F82100104408BD11970400C29A0400C4
:102E80001C9704002DE9F3479846037C04460F463F
:102E90003BB3154600263846FFF78CFE03689E427A
:102EA00027D23146FFF7D6FF236862691B6B814644
:102EB000414620469847C8B923680096D3F82CA00D
:102EC0006A68D8F8003039462046D04770B9236880
:102ED0006A681B6A494620469847083530B901366A
:102EE000D9E70549C068FDF7FDFA012002B0BDE849
:102EF000F08700202074F9E7BD9304002DE9F84F16
:102F000005468846174600244FF02C094046FFF737
:102F100051FE03689C4221D22146FFF79BFF6E6859
:102F200033680A218246D3F80CB0FDF72DFB0AEB7B
:102F30000002A8B15AF80030D1583046042209FBEB
:102F400001F1D84730B90749E868FDF7CBFA01200D
:102F5000BDE8F88F47F834000134D7E70020F7E7E1
:102F60000368FFDE359604002DE9F74F0C9F0546F8
:102F70000846164698468A46FFF71CFE3946FFF774
:102F800069FF2B6828465B6A4FF000099847CDE936
:102F900000792B680446D3F828B0024643465146D0
:102FA0002846D84740B10B49E868FDF79BFA4C46E4
:102FB000204603B0BDE8F08F002EF9D006EBC7061F
:102FC0000C23726803FB08F3D118D35863604B6875
:102FD000A360EDE76B9604002DE9F3470A9F0646D0
:102FE0000846984689461546FFF7E4FD3946FFF73F
:102FF00031FF7068036804221B6940219847012251
:10300000CDE9007233680446D3F828A0024643464F
:1030100049463046D04740B10B49F068FDF762FAA7
:103020000024204602B0BDE8F087002DF9D005EB62
:10303000C7050C236A6803FB08F3D118D3586360F3
:103040004B68A360EDE700BF5595040008B5036821
:10305000994206D3064B074A07484FF483712EF076
:103060001FFB043000EB810250F82100104408BD22
:1030700011970400DC9704001C97040038B50C4637
:1030800008210546FDF780FA88B129582046FFF748
:10309000DDFF044650B10421FDF776FA221828B16D
:1030A0002358D11805D0D05800B1081D38BD0146AD
:1030B000ECE70846FAE710B50446FDF765FA231871
:1030C00008B12058184410BD2DE9F7430B9C9046D9
:1030D000054640220E46204600211F462FF080FF65
:1030E0004046FFF749FD0A9A2146FDF75FFA00289E
:1030F00054D14046FFF749FD394684F82D0040463B
:10310000FFF7BCFF606000284BD10223237501AAA2
:103110000A9B04F118014046FFF791FC00283DD1BD
:1031200004214046FFF7C7FF00283CD13E4BA36077
:103130000C214046FDF728FA08EB000770B358F859
:1031400000003F18384629D0FFF702FD80460028CE
:1031500068D0006810B33846FFF704FDF0B100688E
:10316000E0B1D8F80430E3603846FFF7FBFC0021FB
:10317000FFF7FAFD20613846FFF7EAFC2B68D0F82C
:10318000008096B11B6904220C2128469847064608
:10319000B8B926490A98FDF7A5F9012003B0BDE8A2
:1031A000F0830123B2E7A060C2E7DB6804220C21B0
:1031B0002846984706460028EBD02B68D3F80C9099
:1031C00002E02B68D3F810904046FDF755F9042231
:1031D00001462846C8470546706008B91449D9E732
:1031E0003846FFF7B5FC306045F8048B4FF0000916
:1031F000C8450ADD3846FFF7B5FC4946FFF7B4FD80
:1032000045F8290009F10109F2E710213846FDF7D8
:10321000BBF900B13858B060012384F830306663E0
:103220000020BBE7BAE700BFF0920400B5960400A7
:10323000E39604002DE9F041069C26460D46002148
:10324000C4E9001146F8081F984628461746FFF7BC
:1032500093FC31464246FDF7A9F9064658B939466E
:103260002846FFF70BFF042120602846FFF723FFC5
:1032700020B9034B63603046BDE8F0816060FAE737
:10328000F092040010B50446FDF77EF9231808B14A
:103290002058184410BD10B50446FDF775F92318E1
:1032A00008B12058184410BD2DE9F04104460846E5
:1032B00090461F460D46FFF77DFC06999DF81C6061
:1032C000FFF7C8FDFFF76CFC3946FFF779FD0C21CD
:1032D00007462846FFF7DFFFE3680693CDF81C801A
:1032E00003463A4631466068BDE8F041FFF7ECBE60
:1032F0002DE9F04F85B006468846039200254FF031
:103300000C094046FFF756FC03689D423DD2294612
:10331000FFF7A0FD0290FFF743FCD0F800A0706813
:10332000036809FB0AF4DB68042221469847074634
:1033300040B917492246F068FDF7D4F8012005B0DE
:10334000BDE8F08F0024544519D00298FFF728FCFF
:103350002146FFF735FD0C2183464046FFF79BFFD2
:1033600009FB047300930246F36870685946FFF73F
:1033700061FF10B122460749DDE70134E3E7039B13
:1033800003EBC50301355F60BBE70020D7E700BF53
:1033900099950400E09504002DE9F04F97B004469C
:1033A0000846934609938846FFF704FC2099FFF7E7
:1033B00051FD0290FFF7F4FB626903686068D3185F
:1033C0001826059373430393036803991B6904222A
:1033D0009847064648B9039AB449E068FDF782F871
:1033E0000122104617B0BDE8F08F0298FFF7D8FB16
:1033F00003680493636906931021E36807934046CA
:10340000FDF7C2F808EB0001002846D058F800206C
:103410008B1871D08A5808924FF000091F1DCA46B8
:10342000089B53453AD03D4604212A681544284656
:10343000FDF7AAF804372A1808B1285810441722B3
:103440009B49043030F00AFA20BB0C214046FFF7BC
:1034500022FF062181462846FDF796F8C0B129587B
:103460004846FFF7F3FD04210546FDF78DF82B18BC
:10347000002800F096812858034403F11009DA6807
:10348000049B934206D08B490798FDF72BF8A7E7DA
:103490000146E5E70AF1010AC2E78146DA46B0468D
:1034A000374600254FF0FF3B049BAB4229D0C7F8BD
:1034B00004A039465046FFF7FFFA0246002890D193
:1034C000DAF80010C7E902BB51B90298FFF768FBB0
:1034D0002946FFF775FCFFF758FB80F00102D2B2D6
:1034E0003A75B9F1000F09D059F825203A61013534
:1034F00018370AF10C0AD7E79946CFE7C7F810B09A
:10350000F5E74FF0000A4FF01809574606210298D8
:10351000FFF7D1FD0368534508D95146FFF73AFC40
:1035200009FB00600AF1010A8760EFE74FF0000A2B
:103530004FF0180908210298FFF7BDFD0A218346C4
:103540000298FFF79FFEDBF800300768534507F14C
:10355000FF3712D84FEA8709002FC0F2BB800A213B
:103560000298FFF78FFE03689F4210D3524B534AD5
:1035700053484FF483712EF093F851465846FFF7A5
:1035800009FC09FB00600AF1010AC760D2E70430B8
:1035900000EB090A50F809304FF0000B9A4406215D
:1035A0005046FFF788FD02685A450ED95946FFF785
:1035B000F1FB182303FB0060C268511C01D0974245
:1035C00000DDC7600BF1010BE9E74FF0000B0821AC
:1035D0005046FFF770FD02685A450ED95946FFF76D
:1035E000D9FB182303FB00608268531C01D097426B
:1035F00000DA87600BF1010BE9E7013FA9F104094B
:10360000AAE71021606801F00FF8054660680368BA
:1036100029461B6910229847014658B9E168294B91
:10362000019340F2CE330093274A284B0846FCF71B
:1036300067FFD5E62A460BA81AF018F9D4F80C90C3
:1036400035460027059BBB426BD02B7D13B9013754
:103650001835F7E710212868FFF7D0F92B69591CB6
:1036600002460FD1EB680093AB6849460BA81AF0ED
:10367000C1F802460028EAD00BA802921AF0B0F86E
:10368000029AAEE60193EB680093AB6849460BA83B
:103690001AF008F9EDE70BA81AF003FA2B460246D8
:1036A0000B493846FCF71EFF0122E5E708940400A9
:1036B000F49204004994040011970400C89904008E
:1036C0001C970400EE940400E58404009494040024
:1036D000079504002046FFF7EDFA6FF0070202FBA2
:1036E0000500069A099918232A4403FB05639646A8
:1036F0004FF0FF3C0127AE4503F1180381D950F884
:10370000352043F8182C00EBC50243F8141C52680E
:1037100043F808CC43E9042203F8047C0135043162
:10372000E9E7606803685B6998471021606800F00A
:103730007BFF05460BA81AF0B4F9A842E768AAD89F
:10374000606800F06FFF039B81461E4400254FF028
:10375000FF3A464516D098F8143083B12A460AAB92
:1037600039460BA8CDF828A01AF0B8F9024600286F
:1037700082D10A9BD8F804204B441360013508F12C
:103780001808E6E70BA81AF08CF9A369834200D267
:10379000A0616068A169036810229B68984702468F
:1037A0006AE7C368FFDE00BF00B5C1B00B46024642
:1037B0004FF48071684600F055FD684600F042FF06
:1037C000024800F03FFF41B05DF804FB53070500DD
:1037D00000B5C1B0134668460A464FF4807100F048
:1037E00041FD684600F02EFF034800F02BFF00204B
:1037F00041B05DF804FB00BF530705000FB407B5E7
:1038000004A951F8040B0191FFF7CEFF03B05DF856
:1038100004EB04B0704700004369202B01D180699C
:103820007047DBB2912B9ABF024A52F8230002483C
:10383000704700BFDC85040080030500704710B5A9
:103840001C21044626F098F8204610BD002310B530
:103850000446C0E9003222B1136810469B689847BD
:103860002060204610BD10B50446406818B10368BA
:103870002168DB689847204610BD01617047000051
:103880002DE9F04F074685B000264FF00C0BB869C4
:1038900003689E4265D23146FFF7DCFA4FEAC6095B
:1038A0008046002504214046FCF76EFE08EB00012F
:1038B00000285BD058F800208B188A5895424ED2C9
:1038C000043303EB850453F825301C440E212046B5
:1038D000FCF75AFE00283CD0235C002B39D03B6912
:1038E0004B440BFB05FA586803A95044FFF7E4F872
:1038F0000346002836D1019006212046FCF744FEFD
:1039000048B32256019B092A27D10C212046FCF7F7
:103910003BFE231890B124581C440A212046FCF792
:1039200033FE221810B32358D118D35843B9104B83
:10393000104A11484FF483712DF0B2FE0446ECE7B3
:1039400049683B69039A4B445B6853F80A002FF0BF
:1039500047FB0135A6E70146F3E71946F1E70136D3
:1039600095E70023184605B0BDE8F08F0368FFDE39
:10397000119704004C9E04001C9704002DE9F74F9A
:103980000446D0F8148080696161026891420F4654
:1039900007D32448FFF732FF0125284603B0BDE8CE
:1039A000F08FFFF757FAFF00814600264FF02C0AF0
:1039B0000A214846FFF766FC03689E422ED223691F
:1039C000DD590AFB0655D5F828B05846FFF724FF05
:1039D000636801465A6B6846FFF738FF2946DBF8F3
:1039E0000C30606898470546E06803689B68984714
:1039F000012D0CD15846FFF70FFF2B4601463246EA
:103A00000948FFF7FBFE6846FFF72DFFC5E7002DCD
:103A1000F9D16846FFF727FF0136C9E7C4F81480DB
:103A20000025BAE7789D0400AA9D04002DE9F0471F
:103A30004769044600254FF02C08A06903689D42A1
:103A40001ED265612946FFF705FA4FEAC50A81468D
:103A500000260A214846FFF715FC03689E420DD256
:103A6000236953F80A3008FB06339A6A22B1526878
:103A700012B11969606890470136EAE70135DCE761
:103A800067610020BDE8F0872DE9F84FD0F8148079
:103A9000054600264FF02C09A86903689E4224D2EF
:103AA0006E613146FFF7D6F94FEAC60B8246002712
:103AB0000A215046FFF7E6FB03689F4213D22B69A9
:103AC00053F80B4009FB0744A36A61695A691B68F4
:103AD000202A0CBFD4E90612002213B16868984767
:103AE00020610137E4E70136D6E7C5F814800020ED
:103AF000BDE8F88F2DE9F84F4769044600254FF0DF
:103B00002C08A06903689D4230D265612946FFF701
:103B1000A1F94FEAC50A814600260A214846FFF767
:103B2000B1FB03689E421FD2236953F80A1008FBB9
:103B30000611D1F828B0DBF808307BB160689847EF
:103B4000014658B15846FFF767FE32460B4601461C
:103B50000848FFF753FE0120BDE8F88F3146E068C2
:103B6000FFF7E0F80136D8E70135CAE767610020C2
:103B7000F2E700BFDE9D040010B50446FCF704FD2B
:103B8000231808B12058184410BD70B50C460546DE
:103B9000082180681646FFF7EFFF2146FFF75AF924
:103BA0000621FFF788FA3146FFF7F4F8296901EB9F
:103BB000C4010C224B6802FB003070BD08B508211F
:103BC0008068FFF7D9FF006808BD10B580680C4613
:103BD0000821FFF7D1FF2146FFF73CF90621FFF747
:103BE0006AFA006810BD10B580680C460821FFF71E
:103BF000C3FF2146FFF72EF90821FFF75CFA0068A2
:103C000010BD000010B504460748C4E90223002394
:103C1000C4E90001C4E9043322B108211046FFF7CA
:103C2000ABFFA061204610BD1C9E040070B50C4681
:103C30000546082180681646FFF79EFF2146FFF7DC
:103C400009F90821FFF737FA3146FFF7A3F8296988
:103C500001EBC4010C224B6802FB003070BDC3684D
:103C6000586E0368DB681847C368D3F8883053F888
:103C70002100704737B5C468606EE26F0368009238
:103C80005D68A26F0B462168A84703B030BDC268CB
:103C9000D2E91E3003EBC0030C205B6800FB01304F
:103CA0007047C36868330B6000207047C0681346D4
:103CB000C26F406EFFF708B80EB403B5C3689868CA
:103CC00003AA036852F8041B01929B68984702B04C
:103CD0005DF804EB03B070472DE9F041079F876062
:103CE00000F10C0504469846C0E900120E46582221
:103CF000002128462FF074F93A4606994046FEF70F
:103D000077FF324603466066294604F16800FFF7F4
:103D100079FF0A4A22620A4AE2650A4A22660023B9
:103D2000089A84F88430C4E92233C4F89030A4613E
:103D3000226484F885302046BDE8F081B93C01005A
:103D4000753C01008F3C010008B50821FFF714FF06
:103D50000021FFF77FF80821FFF7ADF9006808BDE3
:103D600038B5054600680C46FFF7EEFFA042034653
:103D700006D822460549A868FCF7B4FB002038BDE8
:103D8000D5F8903053F82400F9E700BF58A104009B
:103D900008B50821FFF7F0FE0021FFF75BF80621C8
:103DA000FFF789F9006808BD38B5054600680C467C
:103DB000FFF7EEFFA042034606D822460549A86851
:103DC000FCF790FB002038BDD5F88C3053F8240068
:103DD000F9E700BF00A1040038B5836F044600F185
:103DE000680513B12846FFF721FE2846FFF726FD98
:103DF000204638BD2DE9F04F054689B04FF0000A46
:103E000005F16800FFF7DAFE504540F3E8802C68C2
:103E100008212046FFF7B0FE5146FFF71BF80621A8
:103E200000902046FCF7B0FB231870B326581E44C0
:103E3000686EFEF797FF4FEACA03039001934FF0B5
:103E400000080A210098FCF79FFB009B1918002826
:103E500000F0C7801A588B188A58904580F0BC80B3
:103E6000043303EB880453F828301C440421204613
:103E7000FCF78AFB58B127583368BB4209D85A4827
:103E80003946FFF7BBFC012329E00646D0E7074689
:103E9000F2E7331D03EB870B53F82730019A9B445D
:103EA000AB6F4FF02C099B5809FB08F94B442833A2
:103EB000D5E901125846FDF743FDA0B100905846E0
:103EC0001DF0EEFF912898BF484A009B94BF52F81E
:103ED0002010474947480093FFF790FC009B184685
:103EE00009B0BDE8F08FAA6F019952584A44926A0E
:103EF00012B939464048C4E792F814B00590BBF1B6
:103F0000200F4FF00E0120463DD1FCF73DFB22185B
:103F1000002831D10027029706212046FFF7CBF871
:103F200006AA0146686EFEF71AFF03460028D6D19E
:103F300008212046FFF7BFF807AA0146686EFEF782
:103F40000EFF03460028CAD1AA6F019952F801B0AA
:103F50000BEB09040146282220462FF041F8069B6E
:103F60004BF80930079B6360059B6361029B08F176
:103F70000108C4E9063764E72358D118CAD00431D0
:103F80000291D758C8E7FCF7FFFA231858B1225816
:103F9000D34208D0BBF1910F96BF144B144953F88C
:103FA0002B1016486DE76868036859461B6A9847E6
:103FB000074640B9BBF1910F96BF0C4B0C4953F823
:103FC0002B100F485DE705AB039AA9682046B84758
:103FD000034600289ED082E70AF1010A10E7002379
:103FE0007DE70368FFDE00BF25A00400DC85040038
:103FF000800305004FA004007CA004009DA00400E5
:10400000E3A004002DE9F74F01680446406EFEF777
:1040100009FE014650B96149A0680125FCF762FA22
:1040200084F88550284603B0BDE8F08F04F1680697
:104030003046FFF722FC2046FFF7DCFE054600284D
:10404000F0D1574B6364574B2361C4E913003046EA
:10405000FFF71AFD544BE3643046FFF74BFD534B1B
:104060006564E5642365A26F2168606E04F18803CE
:10407000FEF708FF05460028D4D1676E2068FFF7D9
:1040800087FE3B688100DB6838469847C4F88C009F
:1040900048B92068FFF77CFE45498200A068FCF71C
:1040A00021FA0125BEE7AA46D4F800804046FFF772
:1040B0006FFED4F86490A842D9F8007022D9082184
:1040C0004046FFF759FD0021FEF7C4FE0621FEF72A
:1040D000F2FF2946FEF75EFECDF800A003463F68DA
:1040E000A26FD4F88CB041464846B847D4F88C301B
:1040F0004BF8250053F8253013B92A462D49CDE752
:104100000135D1E74046FFF71FFEFB6881004846B6
:104110009847C4F8900028B92068FFF715FE264993
:104120008200BBE70025A94627683846FFF70CFE4A
:10413000A84227D908213846FFF71EFD0021FEF7C7
:1041400089FE0821FEF7B7FFD4F864802946FEF700
:1041500021FED8F80030CDF80090D3F800B0A26F5F
:10416000D4F890A0034639464046D847D4F890305A
:104170004AF8250053F8253013B92A460F498DE730
:104180000135D1E73046FFF77BFB054600287FF479
:1041900049AF012384F8843044E700BF249F040022
:1041A0005F3C0100A33C0100AD3C0100693C010003
:1041B000479F0400909F0400B59F0400FF9F0400E8
:1041C00090F8853010B504462BB10A498068FCF799
:1041D00089F9012010BD90F8843033B104F16800F2
:1041E0000021BDE81040FFF7C9BBFFF70BFF002817
:1041F000F4D0EFE72BA1040030B504462346013488
:104200001D78002DFAD101390844013A12F8011F36
:1042100021B1834202D203F8011BF7E700221A7092
:10422000184630BD30B503460C46B3FBF2F502FB31
:104230001530C3B2092894BF303357332046DBB260
:1042400000F8013B2B464DB96570A14208D20B78AE
:10425000227801F8012B04F80139F6E70446E4E777
:1042600030BD00002DE9F04F95B017460090039146
:104270001E4601F1FF390025009A3B7854199BB383
:104280004D4531DA252B07F101020BD17B78662BE6
:1042900060D00AD8632B00F01781642B20D0252B27
:1042A00036D1BA1C0135237032E0752B32D0782B11
:1042B0003AD0732B2CD1039A3368501B311D013B2C
:1042C00004EB5000009A8442A4EB020500F0028146
:1042D00013F8012F002A00F0FD8004F8012BF1E70C
:1042E000A9EB05030A2B01DC681C23E030680028D9
:1042F000B8BF2D2306F10408BDBF611C23704042E6
:1043000021460A22FFF78EFF001B0544BA1C4646D1
:104310001746B1E7A9EB05030A2BE5DD06F1040812
:104320000A2221463068EDE7A9EB0502092A05F1CA
:10433000010004DC0023237015B0BDE8F08F4FF0BE
:1043400030022270009A02351354541906F1040801
:104350001022E6E7A9EB050307EE903AF8EEE77ABC
:10436000B2EE0C7AF4EEC77AF1EE10FABCD4F31D7B
:1043700023F00703D3E9000103F108062AF092FDB8
:10438000C0F3C7530028A3F17F0A01932346BCBFA3
:104390002D2203F8012B0022BAF1800F04F12F0B1C
:1043A000C0F316081A7010D1ABEB0301B8F1000F7F
:1043B00009D14A4A1846FFF71FFF8046A8EB0404BC
:1043C0002544BA1CA4E7464AF4E7464A0DF1100C0E
:1043D00051681068E646AEE80300434908328A4255
:1043E000F446F5D110681279CEF800008EF804205A
:1043F0004046002204A98956013228FA01F10D2A0B
:104400000844F7D131221A702E225A7003F10208A3
:1044100000229A70ABEB0802072A0292CEDD4246D8
:1044200008334FF0300102F8011F9342F9D10A22FC
:1044300008A9FFF7F7FE08AA02994046FFF7DCFE3D
:10444000A0EB08034FF03002D3F10701027012D045
:104450000246A0EB020C9C4508DA12F801CD02F8E6
:1044600001C04FF0300C82F800C0F2E723EAE3739A
:10447000C3F10703184410F8012C302A00F1FF3370
:1044800001D143451ED80023ABEB00010370174A4E
:10449000FFF7B2FEBAF1000FBFBF2D238DF8203019
:1044A000019BC3F17F0A8046ABEB000BB4BF0DF15B
:1044B000210108A90A225046FFF7B4FE08AA59466E
:1044C000404678E71846D6E7336823700135BA1CB2
:1044D00004361DE7BA1C0E461AE700BF91A104007E
:1044E00095A1040084A104008CA1040099A10400FA
:1044F000034610B553F8044B00220120944204DD1A
:1045000053F8041B01324843F8E710BD70470369B4
:104510008361704710B51C21044625F02DFA204612
:1045200010BD000037B505460C4680691146FEF700
:104530005BFA6B691B1AA34209D2E21A0092054981
:1045400068682246FBF7CEFF002003B030BD04446C
:10455000AC61FAE79DA1040037B5044640690D46F9
:10456000401B1146FEF746FA236983420AD91B1AFB
:1045700000932A46EB1A04496068FBF7B3FF00205A
:1045800003B030BD6061FBE7E6A1040037B5836985
:104590000D4601699942044606D00E494068FBF772
:1045A000A1FF012003B030BD11468068FEF71CFA60
:1045B00063691B1A9D4207D9EA1A0092064960688E
:1045C0002A46FBF78FFFECE728442061A06100201A
:1045D000E8E700BF2FA2040084A2040010B50A443B
:1045E00088B00F4C0791CDE90312CDE905120422E2
:1045F000CDE901401C210DEB0200FFF7ADFF60B1DA
:10460000029B4360039B8360049BC360059B036123
:10461000069B4361079B0460836108B010BD00BF27
:10462000D0A204008068704770B5044680690E46C9
:10463000FEF7DAF9314605466069FEF7DBF9401B03
:1046400070BD0000014601481FF03DB8982B0020C6
:104650004FF4165101481DF01DBD00BF982B0020DE
:104660001C21836B18470421836B1847F7B5002280
:1046700005460C69FDF72CFA50B9254B00932846E6
:104680006C69244A2449CD23A047012003B0F0BD22
:104690000378092B1DD1D0ED037A0569B1EE087AB4
:1046A000C7EE277A17EE900A2AF0ACF82BF052F9F1
:1046B00006460F4628462AF093F832463B4629F034
:1046C00043FF2AF0A7FB00F307002070657000206D
:1046D000DCE7032BFBD1D0ED037A0569B1EE087A54
:1046E000C7EE277A17EE900A2AF08CF82BF032F9F1
:1046F00006460F4628462AF073F832463B4629F014
:1047000023FF2AF087FB80F30800A070E570DEE746
:10471000F2A3040094A30400E58404000368052BBD
:1047200010B5044603DD406808B125F027F920469E
:1047300010BD10B501680529CCBF4368031D0022D8
:1047400001208A4204DA53F8224001326043F8E73C
:1047500010BD0000F0B50A680F69436D0C468DB0BE
:104760005168064698476268736D51680546304641
:1047700098470446287A03284ED009282CD00128CF
:1047800071D12946684608F081FA214606A82D68AD
:1047900008F07CFA04B124686846FFF7CAFFDFED31
:1047A000366A2B460022B1EE087A904252DDF3ECD5
:1047B000017AF4EEC77AF1EE10FA0ADCF5EE407AEF
:1047C000F1EE10FA48BFF0EE667AE4EC017A0132BD
:1047D000EBE7F1EE087AF8E72946684697F90160B9
:1047E00097F9007008F052FA214606A82D6808F0E3
:1047F0004DFA04B124686846FFF79BFF00239842F6
:1048000028DDEA56974205DBB242B8BF3246E25491
:104810000133F4E73A46FAE729466846FE78BF785E
:1048200008F034FA214606A82D6808F02FFA04B1E2
:1048300024686846FFF77DFF002398420ADDEA5CA2
:10484000974205D3B24238BF3246E2540133F4E70F
:104850003A46FAE706A8FFF761FF6846FFF75EFFF2
:1048600000200DB0F0BD7469FBF730FE034902462D
:104870003046A0470120F4E70000000003A4040034
:1048800022EAE273002A00FA03F0D4BF5242002267
:1048900088422DE9304832D101F100435C425C414D
:1048A00080FB0101002871F100031B4BA8BF4FF0F2
:1048B00080436CBB10EB030B41EBE37CBBF1000FBF
:1048C0007CF1000306DA6FF0004400251BEB040BBB
:1048D0004CEB050C4FEADB7343EA4C031F2A10DC58
:1048E000012191400139481001EA030400EBD37023
:1048F00013418442D4BF1846581CBDE830880024B8
:10490000CEE7064B064A074840F267112CF0C8FE76
:104910006FF00043E2E700BF010000C028A30400DD
:104920002FA4040037A304002DE9F0410A680D69A3
:10493000436D0C468CB051680746984762687B6DA2
:1049400051680646384698470446307A03284AD0CC
:10495000092822D0012876D13146684608F096F918
:10496000214606A8356808F091F904B12468684624
:10497000FFF7DFFE9FED387A2B460022904258DD8C
:10498000F3EC017AF5EE407AF1EE10FA48BFF0EE62
:10499000477AE4EC017A0132F0E73146684608F0E4
:1049A00075F9214606A808F071F9366804B1246843
:1049B0006846FFF7BEFE00278046B84539DDEB6844
:1049C000F057D5E90512C01AFFF75AFF2B691844B2
:1049D0006B689842B8BF1846AB689842A8BF1846A3
:1049E000E0550137E9E73146684608F04FF92146BE
:1049F00006A808F04BF9366804B124686846FFF74A
:104A000098FE00278046B84513DDEB68F05DD5E9D8
:104A10000512C01AFFF734FF2B6918446B689842DF
:104A2000B8BF1846AB689842A8BF1846E055013792
:104A3000E9E706A8FFF772FE6846FFF76FFE002061
:104A40000CB0BDE8F0817C69FBF740FD03490246EC
:104A50003846A0470120F3E70000000003A404004B
:104A600070B5044611B90160204670BD8D682B6891
:104A70000360052B4FEA830608DD09488342D4BF53
:104A800030464FF0FF3024F063FF60602368052B51
:104A9000CCBF6068201D3246291D2EF0A3F9E3E744
:104AA000FEFFFF1F2DE9F04300228FB007460D46A1
:104AB0000C69FDF70DF8064658B9484B00937C6920
:104AC0008E233846464A4749A04701200FB0BDE82B
:104AD000F083294600223846FDF721F8054620B923
:104AE000414B00937C699023EBE73378092B40D14D
:104AF00096ED037AD0ED037AC7EE277A17EE900A87
:104B000029F080FE8046894602A83146FFF7A8FFBB
:104B1000294608A8FFF7A4FF04F1180304F11402C2
:104B200040464946FDF758FAD5ED037A9FED2F7AB6
:104B30002F69C7EE277A17EE900A2BF0DDF907EE02
:104B4000900AFDEEE77A6FF07F0317EE900A384483
:104B50009842ACBF606063607F23A360336908A89C
:104B6000C4E90337FFF7DAFD02A8FFF7D7FD0020FD
:104B7000ACE7032BFBD196ED037AD0ED037AC7EEB9
:104B8000277A17EE900A29F03DFE8046894602A852
:104B90003146FFF765FF294608A8FFF761FF04F1DA
:104BA000180304F1140240464946FDF715FAD5ED05
:104BB000037A9FED0E7A2F69C7EE277A17EE900AD7
:104BC0002BF09AF907EE900AFDEEE77AFF2317EE35
:104BD000900A384420EAE0706060BEE7F2A3040067
:104BE00094A30400E5840400C8A7040000000000AA
:104BF00070B5054D064604460FCD0FC495E80F006D
:104C000084E80F00304670BDE8A2040070B5054D81
:104C1000064604460FCD0FC495E80F0084E80F0048
:104C2000304670BD08A304002DE9F04F0B68D3F89F
:104C30000080B8F1010F8DB005460F4608DC7F4BB0
:104C4000009344697E4A7F493223A04701240FE044
:104C50004B681E68012E0FD001247B4B0193CDE9D8
:104C600002647A4B00934569754A79493323A84712
:104C700020460DB0BDE8F08F09AB0022FCF739FFEC
:104C800004460028F4D102460AAB39462846FCF710
:104C900057FF04460028EBD10A9B1878099B1B7824
:104CA000834213D06C69FBF711FC099B0746187807
:104CB000FBF70CFC674B0193CDE90270664B009348
:104CC0003D235F4A65492846A047BFE70BAB324604
:104CD00039462846FCF70DFF04460028C8D10B9939
:104CE0000998FDF76FF938B95D4B00936C69412362
:104CF000534A54492846A8E7099A0B9B107819781B
:104D000081420FD06C69FBF7E1FB0B9B06461878DC
:104D1000FBF7DCFB534B01934E4B0093CDE9026054
:104D20004223CEE7092916D110691969884204D0B7
:104D30004D4B00936C694723DAE792ED037AD3ED8C
:104D4000037AB4EE677AF1EE10FA04D0474B009381
:104D50006C694923CCE70136B045B7D10A9B187876
:104D600001280CD12B6C0BAA4FEA880128469847E2
:104D7000044600287FF47CAF0B9B3B6178E7092851
:104D800054D1AB6B2821284698472B6C386100F131
:104D9000240206464FEA8801284698470446002820
:104DA0007FF466AF099A0A9F1369D0685B42B360CB
:104DB0003B69F3601423336229F024FD02460B465D
:104DC00082468B4629F0C0FB8046F868894629F068
:104DD00019FD0022264B29F06DFD02460B46404688
:104DE000494629F091FE06F11803CDE90401079325
:104DF00042464B4606F110075046594629F084FEBC
:104E0000079B3A46FDF738F9DDE9040106F11C037A
:104E100006F11402FDF730F9331D009321463346A5
:104E20000A9A2846FCF736FF044621E76C69FBF72F
:104E30004DFB104902462846A04707E704A5040099
:104E4000ACA40400E58404009FDD040014A5040064
:104E5000309004003FA50400EEE1040025A5040005
:104E600058A5040006E2040082A50400C4A50400BD
:104E700000003041FCA5040088422DE930482CD1C7
:104E800000F100435C425C4180FB0101002871F1AC
:104E900000031F4BA8BF4FF0804304BB10EB030B74
:104EA00041EBE37CBBF1000F7CF1000306DA6FF00D
:104EB000004400251BEB040B4CEB050C4FEADB70A8
:104EC00040EA4C01002AC2F100040BDD114B124AEA
:104ED0004FF4B37111482CF0E3FB0024D4E76FF0DA
:104EE0000041EFE71F3204DA0D4B0B4A40F2671125
:104EF000F0E70123A340013B03EA01005B1003EB51
:104F0000D17321419842D4BF0846481CBDE830887F
:104F1000010000C02AA6040038A6040037A304003C
:104F200028A304002DE9F04F4A68436D91B08846EC
:104F30005168074698470546007A012839D1D8F8C4
:104F40000030D8F810101E687B6C38469847002453
:104F50008146A6420CDDD8F8003003EB84023846C7
:104F60007B6D51689847036849F824300134F0E7B5
:104F700029460AA807F08AFE0AA8FFF7DAFB2A6882
:104F800009EB860602EB80001346984200F085800C
:104F9000DFED4A7A9D1A4C46B44207D054F8041B00
:104FA000294491ED007A77EE877AF5E7E3EC017A10
:104FB000EBE7092878D1D8F80030D8F810B01C6891
:104FC000DBF824107B6C384698474FF00009064602
:104FD0004C450DDDD8F8003003EB890238467B6D77
:104FE00051689847036846F8293009F10109EFE74D
:104FF000DBF80C300093DBF814300193DBF81C3045
:105000000293DBF8003003932946DBF80430DBF829
:105010002070DBF80880DBF81090DBF818A0049310
:105020000AA807F033FE2B6805930AA8FFF781FB57
:1050300008FA07F3069306EB8403834607930024DC
:10504000A3452AD0524649460698FFF715FF334636
:105050000546079A9A420DD053F8042B1057404446
:1050600052464946B840CDE90833FFF705FF089B93
:105070000544EEE7DDE901122846FFF7FDFE009B3F
:105080001844039B9842B8BF1846049B9842A8BF97
:105090001846059B18550134D2E70AA8FFF73EFBD6
:1050A000002011B0BDE8F08F7C69FBF70FFA0449CE
:1050B00002463846A0470120F3E700BF0000000089
:1050C000FCA5040070B5054D064604460FCD0FC47F
:1050D00095E80F0084E80F00304670BD8CA40400F2
:1050E0000368052BC7BF436853F8210000EB81001C
:1050F000406870472DE9F04F14460A68436D0E462C
:1051000091B051680546984732686B6D91680746C3
:105110002846984772686B6D5168804628469847C4
:10512000064698F80800022840F06D82307A02287E
:1051300040F06982387A032800F0D380092800F013
:105140009081012840F05682394604A807F09EFD60
:105150003B68D8F80070019331460AA807F096FD25
:1051600035683B68049E002C5DD01C1EB8BFA41996
:10517000214604A8FFF7B4FF4FF0000907464FF09F
:1051800001084C4508DD494604A8FFF7A9FF09F1CD
:10519000010900FB08F8F4E704F1010901244E4578
:1051A0002EDC002107FB04F24FEA840A2B46029210
:1051B0000E468C46E04540F31382019A02EB810EC5
:1051C00006FB0442521A92000020043A844223DD76
:1051D000FEEC017A012502EB0E094FF0000BAF4205
:1051E00016DD99ED007AB4EEE77AF1EE10FAD4BF4D
:1051F000B0EE677AAB46D1440135F0EE477AEEE780
:10520000494604A8FFF76CFF09F101094443C6E7CA
:1052100043F820B00130D9E7029A0CF1010C534455
:105220003E441144C6E71C1EB8BFA419214604A879
:10523000FFF756FF4FF0000907464FF001084C45B5
:1052400008DD494604A8FFF74BFF09F1010900FBFF
:1052500008F8F4E704F1010901244E452EDC002191
:1052600007FB04F24FEA840A2B4602920E468C4654
:10527000E04540F3B581019A02EB810E06FB044242
:10528000521A92000020043A844223DDFEEC017A97
:10529000012502EB0E094FF0000BAF4216DD99ED30
:1052A000007AB4EEE77AF1EE10FA54BFB0EE677A06
:1052B000AB46D1440135F0EE477AEEE7494604A803
:1052C000FFF70EFF09F101094443C6E743F820B098
:1052D0000130D9E7029A0CF1010C53443E441144C9
:1052E000C6E7394604A807F0D1FCD8F800803D682D
:1052F00031460AA807F0CAFC3768DDF81090D8F8E4
:105300000030002C56D01C1EB8BF4C44214604A8C7
:10531000FFF7E6FE4FF0000A06464FF0010854453D
:1053200008DD514604A8FFF7DBFE0AF1010A00FB85
:1053300008F8F4E704F1010A0124D14526DCA300B2
:1053400006FB04F20021029303923B468C462F4653
:10535000E04540F3458101FB0442AA180192002276
:1053600094421FDD019817F802E000EB020A4FF0AB
:10537000000B0120864211DD9AF80090F14594BFA0
:10538000F1468346A2440130CE46F3E7514604A8D5
:10539000FFF7A6FE0AF1010A4443CEE743F822B024
:1053A0000132DDE7029A1344039A0CF1010C174411
:1053B0003144CDE71C1EB8BF4C44214604A8FFF77A
:1053C0008FFE4FF0000A06464FF00108544508DDF5
:1053D000514604A8FFF784FE0AF1010A00FB08F811
:1053E000F4E704F1010A0124D14526DCA30006FB01
:1053F00004F20021029303923B468C462F46E0457F
:1054000040F3EE8001FB0442AA180192002294426C
:105410001FDD019817F802E000EB020A4FF0000BC5
:105420000120864211DD9AF80090F1452CBFF1462B
:105430008346A2440130CE46F3E7514604A8FFF765
:105440004FFE0AF1010A4443CEE743F822B001328D
:10545000DDE7029A1344039A0CF1010C174431441E
:10546000CDE7394604A807F011FCD8F800803D6864
:1054700031460AA807F00AFC3768DDF81090D8F822
:105480000030002C56D01C1EB8BF4C44214604A846
:10549000FFF726FE4FF0000A06464FF0010854457C
:1054A00008DD514604A8FFF71BFE0AF1010A00FBC4
:1054B00008F8F4E704F1010A0124D14526DCA30031
:1054C00006FB04F20021029303923B468C462F46D2
:1054D000E04540F3858001FB0442AA1801920022B6
:1054E00094421FDD019817F902E000EB020A4FF029
:1054F000000B0120864211DD9AF90090F145D4BFDE
:10550000F1468346A2440130CE46F3E7514604A853
:10551000FFF7E6FD0AF1010A4443CEE743F822B063
:105520000132DDE7029A1344039A0CF1010C17448F
:105530003144CDE71C1EB8BF4C44214604A8FFF7F8
:10554000CFFD4FF0000A06464FF00108544508DD34
:10555000514604A8FFF7C4FD0AF1010A00FB08F850
:10556000F4E704F1010A0124D14525DCA30006FB80
:1055700004F20021029303923B468C462F46E045FD
:105580002EDD01FB0442AA180192002294421FDD85
:10559000019817F902E000EB020A4FF0000B01201E
:1055A000864211DD9AF90090F145ACBFF146834681
:1055B000A2440130CE46F3E7514604A8FFF790FD20
:1055C0000AF1010A4443CFE743F822B00132DDE794
:1055D000029A1344039A0CF1010C17443144CEE7AC
:1055E0000AA8FFF79BF804A8FFF798F8002011B06D
:1055F000BDE8F08F6C69FAF769FF06490246284654
:10560000A0470120F3E76C69FAF760FF0249024600
:10561000F5E700BF92A60400D4A604000022FFF71D
:1056200069BD0122FFF766BD08B5202200212DF0DB
:10563000D7FC014AC26008BD2356010008B52022EC
:1056400000212DF0CDFC014AC26008BD1D560100AD
:105650002DE9FF410B681B68032B05460E4610D051
:105660000322CDE90232374B0193374B0093446953
:105670002923364A3649A0470124204604B0BDE814
:10568000F0814B681C68012C09D00126314B019335
:10569000CDE90246304B009344692A23E9E7002212
:1056A000FCF716FA3146074600222846FCF737FA7F
:1056B000064607B140B9294B00936C69234A284933
:1056C0002E232846A047D7E7BB681A68022A08DCC1
:1056D000244B6E69009330231C4A21492846B04769
:1056E000CBE783681B68022B04DC1F4B00936E69B9
:1056F0003123F1E7042A04DD1C4B00936E69322349
:10570000EAE7042B04DD1A4B00936E693323E3E7C9
:1057100038783378834212D06F69FAF7D7FE804623
:105720003078FAF7D3FE134B0193134B0093CDE976
:1057300002803423054A11492846B8479DE70024D2
:105740009BE700BF81C10400A4A7040040A7040098
:10575000309004009FDD040014A50400B4A70400E9
:10576000E5840400DAA704000EA8040043A804009E
:1057700077A80400EEE1040006E2040025A5040079
:1057800038B505460868286005280C4608DD0C4B2E
:105790009842D4BF80004FF0FF3024F0D9F8686001
:1057A0002A682368052ACCBF6868281D052BCCBF52
:1057B0006168211D92002DF015FB284638BD00BF01
:1057C000FEFFFF1F70B50B68042B86B005460C4624
:1057D00004D1FFF7D5FF284606B070BD06AA042302
:1057E00042F8183D0121002300980528CABF0198FE
:1057F000D018C15003F10403D8BF4160102BF3D17E
:1058000000212046FFF76CFC009B052BCABF019BC3
:105810000190186001212046FFF762FC009E052ED2
:10582000CABF019B0290586002212046FFF758FC36
:10583000052ECABF019B0490D86069462846FFF731
:105840009FFF6846FEF76AFFC5E7000070B5054D8B
:10585000064604460FCD0FC495E80F0084E80F00FC
:10586000304670BD04A704002DE9F04F99B00646FC
:105870000A9101460CA81F46239CFFF7A3FF249919
:1058800012A8FFF79FFF022112A8FFF729FC0121B0
:10589000029012A8FFF724FC0021039012A8FFF742
:1058A0001FFC032183460CA8FFF71AFC02210546C2
:1058B0000CA8FFF715FC012104900CA8FFF710FCC1
:1058C000002105900CA8FFF70BFC3B680793336899
:1058D00022680690042B08BF7E68089218BF012634
:1058E000042B0CBFA36800230093AB000193002599
:1058F000069B9D4249DA95FBFBF900270BFB1953E8
:105900000993B846059B98453DDA99FBF6F4089B48
:105910003C44E41A32D4039BA3422FDD4FF0000A2B
:105920005346049A934229DA99FBF6F0009A06FB53
:1059300010905044801A1ED4029A82421BDD0999AD
:10594000149A0B9302FB0142159901FB0200169A6F
:105950000E9950430F9A01FB058102FB0131109A09
:105960000A9B514303EB8101259B019A03EB8000C5
:105970002DF038FA0B9B0133B244D2E7079B08F1B4
:1059800001081F44BEE70135B2E712A8FEF7C6FEC4
:105990000CA8FEF7C3FE19B0BDE8F08F2DE9F04F5B
:1059A00099B005460A9101460CA81E46239CFFF7B4
:1059B00009FF249912A8FFF705FF022112A8FFF79B
:1059C0008FFB0121019012A8FFF78AFB00210290B2
:1059D00012A8FFF785FB032183460CA8FFF780FB85
:1059E000022103900CA8FFF77BFB012104900CA877
:1059F000FFF776FB002105900CA8FFF771FB3368D9
:105A000007932B6822680690042B08BF76680892DB
:105A100018BF0126042B0CBFA368002300930025A8
:105A2000069B9D4249DA95FBFBF900270BFB1953B6
:105A30000993B846059B98453DDA99FBF6F4089B17
:105A40003C44E41A32D4029BA3422FDD4FF0000AFB
:105A50005346049A934229DA99FBF6F0009A06FB22
:105A600010905044801A1ED4019A82421BDD09997D
:105A7000149A0B9302FB0142159901FB02000E9947
:105A80000F9A01FB058102FB0131109B039A9C4692
:105A90000A9B0CFB0131169B9C46259B0CFB00309E
:105AA0002DF0A0F90B9B0133B244D2E7079B08F11C
:105AB00001081F44BEE70135B2E712A8FEF72EFE2B
:105AC0000CA8FEF72BFE19B0BDE8F08F2DE9F043CE
:105AD0000A68436D0C469DB0516805469847226898
