:020000021000EC
:1000000000000420ED240200252502007D080200E6
:1000100029250200890802008F0802000000000064
:1000200000000000000000000000000011B9010005
:100030003125020000000000ABB90100BBB901008E
:10004000755C020095DD01003725020037250200AE
:100050003725020037250200372502003725020028
:100060003725020037250200372502003725020018
:1000700037250200095E020037250200ADDD0100D0
:1000800037250200372502003725020037250200F8
:1000900037250200372502003725020037250200E8
:1000A00037250200372502003725020037250200D8
:1000B00037250200D99C010000000000000000006C
:1000C00037250200372502003725020037250200B8
:1000D00037250200372502003725020037250200A8
:1000E00037250200372502003725020000000000F6
:1000F0000000000037250200000000003725020044
:1001000010B5054C237833B9044B13B10448AFF351
:1001100000800123237010BD10100020000000009B
:10012000148B030008B5034B1BB103490348AFF31D
:10013000008008BD0000000014100020148B030094
:10014000154B002B08BF134B9D46A3F5803A0021A9
:100150008B460F461348144A121A1AF0E9FA0F4B4D
:10016000002B00D098470E4B002B00D09847002062
:10017000002104000D000D48002802D00C4811F0A9
:1001800015F919F0D3FD200029000DF039FC11F00C
:100190000AF900BF00000800000004200000000071
:1001A0005DD9010010100020D8250120AD130200F8
:1001B0000000000008B50A490A4809F039FD4FF46B
:1001C0007A520121074809F099FC1421054809F0E9
:1001D00031FD054A1368002BFCD0002008BD00BF8C
:1001E00055020100D087002030540020F8B5134F8D
:1001F0001E463B780C46154623B9FFF7DBFFE0B9F6
:1002000001233B700E4B0F4F21012A010024944221
:100210000DDA08194542C5F30C05C0F30C0058BFB0
:10022000684237F8100023F814000134EFE74FF468
:1002300000723260069A00201360F8BD2C54002032
:100240002C1000202C140020014B1868704700BFB0
:100250003054002038B50B4C0B49256823680B48F7
:100260001B015A42C2F30C02C3F30C0358BF5342A2
:1002700020354FF4007201EB430109F015FC2560B5
:1002800038BD00BF305400202C140020D08700203F
:100290002DE9F743384D9DF8289098462B7807466E
:1002A0000C461646EBB901210D200BF0BFFA0121D7
:1002B00016200BF0BBFA012117200BF0B7FA012131
:1002C00018200BF0B3FA012116200BF0F1FA0121EE
:1002D00017200BF0EDFA012118200BF0E9FA0123A9
:1002E0002B70264DB9F1000F1ED0434600943246C4
:1002F0002349384600F0F0FC3378792B04D10021F3
:1003000017202C600BF0D4FA33786E2B04D1002127
:1003100016202C600BF0CCFA3378752B04D1002119
:1003200018202C600BF0C4FA2B68BBB1A4F6B834CB
:10033000A3421DDA00210D2029600BF0B9FA01213A
:1003400016200BF0B5FA012117200BF0B1FA0121AC
:10035000182003B0BDE8F0430BF0AABA094B1968A6
:100360000131196011F0010118BF01210D20F0E7E2
:1003700003B0BDE8F08300BF34540020385400209F
:100380004CED02003C540020012303720023C0E91D
:100390000012194602689A4203DD4268D1540133C3
:1003A000F8E77047704700002DE9F0470F460168F5
:1003B000B1F5F56F86B0064608D00A4638494FF4C5
:1003C000F563384600F088FC012054E0142193FBCB
:1003D000F1F4037A002B46D0384600F065F8002887
:1003E00049D1307231220E9BD2F131051A6017D0FB
:1003F000282303FB02FE03FB05F00023716801EBD9
:10040000030C28311944ACEB030818F90E800CF8E2
:10041000018B8C45F7D1283383420EF1280EEDD1A4
:10042000002A27DD303C4FF028082C44142308FB19
:1004300005F85C434FF000090DF10C0A302D19DC72
:100440001E22CDF800A004AB24EAE4713846CDE9C1
:100450000399FFF7CBFE049AB2F5007F0EDA4FF452
:1004600000731049ADE792FBF1F2A21A312AA8BF3E
:100470003122B8E7002006B0BDE8F08705AB019354
:1004800073680399434400933846282300F052F8D8
:1004900008F1280814340028EDD10135CEE700BF5B
:1004A00060ED020091ED020030B51E2291B01423E0
:1004B000CDE900230A23069328230293134B0493C8
:1004C000134B0393134B0793134B0893134B09934D
:1004D000134B0B93134B0C93012415230546CDE9C5
:1004E0000D344FF47A5206230F490A9468460F934D
:1004F00001F0CEF930B90D49284600F0EDFB204659
:1005000011B030BD0A4B00201C70F9E70000FA4220
:100510000060EA45CDCCCC3C8FC2753DCDCC4C3D86
:100520003333733F0000A04240540020B7ED020077
:100530000402002030B5154885B013460278089CA7
:10054000EAB100220270099A009202A80A461049F4
:1005500001F044F9DDE90205002240F29A219542BA
:1005600010D030F812301B0203F24D1393FBF1F35D
:10057000803B7F2BA8BF7F23A3540132EFE701F517
:10058000A071E0E7002005B030BD00BF04020020EC
:100590004054002070470022C0E90022826070476A
:1005A0000022C0E900228260704701207047036882
:1005B000DB69184703681B6A1847202930B50ED03D
:1005C000D0F8844000239C4209D05A018518AD69B7
:1005D0008D4202D10432104430BD0133F3E70020D4
:1005E000FAE7704730B5D0F89C4000F1880200234C
:1005F0009C420AD012F8015B8D4204D100EB8300CB
:10060000D0F88C0030BD0133F2E70020FAE72DE985
:10061000F041D0F884700446884605460026B7426B
:100620000FD0AB69202B09D14146E8691AF0ECFAEA
:1006300020B904EB46100430BDE8F08101362035C6
:10064000EDE70020F8E70000F0B587B0FFF7FCFD0C
:1006500006AB002243F8082D264C009305460346BE
:10066000254F26483A6821680068FFF79DFE264618
:1006700028B12349206800F02FFB07B0F0BD049B90
:100680003D60002BF9D01F4B1F491B6842561A547E
:100690000130B0F5F56FF9D11C4F386804F0CCFB90
:1006A000044610B11A493068E5E70146386804F09D
:1006B00091F90DF10F03019301460DF10E03154859
:1006C00000932A4605AB006805948DF80E408DF81E
:1006D0000F4000F0D9F908B10F49E4E79DF80F2069
:1006E00000929DF80E30059A30682946FFF7D0FD3C
:1006F000C3E700BFE87C0020E47C00209484002055
:100700000F38030098840020EC7C0020E054002087
:1007100029380300DC5400203738030020292DE954
:10072000F843054688461446994609D1D0F8A000FA
:1007300010B90120BDE8F8831F4900F0CDFAF8E7B1
:100740000368DB699847074640B1D5F8A000002848
:10075000EFD04246194900F0BFFAEAE7D5F884C065
:10076000BCF1030F09D9D5F8A0000028E1D004237B
:100770004246134900F0B0FADBE70FCC05EB4C1E04
:100780000EF104060FC694E80F0086E80F000CF186
:100790000103CEF81880C5F88430D5F89C30EA18EB
:1007A000384682F8888005EB83020133C2F88C90CA
:1007B000C5F89C30BEE700BF383703007D37030023
:1007C000CC3703002DE9F0417A4C8CB004F074FD75
:1007D0002378BFF35B8FDD070BD4204610F0F4FDC8
:1007E00038B1204610F012FE734A7449744810F074
:1007F000D8FD744C724B2360734B744F1A68D11838
:10080000D3583960CB1A1A88042A0CD99A8812B1A5
:100810008A58032A09D003236D49694800F05CFA1D
:100820000CB0BDE8F0810022F5E7DFF80882694DE1
:1008300098F80060BFF35B8F16F0010612D14046B6
:1008400010F0C2FD70B12368634A2A604046C5F8C3
:100850008460C5E9276310F0D9FD574A5F492846EF
:1008600010F09FFD04A806F087F95D4B594804AAD3
:100870000421FFF753FF0028D2D104A806F0B8FBEB
:10088000584B544804AA0921FFF748FF0028C7D154
:1008900004A806F047FC544B4E4804AA1921FFF760
:1008A0003DFF0028BCD104A805F0BCF94F4B4948D6
:1008B00004AA1621FFF732FF0028B1D14C4E35783B
:1008C000BFF35B8F15F0010518D1304610F07CFDA9
:1008D000A0B1CDE90255236801934FF42053009352
:1008E0003C4A3968434B444804F008F8304610F05D
:1008F0008DFD314A4149404810F053FD404D3E487E
:10090000286004F0AFF9014620B13E49206800F0AC
:10091000E3F985E7286804F039F843691A68022A80
:1009200009D15A68012A06D19E68B6F5F56F02D141
:10093000037F092B01D03449E8E7344B0269344D79
:100940001A602B78BFF35B8FD80710D4284610F0BD
:100950003BFD60B12F4A30483146FFF715FD284670
:1009600010F054FD144A2D492B4810F01AFD2C4B61
:10097000294A2C4D1A602B78BFF35B8FD90712D40C
:10098000284610F021FD70B140F2DC530322CDE97E
:10099000003225482168C8234FF47A7200F050F8DD
:1009A000284610F033FD214B1F4A1A60204B0022CD
:1009B0001A6035E7D454002000020020950501009C
:1009C00018020020E87C0020F0ED02009C8400204A
:1009D00068380300A084002010370300E3050100FD
:1009E000050F0100E10F0100C9100100390E0100DF
:1009F000D0540020E4540020FC860020054A010069
:100A0000E0540020AF380300C83803009884002069
:100A1000D8540020EC7C00209C870020A503010016
:100A200094840020CC54002044850020DC54002015
:100A3000E47C0020C85400200022C0E90022704756
:100A400070B50372049BC360059BC0E90012C0E946
:100A50000431044600F1180500F5D476284608351F
:100A6000FFF7EAFFAE42F9D10023C4F8A831C4F879
:100A7000AC31044BC4F8B0314FF00043C4F8B4318A
:100A8000204670BDD6ED02002DE9F04F04464869BE
:100A90000668022E99468BB09046836804D145685B
:100AA000012D01D1042B09D0009604227C49206835
:100AB00000F012F901200BB0BDE8F08F0B7F092B7D
:100AC00005D01A467749206800F006F9F2E7D4F815
:100AD000AC615EB1D4F8A83104EBC3039B699342C7
:100AE00004DD7149206800F0F7F8E3E708690023A6
:100AF00006ADEA18C15C11710133042BF9D1312E16
:100B000021DD6A49606900F0E7F86368A8EB030A31
:100B1000674B4FF0000BD4F8A871D4F8AC6104EB2C
:100B2000C702D2F818C00EB1E2451FDC2369B342F8
:100B300032DDD4F8B031C9F80030149B00201870B1
:100B4000159B1870B7E7731CC4F8AC31D4F8A83102
:100B5000CDF818801E44312EC8BF323E95E8030000
:100B600004EBC606183686E80300CEE7002E09DC43
:100B700019466069039300F0AFF82846FFF75CFF61
:100B8000039BC8E70137312FC8BF5F46013EC4F859
:100B9000A871C4F8AC61BEE7B8EB0C004FEAE87B83
:100BA0004FF004036BEBEC71626892FBF3F2D31726
:100BB000904271EB0303BCDB0022A7F1320E0DF172
:100BC000100CB2421FDABB18312BC8BF0EEB020368
:100BD00004EBC303183393E803008CE803000023FD
:100BE0000CEB030191F90400803032B945F8230081
:100BF0000133042BF4D10132E3E755F8231001440B
:100C000045F82310F4E74FF0000AF71755F82A00CB
:100C100032463B46C11715F061FE45F82A000AF13D
:100C2000010ABAF1040FF1D100231E461A4655F805
:100C30002310B142C8BF1A4603F10103C8BF0E46D4
:100C4000042BF4D11B4BD4F8B01153F822501B687D
:100C500099421FD0D4F8B421B2F1004F1AD0A8EBBA
:100C60000202D317207AB04218DAA94205D1E0680F
:100C7000C117904271EB030310DAC4F8B051C4F805
:100C8000B4810123159A1370149BC9F800500020F9
:100C90001E7010E76FF000420023E3E70023F1E746
:100CA000ED38030051390300933903000D3A030076
:100CB000413A030008020020013080007047000024
:100CC00010289ABF024B53F820000248704700BF1B
:100CD0006C3A0300B03A03000EB403B503AA0368EC
:100CE00052F8041B01929B68984702B05DF804EB30
:100CF00003B070470CB407B504AA036852F8041B8C
:100D000001929B68984703B05DF804EB02B070470E
:100D1000006803685B6818470138C0B204289ABFAE
:100D2000014B185C00207047283B030020B10128CC
:100D30000CBF0220002070470120704738B51546CF
:100D40001A4628B90B492846FFF7C6FF012038BDCF
:100D50000468082C09D8043900EB8404A04206D0AA
:100D600050F8043F41F8043FF8E70349EBE700205F
:100D7000EDE700BFC23B0300F03B03000368C01A6D
:100D800003888B428CBF405A0020704710B50C215D
:100D90000446FFF7F3FF231808B12058184410BD8C
:100DA00008B5034610460F2B2BD8DFE803F00C08DC
:100DB00012161A1E201022180E241C2628140A238C
:100DC0000B70002008BD0123FAE70B23F8E7072387
:100DD000F6E70223F4E71023F2E70323F0E7092301
:100DE000EEE70423ECE70D23EAE70523E8E7062313
:100DF000E6E70823E4E70C23E2E70E23E0E70F230E
:100E0000DEE700220A701A460249FFF765FF01205B
:100E1000D8E700BF313C030038B505461446FFF75C
:100E2000ADFF00B12C5C204638BD08B500220A2178
:100E3000FFF7F2FF08BD00002DE9FF411F461368D0
:100E40001546064688461B680422242128469847F2
:100E5000044618B12422002119F06AFCCDE902549D
:100E6000A4B91B4B01934FF4E2630093194A1A4B48
:100E700041464046FFF73EFF0124039911B102A805
:100E8000FFF746FF204604B0BDE8F0813046FFF78B
:100E9000CCFF112817D13046FFF778FF054690B1F7
:100EA0000421FFF76BFF2E1868B12D5870190AD076
:100EB00021460A4B4246FFF741FF04460028DCD199
:100EC000039B72591A62039B3B6000240394D4E78E
:100ED000A83B0300913B03002D3B0300BA3B0300FA
:100EE00038B505461446FFF749FF00B12C58204697
:100EF00038BD38B505461446FFF740FF00B12C5603
:100F0000204638BD2DE9FF411F46136815460646A9
:100F100088461B6804221C2128469847044618B1BD
:100F20001C22002119F004FCCDE90254A4B9294B7C
:100F3000019340F2E7430093274A284B414640463D
:100F4000FFF7D8FE0124039911B102A8FFF7E0FED4
:100F5000204604B0BDE8F0813046FFF766FF022866
:100F600033D13046FFF712FF054670B3002204214B
:100F7000FFF7BFFFC0B2FFF7D9FE002220700621A5
:100F80002846FFF7ADFF0022606008212846FFF7E2
:100F9000A7FF0022A0600A212846FFF7A1FF002238
:100FA0000C21E0602846FFF7A4FFC0B2FFF7B4FEB3
:100FB000012220740E212846FFF792FF0122606172
:100FC00010212846FFF78CFFA06100233C600393AB
:100FD0001C46B8E7A83B0300913B03002D3B0300F0
:100FE0002DE9F04398461368154685B081460E46B4
:100FF0001B680122042128469847044608B10023B3
:101000000360CDE90254A4B9264B019340F2625328
:101010000093254A254B31463046FFF76BFE0124ED
:10102000039911B102A8FFF773FE204605B0BDE891
:10103000F0834846FFF7F9FE082807462CD14846BA
:10104000FFF7A4FE054638B300220421FFF751FF45
:10105000C0B2FFF761FE0022207039462846FFF734
:10106000DBFE003018BF0120A07000220A212846B4
:10107000FFF7D2FE003018BF0120E07000220621E9
:101080002846FFF736FF30B1012804D00849304622
:10109000FFF722FEC3E760700023C8F80040039307
:1010A0001C46BDE7A83B0300913B03002D3B03001A
:1010B000553C030038B504461546FFF75FFE08B1FE
:1010C00004442568284638BD2DE9FF411F461368B2
:1010D00015460422064688461B681146284698474E
:1010E000044608B100230360CDE90254A4B9144BAF
:1010F000019340F2A1730093124A134B41464046BC
:10110000FFF7F8FD0124039911B102A8FFF700FED3
:10111000204604B0BDE8F0813046FFF786FE09287E
:1011200008D13046FFF732FE20B100220421FFF73C
:10113000C1FF206000233C6003931C46E3E700BF2F
:10114000A83B0300913B03002D3B03002DE9F8432E
:10115000984605460023C8F8003091460F4606F031
:101160007DFC2B68EB1A06461A88082A0CD91989C7
:1011700051B16C58952E09D932461C494846FFF7A3
:10118000ABFD0120BDE8F8830124F3E7202E11D048
:101190003B6822461B68314638469847C8F800002D
:1011A00008BB134A134952F8262023464846FFF746
:1011B00093FDE6E7062A05D9DB88E91813B1EB5859
:1011C000C91804D10C494846FFF786FDD9E73B68AA
:1011D00022465B68043138469847C8F80000B0FAE8
:1011E00080F04009CEE70020CCE700BFDC3E0300E2
:1011F000803C0300303F0300D23F030030B5D0E90C
:1012000001356FF003009C0000FB034021440244C1
:10121000AB4201F1040100DB30BD31F9024C31F980
:10122000040C644300FB004042F823000133EFE765
:101230002DE9F04F87B0036A0193D0E903CE4369EB
:10124000039303680293059100234FF000084FF0C9
:101250000009029A9A4202DA07B0BDE8F08F059AB7
:101260003CF913503EF9134002EB85058269670093
:1012700002EB070A039AC46932F9132004923C4432
:1012800046464F4600224FF000084FF000090499EF
:101290008A4207DB019C31463A46E4E802120133F8
:1012A0000194D6E73AF912B055F82210CBFB01674A
:1012B00034F912B00132CBFB0189E8E72DE9F74F91
:1012C0000368006A01938A4600F1080E00214FF07E
:1012D000010C019B994202DB03B0BDE8F08FFEE8F0
:1012E00002454FF00009A84658EA09032AD12346CF
:1012F00034B3B4FA84F242F00102C2F11F020CFAD4
:1013000002F5521001324C4612F1FF320DD29C42CE
:1013100004D24FF6FF739C4218BF0134A2B222FAE6
:101320000AF240F821200131D3E704EB0508984583
:101330004FEA54049CBF6419A3EB0803AD08E3E72C
:101340002246ECE725B3B5FA85FB4BF0010BCBF158
:101350003F0BABF12002CBF120030CFA02F72CFA81
:1013600003F30CFA0BF64FEA6B0B1F430BF1010B67
:10137000002200231BF1FF3B0FD2AB4208BFA24269
:10138000CDD2002B08BFB2F1FF3FC8D00132C6E773
:10139000B4FA84FB0BF1200BD7E712EB060843EB02
:1013A00007095B084FEA32024D4508BF444505D3A3
:1013B000B4EB080465EB090592197B414FEA9608E6
:1013C00048EA87784FEA970946464F46D2E70268CF
:1013D000006A0132D200002119F0AAB90000000011
:1013E00008B510EE100A14F0D9FE00220A4B15F0D1
:1013F00057F815F079FD06A3D3E9002314F026FF72
:1014000015F01CFA00EE100A08BD00BFAFF3008013
:1014100000000000009C914000E085402DE9F04F65
:101420002DED068B09EE103A03680B60013389B08D
:101430004FEA4308824640460C461546019318F091
:1014400027FDE0600390404618F022FD20618346AE
:10145000404618F01DFD019B60618146D80018F0E0
:1014600017FD019B2062980018F012FD06464046C9
:1014700018F00EFD0746404618F00AFD039B029047
:1014800043B1BBF1000F05D0B9F1000F02D00EB18E
:1014900007B1A0B9304618F003FD384618F000FD3A
:1014A000029818F0FDFCC04BC0481B68D96817F0C3
:1014B00081FF002009B0BDEC068BBDE8F08F9AEDEE
:1014C000020ADAED018AB5EEC00AF1EE10FA05DA89
:1014D000B74BB84A2521B84817F058FCB4EEE80AD3
:1014E000F1EE10FA03D4B54BB24A2621F3E7FFF729
:1014F00077FFB0EE408AB0EE680AFFF771FFDDEDCE
:10150000017A30EE480AB8EEE77AB346C0EE077AC1
:1015100032460023019999424FDC284614F02CFEF4
:101520000022A74B14F092FEF8EEC97AB7EE007ACB
:1015300077EEC77A804617EE900A894614F02EFEA1
:1015400002460B464046494614F0AAFF15F076F9CC
:10155000DAED027A08EE900AC7EEA87A0025A946CD
:1015600017EE900A14F01AFE0022964B14F0B8FC05
:1015700015F01CF9A560804660600395019B9D42B3
:101580005CDB0221484617F01FFC0221A0610546E2
:10159000484617F019FCE0610DB1002870D13046C3
:1015A00018F07EFC384618F07BFC029818F078FCA6
:1015B0007D4B85481B68D96879E7013307EE103AFF
:1015C000B8EEC77AF0EE486AE7EE876AE2EC016AA5
:1015D000A0E7013107EE901AB8EEE70A049120EE79
:1015E000280AFFF7FDFEDBED007A0499B4EEE70A66
:1015F000F1EE10FAEDD9D4E903E2029B27F8158049
:10160000A1EB080023F81500D4F814C002EB450341
:10161000E0B92EF8150022F815004FF004002CF860
:101620001500039828B99A420AD1012309F1040947
:10163000039301350BF1040B88469FE74146C9E748
:10164000B2F90000043022F8020BECE708F00103C5
:10165000B8F1000FB8BF5B420344013B042093FB89
:10166000F0F301339B00022098FBF0F84FEA4808A2
:101670002EF8158022F815902CF815309944D8E7EB
:101680009AED020AFFF7ACFEA6F10409F0EE40AABB
:101690000025019B9D4212DB304618F001FC3846C4
:1016A00018F0FEFB029818F0FBFBA36819EE102A55
:1016B000934276DB3C4B45481B68D968F7E6029BB2
:1016C00037F915B033F915300393E36833F9153062
:1016D000ABEB03030593236933F915300493BDB1D4
:1016E000D9ED009A4FF000080BEB080300EE103A1A
:1016F000039B98450FDBA268002BACBF5B440BF14A
:1017000000039342C8BFA360013509F10409C0E793
:10171000F0EE6A9AE6E7B8EEC00A99ED018A20EE8B
:10172000280AFFF75DFE38EE400A38EE698ADFEDE1
:10173000287A80EE08AADDE9043203EB020AE369A5
:101740000693C24408F101086AEE277A17EE900A60
:1017500014F024FD00221A4B14F0C2FB15F010FB0C
:10176000A369079315F022F8079B23F81A001AEED5
:10177000100A14F013FD02460B460020154914F020
:10178000ADFB0022144B14F061FD0D4B002214F050
:10179000A7FB15F0F5FA15F009F8069B23F81A00D7
:1017A000A2E7012086E600BF0006002005460300F0
:1017B000294603003D47030047460300B84603009F
:1017C0000000E03F0000F83FE64603000F4703003B
:1017D000000080450000F03F0000B0402DE9F041DE
:1017E0000C460646114620461A46069B00F0B8FAFB
:1017F00020B9C6E900003046BDE8F081B4F91850C0
:101800006169B5FA85F5113D2A4604F11C0000F026
:101810009FFBD4F8208004F1340742464146384605
:10182000FFF7ECFC41463846FFF702FD29463846F3
:10183000FFF744FD0146054604F1580000F00EF99B
:10184000E36E23B1294604F16C0000F0AEF9636A3F
:10185000626BB3FA83F3C3F11903294604F18000E4
:1018600000F098F8636BC6E90003C4E710B50446BE
:1018700000F0B9FA04F11C0000F086FB04F134001A
:10188000FFF7A5FD04F15800BDE8104000F01DB9B8
:101890002DE9F3410C4606461746002188222046D2
:1018A00018F046FF3A462146304600F0B1FA0546A8
:1018B00048B9314B31481B68D96817F07BFD284681
:1018C00002B0BDE8F08104F11C082168404600F038
:1018D0006DFB054620B9284B29481B68D968ECE701
:1018E000404600F050FB636A5B0801333A4604F15E
:1018F000340106F10800FFF791FD054620B91E4BA3
:1019000020481B68D968D8E7626B04F1580106F1DA
:10191000180000F0E1F8054620B9174B1A481B687B
:10192000D968CAE7636AA26EB3FA83F3C3F11903F5
:101930000193B4F85830009304F16C01636B06F125
:10194000280000F099F9054620B90B4B0F481B6899
:10195000D968B2E704F1800106F1380000F078F8A8
:10196000054620B9044B0A481B68D968A5E72046FC
:10197000FFF77CFF0125A2E700060020584703007F
:101980007947030097470300BC470300E64703007D
:10199000124803002DE9F74F44682C4F01940026AC
:1019A0004BF2721CC3F1000E4FF6FF78964203DB38
:1019B000084603B0BDE8F08F056851F82640002DB9
:1019C0003DD0002BB4BF24FA0EF49C40012C06D865
:1019D000002434E0A5F1100944FA09F40FE0B4FA48
:1019E00084F5C5F11F054FF0010909FA05F90F2D1E
:1019F000A4EB0904EEDCC5F1100904FA09F44FEA7E
:101A0000642909F1010A37F819B037F81AA0A4EBD4
:101A10004929AAEB0B0A5C4409FB0AF904EB2949A2
:101A200009EB05494FF400440025ECFB0945240C63
:101A300044EA0544019DAC4004F50044240C4445AF
:101A400028BF444621F816400136AFE73848030066
:101A500003680B6043684B60012070472DE9F0413B
:101A6000D0F80CC004390022944501DCBDE8F081B7
:101A7000D307076954BF8688C68857F82240D0F834
:101A800000E051F8043FC6F5804503FA0EF3A5FBCC
:101A90000445E6FB03454FEA943848EA854847F891
:101AA000228006890D684345A6FB056794BFDB1AB3
:101AB000A3EB0803B50B45EA874523FA0EF3AB42C7
:101AC0002CBF0B600D600132CEE7C2680069920046
:101AD000002118F02DBE000090ED027ADFED186AAB
:101AE000D0ED037A27EE267A38B5BCEEC77A0D46DC
:101AF00017EE103A90ED017A0168EB8027EE267A16
:101B000067EEA67ABCEEC77AFCEEE77A17EE103ADB
:101B1000AB8017EE903A29602B81EA6004211046D1
:101B200017F052F90446286138B9064B06481B687D
:101B3000D96817F03FFC204638BD0120FCE700BF04
:101B400000008046000600203C490300022830B512
:101B500002D831F9100030BDB0FA80F3C3F120048F
:101B6000E2000C3A0A2C01EB0205D5BF153BC3F18C
:101B700015039840D840AB88C0F3090013FB00F46C
:101B8000B5F902305B0103EB641358438B5E00F53B
:101B9000804003EBE03000B2DDE7B0F5005F39BF15
:101BA0004043000D8009403870472DE9F041D0F8DE
:101BB000088005460F460024A04501DCBDE8F08101
:101BC0006B68E96853F82400FFF7C0FF57F824302A
:101BD000A0FB03012B69C3F12006A3F1200201FA47
:101BE00006F620FA03F3334321FA02F243EA020035
:101BF000FFF7D3FF47F824000134DDE710B5C368D1
:101C0000012404FA03F307EE903A2DED028BB8EEAF
:101C1000678A07EE902A04FA01F1F8EE676A07EE88
:101C2000901AF8EE677A436886EEA77AD0ED027ACA
:101C300077EE277A83F0004117EE900A15F0B4FC96
:101C400007EE900A9FED0B7A68EE277ABDEC028BC7
:101C5000F4EEC77AF1EE10FADBBFB6EE007A77EE5B
:101C6000877A47F6FF70FDEEE77ADCBF17EE903A11
:101C700018B210BD00FEFF462DE9F74F0C46016873
:101C80000D9F21600646002963D0C4E90123FA2094
:101C900018F0FEF80546E06048B92F4B2F481B6846
:101CA000D96817F087FB284603B0BDE8F08FF368CA
:101CB000DB1B0C3B2361BDF83030DF1B00223946B3
:101CC0003046FFF79BFF0122288039463046E56801
:101CD000FFF794FFE36868800C3B0225E3604FF058
:101CE000120A2B4605F1FF390122202D02FA09F2D2
:101CF0003946304614BF03FA09F94FF0FF39019312
:101D000002EB5208FFF77AFF4246834639463046D7
:101D1000FFF774FF4A46804639463046FFF76EFFAC
:101D2000E268019B22F835B0A0EB0B00A8EB0B0892
:101D3000C0EB880802EB0A01013522F80A80212D48
:101D4000A0EB0808A1F802800AF1080ACAD10C32F7
:101D5000E2600120A8E700BF000600205D49030003
:101D6000F8B5044606680069351A95421F46E368CF
:101D700028BF15466A0003EB400018F0DBFB3D600E
:101D8000236922681D44954225612AD30025D4F891
:101D900004C0E068D4F814E02946B1420DDBA16824
:101DA000521A520000EB410118F05EFC2369A26850
:101DB00025839B1A23610120F8BD3CF8117030F88F
:101DC000113013FB07F31B131FB2002FB8BF5B4288
:101DD0002EF81170B8BF1FB2BD42B8BF3D460131E9
:101DE000DBE70020E8E7026810B504465200002156
:101DF000C06818F09DFC226860695200002118F04C
:101E000097FC00232361238310BD00000000000025
:101E10002DE9F04F056843682DED028B0E465543C2
:101E20004FF47A71B5FBF1F54FEA450A5A4383B096
:101E3000B2FBF1F23560B260504618F029F8044662
:101E4000706058B93C4B3D481B68D96817F0B2FA2E
:101E5000204603B0BDEC028BBDE8F08F07EE905A30
:101E6000F8EEE77ADFF8E4909FED358A17EE900AF6
:101E700014F094F902460B462DA1D1E9000114F0AB
:101E80000FFB14F0DBFC002783464FF00008AF4245
:101E90000DD100233361504617F0FAFF0446F0607D
:101EA000002838D1244B27481B68D968CEE738462C
:101EB00014F062F942464B4614F012F8CDE90001E5
:101EC000584614F06BF902460B46DDE9000114F0A8
:101ED000BDF914F00DFF42464B4614F0B7F9024627
:101EE0000B464046494613F0F9FF14F0A7FC07EEF5
:101EF000900A67EE887A17EE900A14F04FF942467E
:101F00004B4613F0EDFF14F03BFF14F04FFC24F8A8
:101F100017000137BBE7504617F0BAFF044670615F
:101F200020B9054B08481B68D9688FE701248FE763
:101F3000182D4454FB211940000600207A49030063
:101F400000008045A2490300C34903000000E03FB0
:101F5000F0B4D0E902570E4601680023BB4206D117
:101F60000022AB420AD221F813200133F9E736F8F8
:101F70001340944021F813400133EFE742680069B1
:101F8000F0BC00F0A3BE7047826810B50446520052
:101F90000021006818F0CCFBA2686068520801328A
:101FA00092000021BDE8104018F0C2BB01232DE9CA
:101FB000F3410546C1608360D5F8088088454FEA43
:101FC000480001D2A860F7E717F062FF04462860D6
:101FD00048B9254B25481B68D96817F0EBF920460E
:101FE00002B0BDE8F08128F001000230800017F057
:101FF0004FFF0446686020B91B4B1D481B68D96819
:10200000EBE702AF002647F8046D32463B46314607
:10201000404600F0C9FD044638B1134B15481B6813
:10202000D96817F0C7F93446D9E7DDF8048040468F
:1020300017F02EFF0646286120B90B4B0E481B688F
:10204000D968EEE73B460246C5F814802146A868E9
:1020500000F0AAFD2B69834204D0034B07481B689C
:10206000D968BAE70124BAE700060020E549030071
:10207000074A03002A4A0300464A03006A4A03004B
:102080002DE9F04FA3B015460393DDE92C36D3E9D3
:10209000007B0BFB07F200EB8209039A6A43920074
:1020A000BBF1010F04468846029214D10346D8F8CA
:1020B000002043F8042B029A99459044F7D14FEA47
:1020C0008B02BB1E0492032B1ED8DFE813F04300E3
:1020D0009E008301B40205FB07F2049208334FEA25
:1020E0008B02059282460693069B00934146DDE9EA
:1020F000033250460196FFF7C3FF029B9844059BAD
:102100009A44D145F0D1DAE7002147F6FF7C8B45B0
:1021100078DD8E00A5190020874240F38384820079
:102120002B681360B2F900E09CFBF7F303FB0EFE93
:102130000EF5804E4FEAEE3EA2F800E0B2F902E062
:1021400003FB0EF303F58043DB135380049B013044
:102150001D44E1E7049A0432224406F58476AD007A
:10216000043443F6FF7C4FF4804734F8043C13FBFF
:102170000C73DB1324F8043C34F8023C13FB0C739F
:10218000DB1324F8023C32F8043C32F8020C13FB57
:102190000C7310FB0C70DB13C01322F8043C22F804
:1021A000020CB6F900E0B6F9028034F8049C0EFB8C
:1021B00003F108FB101101F58041C1F3CF31A9EB08
:1021C00001090EFB00F022F8049C08FB030303F551
:1021D000804334F8020CC3F3CF33C01A22F8020C48
:1021E00034F8040C014424F8041C34F8021CBBF13C
:1021F000010B0B4424F8023C2E4402F1040204F1CA
:102200000404B2D123B0BDE8F08F05FB0BF306EB5D
:102210008303201DB3F90A31069306F584730293F4
:10222000AB000D93EB000E93049B1C44E318049346
:102230009946029B03932546002142F6AA2A4FF4B1
:10224000804630F8043C13FB0A63DB1320F8043C9F
:1022500030F8023C13FB0A63DB1320F8023C34F82D
:10226000213013FB0A63DB1324F821306B8813FB46
:102270000A63DB136B80049B33F8212012FB0A6294
:10228000D3130593049BBDF8142023F82120B9F83B
:10229000027017FB0A67FF13A9F8027034F92130A6
:1022A0000793029BB3F90080B5F902300893029BB3
:1022B000B3F902300993039BB3F900E0B3F902309C
:1022C0000A93079B03FB08FCDDE9083203FB12CCF1
:1022D0000CF5804CCCF3CF330B93059B0EFB03FC2A
:1022E0000A9B03FB17CC0CF5804CCCF3CF330C933B
:1022F0000B9B9C460C9B9C44089B08FB03F8079B8C
:1023000003FB02880A9B059A0EFB07F703FB027288
:1023100008F5804802F58042C2F3CF32C8F3CF38C7
:1023200008EB02039BB20593029F0D9B1F4402978B
:10233000039B0E9F1FFA8CFC3B4430F8047C0393F4
:102340004CF34E0EA7EB0E0724F82170059B30F8D6
:10235000027C43F34E0EA7EB0E076F8030F8047C2F
:10236000BC4430F8027C20F804CC3B4420F8023C0A
:10237000BDF81830A8EB020813FB086834F82130C8
:10238000049AC8F3CF38434422F82130DDE90B32F8
:10239000A3EB020CBDF818301CFB036C6B88CCF36C
:1023A000CF3CA3EB0C03A9F8023034F82120A2EBB8
:1023B000080824F821806B8801319C448B45A5F8DE
:1023C00002C000F1040005F1040509F104097FF4DD
:1023D00038AF17E706F5847305935B46DF000C23DF
:1023E00003FB0BFC6B43149373681593049BCDF8AC
:1023F00024B0E3180293049B0233E3180393059B74
:10240000AA00CDE906331292EA001392211D31F899
:10241000043C039A41F6FF704FF4804413FB0043E1
:10242000DB1321F8043C31F8023C13FB0043DB13BF
:1024300021F8023C039B33F8023C13FB0043DB13FF
:1024400022F8023C029B029A5B8813FB0043DB13D9
:1024500053801346049AA3EB020E3EF8073013FB99
:102460000043DB132EF80730DDE903329D1AEB5BE6
:1024700013FB0043DB13EB533EF80C90039B19FB5B
:1024800000494FEAE93B2EF80CB035F80C9019FBE7
:1024900000494FEAE93925F80C9033F9023C0A93D8
:1024A000059BB3F900300B93029BB3F902300C93F8
:1024B000059B3EF90760B3F902300D93069B079820
:1024C000B3F9002035F907A0B3F90230B0F90000E4
:1024D0000E9006FB02F40AFB1344079831F8048CB3
:1024E000B0F902000F9004F58044C4F3CF34A8EB98
:1024F000040002FB0AF206FB032380B2089003F5F6
:10250000804331F8020CC3F3CF33C61A184483B2A8
:102510001093BDF8403021F8023CDDE90A325A43FD
:102520000D9B444498460C9B03FB182202F5804205
:10253000C2F3CF3311930E9B03FB0BF80F9B03FBEE
:10254000198808F58048119BC8F3CF3803EB080AB7
:102550000B9B1A460C9B53430D9AA4B2104621F8CC
:10256000044C0A9A02FB00330E9A109802FB09F9F8
:102570000F9A02FB0B9903F5804309F58049C3F3D9
:10258000CF33C9F3CF3903EB090B1FFA8AFA1FFACD
:102590008BFBA4EB0A04A0EB0B002EF80740E853DA
:1025A000129C0598119A20440590139C069820448B
:1025B0000690149C07982044079031F8040C82443C
:1025C00031F8020C21F804AC8344159821F802BCC0
:1025D000A2EB0802A3EB0903B6B292B29BB2E0B140
:1025E0000898039CC01A24F8020C029CB018608062
:1025F000089818442EF80C00B61A029B25F80C60B7
:1026000004330293039B04330393099B013B01F1C1
:10261000040109937FF4FBAEF4E50898039C184489
:1026200024F8020C029CB01A60800898C01A2EF898
:102630000C001644E1E70BFB05F106F584768B00F0
:10264000F218134436F92100B3F9023006900993C9
:10265000B2F9020032F9212008924FEA8B03E21806
:10266000D1180790C818C3180393AB001E93EB0052
:102670001F930C236B4320932B0121936FF00703CF
:1026800003FB05630D936FF003035D430D9B029401
:102690002B440E932B441C9300230493CDE90A335F
:1026A0000C93924605964FF48043029A1F9C043285
:1026B0000292039A043203920A9A22440A92209CBC
:1026C0000B9A22440B92219C049A224404920C9A65
:1026D00093450AF1040A01F1040100F104007FF7B7
:1026E00091AD029A029C32F8042C41F6991512FB26
:1026F0000532D21324F8042C34F8022C029C12FB6D
:102700000532D21324F8022C3AF8042C039C12FB55
:102710000532D2132AF8042C3AF8022C12FB0532A7
:10272000D2132AF8022C31F8042C12FB0532D213F2
:1027300021F8042C31F8022C12FB0532D21321F8B7
:10274000022C30F8042C12FB0532D21320F8042C92
:1027500030F8022C12FB0532D21320F8022C039A17
:1027600034F8027C32F8042C12FB0532D21324F820
:10277000042C17FB0537039CFF1324F8027C029CF2
:1027800034F9024C1D943AF9044C0F94059CB4F9A9
:10279000008031F9045C0A9E12950D9D3AF9024CB5
:1027A000AD5F139531F9025C14950D9D109435447D
:1027B0000B9EB5F90250159530F9045C16950E9DE7
:1027C000059CAD5F17950E9DB4F9024030F9029C4F
:1027D00011943544049EB5F9025018951C9D35F9A5
:1027E00006E03544B5F9025019950F9D109E05FB82
:1027F00008F506FB145505F58045C5F3CF341A944A
:10280000199C119D0EFB02F604FB176606F5804627
:102810001A9CC6F3CF3604EB060C1FFA8CFC0FFA99
:102820008CF41B94109C08FB04F80F9C04FB058897
:10283000199C0EFB07F704FB027708F5804807F5A3
:102840008047C7F3CF37C8F3CF3808EB070E1FFA1E
:102850008EFE0FFA8EF20F921A9A951B2AB2A8EBEF
:10286000070810920FFA88F21192DDE912246243F0
:10287000DDE9145405FB1422DDE916456C43189D6F
:1028800009FB154402F5804204F58044C4F3CF34BB
:10289000C2F3CF321519ADB22EB21996DDE9136726
:1028A0007E43159FB846129F07FB0866179F07FBDC
:1028B00009F9189FB846169F121B07FB089912B218
:1028C000129206F58046029A09F58049C9F3CF397C
:1028D000C6F3CF3606EB0908A6EB090632F8049CCE
:1028E0004D44654422F8045CBDF874C0199C1B9DDE
:1028F0001FFA88F80FFA88F7E044F04422F8028CB7
:10290000089A04FB0234069A09EBE43405FB023210
:102910000F9D04EBE234089AAE46069D02FB073297
:1029200005FB0E350CEBE23202EBE532079D92B26D
:1029300013922A46119D05FB0235099A36B206FB11
:10294000023E4FEAEE3E109A0EEBE53E079D05FB78
:102950000238129A099D05FB0235ED13139AA4B2B1
:102960001FFA8EFE05EBE835ADB2A4EB0E082AF88F
:10297000048C02EB0508039A2AF8028C744422F8AE
:10298000044C139A039C521B24F8022C069C199A9F
:1029900004FB023209EBE2391B9C089A04FB023269
:1029A00009EBE239069A089C02FB07370F9A0CEBF9
:1029B000E73704FB023C079A119C02FB0636099A92
:1029C00004FB0238109A099C04FB0235079C129AFA
:1029D0004FEAE83804FB0232D213C8EBE6361FFA9E
:1029E00089F91FFA86F8C2EBE53507EBEC3C09EBF9
:1029F00008021FFA8CFCADB221F8042C0CEB050286
:102A000021F8022C0C9A1E9C01320C92059AA9EB1B
:102A10000809ACEB050C224420F8049C20F802CCF9
:102A2000059242E6002F03DD00231868A051FFDE67
:102A30000131FFF76CBB00002DE9F04F85B0154662
:102A400000F14202044601919200002B00F08980BF
:102A500025B91A60284605B0BDE8F08F19681A60DC
:102A6000914201D20025F5E7019BDFF80CB1286007
:102A70006B60A8464FF000094FF0000A204613F0A3
:102A80007BFB4C4506460F4640DD484613F074FB81
:102A900035A3D3E9002313F0D9FB3B46324613F0AC
:102AA000FFFC019B06460F462BB101F1004302904B
:102AB0000393DDE902673046394614F019F92CA377
:102AC000D3E9002313F0C2FB52465B4613F008FA29
:102AD00014F056F913F06AFE3946A8F8080130469A
:102AE00014F06EFC22A3D3E9002313F0AFFB52468F
:102AF0005B4613F0F5F914F043F913F057FE09F1B2
:102B00000109A8F80A0108F10408B7E714F022FF48
:102B100014F036F905F1080780468946042694FB2F
:102B2000F6F306FB1342A2B1022E10D0042E0CBF06
:102B300002260236304613F01FFB02460B46404683
:102B4000494613F0F5FD002818BF2646E7E703269F
:102B5000F0E7012B1C46C7E900637FF77BAF08371E
:102B6000DDE71D4676E700BF182D4454FB2119C050
:102B700000000000C0FFDF400000E03F13B5144636
:102B80008C4200F10802CDE900204FF001020CBF99
:102B900000202046FFF774FA02B010BD0123FFF7B2
:102BA000EDBF0000000000002DE9F04F89B010F0EB
:102BB00001060391154613D1441004F14200800030
:102BC00004EB44024FF0020A92FBFAFC00F10C0203
:102BD000079002EB8C021BB11F681A60974204D267
:102BE0000025284609B0BDE8F08F002DF8D005F18A
:102BF0000C021318A0F5847018446B60A8602A605A
:102C000007AB2046FFF718FF94FBFAFAB245E8DD60
:102C10000136304613F0B0FA80462046894613F05C
:102C2000ABFA02460B464046494613F039FC0022F7
:102C3000254B13F055F920A3D3E9002313F006FB2D
:102C4000039B804689462BB101F10043009001931C
:102C5000DDE900894046494614F04AF818A3D3E953
:102C6000002313F0F3FA0022174B13F039F914F094
:102C700087F8AA6806F18043013B02EB830BCDE99C
:102C8000042313F093FDDDE90423494622F82300D1
:102C9000404614F095FB0AA3D3E9002313F0D6FABB
:102CA0000022094B13F01CF914F06AF813F07EFDB2
:102CB000ABF80200AAE700BF182D4454FB2109C05D
:102CC00000000000C0FFDF400000E03F2DE9F04FB2
:102CD00080460068446887B01746002C40F0978013
:102CE000D8F804200668FFF759FFD8F80490B9F81F
:102CF0000030B9F8022043F6FF714FF4804013FB17
:102D0000010312FB0102C2F3CF32C3F3CF339D188C
:102D10004FEA860C3D8007EB0C059B1A27F82630FE
:102D200022467C8002236C8096FBF3F34FF0010E69
:102D3000059309EB0C060C460190059B734566DB79
:102D400009EB020C39F82E10019BBCF806C0019863
:102D500011FB043136F8043C1CFB040C13FB040388
:102D6000CCF3CF3036F802CC0290C3F3CF33C1F3AB
:102D7000CF310198A1EB030BCCF1000C1CFB040C30
:102D80000FFA8BF003900298CCF3CF3CA0EB0C0B26
:102D9000D8F80800194400EB020A0BB2805E0493D5
:102DA000039BBAF902A001460FFA8BFB59430BFBB8
:102DB0001A1101F58041049B41F3CF310B445B10A4
:102DC00027F82E30029B9C44039B00FB0BFB03FB6C
:102DD0000ABB0BF5804304980FFA8CFC43F3CF3306
:102DE00007EB020B0CEB030A411AA3EB0C034FEAAF
:102DF0006A0A49105B10ABF806A00EF1010E25F827
:102E0000041C25F8023C043E0432043D95E707B05B
:102E1000BDE8F08F836810B41BB9036D5DF8044BF7
:102E2000184703EB41105DF8044B7047C0EE807A01
:102E300073B5044615460E4617EE900A13F0AEF928
:102E400014F074FA13F0FAFC9FED117A07EE900A71
:102E5000F4EEC77AF1EE10FA0FDB9FED0E7AF4EE86
:102E6000C77AF1EE10FA08D8FDEEE77A002017EEE7
:102E7000901A3144296002B070BD074B0093204680
:102E80006569064A064940F25913A8470120F2E74E
:102E9000000000CF0000004FEE4A0300964A0300F6
:102EA000913B0300002A51F8043B07DB934205DD08
:102EB00051F82210002901DBFFF7ACBF002070475A
:102EC0000968FFF7EFBF4B68002A53F8041B07DBC4
:102ED000914205DD53F82210002901DBFFF79ABF6C
:102EE00000207047FFF7ECBFD1ED027A92ED027A35
:102EF00067EE877A73B5F5EEC07AF1EE10FA1E46EA
:102F00000ADA0F4B009344690E4A0F4940F24B1303
:102F1000A047012002B070BD17EE900A13F03EF9F1
:102F20000446B0680D4613F039F90B4602462946AF
:102F3000204613F0B5FA069BC3E900010020E9E73B
:102F4000144B0300964A0300913B0300000000006D
:102F50002DE9F74F0446886890469A460D4613F0CF
:102F60001DF90646D8F808000F4613F017F9024677
:102F70000B463046394613F069F9DDE90C9B0646ED
:102F80000F46BAF1000F1CD0DAF8080013F006F96A
:102F900002460B463046394612F0A0FF0646D9F8E5
:102FA000080021F0004713F0F9F802460B463046BE
:102FB000394613F075FA13A3D3E9002313F0C2FBCB
:102FC00050B14B46424629462046CDF830B003B0BA
:102FD000BDE8F04FFFF788BF074B009320466569B7
:102FE000064A07494FF49F73A847012003B0BDE884
:102FF000F08F00BFAFF300802D4B0300964A030013
:10300000913B03007B14AE47E17A943F2DE9F043F6
:103010002DED028B9946137F85B0032B0646DDF814
:10302000388011D0092B2BD0072B2DD03B4B009390
:1030300044693B4A3B4940F29113A047012005B047
:10304000BDEC028BBDE8F083FF240025012992ED41
:10305000028AD7681CD103AADFED330A3946B0EEE5
:10306000480A3046FFF7E2FE0028E8D1039BAB4256
:10307000ACBFC9F80030C9F80050C8F80040DEE71E
:103080007F246FF07F05E1E747F6FF74274DDDE70A
:10309000032924D103AADFED240A3946B0EE480AF9
:1030A0003046FFF7C3FE0028C9D1039BAB42ACBF3B
:1030B000C9F80030C9F8005003AAF1EE080A3946F1
:1030C000B0EE480A3046FFF7B1FE0028B7D1039BA7
:1030D000A342D4BFC8F80030C8F80040AFE70229C7
:1030E00015D103AAFFEE000A3946B0EE480A304671
:1030F000FFF79CFE0028A2D1039BAB42ACBFC9F8EE
:103100000030C9F8005003AAF7EE000AD7E7C9F863
:1031100000500020C8F8004091E700BF4F4B03006B
:10312000964A0300913B0300000000000080FFFF6F
:103130002DE9F04F91F800908FB0B9F1010F0446DE
:103140000D4617469B46DDF880800FD001266C4B5C
:103150000193CDE902966B4B00934469DB236A4AE5
:103160006A49A04701200FB0BDE8F08F1678012E04
:1031700008D0634B0193CDE90269654B0093446924
:10318000DD23ECE752683AB9624B00934469E723C8
:103190005D4A6149A047E5E7D2F80090B9F1000F18
:1031A00004D15E4B00934469E823F1E7D9F800A00D
:1031B000BAF1010F35DD0B7F092B06D0072B04D0A8
:1031C000574B00934469ED23E2E73B7F092B0DD079
:1031D0000922CDE90232534B0193534B00936569A9
:1031E000EE23494A49492046A847BBE7D04508D0C5
:1031F0004E4B0193CDE902A84D4B00936569EF2337
:10320000EFE77B69926803EB82035B68984508D01F
:10321000CDE90283474B0193444B00936569F22348
:10322000DFE7D5ED027A189BCDED057AD3ED027A72
:1032300009F10403CDED067A07930026B0452EDD93
:10324000BAF1010FC9BF079BD9F8040003EB86034D
:10325000186812F0A3FFCDE90801059812F09EFF4F
:1032600002460B46DDE9080112F0F0FFCDE9080146
:10327000069812F093FF02460B46DDE9080113F0B1
:103280000FF90CAB0BAA00F057F81E9A0B9B42F8F3
:1032900026301F9A0C9B42F826300136CEE72B7F52
:1032A000032B1AD10EAB0020002163E90201019328
:1032B000189B00933A465B4629462046FFF748FE96
:1032C00000287FF450AF0BAB1A9ADDE90C0100F037
:1032D00033F80B9B1B9A5B4213602B7F092B03D0A7
:1032E00003F0FB03032B09D1199B189A19781D9B36
:1032F000009320461C9BFFF789FE34E7002032E74D
:103300006F4B0300894B0300964A0300554B0300A3
:10331000A24B0300BC4B0300913B0300D04B0300C6
:10332000EB4B0300254C0300314C03003E4C0300E3
:103330004B4C03006C4C0300F8B515461C460022AC
:10334000002306460F4613F0E9F918B100232B605D
:103350002360F8BD22463046394613F091FD002225
:10336000104B12F073FF13F0E1FF13F01FFB4FF04F
:1033700000420023824273EB010601DA15F0FEFCE5
:10338000994201BF9042236801332360236808BF3C
:103390004FF080401F33BEBF002300202360286011
:1033A000D7E700BF0000E041F8B515461C460022F3
:1033B000084B06460F4613F0D9F908B915F0DEFCA4
:1033C00023462A4630463946FFF7B6FF2368002BCE
:1033D000F4DBF8BD0000F03F2DE9F14F06460A98F6
:1033E0009946C0F11F00012303FA00F00F469046F2
:1033F00012F0C2FE424604460D464B463046394660
:1034000012F024FF02460B462046294612F01EFF0A
:103410000BA3D3E90023DDE90BAB04460D4613F003
:10342000A5F910B106A5D5E900455B4652462046F0
:10343000294601B0BDE8F04FFFF7B6BFAFF30080FB
:103440000000C0FFFFFFDF412DE9F8430124814662
:1034500004FA00F001388846154612F08DFE064643
:10346000A5EB09000F46C0F12003A0F1200124FACA
:1034700003F304FA01F104FA00F0194312F0B8FE64
:1034800002460B463046394612F0E0FEC8F12003F2
:103490000F46A8F1200124FA03F304FA01F10646CD
:1034A000194304FA08F012F0A3FE02460B46304618
:1034B000394612F0F5FF13F063FC13F077F9BDE81D
:1034C000F8830000884230B51DD100F100435C4212
:1034D0005C4180FB0123002A73F100010C49A8BF65
:1034E0004FF080418CB9541843EBE175002C75F115
:1034F000000304DA6FF00040002124184D41E00F72
:1035000040EA450030BD0024E3E76FF00040F9E7F2
:10351000010000C0002908B506DA0D4B0D4A4FF432
:10352000B3710D4815F032FC1F2904DD0B4B094A1D
:1035300040F26711F5E701238B40013B03EA0002EB
:103540005B1003EBD07308419A42C8BF013008BD3D
:10355000A94C0300234D0300B74C0300144D030096
:103560000368C31A1A880A2A07D95B89C21833B1BB
:10357000C358D01804D0D058704700207047184660
:10358000704700000368C31A10B51A88082A18D9B2
:103590001B89C418ABB1C258A318A258914206D3D4
:1035A000094B0A4A0A484FF4837115F0EFFB0433C4
:1035B00003EB810053F82130BDE810401844FFF7B9
:1035C000CFBF00231B68FFDE7D4D0300F24D0300DB
:1035D000884D0300704770474B1E1844B0FBF1F054
:1035E00048437047B0FBF1F0484370470138084446
:1035F000B0FBF1F04843704701380F2815D8DFE8D9
:1036000000F00C0C100E1410080E10080E120E0C08
:10361000140C02230B60002070470423FAE70823F0
:10362000F8E70123F6E71023F4E7012070472DE9BE
:10363000F3410D460168411A16460A88042A2ED91C
:103640008C8800EB040C8CB104591CEB04070DD0E2
:103650005CF804804FF0000C0124C44507D057F8F3
:1036600004EF0CF1010C0EFB04F4F6E70124062A2A
:1036700016D9C988B1B140561A460DF10701C0B23A
:10368000FDF78EFB40B931469DF80700FFF7B4FF08
:1036900010B933685C432C6002B0BDE8F0810124AE
:1036A0000020E9E70846E7E7436873B50C4653B1E5
:1036B00053F8046B002101228E4205DD53F8045BB0
:1036C00001316A43F8E7012201A9007AFFF794FF6C
:1036D00010B9019B5A43226002B070BD4068036874
:1036E000DB68184770477047406803681022DB6842
:1036F0001847406803685B691847406803680422FC
:10370000DB68202118477047836910B50C461146C5
:1037100033B1406803680422DB6889009847206061
:10372000002010BD10B508210446FDF727FB231823
:1037300008B12058184410BD10B50A210446FDF701
:103740001DFB231808B12058184410BD10B50621E0
:103750000446FDF713FB00B12056C0B210BD10B5F2
:103760000E210446FDF70AFB00B1205C003018BFB3
:10377000012010BD10B504210446FDF7FFFA2318FF
:1037800008B12058184410BD10B508210446FDF7B3
:10379000F5FA231808B12058184410BD036870B515
:1037A000DB680E461546202104220446984740B1A6
:1037B000044BC0E900340023C0E90365C0E90633C7
:1037C000037570BD3053030070B50E4610210446DA
:1037D0001546FFF701FFA2190146121A284601F00B
:1037E00031FD03680422DB682C2104469847064615
:1037F00008B103F049FF2A4631462046BDE8704033
:10380000FFF7CCBF002383614068036804229B68F4
:1038100060211847037D70B504460E462BB11E4942
:103820000069FDF759FA002522E00123037540687D
:1038300003680422DB680821984718B16368174AB7
:10384000C0E90023A0602046FFF7DCFF0028EAD192
:103850003046FFF799FF656801682B682846DB68EA
:103860000422C9009847054620B90D4800F0EEFD36
:10387000284670BD23680246DB69314620469847DA
:103880000028D0D123682A469B69314620469847B4
:103890000028EDD0C7E700BF364F030018530300E0
:1038A0008B4F030008B5406801F0F0FC0421BDE82F
:1038B0000840FFF791BE00002DE9F041044688461C
:1038C0001F46FFF7EFFF0022A5691646954207D075
:1038D00000EBC20301325B68013308BF0136F5E734
:1038E0000B2E07D90C220A492069FDF7F5F90120B2
:1038F000BDE8F08100EBC5034FF0FF3240F83580A2
:103900005A603D60A3690133A3610020F0E700BF66
:10391000FB510300036870B59B6804460D46984749
:103920002046FFF7BFFFA1690022914206D04368FD
:10393000013308BF456001320830F6E7606803686C
:103940000C319B680422C900BDE8704018478068AC
:103950007047000008B50368994206D3054B064A34
:1039600006484FF4837115F011FA00EBC100D0E95D
:10397000010108BD7D4D030012580300884D03006E
:1039800008B50368994206D3054B064A06484FF42A
:10399000837115F0FBF900EB8100406808BD00BFA2
:1039A0007D4D030044570300884D030008B50368AC
:1039B000994206D3064B074A07484FF4837115F026
:1039C000E5F9043000EB810250F82100104408BDF5
:1039D0007D4D03005A540300884D03002DE9F74341
:1039E00005468846164600244FF00C094046FFF76E
:1039F000C1FE03689C421FD22146FFF7D7FFFFF7A5
:103A0000AEFEB8B109FB04F701A9F019FFF74CFEAF
:103A100068B96868019903681022DB689847F0511B
:103A200040B9019A05492869FDF756F9012003B00C
:103A3000BDE8F0830134D9E70020F8E7084F030020
:103A400008B50368994206D3064B074A07484FF466
:103A5000837115F09BF9043000EB810250F82100CE
:103A6000104408BD7D4D03004A560300884D0300F5
:103A70002DE9F3479846037D04460F463BB31546B0
:103A800000263846FFF780FE03689E4227D2314663
:103A9000FFF7D6FF2368A2691B6B8146414620468B
:103AA0009847C8B923680096D3F82CA06A68D8F85C
:103AB000003039462046D04770B923686A681B6ACF
:103AC000494620469847083530B90136D9E70549B7
:103AD0000069FDF701F9012002B0BDE8F087002080
:103AE0002075F9E7B94F03002DE9F04105460F466F
:103AF000164600243846FFF747FE03689C4218D25A
:103B00002146FFF79DFFFFF72BFD6B681A68410107
:103B1000D2F80C8018460422C04730B906492869FB
:103B2000FDF7DAF80120BDE8F08146F834000134F1
:103B3000E0E70020F7E700BF315203002DE9F74F1F
:103B40000C9F05460846164698468A46FFF71CFE17
:103B50003946FFF775FF2B6828465B6A4FF000096E
:103B60009847CDE900792B680446D3F828B002467F
:103B7000434651462846D84740B10B492869FDF7CE
:103B8000ABF84C46204603B0BDE8F08F002EF9D0CC
:103B900006EBC7060C23726803FB08F3D118D35851
:103BA00023614B686361EDE7675203002DE9F3473A
:103BB0000A9F06460846984689461546FFF7E4FDE3
:103BC0003946FFF73DFF7068036804221B69202116
:103BD00098470122CDE9007233680446D3F828A043
:103BE0000246434649463046D04740B10B4930690A
:103BF000FDF772F80024204602B0BDE8F087002DE2
:103C0000F9D005EBC7050C236A6803FB08F3D1184C
:103C1000D35823614B686361EDE700BF5151030046
:103C200008B50368994206D3064B074A07484FF484
:103C3000837115F0ABF8043000EB810250F82100DD
:103C4000104408BD7D4D030064530300884D0300FC
:103C500038B50C4608210546FDF790F888B129587B
:103C60002046FFF7DDFF044650B10421FDF786F83A
:103C7000221828B12358D11805D0D05800B1081DFA
:103C800038BD0146ECE70846FAE710B50446FDF7F3
:103C900075F8231808B12058184410BD2DE9F743D2
:103CA0000B9C9046054620220E46204600211F46CA
:103CB00016F03EFD4046FFF749FD0A9A04F11C014B
:103CC000FDF76EF8002853D14046FFF748FD39460E
:103CD000A0774046FFF7BCFF206100284BD10223AC
:103CE000637701AA0A9B04F118014046FFF79FFC85
:103CF00000283DD104214046FFF7C7FF00283CD1F2
:103D00003F4B63610C214046FDF738F808EB000794
:103D100070B358F800003F18384629D0FFF702FD6D
:103D2000804600286AD0006810B33846FFF704FDCB
:103D3000F0B10068E0B1D8F80430A3603846FFF76E
:103D4000FBFC0021FFF706FEE0603846FFF7EAFCC7
:103D50002B68D0F80080A6B11B6904220C212846EC
:103D600098470646C8B927490A98FCF7B5FF0120CD
:103D700003B0BDE8F0830123B2E7FFF72BFC6061DD
:103D8000C0E7DB6804220C21284698470646002835
:103D9000E9D02B68D3F80C9002E02B68D3F8109090
:103DA0004046FCF789FF042201462846C847706058
:103DB00008B91549D8E73846FFF7B4FCFFF70BFC04
:103DC000D6F80490306049F8048B0025A84509DD39
:103DD0003846FFF7B1FC2946FFF7BCFD49F825003E
:103DE0000135F3E710213846FCF7C8FF00B1385819
:103DF000B0600123237066600020B9E7B8E700BF18
:103E0000EC4E0300B1520300DF5203002DE9F041F4
:103E1000069C26460D460021C4E9001146F8081FFD
:103E2000984628461746FFF791FC31464246FCF774
:103E3000B7FF064658B939462846FFF709FF04215F
:103E400020602846FFF721FF20B9044B636030460D
:103E5000BDE8F081FFF7BEFB6060F8E7EC4E0300C1
:103E600010B50446FCF78AFF231808B120581844FF
:103E700010BD2DE9F0410446084690461F460D4608
:103E8000FFF782FC06999DF81C60FFF7D9FDFFF74C
:103E900071FC3946FFF78AFD0C2107462846FFF7DB
:103EA000DFFF23690693CDF81C8003463A4631466E
:103EB0006068BDE8F041FFF7F1BE00002DE9F04F6A
:103EC00085B006468846039200254FF00C0940460F
:103ED000FFF75AFC03689D423DD22946FFF7B0FD2B
:103EE0000290FFF747FCD0F800A07068036809FB58
:103EF0000AF4DB68042221469847074640B917496F
:103F000022463069FCF7E8FE012005B0BDE8F08FDD
:103F10000024544519D00298FFF72CFC2146FFF7E6
:103F200045FD0C2183464046FFF79AFF09FB0473C9
:103F300000930246336970685946FFF767FF10B176
:103F400022460749DDE70134E3E7039B03EBC503A2
:103F500001355F60BBE70020D7E700BF9551030044
:103F6000DC5103002DE9F04F8DB004460846CDE941
:103F700008238946FFF708FC1699FFF761FD0646FE
:103F8000FFF7F8FBA26903686068D318182505934A
:103F90006B430393036803991B6904229847054602
:103FA00030B9039AB7492069FCF796FE012066E113
:103FB0003046FFF7DFFB03680493A36906931021E3
:103FC000236902934846FCF7D9FE09EB000100285B
:103FD00048D059F800208B1877D08A5807924FF0B4
:103FE000000A03F10408D346079B5B453BD04746D4
:103FF00004213A6817443846FCF7C0FE08F104086B
:104000003A1808B13858104417229F49043016F066
:10401000E5FF20BB0C214846FFF722FF0621824620
:104020003846FCF7ABFEC0B139585046FFF7F8FDF3
:1040300004210746FCF7A2FE3B18002800F0B281DD
:104040003858034403F1100ADA68049B934206D0FF
:104050008E490298FCF740FEA8E70146E5E70BF120
:10406000010BC1E78246DDF820900295A8460027A3
:104070004FF0FF3B049BBB422CD0C8F80490414654
:104080004846FFF711FB002840F0F980D9F80020DE
:10409000C8E902BB52B93046FFF76CFB3946FFF75F
:1040A00085FCFFF75CFB80F00100C0B288F81400CB
:1040B000BAF1000F0BD05AF82720C8F810200137AA
:1040C00008F1180809F10C09D4E79A46CBE7C8F8BB
:1040D00010B0F4E73046FFF743FA4FF0000B80468C
:1040E0004FF0180AD94606213046FFF7CEFD60B1E1
:1040F00003685B4509D95946FFF742FC0AFB0050AB
:104100000BF1010BC0F80890EDE74FF0000A08F141
:10411000FF384FF0180908213046FFF7B6FDC346B7
:1041200010B10368534519D84FEA8808BBF1000F56
:10413000C0F2CD800A213046FCF720FE311800285D
:1041400000F0328132588B188A58934510D3504B67
:10415000504A51484FF4837114F018FE5146FFF74E
:104160000FFC09FB00500AF1010AC0F80C80D2E7ED
:10417000043303EB080953F808304B4404934FF021
:10418000000906210498FFF780FD8246A0B103686C
:104190004B450FD94946FFF7F3FB182303FB0050AB
:1041A000C3685A1C01D09B4501DDC0F80CB009F171
:1041B0000109E6E74FF0000A08210498FFF765FDC2
:1041C00010B10268524504D80BF1FF3BA8F1040876
:1041D000ACE75146FFF7D4FB182303FB005082687D
:1041E000531C01D0934501DAC0F808B0C268511CD5
:1041F00001D0934501DDC0F80CB00AF1010ADBE7FC
:104200001021606801F044F8064660680368314692
:104210001B6910229847014658B921691F4B019329
:104220004FF4637300931E4A1E4B0846FCF762FD71
:10423000BCE6E0680268D7693246B847D4E903793A
:104240002E464FF00008059B434567D0337D1BB9D0
:1042500008F101081836F6E710213068FFF7C6F9B3
:1042600031694B1C02463B681ED1F1680091D3F8BE
:1042700008A0B36849463846D0470028E8D00DB0BA
:10428000BDE8F08F04500300F04E030045500300DA
:104290007D4D030050550300884D0300EA50030094
:1042A000913B0300905003000191F1680091D3F815
:1042B0000CA0B36849463846D047DEE7336830463D
:1042C0001B6998473B46024638494046C2E62046AD
:1042D000FFF7E8FA6FF0070202FB0700069A099958
:1042E00018233A4403FB075396464FF0FF3C012640
:1042F000BE4503F1180383D950F8372043F8182C32
:1043000000EBC70243F8141C526843F808CC43E999
:10431000042203F8046C01370431E9E7606803689C
:104320005B6998471021606800F0B2FF0746E068BB
:1043300003681B699847B842D4E90368BED860682F
:1043400000F0A4FF039B81461D4400274FF0FF3A75
:10435000029B9D4217D01B7D8BB13368CDF82CA0FA
:10436000D3F818B03A460BAB41463046D847002840
:1043700085D1029B5A680B9B4B4413600137029B0B
:1043800018330293E4E7E06803681B699847E36920
:10439000834200D2E0616068E169036810229B6893
:1043A00098476CE7C368FFDE0368FCE7035103002E
:1043B00038B504211C20FFF719F9042104462020F8
:1043C000FFF714F9042104440820FFF70FF9042132
:1043D00004440820FFF70AF9054D20442860042111
:1043E0002C20FFF703F92B681844024B186038BDE6
:1043F000AC870020A887002000B5C1B00B4602465C
:104400004FF48071684600F069FD684600F04EFF89
:10441000024800F04BFF41B05DF804FBF37D030060
:1044200000B5C1B0134668460A464FF4807100F0EB
:1044300055FD684600F03AFF034800F037FF0020C2
:1044400041B05DF804FB00BFF37D03000FB407B576
:1044500004A951F8040B0191FFF7CEFF03B05DF8FA
:1044600004EB04B0704700004369202B01D1806940
:104470007047DBB2952B9ABF024A52F823000248DC
:10448000704700BF803C0300207A030070472DE98D
:10449000F047D0F8148004460026E3691B689E426A
:1044A00020D266613146A068FFF76CF84FEAC60A71
:1044B000814600274F4513D0236953F80A5005EB76
:1044C0004715EB6929695A691B68202A0CBFD5E991
:1044D0000512002213B160689847E8600137E9E7E8
:1044E0000136DAE7C4F814800020BDE8F0872DE932
:1044F000F843476904460025E3691B689D421AD2C8
:1045000065612946A068FFF73DF84FEAC509804676
:10451000002646450DD0236953F8093003EB4613B6
:10452000DA6922B1526812B1D968606890470136E1
:10453000EFE70135E0E767610020BDE8F8830000A0
:104540002DE9F047476904460025E3691B689D4251
:104550002CD265612946A068FFF714F84FEAC50917
:104560008046002646451FD0236953F8091001EB09
:104570004611D1F81CA0DAF808307BB16068984782
:10458000014658B15046FFF76FFF32460B460146D1
:104590000848FFF75BFF0120BDE8F0873146E0687F
:1045A000FFF7B8F90136DDE70135CEE76761002096
:1045B000F2E700BF66590300002310B50446C0E9C6
:1045C000003222B1136810469B689847206020464D
:1045D00010BD10B50446406818B103682168DB6857
:1045E0009847204610BD0000C3691A682DE9F347BB
:1045F00004469142D0F8148061610F4607D32148E8
:10460000FFF724FF0125284602B0BDE8F087806847
:10461000FEF7B8FFFF00814600264E452ED02369E5
:10462000DD5905EB4615D5F81CA05046FFF71CFFD9
:10463000636801465A6B6846FFF7BEFF2946DAF801
:104640000C30606898470546E06803689B689847A7
:10465000012D0CD15046FFF707FF2B46014632468D
:104660000948FFF7F3FE6846FFF7B3FFCBE7002DDD
:10467000F9D16846FFF7ADFF0136CEE7C4F81480E4
:104680000025C0E70059030032590300016170475B
:104690002DE9F04F074685B000264FF00C0BF86966
:1046A00003689E4265D23146FFF7CAF94FEAC60950
:1046B0008046002504214046FCF760FB08EB000122
:1046C00000285BD058F800208B188A5895424ED2AB
:1046D000043303EB850453F825301C440E21204697
:1046E000FCF74CFB00283CD0235C002B39D03B6905
:1046F0004B440BFB05FA586803A95044FEF7D4FF5E
:104700000346002836D1019006212046FCF736FBEF
:1047100048B32256019B092A27D10C212046FCF7D9
:104720002DFB231890B124581C440A212046FCF785
:1047300025FB221810B32358D118D35843B9104B76
:10474000104A11484FF4837114F020FB0446ECE743
:1047500049683B69039A4B445B6853F80A0015F0BB
:10476000E7FF0135A6E70146F3E71946F1E7013611
:1047700095E70023184605B0BDE8F08F0368FFDE1B
:104780007D4D0300D4590300884D030010B5044645
:10479000FCF7F4FA231808B12058184410BD70B57E
:1047A0000C460546082180681646FFF7EFFF2146B4
:1047B000FFF746F90621FFF768FA3146FFF7E0F800
:1047C000296901EBC4010C224B6802FB003070BD6B
:1047D00008B508218068FFF7D9FF006808BD10B54B
:1047E00080680C460821FFF7D1FF2146FFF728F922
:1047F0000621FFF74AFA006810BD10B580680C4624
:104800000821FFF7C3FF2146FFF71AF90821FFF738
:104810003CFA006810BD000010B50446C4E902234C
:1048200007480023C4E90433029BA361C4E90001E3
:1048300022B108211046FFF7A9FFE061204610BD14
:10484000A459030070B50C46054608218068164639
:10485000FFF79CFF2146FFF7F3F80821FFF715FA51
:104860003146FFF78DF8296901EBC4010C224B6832
:1048700002FB003070BDC368986E0368DB681847A0
:10488000C368D3F8903053F82100704737B5C46837
:10489000A06ED4F88020036800925D68E26F0B463A
:1048A0002168A84703B030BDC268D2E91F3003EBCE
:1048B000C0030C205B6800FB01307047C3686C3399
:1048C0000B6000207047C368D3F894007047C0683D
:1048D0001346D0F88020806EFEF7EEBF0EB403B50D
:1048E000C368986803AA036852F8041B01929B6886
:1048F000984702B05DF804EB03B070472DE9F3412F
:10490000099F876000F10C0504469846C0E9001233
:104910000E465C220021284615F00AFF3A46089907
:104920004046FEF751FF0A9AA066034600922946C8
:10493000324604F16C00FFF76FFF0B4A22620B4A0C
:10494000E2650B4A22660B9AA4610023204684F894
:104950008C30C4E92433C4E92633226484F88D30D2
:1049600002B0BDE8F08100BFDD4801008D480100C4
:10497000A948010008B50821FFF708FF0021FFF74B
:104980005FF80621FFF781F9006808BD38B50546D4
:1049900000680C46FFF7EEFFA042034606D8224609
:1049A0000549A868FCF798F9002038BDD5F898307B
:1049B00053F82400F9E700BF885C030008B508211C
:1049C000FFF7E4FE0021FFF73BF80821FFF75DF950
:1049D000006808BD38B5054600680C46FFF7EEFFD5
:1049E000A042034606D822460549A868FCF774F998
:1049F000002038BDD5F89C3053F82400F9E700BFFB
:104A0000E05C030038B5C36F044600F16C0513B1D8
:104A10002846FFF76CFD2846FFF738FD204638BDD5
:104A20002DE9F04F05468BB04FF0000805F16C0002
:104A3000FFF7CEFE404540F3FB802C68082120465E
:104A4000FFF7A4FE4146FEF7FBFF06218146204604
:104A5000FCF794F9231840B3205803440093A86E40
:104A6000FEF775FF04904846FEF77AFD4FEAC8034B
:104A7000059001930026059B9E4200F0D6800A21F6
:104A80004846FCF77BF909EB0001002800F0D380D1
:104A900059F800208B188A58964208D3674B684A09
:104AA00068484FF4837114F071F90090D7E704332C
:104AB00003EB860453F826301C4404212046FCF7FF
:104AC0005DF958B12758009B1B68BB4208D85E4867
:104AD0003946FFF7BBFC4FF0010B23E00746F2E736
:104AE000009B019A043303EB870A53F827309A445A
:104AF00073010393EB6F9B58720113441C33D5E988
:104B000001125046FCF722FB834678B1504602F072
:104B1000A5FF952896BF4D4B4D4953F820104D48A1
:104B2000FFF794FC58460BB0BDE8F08F019AEB6F8D
:104B30009B5872011344DB6913B939464648C8E7EC
:104B400093F814A00990BAF1200F4FF00E012046FF
:104B500042D1FCF713F92218002835D14FF0000A92
:104B6000CDF808A006212046FFF78FF8FEF732FDAA
:104B7000082106902046FFF788F8FEF72BFDEA6F24
:104B8000019B079052F803B0039B0BEB03071C2219
:104B90000021384615F0CCFD039B1A46069B4BF8C6
:104BA0000230079B7B60099B3B61029B1421C7E994
:104BB000053A2046FFF769F820B1036813B1FEF704
:104BC00009FDB860013656E72358D118C6D0043124
:104BD000029152F803A0C5E7FCF7D0F8231858B1AA
:104BE0002258D34208D0BAF1950F96BF174B1849F7
:104BF00053F82A1019486CE76868036851465B6AE5
:104C00009847074640B9BAF1950F96BF0F4B104928
:104C100053F82A1012485CE709AB049AA9682046A9
:104C2000B8478346002899D07CE708F10108FDE6E3
:104C30004FF0000B76E70368FFDE00BF7D4D0300F9
:104C40000C5D0300884D0300AD5B0300803C030056
:104C5000207A0300D75B0300045C0300255C03009B
:104C60006B5C03002DE9F74F01680446806EFEF788
:104C7000D1FD014650B96649A0680125FCF72CF822
:104C800084F88D50284603B0BDE8F08F04F16C061F
:104C90003046FFF7FBFC2046FFF7C2FE0546002822
:104CA000F0D15C4B63645C4B6063C4E91300236127
:104CB0003046FFF7ECFB05460028E3D1574BE36491
:104CC000574B63633046FFF73BFC05460028D9D1BC
:104CD000544B6064E0642365E26F2168A06E04F1C8
:104CE0009003FEF7C5FE05460028CBD1A76E2068CD
:104CF000FFF740FE3B688100DB6838469847C4F800
:104D0000980048B92068FFF735FE47498200A0683F
:104D1000FBF7E2FF0125B5E7AA4627683846FFF70B
:104D200029FED4F86880A842D8F8009023D9082139
:104D30003846FFF72BFD0021FEF782FE0621FEF725
:104D4000A4FF2946FEF71CFECDF800A00346D9F8C3
:104D50000090E26FD4F898B039464046C847D4F87E
:104D600098304BF8250053F8253013B92A462F49BF
:104D7000CDE70135D1E73846FFF720FED9F80C30F2
:104D8000810040469847C4F89C0028B92068FFF786
:104D900015FE27498200BAE70025A946276838464C
:104DA000FFF70CFEA84227D908213846FFF7EEFC92
:104DB0000021FEF745FE0821FEF767FFD4F8688062
:104DC0002946FEF7DDFDD8F80030CDF80090D3F885
:104DD00000B0E26FD4F89CA0034639464046D8475D
:104DE000D4F89C304AF8250053F8253013B92A46E8
:104DF00010498CE70135D1E73046FFF749FC0546FD
:104E000000287FF43FAF012384F88C303AE700BFDD
:104E1000AC5A030077480100BD480100CF480100AB
:104E2000C748010081480100CF5A0300185B030006
:104E30003D5B0300875B030090F88D3010B504469E
:104E40002BB10A498068FBF747FF012010BD90F89D
:104E50008C3033B104F16C000021BDE81040FFF745
:104E6000C3BBFFF7FFFE0028F4D0EFE7B35C0300FD
:104E700030B50446234601341D78002DFAD101399E
:104E80000844013A12F8011F21B1834202D203F80B
:104E9000011BF7E700221A70184630BD30B50346F3
:104EA0000C46B3FBF2F502FB1530C3B2092894BFE0
:104EB000303357332046DBB200F8013B2B464DB967
:104EC0006570A14208D20B78227801F8012B04F812
:104ED0000139F6E70446E4E730BD00002DE9F04F64
:104EE00095B01746009003911E4601F1FF39002549
:104EF000009A3B7854199BB34D4531DA252B07F1C5
:104F000001020BD17B78662B60D00AD8632B00F0AE
:104F10001781642B20D0252B36D1BA1C0135237084
:104F200032E0752B32D0782B3AD0732B2CD1039AE8
:104F30003368501B311D013B04EB5000009A844242
:104F4000A4EB020500F0028113F8012F002A00F003
:104F5000FD8004F8012BF1E7A9EB05030A2B01DC26
:104F6000681C23E030680028B8BF2D2306F1040830
:104F7000BDBF611C2370404221460A22FFF78EFF0D
:104F8000001B0544BA1C46461746B1E7A9EB0503CA
:104F90000A2BE5DD06F104080A2221463068EDE718
:104FA000A9EB0502092A05F1010004DC00232370A6
:104FB00015B0BDE8F08F4FF030022270009A023534
:104FC0001354541906F104081022E6E7A9EB05036F
:104FD00007EE903AF8EEE77AB2EE0C7AF4EEC77A82
:104FE000F1EE10FABCD4F31D23F00703D3E900015E
:104FF00003F1080611F022FCC0F3C7530028A3F107
:105000007F0A01932346BCBF2D2203F8012B002207
:10501000BAF1800F04F12F0BC0F316081A7010D1EB
:10502000ABEB0301B8F1000F09D14A4A1846FFF76C
:105030001FFF8046A8EB04042544BA1CA4E7464A97
:10504000F4E7464A0DF1100C51681068E646AEE8E8
:105050000300434908328A42F446F5D110681279B8
:10506000CEF800008EF804204046002204A989569C
:10507000013228FA01F10D2A0844F7D131221A70C1
:105080002E225A7003F1020800229A70ABEB08023C
:10509000072A0292CEDD424608334FF0300102F873
:1050A000011F9342F9D10A2208A9FFF7F7FE08AAC7
:1050B00002994046FFF7DCFEA0EB08034FF03002F8
:1050C000D3F10701027012D00246A0EB020C9C45FE
:1050D00008DA12F801CD02F801C04FF0300C82F866
:1050E00000C0F2E723EAE373C3F10703184410F8A2
:1050F000012C302A00F1FF3301D143451ED8002393
:10510000ABEB00010370174AFFF7B2FEBAF1000FD4
:10511000BFBF2D238DF82030019BC3F17F0A80464D
:10512000ABEB000BB4BF0DF1210108A90A225046D8
:10513000FFF7B4FE08AA5946404678E71846D6E776
:10514000336823700135BA1C04361DE7BA1C0E46BD
:105150001AE700BF135E0300175E0300065E03003C
:105160000E5E03001B5E0300034610B553F8044BAC
:1051700000220120944204DD53F8041B013248430D
:10518000F8E710BD704703698361704737B505467E
:105190000C4680691146FEF71FFA6B691B1AA34281
:1051A00009D2E21A0092054968682246FBF794FD8D
:1051B000002003B030BD0444AC61FAE71F5E030079
:1051C00037B5044640690D46401B1146FEF70AFA02
:1051D000236983420AD91B1A00932A46EB1A044911
:1051E0006068FBF779FD002003B030BD6061FBE72C
:1051F000685E030037B583690D460169994204462C
:1052000006D00E494068FBF767FD012003B030BDB2
:1052100011468068FEF7E0F963691B1A9D4207D9C1
:10522000EA1A0092064960682A46FBF755FDECE74A
:1052300028442061A0610020E8E700BFB15E0300C0
:10524000065F030010B50A4488B00F4C0791CDE902
:105250000312CDE905120422CDE901401C210DEB1A
:105260000200FFF7ADFF60B1029B4360039B8360C8
:10527000049BC360059B0361069B4361079B04601D
:10528000836108B010BD00BF505F030080687047A5
:1052900070B5044680690E46FEF79EF93146054614
:1052A0006069FEF79FF9401B70BD00000146014890
:1052B00006F0F5B9408800204FF41651014804F07B
:1052C000EBBE00BF408800204BB1012803D002286C
:1052D00007D0002303E01944013991FBF3F318468A
:1052E00070470098013A504319440130091AF4E715
:1052F0000B7C012B70B504460D46164603D10023E6
:105300002363134B04E0032B17D100230363114BDA
:105310006363287800F0C0F9336863807368A38002
:105320006B686381AB68A3816B69E381AB6923829E
:10533000EB6820706382204670BD022B04D1064BBF
:1053400003634FF07E53E3E76FF40003D8E700BF39
:10535000FFFF7F7F0000C040000080BF13695B42F9
:1053600070B5436153695B4283619369C361D369DB
:105370000362136A15465B420446436208780E4690
:1053800000F08AF96B68A3802B686380B368A381FF
:1053900073686381B36923827369E381F36863820D
:1053A000EB6AA3622B6B2070E362204670BD0000A5
:1053B0002DE9F04F9A460B681B688FB0023B012B1A
:1053C0000546894690461E9E0AD95D4B0093446966
:1053D0005C4A5D495723A04701200FB0BDE8F08F1C
:1053E0004B681C68012C0CD00126CDE90246574BB6
:1053F0000193574B00934469524A56495823A0479A
:10540000EAE7936892F800B00A93536857690B93E0
:1054100093690C93199A0B9B009751465846FFF7D6
:1054200053FF0C9B1A9A18990D90009358460A9BAB
:10543000FFF74AFF1A9B0C9A013B53430A9A013328
:10544000013802FB0030189B0D9AC01A199B013BD2
:105450007B43571E0B9A013302FB0737A7EB0A0A5F
:105460002AEAEA7A4FEA6A0320EAE07033604310DE
:105470007360394B0AF0010700F00100F060B7607B
:105480001A6849462846FDF71BFD824640B9334B52
:105490006E69009362232B4A2B492846B0479BE74D
:1054A0002F4B49461A682846FDF70AFD074620B9E2
:1054B0002C4B00936E696423EDE72B4B49461A6829
:1054C0002846FDF70FFD294B494683461A682846B2
:1054D000FDF7F9FC814620B9254B00936E696823DE
:1054E000D9E79DF87430012B09D1DAF80C3033611B
:1054F000FB687361D9F80C30B36100206DE77B69FC
:105500001B690893B36A0793736A069306F1300325
:10551000059306F12C03049306F12003039306F18F
:105520001C03029308F11003CDE900033A465B46E1
:1055300051462846FDF7FCFD0028D6D04DE700BFB8
:10554000F05F0300885F0300913B030004830300C6
:1055500014600300554B03006C5F030028600300D8
:10556000745F030039600300685F0300705F03002D
:105570004B60030010B5044611B90160204610BD10
:10558000496951F8042B40F8042B920014F0D2FF23
:10559000F4E70000012903D10023C361094B04E0B3
:1055A000032904D10023C361074B0362704702291A
:1055B00004D1064BC3614FF07E53F6E76FF400034E
:1055C000EBE700BFFFFF7F7F0000C040000080BF0F
:1055D0002DE9F04F85B0012A804689461F460E9E70
:1055E000DDE9105427D004AB4FF0000A4FF0000B58
:1055F00063E902AB3246CDE9005339460F9BFDF714
:10560000A7FCA8B9DDE90201231D2246FDF794FE9F
:10561000FB686361F368A361EB68E36104F10C0369
:1056200000932A4604F1080349464046FDF7EEFC84
:1056300005B0BDE8F08F0020FAE70B681946002A94
:1056400030B451F8045B0BDB954209DD51F82210B0
:10565000002905DB03EB820330BC426D596810471B
:10566000002030BC7047FFF7E8BF4B6803EB8202B5
:10567000436D5168184710B5044609B1496819B916
:1056800000232360204610BD51F8042B40F8042B62
:10569000920014F04FFFF5E7012803D002280CBF59
:1056A00002200020704730B550F8045B002301222F
:1056B000AB4207DA8B4214BF50F823400124624307
:1056C0000133F5E7104630BD08B50021FDF722FF94
:1056D00008BD08B5FDF7F6FE08BD00002DE9F04154
:1056E00004461448FFF7F0FF06461348FFF7ECFFA7
:1056F00004F18054804621462046FFF7EAFF214608
:105700000546FFF7E6FF294607462846FFF7E1FF73
:105710000221FDF7FFFE41463844FFF7DAFF012181
:105720002844FDF7F7FE21183046FFF7D2FF30443A
:10573000BDE8F08194A8F570ABAAAA2A2DE9F84338
:1057400040F07F4405466001FFF7C8FF81464248AC
:10575000FFF7BAFF01464846641BFFF7BAFFC4F3E0
:105760000067C7F1000800EA08083C48FFF7ACFFF3
:10577000013F07EA090788EA070701463846FFF7AD
:10578000A8FFC4F34068C8F1000900EA09093448D9
:10579000FFF79AFF08F1FF3808EA070889EA0808C6
:1057A00001464046FFF795FFC4F38069C9F1000741
:1057B00007402C48FFF788FF09F1FF3909EA08097B
:1057C00087EA090901464846FFF783FFC4F3C0672B
:1057D000C7F1000800EA08082348FFF775FF013FFA
:1057E00007EA090788EA070701463846FFF771FF0D
:1057F000C4F30076C6F1000800EA080006F1FF389D
:1058000008EA070880EA08081848FFF75DFF014624
:105810004046FFF75EFFC4F340777E42013F0640FB
:1058200007EA08004640F220FFF74EFF01463046E7
:10583000FFF74FFFC4F3807463421840013CB5FA90
:1058400085F334405B094440581E5B42204023F0FE
:1058500000435840BDE8F8837BBEAF63F2CBA24D56
:105860006CAC162FA4AA5211B72A580211FE0A00D6
:10587000B0F1804F2DE9D04828DAB0F1404F4FF019
:10588000FF324FF00004C8BF002210EB000B4FEABC
:10589000E07141EB010CBBF1004F7CF1FF3319DBF0
:1058A0006FF0004600275E4577EB0C03ACBF58460F
:1058B0006FF00040E343184024F00044D3436040BD
:1058C000184002F000425040BDE8D0884FF0FF344D
:1058D0000022DAE74FF00040ECE700006FF00042F2
:1058E0002DE9F84F14184FF0000343EBE0756B1CE3
:1058F00008BFB4F1FF3F204618BF0124294618BF56
:105900000025061941EB0507FB0FF01847F10001D0
:105910004F104FEA30064FF05A30FFF7D5FE0546DC
:105920002748DFF8A090FFF7CFFE01463046FDF78D
:10593000C9FDB0462C186FF000460325002721460C
:105940004046FDF7BFFDC0F100512046FDF7BAFD0E
:10595000B0F1005F2CDA48454FF0FF314FF0000CFA
:10596000A8BF00214FEAE07B82004FEA8B0343EAA5
:105970009073B2F1004F73F1FF301DDB964277EB6D
:105980000300B8BF6FF000426FEA0C031A402CF01E
:10599000004CCB4382EA0C021A4001F000414A401D
:1059A000013D1444CBD12046FFF762FFBDE8F88FDC
:1059B0004FF0FF3C0021D5E74FF00042E4E700BF85
:1059C000C4C3C3C3010000E073B5002204460E4601
:1059D000FFF749FE3146054600222046FFF745FE07
:1059E00001A90646287AFDF707FE044650B9686803
:1059F000FFF7BAFB019B2A685843336801909A422B
:105A000003D10024204602B070BD2046019B834292
:105A1000F7D92B681A5C33681A540130F6E7000096
:105A20002DE9F043002285B004460F46FDF748FA01
:105A3000064658B9464B656900932323454A4649B3
:105A40002046A847012005B0BDE8F0830022394672
:105A50002046FDF738FA054620B9404B00936569AA
:105A60002523EBE7D6F814C05CF8049B4FF0000E3A
:105A700001220023F1450CDD5CF8048B4046C11780
:105A8000514308FB0311A2FB08230B440EF1010E46
:105A9000F0E73B68696943B11B68012B05D10B68CE
:105AA000012B02D14B6803B90B608C464FF0FF30DD
:105AB0005CF8048B01230027B8451ADD5CF804EB81
:105AC000BEF1FF3F0FD1B0F1FF3F10D0244B019347
:105AD000CDE9020E234B656900933A231D4A224902
