:020000021000EC
:1000000000000420F12402002925020079080200E2
:100010002D250200850802008B0802000000000068
:1000200000000000000000000000000045B90100D1
:100030003525020000000000DDB90100EDB9010026
:10004000795C020091DD01003B2502003B250200A6
:100050003B2502003B2502003B2502003B25020018
:100060003B2502003B2502003B2502003B25020008
:100070003B2502000D5E02003B250200A9DD0100C8
:100080003B2502003B2502003B2502003B250200E8
:100090003B2502003B2502003B2502003B250200D8
:1000A0003B2502003B2502003B2502003B250200C8
:1000B0003B2502006D9D01000000000000000000D3
:1000C0003B2502003B2502003B2502003B250200A8
:1000D0003B2502003B2502003B2502003B25020098
:1000E0003B2502003B2502003B25020000000000EA
:1000F000000000003B250200000000003B2502003C
:1001000010B5054C237833B9044B13B10448AFF351
:1001100000800123237010BD10100020000000009B
:10012000A48A030008B5034B1BB103490348AFF38E
:10013000008008BD0000000014100020A48A030005
:10014000154B002B08BF134B9D46A3F5803A0021A9
:100150008B460F461348144A121A1AF0E9FA0F4B4D
:10016000002B00D098470E4B002B00D09847002062
:10017000002104000D000D48002802D00C4811F0A9
:1001800013F919F0D7FD200029000DF037FC11F00C
:1001900008F900BF00000800000004200000000073
:1001A00059D9010010100020B8250120A913020020
:1001B0000000000008B50A490A4809F083FD4FF421
:1001C0007A520121074809F0E3FC1421054809F09F
:1001D0007BFD054A1368002BFCD0002008BD00BF42
:1001E00055020100C087002030540020F8B5134F9D
:1001F0001E463B780C46154623B9FFF7DBFFE0B9F6
:1002000001233B700E4B0F4F21012A010024944221
:100210000DDA08194542C5F30C05C0F30C0058BFB0
:10022000684237F8100023F814000134EFE74FF468
:1002300000723260069A00201360F8BD2C54002032
:100240002C1000202C140020014B1868704700BFB0
:100250003054002038B50B4C0B49256823680B48F7
:100260001B015A42C2F30C02C3F30C0358BF5342A2
:1002700020354FF4007201EB430109F05FFC25606B
:1002800038BD00BF305400202C140020C08700204F
:100290002DE9F743384D9DF8289098462B7807466E
:1002A0000C461646EBB901210D200BF0DFFA0121B7
:1002B00016200BF0DBFA012117200BF0D7FA0121F1
:1002C00018200BF0D3FA012116200BF00BFB0121B3
:1002D00017200BF007FB012118200BF003FB012373
:1002E0002B70264DB9F1000F1ED0434600943246C4
:1002F0002349384600F0F8FC3378792B04D10021EB
:1003000017202C600BF0EEFA33786E2B04D100210D
:1003100016202C600BF0E6FA3378752B04D10021FF
:1003200018202C600BF0DEFA2B68BBB1A4F6B834B1
:10033000A3421DDA00210D2029600BF0D3FA012120
:1003400016200BF0CFFA012117200BF0CBFA012178
:10035000182003B0BDE8F0430BF0C4BA094B19688C
:100360000131196011F0010118BF01210D20F0E7E2
:1003700003B0BDE8F08300BF34540020385400209F
:100380004CED02003C540020012303720023C0E91D
:100390000012194602689A4203DD4268D1540133C3
:1003A000F8E77047704700002DE9F0470F460168F5
:1003B000B1F5F56F86B0064608D00A4638494FF4C5
:1003C000F563384600F090FC012054E0142193FBC3
:1003D000F1F4037A002B46D0384600F065F8002887
:1003E00049D1307231220E9BD2F131051A6017D0FB
:1003F000282303FB02FE03FB05F00023716801EBD9
:10040000030C28311944ACEB030818F90E800CF8E2
:10041000018B8C45F7D1283383420EF1280EEDD1A4
:10042000002A27DD303C4FF028082C44142308FB19
:1004300005F85C434FF000090DF10C0A302D19DC72
:100440001E22CDF800A004AB24EAE4713846CDE9C1
:100450000399FFF7CBFE049AB2F5007F0EDA4FF452
:1004600000731049ADE792FBF1F2A21A312AA8BF3E
:100470003122B8E7002006B0BDE8F08705AB019354
:1004800073680399434400933846282300F052F8D8
:1004900008F1280814340028EDD10135CEE700BF5B
:1004A00060ED020091ED020030B51E2291B01423E0
:1004B000CDE900230A23069328230293134B0493C8
:1004C000134B0393134B0793134B0893134B09934D
:1004D000134B0B93134B0C93012415230546CDE9C5
:1004E0000D344FF47A5206230F490A9468460F934D
:1004F00001F0D6F930B90D49284600F0F5FB204649
:1005000011B030BD0A4B00201C70F9E70000FA4220
:100510000060EA45CDCCCC3C8FC2753DCDCC4C3D86
:100520003333733F0000A04240540020B7ED020077
:100530000402002030B5154885B013460278089CA7
:10054000EAB100220270099A009202A80A461049F4
:1005500001F04CF9DDE90205002240F29A219542B2
:1005600010D030F812301B0203F24D1393FBF1F35D
:10057000803B7F2BA8BF7F23A3540132EFE701F517
:10058000A071E0E7002005B030BD00BF04020020EC
:100590004054002070470022C0E90022826070476A
:1005A0000120704703689B6918470368DB69184797
:1005B000202930B50ED0D0F8844000239C4209D0C9
:1005C0005A018518AD698D4202D10432104430BD04
:1005D0000133F3E70020FAE7704730B5D0F89C40CC
:1005E00000F1880200239C420AD012F8015B8D4280
:1005F00004D100EB8300D0F88C0030BD0133F2E76A
:100600000020FAE72DE9F041D0F8847004468846CE
:1006100005460026B7420FD0AB69202B09D14146D1
:10062000E8691AF0F1FA20B904EB46100430BDE88D
:10063000F08101362035EDE70020F8E710B5A42160
:10064000044611F0E3F8204610BD10B5042104461D
:1006500011F0DCF8204610BDF0B587B0FFF7F4FDCF
:1006600006AB002243F8082D264C009305460346AE
:10067000254F26483A6821680068FFF795FE264610
:1006800028B12349206800F02FFB07B0F0BD049B80
:100690003D60002BF9D01F4B1F491B6842561A546E
:1006A0000130B0F5F56FF9D11C4F386803F076FCD6
:1006B000044610B11A493068E5E70146386803F08E
:1006C00025FA0DF10F03019301460DF10E031548B4
:1006D00000932A4605AB006805948DF80E408DF80E
:1006E0000F4000F0D9F908B10F49E4E79DF80F2059
:1006F00000929DF80E30059A30682946FFF7C8FD34
:10070000C3E700BFE87C0020E47C00209484002044
:100710000B38030098840020EC7C0020E05400207B
:1007200025380300DC5400203338030020292DE94C
:10073000F843054688461446994609D1D0F8A000EA
:1007400010B90120BDE8F8831F4900F0CDFAF8E7A1
:1007500003689B699847074640B1D5F8A000002878
:10076000EFD04246194900F0BFFAEAE7D5F884C055
:10077000BCF1030F09D9D5F8A0000028E1D004236B
:100780004246134900F0B0FADBE70FCC05EB4C1EF4
:100790000EF104060FC694E80F0086E80F000CF176
:1007A0000103CEF81880C5F88430D5F89C30EA18DB
:1007B000384682F8888005EB83020133C2F88C90BA
:1007C000C5F89C30BEE700BF34370300793703001B
:1007D000C83703002DE9F0417A4C8CB003F026FEB7
:1007E0002378BFF35B8FDD070BD4204610F0EAFDC2
:1007F00038B1204610F008FE734A7449744810F06E
:10080000CEFD744C724B2360734B744F1A68D11831
:10081000D3583960CB1A1A88042A0CD99A8812B195
:100820008A58032A09D003236D49694800F05CFA0D
:100830000CB0BDE8F0810022F5E7DFF80882694DD1
:1008400098F80060BFF35B8F16F0010612D14046A6
:1008500010F0B8FD70B12368634A2A604046C5F8BD
:100860008460C5E9276310F0CFFD574A5F492846E9
:1008700010F095FD04A805F02BFB5D4B594804AA28
:100880000421FFF753FF0028D2D104A805F088FD0A
:10089000584B544804AA0921FFF748FF0028C7D144
:1008A00004A805F029FE544B4E4804AA1921FFF76D
:1008B0003DFF0028BCD104A804F0EAFA4F4B494898
:1008C00004AA1621FFF732FF0028B1D14C4E33782D
:1008D000BFF35B8F13F0010517D1304610F072FDA6
:1008E00098B10295236801934FF4205300933D4A39
:1008F0003968444B444803F0C5F8304610F084FD95
:10090000314A4249404810F04AFD414D3E48286076
:1009100003F066FA014620B13E49206800F0E4F990
:1009200086E7286803F016F983681A68022A09D155
:100930005A68012A06D19E68B6F5F56F02D1037890
:10094000092B01D03449E8E7344B4268344D1A6032
:100950002B78BFF35B8FD80710D4284610F032FDF8
:1009600060B1304A30483146FFF70EFD284610F09E
:100970004BFD154A2D492C4810F011FD2C4B2A4AED
:100980002C4D1A602B78BFF35B8FD90712D4284601
:1009900010F018FD70B140F2DC530322CDE90032B3
:1009A00025482168C8234FF47A7200F051F8284690
:1009B00010F02AFD214B204A1A60214B00221A60B8
:1009C00036E700BFD4540020000200209505010046
:1009D00018020020E87C0020F0ED02009C8400203A
:1009E00064380300A084002010370300D9050100FB
:1009F000150F0100F10F0100D9100100490E01008F
:100A0000D0540020E4540020FC860020853B0100E7
:100A1000E0540020AB380300C43803009884002061
:100A2000D8540020EC7C002090870020A503010012
:100A300094840020CC54002044850020DC54002005
:100A4000E47C0020C85400200022C0E90022704746
:100A500070B50372049BC360059BC0E90012C0E936
:100A60000431044600F1180500F5D476284608350F
:100A7000FFF7EAFFAE42F9D10023C4F8A831C4F869
:100A8000AC31044BC4F8B0314FF00043C4F8B4317A
:100A9000204670BDD6ED02002DE9F04F044688686F
:100AA0000668022E99468BB09046836804D145684B
:100AB000012D01D1042B09D0009604227C49206825
:100AC00000F012F901200BB0BDE8F08F0B78092B74
:100AD00005D01A467749206800F006F9F2E7D4F805
:100AE000AC615EB1D4F8A83104EBC3039B699342B7
:100AF00004DD7149206800F0F7F8E3E74868002357
:100B000006ADEA18C15C11710133042BF9D1312E05
:100B100021DD6A49606900F0E7F86368A8EB030A21
:100B2000674B4FF0000BD4F8A871D4F8AC6104EB1C
:100B3000C702D2F818C00EB1E2451FDC2369B342E8
:100B400032DDD4F8B031C9F80030149B00201870A1
:100B5000159B1870B7E7731CC4F8AC31D4F8A831F2
:100B6000CDF818801E44312EC8BF323E95E80300F0
:100B700004EBC606183686E80300CEE7002E09DC33
:100B800019466069039300F0AFF82846FFF75CFF51
:100B9000039BC8E70137312FC8BF5F46013EC4F849
:100BA000A871C4F8AC61BEE7B8EB0C004FEAE87B73
:100BB0004FF004036BEBEC71626892FBF3F2D31716
:100BC000904271EB0303BCDB0022A7F1320E0DF162
:100BD000100CB2421FDABB18312BC8BF0EEB020358
:100BE00004EBC303183393E803008CE803000023ED
:100BF0000CEB030191F90400803032B945F8230071
:100C00000133042BF4D10132E3E755F823100144FA
:100C100045F82310F4E74FF0000AF71755F82A00BB
:100C200032463B46C11715F05BFE45F82A000AF133
:100C3000010ABAF1040FF1D100231E461A4655F8F5
:100C40002310B142C8BF1A4603F10103C8BF0E46C4
:100C5000042BF4D11B4BD4F8B01153F822501B686D
:100C600099421FD0D4F8B421B2F1004F1AD0A8EBAA
:100C70000202D317207AB04218DAA94205D1E068FF
:100C8000C117904271EB030310DAC4F8B051C4F8F5
:100C9000B4810123159A1370149BC9F800500020E9
:100CA0001E7010E76FF000420023E3E70023F1E736
:100CB000E93803004D3903008F390300093A030076
:100CC0003D3A030008020020013080007047000018
:100CD00010289ABF024B53F820000248704700BF0B
:100CE000683A0300AC3A03000EB403B503AA0368E4
:100CF00052F8041B01929B68984702B05DF804EB20
:100D000003B070470CB407B504AA036852F8041B7B
:100D100001929B68984703B05DF804EB02B07047FE
:100D2000006803685B6818470138C0B204289ABF9E
:100D3000014B185C00207047243B030020B10128C0
:100D40000CBF0220002070470120704738B51546BF
:100D50001A4628B90B492846FFF7C6FF012038BDBF
:100D60000468082C09D8043900EB8404A04206D09A
:100D700050F8043F41F8043FF8E70349EBE700204F
:100D8000EDE700BFBE3B0300EC3B03000368C01A65
:100D900003888B428CBF405A0020704710B50C214D
:100DA0000446FFF7F3FF231808B12058184410BD7C
:100DB00008B5034610460F2B2BD8DFE803F00C08CC
:100DC00012161A1E201022180E241C2628140A237C
:100DD0000B70002008BD0123FAE70B23F8E7072377
:100DE000F6E70223F4E71023F2E70323F0E70923F1
:100DF000EEE70423ECE70D23EAE70523E8E7062303
:100E0000E6E70823E4E70C23E2E70E23E0E70F23FD
:100E1000DEE700220A701A460249FFF765FF01204B
:100E2000D8E700BF2D3C030038B505461446FFF750
:100E3000ADFF00B12C5C204638BD08B500220A2168
:100E4000FFF7F2FF08BD00002DE9FF411F461368C0
:100E50001546064688461B680422242128469847E2
:100E6000044618B12422002119F062FCCDE9025495
:100E7000A4B91B4B019340F2C3630093194A1A4B68
:100E800041464046FFF73EFF0124039911B102A8F5
:100E9000FFF746FF204604B0BDE8F0813046FFF77B
:100EA000CCFF112817D13046FFF778FF054690B1E7
:100EB0000421FFF76BFF2E1868B12D5870190AD066
:100EC00021460A4B4246FFF741FF04460028DCD189
:100ED000039B72591A62039B3B6000240394D4E77E
:100EE000A43B03008D3B0300293B0300B63B0300FA
:100EF00038B505461446FFF749FF00B12C58204687
:100F000038BD38B505461446FFF740FF00B12C56F2
:100F1000204638BD2DE9FF411F4613681546064699
:100F200088461B6804221C2128469847044618B1AD
:100F30001C22002119F0FCFBCDE90254A4B9294B75
:100F4000019340F2A2430093274A284B4146404672
:100F5000FFF7D8FE0124039911B102A8FFF7E0FEC4
:100F6000204604B0BDE8F0813046FFF766FF022856
:100F700033D13046FFF712FF054670B3002204213B
:100F8000FFF7BFFFC0B2FFF7D9FE00222070062195
:100F90002846FFF7ADFF0022606008212846FFF7D2
:100FA000A7FF0022A0600A212846FFF7A1FF002228
:100FB0000C21E0602846FFF7A4FFC0B2FFF7B4FEA3
:100FC000012220740E212846FFF792FF0122606162
:100FD00010212846FFF78CFFA06100233C6003939B
:100FE0001C46B8E7A43B03008D3B0300293B0300EC
:100FF0002DE9F04398461368154685B081460E46A4
:101000001B680122042128469847044608B10023A2
:101010000360CDE90254A4B9264B019340F21D535D
:101020000093254A254B31463046FFF76BFE0124DD
:10103000039911B102A8FFF773FE204605B0BDE881
:10104000F0834846FFF7F9FE082807462CD14846AA
:10105000FFF7A4FE054638B300220421FFF751FF35
:10106000C0B2FFF761FE0022207039462846FFF724
:10107000DBFE003018BF0120A07000220A212846A4
:10108000FFF7D2FE003018BF0120E07000220621D9
:101090002846FFF736FF30B1012804D00849304612
:1010A000FFF722FEC3E760700023C8F800400393F7
:1010B0001C46BDE7A43B03008D3B0300293B030016
:1010C000513C030038B504461546FFF75FFE08B1F2
:1010D00004442568284638BD2DE9FF411F461368A2
:1010E00015460422064688461B681146284698473E
:1010F000044608B100230360CDE90254A4B9144B9F
:10110000019340F24C730093124A134B4146404600
:10111000FFF7F8FD0124039911B102A8FFF700FEC3
:10112000204604B0BDE8F0813046FFF786FE09286E
:1011300008D13046FFF732FE20B100220421FFF72C
:10114000C1FF206000233C6003931C46E3E700BF1F
:10115000A43B03008D3B0300293B03002DE9F8432A
:10116000984605460023C8F8003091460F4608F01F
:10117000AEFC2B68EB1A06461A88082A0CD9198986
:1011800051B16C58912E09D932461C494846FFF797
:10119000ABFD0120BDE8F8830124F3E7202E11D038
:1011A0003B6822461B68314638469847C8F800001D
:1011B00008BB134A134952F8262023464846FFF736
:1011C00093FDE6E7062A05D9DB88E91813B1EB5849
:1011D000C91804D10C494846FFF786FDD9E73B689A
:1011E00022465B68043138469847C8F80000B0FAD8
:1011F00080F04009CEE70020CCE700BFC83E0300E6
:101200007C3C03001C3F0300BE3F030030B5D0E927
:1012100001356FF003009C0000FB034021440244B1
:10122000AB4201F1040100DB30BD31F9024C31F970
:10123000040C644300FB004042F823000133EFE755
:101240002DE9F04F87B0036A0193D0E903CE4369DB
:10125000039303680293059100234FF000084FF0B9
:101260000009029A9A4202DA07B0BDE8F08F059AA7
:101270003CF913503EF9134002EB85058269670083
:1012800002EB070A039AC46932F9132004923C4422
:1012900046464F4600224FF000084FF000090499DF
:1012A0008A4207DB019C31463A46E4E802120133E8
:1012B0000194D6E73AF912B055F82210CBFB01673A
:1012C00034F912B00132CBFB0189E8E72DE9F74F81
:1012D0000368006A01938A4600F1080E00214FF06E
:1012E000010C019B994202DB03B0BDE8F08FFEE8E0
:1012F00002454FF00009A84658EA09032AD12346BF
:1013000034B3B4FA84F242F00102C2F11F020CFAC3
:1013100002F5521001324C4612F1FF320DD29C42BE
:1013200004D24FF6FF739C4218BF0134A2B222FAD6
:101330000AF240F821200131D3E704EB0508984573
:101340004FEA54049CBF6419A3EB0803AD08E3E71C
:101350002246ECE725B3B5FA85FB4BF0010BCBF148
:101360003F0BABF12002CBF120030CFA02F72CFA71
:1013700003F30CFA0BF64FEA6B0B1F430BF1010B57
:10138000002200231BF1FF3B0FD2AB4208BFA24259
:10139000CDD2002B08BFB2F1FF3FC8D00132C6E763
:1013A000B4FA84FB0BF1200BD7E712EB060843EBF2
:1013B00007095B084FEA32024D4508BF444505D393
:1013C000B4EB080465EB090592197B414FEA9608D6
:1013D00048EA87784FEA970946464F46D2E70268BF
:1013E000006A0132D200002119F0A2B90000000009
:1013F00008B510EE100A14F0D3FE00220A4B15F0C7
:1014000051F815F075FD06A3D3E9002314F020FF71
:1014100015F016FA00EE100A08BD00BFAFF3008009
:1014200000000000009C914000E085402DE9F04F55
:101430002DED068B09EE103A03680B60013389B07D
:101440004FEA4308824640460C461546019318F081
:1014500023FDE0600390404618F01EFD20618346A6
:10146000404618F019FD019B60618146D80018F0D4
:1014700013FD019B2062980018F00EFD06464046C1
:1014800018F00AFD0746404618F006FD039B02903F
:1014900043B1BBF1000F05D0B9F1000F02D00EB17E
:1014A00007B1A0B9304618F0FFFC384618F0FCFC34
:1014B000029818F0F9FCC04BC0481B68D96817F0B7
:1014C0007DFF002009B0BDEC068BBDE8F08F9AEDE2
:1014D000020ADAED018AB5EEC00AF1EE10FA05DA79
:1014E000B74BB84A2521B84817F054FCB4EEE80AC7
:1014F000F1EE10FA03D4B54BB24A2621F3E7FFF719
:1015000077FFB0EE408AB0EE680AFFF771FFDDEDBD
:10151000017A30EE480AB8EEE77AB346C0EE077AB1
:1015200032460023019999424FDC284614F026FEEA
:101530000022A74B14F08CFEF8EEC97AB7EE007AC1
:1015400077EEC77A804617EE900A894614F028FE97
:1015500002460B464046494614F0A4FF15F070F9C8
:10156000DAED027A08EE900AC7EEA87A0025A946BD
:1015700017EE900A14F014FE0022964B14F0B2FC01
:1015800015F016F9A560804660600395019B9D42A9
:101590005CDB0221484617F01BFC0221A0610546D6
:1015A000484617F015FCE0610DB1002870D13046B7
:1015B00018F07AFC384618F077FC029818F074FCA2
:1015C0007D4B85481B68D96879E7013307EE103AEF
:1015D000B8EEC77AF0EE486AE7EE876AE2EC016A95
:1015E000A0E7013107EE901AB8EEE70A049120EE69
:1015F000280AFFF7FDFEDBED007A0499B4EEE70A56
:10160000F1EE10FAEDD9D4E903E2029B27F8158038
:10161000A1EB080023F81500D4F814C002EB450331
:10162000E0B92EF8150022F815004FF004002CF850
:101630001500039828B99A420AD1012309F1040937
:10164000039301350BF1040B88469FE74146C9E738
:10165000B2F90000043022F8020BECE708F00103B5
:10166000B8F1000FB8BF5B420344013B042093FB79
:10167000F0F301339B00022098FBF0F84FEA480892
:101680002EF8158022F815902CF815309944D8E7DB
:101690009AED020AFFF7ACFEA6F10409F0EE40AAAB
:1016A0000025019B9D4212DB304618F0FDFB3846B9
:1016B00018F0FAFB029818F0F7FBA36819EE102A4D
:1016C000934276DB3C4B45481B68D968F7E6029BA2
:1016D00037F915B033F915300393E36833F9153052
:1016E000ABEB03030593236933F915300493BDB1C4
:1016F000D9ED009A4FF000080BEB080300EE103A0A
:10170000039B98450FDBA268002BACBF5B440BF139
:1017100000039342C8BFA360013509F10409C0E783
:10172000F0EE6A9AE6E7B8EEC00A99ED018A20EE7B
:10173000280AFFF75DFE38EE400A38EE698ADFEDD1
:10174000287A80EE08AADDE9043203EB020AE36995
:101750000693C24408F101086AEE277A17EE900A50
:1017600014F01EFD00221A4B14F0BCFB15F00CFB0C
:10177000A369079315F01CF8079B23F81A001AEECB
:10178000100A14F00DFD02460B460020154914F016
:10179000A7FB0022144B14F05BFD0D4B002214F04C
:1017A000A1FB15F0F1FA15F003F8069B23F81A00D7
:1017B000A2E7012086E600BF00060020B545030031
:1017C000D9450300ED460300F745030068460300D2
:1017D0000000E03F0000F83F96460300BF460300CC
:1017E000000080450000F03F0000B0402DE9F041CE
:1017F0000C460646114620461A46069B00F0B8FAEB
:1018000020B9C6E900003046BDE8F081B4F91850AF
:101810006169B5FA85F5113D2A4604F11C0000F016
:101820009FFBD4F8208004F13407424641463846F5
:10183000FFF7ECFC41463846FFF702FD29463846E3
:10184000FFF744FD0146054604F1580000F00EF98B
:10185000E36E23B1294604F16C0000F0AEF9636A2F
:10186000626BB3FA83F3C3F11903294604F18000D4
:1018700000F098F8636BC6E90003C4E710B50446AE
:1018800000F0B9FA04F11C0000F086FB04F134000A
:10189000FFF7A5FD04F15800BDE8104000F01DB9A8
:1018A0002DE9F3410C4606461746002188222046C2
:1018B00018F03EFF3A462146304600F0B1FA0546A0
:1018C00048B9314B31481B68D96817F077FD284675
:1018D00002B0BDE8F08104F11C082168404600F028
:1018E0006DFB054620B9284B29481B68D968ECE7F1
:1018F000404600F050FB636A5B0801333A4604F14E
:10190000340106F10800FFF791FD054620B91E4B92
:1019100020481B68D968D8E7626B04F1580106F1CA
:10192000180000F0E1F8054620B9174B1A481B686B
:10193000D968CAE7636AA26EB3FA83F3C3F11903E5
:101940000193B4F85830009304F16C01636B06F115
:10195000280000F099F9054620B90B4B0F481B6889
:10196000D968B2E704F1800106F1380000F078F898
:10197000054620B9044B0A481B68D968A5E72046EC
:10198000FFF77CFF0125A2E70006002008470300BF
:1019900029470300474703006C47030096470300AD
:1019A000C24703002DE9F74F44682C4F01940026ED
:1019B0004BF2721CC3F1000E4FF6FF78964203DB28
:1019C000084603B0BDE8F08F056851F82640002DA9
:1019D0003DD0002BB4BF24FA0EF49C40012C06D855
:1019E000002434E0A5F1100944FA09F40FE0B4FA38
:1019F00084F5C5F11F054FF0010909FA05F90F2D0E
:101A0000A4EB0904EEDCC5F1100904FA09F44FEA6D
:101A1000642909F1010A37F819B037F81AA0A4EBC4
:101A20004929AAEB0B0A5C4409FB0AF904EB294992
:101A300009EB05494FF400440025ECFB0945240C53
:101A400044EA0544019DAC4004F50044240C44459F
:101A500028BF444621F816400136AFE7E8470300A7
:101A600003680B6043684B60012070472DE9F0412B
:101A7000D0F80CC004390022944501DCBDE8F081A7
:101A8000D307076954BF8688C68857F82240D0F824
:101A900000E051F8043FC6F5804503FA0EF3A5FBBC
:101AA0000445E6FB03454FEA943848EA854847F881
:101AB000228006890D684345A6FB056794BFDB1AA3
:101AC000A3EB0803B50B45EA874523FA0EF3AB42B7
:101AD0002CBF0B600D600132CEE7C2680069920036
:101AE000002118F025BE000090ED027ADFED186AA3
:101AF000D0ED037A27EE267A38B5BCEEC77A0D46CC
:101B000017EE103A90ED017A0168EB8027EE267A05
:101B100067EEA67ABCEEC77AFCEEE77A17EE103ACB
:101B2000AB8017EE903A29602B81EA6004211046C1
:101B300017F04EF90446286138B9064B06481B6871
:101B4000D96817F03BFC204638BD0120FCE700BFF8
:101B50000000804600060020EC480300022830B553
:101B600002D831F9100030BDB0FA80F3C3F120047F
:101B7000E2000C3A0A2C01EB0205D5BF153BC3F17C
:101B800015039840D840AB88C0F3090013FB00F45C
:101B9000B5F902305B0103EB641358438B5E00F52B
:101BA000804003EBE03000B2DDE7B0F5005F39BF05
:101BB0004043000D8009403870472DE9F041D0F8CE
:101BC000088005460F460024A04501DCBDE8F081F1
:101BD0006B68E96853F82400FFF7C0FF57F824301A
:101BE000A0FB03012B69C3F12006A3F1200201FA37
:101BF00006F620FA03F3334321FA02F243EA020025
:101C0000FFF7D3FF47F824000134DDE710B5C368C0
:101C1000012404FA03F307EE903A2DED028BB8EE9F
:101C2000678A07EE902A04FA01F1F8EE676A07EE78
:101C3000901AF8EE677A436886EEA77AD0ED027ABA
:101C400077EE277A83F0004117EE900A15F0B0FC8A
:101C500007EE900A9FED0B7A68EE277ABDEC028BB7
:101C6000F4EEC77AF1EE10FADBBFB6EE007A77EE4B
:101C7000877A47F6FF70FDEEE77ADCBF17EE903A01
:101C800018B210BD00FEFF462DE9F74F0C46016863
:101C90000D9F21600646002963D0C4E90123FA2084
:101CA00018F0FAF80546E06048B92F4B2F481B683A
:101CB000D96817F083FB284603B0BDE8F08FF368BE
:101CC000DB1B0C3B2361BDF83030DF1B00223946A3
:101CD0003046FFF79BFF0122288039463046E568F1
:101CE000FFF794FFE36868800C3B0225E3604FF048
:101CF000120A2B4605F1FF390122202D02FA09F2C2
:101D00003946304614BF03FA09F94FF0FF39019301
:101D100002EB5208FFF77AFF4246834639463046C7
:101D2000FFF774FF4A46804639463046FFF76EFF9C
:101D3000E268019B22F835B0A0EB0B00A8EB0B0882
:101D4000C0EB880802EB0A01013522F80A80212D38
:101D5000A0EB0808A1F802800AF1080ACAD10C32E7
:101D6000E2600120A8E700BF000600200D49030043
:101D7000F8B5044606680069351A95421F46E368BF
:101D800028BF15466A0003EB400018F0D3FB3D6006
:101D9000236922681D44954225612AD30025D4F881
:101DA00004C0E068D4F814E02946B1420DDBA16814
:101DB000521A520000EB410118F056FC2369A26848
:101DC00025839B1A23610120F8BD3CF8117030F87F
:101DD000113013FB07F31B131FB2002FB8BF5B4278
:101DE0002EF81170B8BF1FB2BD42B8BF3D460131D9
:101DF000DBE70020E8E7026810B504465200002146
:101E0000C06818F095FC226860695200002118F043
:101E10008FFC00232361238310BD0000000000001D
:101E20002DE9F04F056843682DED028B0E465543B2
:101E30004FF47A71B5FBF1F54FEA450A5A4383B086
:101E4000B2FBF1F23560B260504618F025F8044656
:101E5000706058B93C4B3D481B68D96817F0AEFA22
:101E6000204603B0BDEC028BBDE8F08F07EE905A20
:101E7000F8EEE77ADFF8E4909FED358A17EE900AE6
:101E800014F08EF902460B462DA1D1E9000114F0A1
:101E900009FB14F0D5FC002783464FF00008AF4241
:101EA0000DD100233361504617F0F6FF0446F06071
:101EB000002838D1244B27481B68D968CEE738461C
:101EC00014F05CF942464B4614F00CF8CDE90001E1
:101ED000584614F065F902460B46DDE9000114F09E
:101EE000B7F914F007FF42464B4614F0B1F9024629
:101EF0000B464046494613F0F3FF14F0A1FC07EEF1
:101F0000900A67EE887A17EE900A14F049F9424673
:101F10004B4613F0E7FF14F037FF14F049FC24F8A8
:101F200017000137BBE7504617F0B6FF0446706153
:101F300020B9054B08481B68D9688FE701248FE753
:101F4000182D4454FB211940000600202A490300A3
:101F50000000804552490300734903000000E03F40
:101F6000F0B4D0E902570E4601680023BB4206D107
:101F70000022AB420AD221F813200133F9E736F8E8
:101F80001340944021F813400133EFE742680069A1
:101F9000F0BC07F0F7BC7047826810B504465200E9
:101FA0000021006818F0C4FBA26860685208013282
:101FB00092000021BDE8104018F0BABB01232DE9C2
:101FC000F3410546C1608360D5F8088088454FEA33
:101FD000480001D2A860F7E717F05EFF04462860CA
:101FE00048B9254B25481B68D96817F0E7F9204602
:101FF00002B0BDE8F08128F001000230800017F047
:102000004BFF0446686020B91B4B1D481B68D9680C
:10201000EBE702AF002647F8046D32463B463146F7
:10202000404607F015FC044638B1134B15481B68B1
:10203000D96817F0C3F93446D9E7DDF80480404683
:1020400017F02AFF0646286120B90B4B0E481B6883
:10205000D968EEE73B460246C5F814802146A868D9
:1020600007F0F6FB2B69834204D0034B07481B683B
:10207000D968BAE70124BAE70006002095490300B1
:10208000B7490300DA490300F64903001A4A03007E
:10209000836810B41BB9036D5DF8044B184703EB5C
:1020A00081105DF8044B7047C0EE807A73B504462A
:1020B00015460E4617EE900A14F072F815F03AF92C
:1020C00014F0BEFB9FED117A07EE900AF4EEC77A8A
:1020D000F1EE10FA0FDB9FED0E7AF4EEC77AF1EE17
:1020E00010FA08D8FDEEE77A002017EE901A314476
:1020F000296002B070BD074B009320466569064A0F
:1021000006494FF4AC73A8470120F2E7000000CF66
:102110000000004F9E4A0300464A03008D3B030027
:10212000002804DB884202DA52F8200070474FF0A2
:10213000FF3070470B6810B51968044610461A1D29
:10214000FFF7EEFF011E04DB2046BDE81040FFF75D
:102150009FBF002010BD4B6810B51968044610469B
:102160001A1DFFF7DDFF011E04DB2046BDE810400D
:10217000FFF78EBF002010BDFFF7DCBFD1ED037A63
:1021800092ED037A67EE877A73B5F5EEC07AF1EED9
:1021900010FA1E460ADA0F4B009344690E4A0F49A3
:1021A0004FF4A573A047012002B070BD17EE900A4E
:1021B00013F0F6FF0446F0680D4613F0F1FF0B46EE
:1021C00002462946204614F06DF9069BC3E900013A
:1021D0000020E9E7C44A0300464A03008D3B0300A0
:1021E0002DE9F74F0446C86890469A460D4613F00D
:1021F000D7FF0646D8F80C000F4613F0D1FF024671
:102200000B463046394614F023F8DDE90C9B0646B0
:102210000F46BAF1000F1CD0DAF80C0013F0C0FF23
:1022200002460B463046394613F05AFE0646D9F8A8
:102230000C0021F0004713F0B3FF02460B46304676
:10224000394614F02FF913A3D3E9002314F07CFAD4
:1022500050B14B46424629462046CDF830B003B037
:10226000BDE8F04FFFF78ABF074B00932046656932
:10227000064A074940F23D13A847012003B0BDE8D4
:10228000F08F00BFAFF30080DD4A0300464A030031
:102290008D3B03007B14AE47E17A943F2DE9F04378
:1022A0002DED028B9946137885B0032B0646DDF899
:1022B000388011D0092B2BD0072B2DD03B4B00930E
:1022C00044693B4A3B494FF4C873A047012005B01D
:1022D000BDEC028BBDE8F083FF240025012992EDBF
:1022E000038A17691CD103AADFED330A3946B0EE21
:1022F000480A3046FFF7D8FE0028E8D1039BAB42DE
:10230000ACBFC9F80030C9F80050C8F80040DEE79B
:102310007F246FF07F05E1E747F6FF74274DDDE787
:10232000032924D103AADFED240A3946B0EE480A76
:102330003046FFF7B9FE0028C9D1039BAB42ACBFC2
:10234000C9F80030C9F8005003AAF1EE080A39466E
:10235000B0EE480A3046FFF7A7FE0028B7D1039B2E
:10236000A342D4BFC8F80030C8F80040AFE7022944
:1023700015D103AAFFEE000A3946B0EE480A3046EE
:10238000FFF792FE0028A2D1039BAB42ACBFC9F875
:102390000030C9F8005003AAF7EE000AD7E7C9F8E1
:1023A00000500020C8F8004091E700BFFF4A03003A
:1023B000464A03008D3B0300000000000080FFFF41
:1023C0002DE9F04F91F830908FB0B9F1010F04462C
:1023D0000D4617469B46DDF880800FD001266D4BD9
:1023E0000193CDE902966C4B00934469DA236B4A62
:1023F0006B49A04701200FB0BDE8F08F92F8306024
:10240000012E08D0634B0193CDE90269654B00931F
:102410004469DC23EBE7526B3AB9634B00934469A0
:10242000E6235E4A6149A047E4E7D2F80090B9F19B
:10243000000F04D15E4B00934469E723F1E7D9F81C
:1024400000A0BAF1010F35DD0B78092B06D0072B60
:1024500004D0584B00934469EC23E2E73B78092B06
:102460000DD00922CDE90232534B0193534B009317
:102470006569ED23494A4A492046A847BAE7D0454D
:1024800008D04F4B0193CDE902A84E4B00936569EC
:10249000EE23EFE7BB68926803EB82035B68984525
:1024A00008D0CDE90283484B0193454B0093656901
:1024B000F123DFE7D5ED037A189BCDED057AD3ED57
:1024C000037A09F10403CDED067A07930026B0459F
:1024D0002EDDBAF1010FC9BF079BD9F8040003EB49
:1024E0008603186813F05CFECDE90801059813F027
:1024F00057FE02460B46DDE9080113F0A9FECDE9BF
:102500000801069813F04CFE02460B46DDE908016F
:1025100013F0C8FF0CAB0BAA00F058F81E9A0B9BE7
:1025200042F826301F9A0C9B42F826300136CEE73F
:102530002B78032B1AD10EAB0020002163E9020196
:102540000193189B00933A465B4629462046FFF7C5
:1025500047FE00287FF44FAF0BAB1A9ADDE90C0160
:1025600000F034F80B9B1B9A5B4213602B78092B0D
:1025700003D003F0FB03032B09D1199B189A197898
:102580001D9B009320461C9BFFF788FE33E700202D
:1025900031E700BF1F4B0300394B0300464A0300DD
:1025A000054B0300524B03006C4B03008D3B0300B3
:1025B000804B03009B4B0300D54B0300E14B030012
:1025C000EE4B0300FB4B03001C4C0300F8B5154613
:1025D0001C460022002306460F4614F0A1F818B14D
:1025E00000232B602360F8BD22463046394614F0A4
:1025F0004BFC0022104B13F02BFE14F09BFE14F04A
:10260000D7F94FF000420023824273EB010601DA52
:1026100016F0B8FB994201BF904223680133236052
:10262000236808BF4FF080401F33BEBF0023002047
:1026300023602860D7E700BF0000E041F8B51546E9
:102640001C460022084B06460F4614F091F808B9C4
:1026500016F098FB23462A4630463946FFF7B6FF68
:102660002368002BF4DBF8BD0000F03F0000000001
:102670002DE9F14F06460A989946C0F11F00012343
:1026800003FA00F00F46904613F078FD42460446E8
:102690000D464B463046394613F0DAFD02460B46EE
:1026A0002046294613F0D4FD0BA3D3E90023DDE92E
:1026B0000BAB04460D4614F05BF810B106A5D5E946
:1026C00000455B4652462046294601B0BDE8F04F22
:1026D000FFF7B4BFAFF300800000C0FFFFFFDF4192
:1026E0002DE9F8430124814604FA00F001388846B8
:1026F000154613F043FD0646A5EB09000F46C0F151
:102700002003A0F1200124FA03F304FA01F104FAF2
:1027100000F0194313F06EFD02460B463046394671
:1027200013F096FDC8F120030F46A8F1200124FA0A
:1027300003F304FA01F10646194304FA08F013F012
:1027400059FD02460B463046394613F0ABFE14F0F5
:102750001BFB14F02DF8BDE8F8830368C31A1A8830
:102760000A2A07D95B89C21833B1C358D01804D0DC
:10277000D058704700207047184670470368C31A46
:1027800010B51A88082A18D91B89C418ABB1C258C9
:10279000A318A258914206D3094B0A4A0A484FF49B
:1027A000837116F0F7FA043303EB810053F82130FC
:1027B000BDE810401844FFF7D0BF00231B68FFDEC0
:1027C000594C0300CE4C0300644C03004B1E1844CC
:1027D000B0FBF1F048437047B0FBF1F0484370475D
:1027E00001380844B0FBF1F04843704701380F2826
:1027F00015D8DFE800F00C0C100E1410080E1008AD
:102800000E120E14140C02230B60002070470423D8
:10281000FAE70823F8E70123F6E71023F4E701209D
:1028200070472DE9F3410D460168411A16460A88A2
:10283000042A2ED98C8800EB040C8CB104591CEBB3
:1028400004070DD05CF804804FF0000C0124C4454F
:1028500007D057F804EF0CF1010C0EFB04F4F6E777
:102860000124062A16D9C988B1B140561A460DF17D
:102870000701C0B2FEF79CFA40B931469DF8070047
:10288000FFF7B4FF10B933685C432C6002B0BDE8B9
:10289000F08101240020E9E70846E7E7436873B5C3
:1028A0000C4653B153F8046B002101228E4205DD22
:1028B00053F8045B01316A43F8E7012201A9007A69
:1028C000FFF794FF10B9019B5A43226002B070BD1C
:1028D00040680368DB6818477047704740680368C2
:1028E0001022DB681847406803685B691847406836
:1028F00003680422DB6840211847704710B51C218B
:1029000004460EF083FF204610BD10B50821044692
:102910000EF07CFF204610BD436910B50C461146F1
:1029200033B1406803680422DB688900984720605F
:10293000002010BD10B508210446FEF727FA231821
:1029400008B12058184410BD10B50A210446FEF7FE
:102950001DFA231808B12058184410BD10B50621DF
:102960000446FEF713FA00B12056C0B210BD10B5F0
:102970000E210446FEF70AFA00B1205C003018BFB1
:10298000012010BD10B504210446FEF7FFF92318FD
:1029900008B12058184410BD10B508210446FEF7B0
:1029A000F5F9231808B12058184410BD38B503684C
:1029B0000D46DB6804221C210446984738B1044BBD
:1029C000C560C0E900340023C0E90533037438BD95
:1029D0000C52030070B50E46102115460446FFF751
:1029E000F5FEA2190146121A284601F0E5FC294617
:1029F000BDE87040FFF7DABF002343614068036819
:102A000004229B6860211847037C70B504460E467B
:102A10002BB11E49C068FEF767F9002522E00123AB
:102A20000374406803680422DB680821984718B1E2
:102A30006368174AC0E90023A0602046FFF7DCFF67
:102A40000028EAD13046FFF7A7FF656801682B68C8
:102A50002846DB680422C9009847054620B90D487E
:102A600000F0B2FD284670BD23680246DB6931469E
:102A7000204698470028D0D123682A469B693146D2
:102A8000204698470028EDD0C7E700BF124E03004C
:102A9000F4510300674E030008B5406801F0B0FC34
:102AA0000421BDE80840FFF791BE00002DE9F04188
:102AB000044688461F46FFF7EFFF00226569164669
:102AC000954207D000EBC20301325B68013308BFB7
:102AD0000136F5E70B2E07D90C220A49E068FEF70C
:102AE00003F90120BDE8F08100EBC5034FF0FF3290
:102AF00040F835805A603D606369013363610020AE
:102B0000F0E700BFD7500300036870B59B68044628
:102B10000D4698472046FFF7BFFF616900229142AA
:102B200006D04368013308BF456001320830F6E73C
:102B3000606803680C319B680422C900BDE87040DE
:102B400018471160002070478068704708B5036817
:102B5000994206D3054B064A06484FF4837116F096
:102B600019F900EBC100D0E9010108BD594C03007F
:102B7000EE560300644C030008B50368994206D37F
:102B8000054B064A06484FF4837116F003F900EB33
:102B90008100406808BD00BF594C03002056030067
:102BA000644C030008B50368994206D3064B074AF4
:102BB00007484FF4837116F0EDF8043000EB810202
:102BC00050F82100104408BD594C0300365303004F
:102BD000644C03002DE9F743054688461646002459
:102BE0004FF00C094046FFF7CDFE03689C421FD210
:102BF0002146FFF7D7FFFFF7BAFEB8B109FB04F78C
:102C000001A9F019FFF74AFE68B9686801990368DD
:102C10001022DB689847F05140B9019A0549E868ED
:102C2000FEF762F8012003B0BDE8F0830134D9E774
:102C30000020F8E7E44D030008B50368994206D385
:102C4000064B074A07484FF4837116F0A3F8043087
:102C500000EB810250F82100104408BD594C0300DC
:102C600026550300644C03002DE9F3479846037C86
:102C700004460F463BB3154600263846FFF78CFE48
:102C800003689E4227D23146FFF7D6FF2368626968
:102C90001B6B8146414620469847C8B92368009679
:102CA000D3F82CA06A68D8F8003039462046D047BF
:102CB00070B923686A681B6A4946204698470835F8
:102CC00030B90136D9E70549C068FEF70DF8012093
:102CD00002B0BDE8F08700202074F9E7954E0300AC
:102CE0002DE9F84305460F46164600244FF02C0800
:102CF0003846FFF751FE03689C4219D22146FFF780
:102D00009BFFFFF72AFD6B681A6808FB00F1D2F8F9
:102D10000C9018460422C84730B90649E868FDF708
:102D2000E3FF0120BDE8F88346F834000134DFE713
:102D30000020F7E70D5103002DE9F74F0C9F0546E2
:102D40000846164698468A46FFF726FE3946FFF79C
:102D500073FF2B6828465B6A4FF000099847CDE95E
:102D600000792B680446D3F828B002464346514602
:102D70002846D84740B10B49E868FDF7B5FF4C46F7
:102D8000204603B0BDE8F08F002EF9D006EBC70651
:102D90000C23726803FB08F3D118D35863604B68A7
:102DA000A360EDE7435103002DE9F3470A9F064670
:102DB0000846984689461546FFF7EEFD3946FFF767
:102DC0003BFF7068036804221B6940219847012279
:102DD000CDE9007233680446D3F828A00246434682
:102DE00049463046D04740B10B49F068FDF77CFFBB
:102DF0000024204602B0BDE8F087002DF9D005EB95
:102E0000C7050C236A6803FB08F3D118D358636025
:102E10004B68A360EDE700BF2D50030008B50368C1
:102E2000994206D3064B074A07484FF4837115F0C1
:102E3000B1FF043000EB810250F82100104408BDBE
:102E4000594C030040520300644C030038B50C4653
:102E500008210546FDF79AFF88B129582046FFF75B
:102E6000DDFF044650B10421FDF790FF221828B180
:102E70002358D11805D0D05800B1081D38BD0146DF
:102E8000ECE70846FAE710B50446FDF77FFF231884
:102E900008B12058184410BD2DE9F7430B9C90460B
:102EA000054640220E46204600211F4617F040FCF2
:102EB0004046FFF753FD0A9A2146FDF779FF0028A7
:102EC00054D14046FFF753FD394684F82D00404663
:102ED000FFF7BCFF606000284BD10223237501AAD5
:102EE0000A9B04F118014046FFF79BFC00283DD1E6
:102EF00004214046FFF7C7FF00283CD13E4BA360AA
:102F00000C214046FDF742FF08EB000770B358F86C
:102F100000003F18384629D0FFF70CFD80460028F6
:102F200068D0006810B33846FFF70EFDF0B10068B6
:102F3000E0B1D8F80430E3603846FFF705FD002122
:102F4000FFF704FE20613846FFF7F4FC2B68D0F849
:102F5000008096B11B6904220C212846984706463A
:102F6000B8B926490A98FDF7BFFE012003B0BDE8B5
:102F7000F0830123B2E7A060C2E7DB6804220C21E2
:102F80002846984706460028EBD02B68D3F80C90CB
:102F900002E02B68D3F810904046FDF795FE04221E
:102FA00001462846C8470546706008B91449D9E764
:102FB0003846FFF7BFFC306045F8048B4FF000093E
:102FC000C8450ADD3846FFF7BFFC4946FFF7BEFD9E
:102FD00045F8290009F10109F2E710213846FDF70B
:102FE000D5FE00B13858B060012384F830306663F4
:102FF0000020BBE7BAE700BFC84D03008D510300B6
:10300000BB5103002DE9F041069C26460D460021E8
:10301000C4E9001146F8081F984628461746FFF7EE
:103020009DFC31464246FDF7C3FE064658B9394677
:103030002846FFF70BFF042120602846FFF723FFF7
:1030400020B9034B63603046BDE8F0816060FAE769
:10305000C84D030010B50446FDF798FE231808B1CB
:103060002058184410BD2DE9F0410446084690460A
:103070001F460D46FFF790FC06999DF81C60FFF770
:10308000DBFDFFF77FFC3946FFF78CFD0C2107467F
:103090002846FFF7DFFFE3680693CDF81C80034660
:1030A0003A4631466068BDE8F041FFF7F5BE0000E2
:1030B0002DE9F04F85B006468846039200254FF073
:1030C0000C094046FFF768FC03689D423DD2294643
:1030D000FFF7B2FD0290FFF755FCD0F800A0706832
:1030E000036809FB0AF4DB68042221469847074677
:1030F00040B917492246F068FDF7F6FD012005B0FA
:10310000BDE8F08F0024544519D00298FFF73AFC2F
:103110002146FFF747FD0C2183464046FFF79AFF03
:1031200009FB047300930246F36870685946FFF781
:1031300069FF10B122460749DDE70134E3E7039B4D
:1031400003EBC50301355F60BBE70020D7E700BF95
:1031500071500300B85003002DE9F04F97B00446BA
:103160000846934609938846FFF716FC2099FFF717
:1031700063FD0290FFF706FC626903686068D3187C
:103180001826059373430393036803991B6904226C
:103190009847064648B9039AB649E068FDF7A4FD8A
:1031A0000122104617B0BDE8F08F0298FFF7EAFB46
:1031B00003680493636906931021E368079340460C
:1031C000FDF7E4FD08EB0001002846D058F8002088
:1031D0008B1871D08A5808924FF000091F1DCA46FB
:1031E000089B53453AD03D4604212A681544284699
:1031F000FDF7CCFD04372A1808B1285810441722CF
:103200009D49043017F0EAFE20BB0C214046FFF731
:1032100021FF062181462846FDF7B8FDC0B1295897
:103220004846FFF7FBFD04210546FDF7AFFD2B18CF
:10323000002800F09A812858034403F11009DA6845
:10324000049B934206D08D490798FDF74DFDA7E7F3
:103250000146E5E70AF1010AC2E78146DA46B046CF
:10326000374600254FF0FF3B049BAB4229D0C7F8FF
:1032700004A039465046FFF711FB0246002890D1C2
:10328000DAF80010C7E902BB51B90298FFF77AFBE0
:103290002946FFF787FCFFF76AFB80F00102D2B2F4
:1032A0003A75B9F1000F09D059F825203A61013576
:1032B00018370AF10C0AD7E79946CFE7C7F810B0DC
:1032C000F5E70298FFF749FA4FF0000B82464FF0FE
:1032D00018095F4606210298FFF7D5FD03685B4594
:1032E00008D95946FFF748FC09FB00600BF1010BB8
:1032F0008760EFE74FF0000B4FF0180908210298A4
:10330000FFF7C1FD03685B450AF1FF3719D84FEAA3
:103310008709002FC0F2C2800A210298FDF736FD0E
:10332000029B1918002800F022811A588B188A581D
:1033300097420FD3524B534A53484FF4837115F0C1
:1033400029FD5946FFF718FC09FB00600BF1010B42
:10335000C760D3E7043303EB090A53F809304FF091
:10336000000B9A4406215046FFF78DFD02685A452E
:103370000ED95946FFF700FC182303FB0060C26812
:10338000511C01D0974200DDC7600BF1010BE9E74A
:103390004FF0000B08215046FFF775FD02685A45B3
:1033A0000ED95946FFF7E8FB182303FB006082683B
:1033B000531C01D0974200DA87600BF1010BE9E75B
:1033C000013FA9F10409A4E71021606801F01AF88F
:1033D00005466068036829461B6910229847014624
:1033E00058B9E168294B019340F2D2330093284A3F
:1033F000284B0846FDF786FCD2E62A460BA803F0C8
:10340000FBFAD4F80C9035460027059BBB426CD0E4
:103410002B7D13B901371835F7E710212868FFF71E
:10342000DFF92B69591C02460FD1EB680093AB689A
:1034300049460BA803F0A4FA02460028EAD00BA8DC
:10344000029203F093FA029AABE60193EB680093C1
:10345000AB6849460BA803F0EBFAEDE70BA803F0C5
:10346000E6FB2B4602460C493846FDF73DFC01229F
:10347000E5E700BFE04E0300CC4D0300214F030001
:10348000594C03002C540300644C0300C64F030046
:103490008D3B03006C4F0300DF4F03002046FFF716
:1034A000FBFA6FF0070202FB0500069A0999182340
:1034B0002A4403FB056396464FF0FF3C0127AE45C7
:1034C00003F1180380D950F8352043F8182C00EB8D
:1034D000C50243F8141C526843F808CC43E904229F
:1034E00003F8047C01350431E9E7606803685B692F
:1034F00098471021606800F085FF05460BA803F08F
:1035000096FBA842E768A9D8606800F079FF039BA2
:1035100081461E4400254FF0FF3A464516D098F8E4
:10352000143083B12A460AAB39460BA8CDF828A03F
:1035300003F09AFB0246002881D10A9BD8F80420A8
:103540004B441360013508F11808E6E70BA803F0B7
:103550006EFBA369834200D2A0616068A169036821
:1035600010229B689847024669E7C368FFDE03683C
:10357000FCE700BF00B5C1B00B4602464FF48071B6
:10358000684600F05DFD684600F04AFF024800F022
:1035900047FF41B05DF804FB677D030000B5C1B093
:1035A000134668460A464FF4807100F049FD6846AC
:1035B00000F036FF034800F033FF002041B05DF813
:1035C00004FB00BF677D03000FB407B504A951F8E1
:1035D000040B0191FFF7CEFF03B05DF804EB04B0DC
:1035E000704700004369202B01D180697047DBB22E
:1035F000912B9ABF024A52F823000248704700BF3D
:103600007C3C030094790300704710B51C210446EC
:103610000EF0FCF8204610BD2DE9F84FD0F81480CC
:10362000044600264FF02C09A3691B689E4220D255
:1036300066613146A068FFF7A1F84FEAC60B8246E3
:103640000027574513D0236953F80B5009FB075542
:10365000AB6A69695A691B68202A0CBFD5E9061252
:10366000002213B16068984728610137E9E7013605
:10367000DAE7C4F814800020BDE8F88F2DE9F047A0
:103680004769044600254FF02C08A3691B689D423A
:103690001AD265612946A068FFF770F84FEAC50A9B
:1036A000814600264E450DD0236953F80A3008FBA9
:1036B00006339A6A22B1526812B11969606890475C
:1036C0000136EFE70135E0E767610020BDE8F087EC
:1036D0002DE9F84F4769044600254FF02C08A369EF
:1036E0001B689D422CD265612946A068FFF746F809
:1036F0004FEAC50A814600264E451FD0236953F87C
:103700000A1008FB0611D1F828B0DBF808307BB1AD
:1037100060689847014658B15846FFF763FF324644
:103720000B4601460848FFF74FFF0120BDE8F88F20
:103730003146E068FFF7E8F90136DDE70135CEE70D
:1037400067610020F2E700BF42580300002310B574
:103750000446C0E9003222B1136810469B689847BE
:103760002060204610BD10B50446406818B10368BB
:103770002168DB689847204610BD000083692DE969
:10378000F74F1A68D0F81480044691420F466161E1
:1037900007D32248FFF718FF0125284603B0BDE8EC
:1037A000F08F8068FEF7EAFFFF00814600264FF0A9
:1037B0002C0A4E452ED02369DD590AFB0655D5F853
:1037C00028B05846FFF70EFF636801465A6B6846FB
:1037D000FFF7BCFF2946DBF80C30606898470546C8
:1037E000E06803689B689847012D0CD15846FFF7A5
:1037F000F9FE2B46014632460948FFF7E5FE6846CA
:10380000FFF7B1FFC9E7002DF9D16846FFF7ABFF1D
:103810000136CEE7C4F814800025BEE7DC5703006C
:103820000E580300016170472DE9F04F074685B03F
:1038300000264FF00C0BB86903689E4265D23146F2
:10384000FFF7FAF94FEAC6098046002504214046F1
:10385000FDF79CFA08EB000100285BD058F8002027
:103860008B188A5895424ED2043303EB850453F8E3
:1038700025301C440E212046FDF788FA00283CD054
:10388000235C002B39D03B694B440BFB05FA58688D
:1038900003A95044FFF702F80346002836D10190EF
:1038A00006212046FDF772FA48B32256019B092AE9
:1038B00027D10C212046FDF769FA231890B124582E
:1038C0001C440A212046FDF761FA221810B3235840
:1038D000D118D35843B9104B104A11484FF4837193
:1038E00015F058FA0446ECE749683B69039A4B44E3
:1038F0005B6853F80A0016F01BFF0135A6E7014686
:10390000F3E71946F1E7013695E70023184605B0BD
:10391000BDE8F08F0368FFDE594C0300B058030088
:10392000644C030010B50446FDF730FA231808B1C3
:103930002058184410BD70B50C4605460821806813
:103940001646FFF7EFFF2146FFF776F90621FFF74E
:103950009AFA3146FFF710F9296901EBC4010C22EC
:103960004B6802FB003070BD08B508218068FFF786
:10397000D9FF006808BD10B580680C460821FFF724
:10398000D1FF2146FFF758F90621FFF77CFA0068BE
:1039900010BD10B580680C460821FFF7C3FF214613
:1039A000FFF74AF90821FFF76EFA006810BD000022
:1039B00010B504460748C4E902230023C4E9000106
:1039C000C4E9043322B108211046FFF7ABFFA06120
:1039D000204610BD8058030070B50C4605460821EE
:1039E00080681646FFF79EFF2146FFF725F908215C
:1039F000FFF749FA3146FFF7BFF8296901EBC40127
:103A00000C224B6802FB003070BDC368586E03681F
:103A1000DB681847C368D3F8883053F82100704733
:103A200037B5C468606EE26F036800925D68A26F8C
:103A30000B462168A84703B030BDC268D2E91E30EA
:103A400003EBC0030C205B6800FB01307047C368C8
:103A500068330B6000207047C0681346C26F406E29
:103A6000FFF724B80EB403B5C368986803AA0368C7
:103A700052F8041B01929B68984702B05DF804EB72
:103A800003B070472DE9F041079F876000F10C05F6
:103A900004469846C0E900120E46582200212846E6
:103AA00016F046FE3A4606994046FEF793FF324628
:103AB00003466066294604F16800FFF779FF0A4A69
:103AC00022620A4AE2650A4A22660023089A84F8BA
:103AD0008430C4E92233C4F89030A461226484F8AD
:103AE00085302046BDE8F081653A0100213A0100A9
:103AF0003B3A010008B50821FFF714FF0021FFF74A
:103B00009BF80821FFF7BFF9006808BD38B50546E6
:103B100000680C46FFF7EEFFA042034606D8224697
:103B20000549A868FDF7E0F8002038BDD5F89030C9
:103B300053F82400F9E700BFBC5B030008B5082177
:103B4000FFF7F0FE0021FFF777F80621FFF79BF95A
:103B5000006808BD38B5054600680C46FFF7EEFF63
:103B6000A042034606D822460549A868FDF7BCF8DE
:103B7000002038BDD5F88C3053F82400F9E700BF99
:103B8000645B030038B5836F044600F1680513B128
:103B90002846FFF773FD2846FFF736FD204638BD5F
:103BA0002DE9F04F05468BB04FF0000905F1680094
:103BB000FFF7DAFE484540F3FB802C6808212046D9
:103BC000FFF7B0FE4946FFF737F806218246204648
:103BD000FDF7DCF8231840B326581E44686EFEF744
:103BE000B3FF04905046FEF7B8FD4FEAC9030590B5
:103BF00002934FF00008059B984500F0D6800A21FB
:103C00005046FDF7C3F80AEB0001002800F0D2800F
:103C10005AF800208B188A58904508D3664B674A9B
:103C200067484FF4837115F0B5F80646D6E70433BC
:103C300003EB880453F828301C4404212046FDF788
:103C4000A5F848B127583368BB4207D85D483946C4
:103C5000FFF7BAFC012328E00746F4E7331D03EB26
:103C6000870B53F82730029A9B442C2303FB08F35D
:103C70000193AB6F9B58019A13442833D5E9011285
:103C80005846FDF76BFAA0B10190584605F01FFFAA
:103C9000912898BF4C4A019B94BF52F820104B4981
:103CA0004B480193FFF790FC019B18460BB0BDE811
:103CB000F08F0299AA6F525801990A44926A12B978
:103CC00039464448C4E792F814B00790BBF1200F7E
:103CD0004FF00E0120463FD1FDF758F8221800287A
:103CE00033D10027039706212046FFF7CCF808AA16
:103CF0000146686EFEF725FF03460028D5D108214E
:103D00002046FFF7C0F809AA0146686EFEF719FFC2
:103D100003460028C9D1AA6F029952F801B0019A4E
:103D20000BEB020401462822204616F001FD019A01
:103D3000089B4BF80230099B6360079B6361039B00
:103D400008F10108C4E9063755E72358D118C8D04F
:103D500004310391D758C6E7FDF718F8231858B176
:103D60002258D34208D0BBF1910F96BF164B17498A
:103D700053F82B1018486BE76868036859461B6AAC
:103D80009847074640B9BBF1910F96BF0E4B0F49BC
:103D900053F82B1011485BE707AB049AA96820463B
:103DA000B847034600289CD07FE709F10109FDE6EA
:103DB00000237AE70368FFDE594C0300E85B030049
:103DC000644C0300895A03007C3C0300947903008F
:103DD000B35A0300E05A0300015B0300475B030092
:103DE0002DE9F74F01680446406EFEF70DFE0146CF
:103DF00050B96149A0680125FCF776FF84F8855029
:103E0000284603B0BDE8F08F04F168063046FFF79E
:103E100009FD2046FFF7C4FE05460028F0D1574BA8
:103E20006364574B2361C4E913003046FFF7F4FB8A
:103E3000544BE3643046FFF74BFC534B6564E56439
:103E40002365A26F2168606E04F18803FEF70CFF02
:103E500005460028D4D1676E2068FFF76FFE3B68E7
:103E60008100DB6838469847C4F88C0048B9206860
:103E7000FFF764FE45498200A068FCF735FF012585
:103E8000BEE7AA46D4F800804046FFF757FED4F8B4
:103E90006490A842D9F8007022D908214046FFF763
:103EA00041FD0021FEF7C8FE0621FEF7ECFF294682
:103EB000FEF762FECDF800A003463F68A26FD4F87B
:103EC0008CB041464846B847D4F88C304BF82500B2
:103ED00053F8253013B92A462D49CDE70135D1E7EE
:103EE0004046FFF707FEFB68810048469847C4F844
:103EF000900028B92068FFF7FDFD26498200BBE746
:103F00000025A94627683846FFF7F4FDA84227D9BF
:103F100008213846FFF706FD0021FEF78DFE082137
:103F2000FEF7B1FFD4F864802946FEF725FED8F8E5
:103F30000030CDF80090D3F800B0A26FD4F890A074
:103F4000034639464046D847D4F890304AF8250011
:103F500053F8253013B92A460F498DE70135D1E7CB
:103F60003046FFF761FC054600287FF449AF012386
:103F700084F8843044E700BF885903000B3A0100FD
:103F80004F3A0100593A0100153A0100AB590300BC
:103F9000F4590300195A0300635A030090F885305E
:103FA00010B504462BB10A498068FCF79DFE01203C
:103FB00010BD90F8843033B104F168000021BDE8F1
:103FC0001040FFF7DBBBFFF70BFF0028F4D0EFE753
:103FD0008F5B030030B50446234601341D78002D65
:103FE000FAD101390844013A12F8011F21B1834284
:103FF00002D203F8011BF7E700221A70184630BD01
:1040000030B503460C46B3FBF2F502FB1530C3B2E4
:10401000092894BF303357332046DBB200F8013B08
:104020002B464DB96570A14208D20B78227801F871
:10403000012B04F80139F6E70446E4E730BD00003F
:104040002DE9F04F95B01746009003911E4601F1FF
:10405000FF390025009A3B7854199BB34D4531DA5E
:10406000252B07F101020BD17B78662B60D00AD893
:10407000632B00F01781642B20D0252B36D1BA1C7E
:104080000135237032E0752B32D0782B3AD0732B68
:104090002CD1039A3368501B311D013B04EB5000B7
:1040A000009A8442A4EB020500F0028113F8012F6C
:1040B000002A00F0FD8004F8012BF1E7A9EB0503CD
:1040C0000A2B01DC681C23E030680028B8BF2D23D0
:1040D00006F10408BDBF611C2370404221460A223C
:1040E000FFF78EFF001B0544BA1C46461746B1E792
:1040F000A9EB05030A2BE5DD06F104080A22214697
:104100003068EDE7A9EB0502092A05F1010004DC9E
:104110000023237015B0BDE8F08F4FF030022270FD
:10412000009A02351354541906F104081022E6E7E8
:10413000A9EB050307EE903AF8EEE77AB2EE0C7AB7
:10414000F4EEC77AF1EE10FABCD4F31D23F00703A6
:10415000D3E9000103F1080612F072FBC0F3C75364
:104160000028A3F17F0A01932346BCBF2D2203F848
:10417000012B0022BAF1800F04F12F0BC0F31608B7
:104180001A7010D1ABEB0301B8F1000F09D14A4A04
:104190001846FFF71FFF8046A8EB04042544BA1C0D
:1041A000A4E7464AF4E7464A0DF1100C516810683E
:1041B000E646AEE80300434908328A42F446F5D1A8
:1041C00010681279CEF800008EF8042040460022D4
:1041D00004A98956013228FA01F10D2A0844F7D1C1
:1041E00031221A702E225A7003F1020800229A70AE
:1041F000ABEB0802072A0292CEDD424608334FF0AD
:10420000300102F8011F9342F9D10A2208A9FFF7F1
:10421000F7FE08AA02994046FFF7DCFEA0EB080370
:104220004FF03002D3F10701027012D00246A0EB2A
:10423000020C9C4508DA12F801CD02F801C04FF0DB
:10424000300C82F800C0F2E723EAE373C3F10703FE
:10425000184410F8012C302A00F1FF3301D14345F6
:104260001ED80023ABEB00010370174AFFF7B2FE24
:10427000BAF1000FBFBF2D238DF82030019BC3F191
:104280007F0A8046ABEB000BB4BF0DF1210108A9FA
:104290000A225046FFF7B4FE08AA5946404678E77E
:1042A0001846D6E7336823700135BA1C04361DE77B
:1042B000BA1C0E461AE700BFEF5C0300F35C030074
:1042C000E25C0300EA5C0300F75C0300034610B500
:1042D00053F8044B00220120944204DD53F8041BE0
:1042E00001324843F8E710BD7047036983617047A6
:1042F00010B51C2104460DF089FA204610BD0000BF
:1043000037B505460C4680691146FEF75FFA6B69C2
:104310001B1AA34209D2E21A009205496868224694
:10432000FCF7E2FC002003B030BD0444AC61FAE7C6
:10433000FB5C030037B5044640690D46401B11463F
:10434000FEF74AFA236983420AD91B1A00932A46C8
:10435000EB1A04496068FCF7C7FC002003B030BDCD
:104360006061FBE7445D030037B583690D46016971
:104370009942044606D00E494068FCF7B5FC01207E
:1043800003B030BD11468068FEF720FA63691B1A3E
:104390009D4207D9EA1A0092064960682A46FCF74E
:1043A000A3FCECE728442061A0610020E8E700BFFF
:1043B0008D5D0300E25D030010B50A4488B00F4C28
:1043C0000791CDE90312CDE905120422CDE90140A0
:1043D0001C210DEB0200FFF7ADFF60B1029B4360B3
:1043E000039B8360049BC360059B0361069B436141
:1043F000079B0460836108B010BD00BF2C5E030002
:104400008068704770B5044680690E46FEF7DEF995
:10441000314605466069FEF7DFF9401B70BD0000BC
:104420000146014807F05BB9208800204FF416517F
:10443000014805F03BBE00BF208800200368052B23
:1044400010B5044603DD406808B10DF0E1F92046DF
:1044500010BD000070B5044611B90160204670BD62
:104460008D682B680360052B4FEA830608DD094839
:104470008342D4BF30464FF0FF300DF0B3F9606097
:104480002368052BCCBF6068201D3246291D16F01D
:1044900051F8E3E7FEFFFF1F0368052BC7BF436822
:1044A00053F8210000EB81004068704701EB820265
:1044B000436D516818470968FFF7F8BF4BB10128F1
:1044C00003D0022807D0002303E01944013991FBEF
:1044D000F3F3184670470098013A504319440130ED
:1044E000091AF4E70B7C012B70B504460D461646FD
:1044F00003D100232363134B04E0032B17D10023C4
:104500000363114B6363287800F0A6F93368638076
:104510007368A3806B686381AB68A3816B69E38177
:10452000AB692382EB6820706382204670BD022B4A
:1045300004D1064B03634FF07E53E3E76FF40003AF
:10454000D8E700BFFFFF7F7F0000C040000080BFB2
:1045500013695B4270B5436153695B428361936940
:10456000C361D3690362136A15465B420446436222
:1045700008780E4600F070F96B68A3802B686380A2
:10458000B368A38173686381B36923827369E3812C
:10459000F3686382EB6AA3622B6B2070E3622046B0
:1045A00070BD00002DE9F04F9A460B681B688FB074
:1045B000023B012B0546894690461E9E0AD95D4B5B
:1045C000009344695C4A5D495723A04701200FB01E
:1045D000BDE8F08F4B681C68012C0CD00126CDE99A
:1045E0000246574B0193574B00934469524A564930
:1045F0005823A047EAE7936892F800B00A935368FB
:1046000057690B9393690C93199A0B9B009751462A
:104610005846FFF753FF0C9B1A9A18990D90009378
:1046200058460A9BFFF74AFF1A9B0C9A013B5343DB
:104630000A9A0133013802FB0030189B0D9AC01A08
:10464000199B013B7B43571E0B9A013302FB073733
:10465000A7EB0A0A2AEAEA7A4FEA6A0320EAE0703C
:10466000336043107360394B0AF0010700F001001A
:10467000F060B7601A6849462846FDF75BFD824640
:1046800040B9334B6E69009362232B4A2B4928466D
:10469000B0479BE72F4B49461A682846FDF74AFD6D
:1046A000074620B92C4B00936E696423EDE72B4B32
:1046B00049461A682846FDF75FFD294B494683465F
:1046C0001A682846FDF747FD814620B9254B00931F
:1046D0006E696823D9E79DF87430012B09D1DAF8A7
:1046E000103033613B697361D9F81030B361002039
:1046F0006DE7BB681B690893B36A0793736A0693F7
:1047000006F13003059306F12C03049306F1200310
:10471000039306F11C03029308F11003CDE9000393
:104720003A465B4651462846FDF74AFE0028D6D059
:104730004DE700BFCC5E0300645E03008D3B0300C9
:1047400098820300F05E0300054B0300485E0300FF
:10475000045F0300505E0300155F0300445E030026
:104760004C5E0300275F0300012903D10023C361CE
:10477000094B04E0032904D10023C361074B036202
:104780007047022904D1064BC3614FF07E53F6E710
:104790006FF40003EBE700BFFFFF7F7F0000C04026
:1047A000000080BF2DE9F04F85B0012A8046894680
:1047B0001F460E9EDDE9105427D004AB4FF0000ACF
:1047C0004FF0000B63E902AB3246CDE900533946A6
:1047D0000F9BFDF705FDA8B9DDE90201231D224667
:1047E000FDF7F4FE3B6963613369A3612B69E36103
:1047F00004F10C0300932A4604F10803494640469D
:10480000FDF74CFD05B0BDE8F08F0020FAE7000091
:1048100070B5044609B14D681DB9002323602046D8
:1048200070BD2B680360052B4FEA830608DD09483D
:104830008342D4BF30464FF0FF300CF0D3FF6060AE
:104840002368052BCCBF6068201D3246291D15F05A
:1048500071FEE4E7FEFFFF1F012803D002280CBF12
:1048600002200020704770B515461E46FFF714FE63
:10487000314604462846FFF70FFEA042A8BF204657
:1048800070BD30B50568052DCCBF4368031D0022FF
:104890000120AA4207DA8A4214BF53F822400124B9
:1048A00060430132F5E730BD884230B51DD100F1DB
:1048B00000435C425C4180FB0123002A73F100014C
:1048C0000C49A8BF4FF080418CB9541843EBE175F7
:1048D000002C75F1000304DA6FF000400021241869
:1048E0004D41E00F40EA450030BD0024E3E76FF0A2
:1048F0000040F9E7010000C0002908B506DA0D4BB9
:104900000D4A4FF4B3710D4814F044FA1F2904DD29
:104910000B4B094A40F26711F5E701238B40013B3D
:1049200003EA00025B1003EBD07308419A42C8BF50
:10493000013008BD505F0300CA5F03005E5F0300E3
:10494000BB5F030008B50021FFF7D6FF08BD08B51F
:10495000FFF7AAFF08BD00002DE9F0410446144806
:10496000FFF7F0FF06461348FFF7ECFF04F1805411
:10497000804621462046FFF7EAFF21460546FFF71D
:10498000E6FF294607462846FFF7E1FF0221FFF729
:10499000B3FF41463844FFF7DAFF01212844FFF70F
:1049A000ABFF21183046FFF7D2FF3044BDE8F0815D
:1049B00094A8F570ABAAAA2A2DE9F84340F07F44E9
:1049C00005466001FFF7C8FF81464248FFF7BAFF7E
:1049D00001464846641BFFF7BAFFC4F30067C7F1FE
:1049E000000800EA08083C48FFF7ACFF013F07EA6F
:1049F000090788EA070701463846FFF7A8FFC4F30E
:104A00004068C8F1000900EA09093448FFF79AFF35
:104A100008F1FF3808EA070889EA08080146404615
:104A2000FFF795FFC4F38069C9F1000707402C48E0
:104A3000FFF788FF09F1FF3909EA080987EA090940
:104A400001464846FFF783FFC4F3C067C7F100087B
:104A500000EA08082348FFF775FF013F07EA090746
:104A600088EA070701463846FFF771FFC4F300766E
:104A7000C6F1000800EA080006F1FF3808EA070856
:104A800080EA08081848FFF75DFF01464046FFF737
:104A90005EFFC4F340777E42013F064007EA08000C
:104AA0004640F220FFF74EFF01463046FFF74FFF2A
:104AB000C4F3807463421840013CB5FA85F3344076
:104AC0005B094440581E5B42204023F0004358409D
:104AD000BDE8F8837BBEAF63F2CBA24D6CAC162F62
:104AE000A4AA5211B72A580211FE0A00B0F1804F51
:104AF0002DE9D04828DAB0F1404F4FF0FF324FF0A7
:104B00000004C8BF002210EB000B4FEAE07141EB3C
:104B1000010CBBF1004F7CF1FF3319DB6FF0004655
:104B200000275E4577EB0C03ACBF58466FF00040A2
:104B3000E343184024F00044D3436040184002F09F
:104B400000425040BDE8D0884FF0FF340022DAE741
:104B50004FF00040ECE700006FF000422DE9F84F05
:104B600014184FF0000343EBE0756B1C08BFB4F161
:104B7000FF3F204618BF0124294618BF002506190B
:104B800041EB0507FB0FF01847F100014F104FEA0A
:104B900030064FF05A30FFF7D5FE05462748DFF8BC
:104BA000A090FFF7CFFE01463046FFF77DFEB046EE
:104BB0002C186FF000460325002721464046FFF7DA
:104BC00073FEC0F100512046FFF76EFEB0F1005FAA
:104BD0002CDA48454FF0FF314FF0000CA8BF002100
:104BE0004FEAE07B82004FEA8B0343EA9073B2F115
:104BF000004F73F1FF301DDB964277EB0300B8BF27
:104C00006FF000426FEA0C031A402CF0004CCB43CB
:104C100082EA0C021A4001F000414A40013D14446E
:104C2000CBD12046FFF762FFBDE8F88F4FF0FF3C85
:104C30000021D5E74FF00042E4E700BFC4C3C3C37F
:104C4000010000E00A68436D73B50E4651680446E2
:104C500098477268636D516805462046984701A9D8
:104C60000646287AFDF7C2FD044650B96868FFF78A
:104C70002DFB019B2A685843336801909A4203D167
:104C80000024204602B070BD2046019B8342F7D924
:104C90002B681A5C33681A540130F6E72DE9F043AB
:104CA000002285B004460F46FDF744FA064658B97F
:104CB000454B656900932323444A45492046A8474C
:104CC000012005B0BDE8F083002239462046FDF7FB
:104CD00042FA054620B93F4B009365692523EBE76F
:104CE000D6F808C05CF8049B4FF0000E01220023A8
:104CF000F1450CDD5CF8048B4046C117514308FBBD
:104D00000311A2FB08230B440EF1010EF0E73B68F0
:104D1000A9681B68012B05D10B68012B02D14B68D8
:104D200003B90B608C464FF0FF305CF8048B012315
:104D30000027B8451ADD5CF804EBBEF1FF3F0FD148
:104D4000B0F1FF3F10D0244B0193CDE9020E234B6D
:104D5000656900933A231D4A21492046A847AFE7D9
:104D60000EFB03F30137E4E73846FBE7471C1CBFA3
:104D700001EB800192FBF3F7307818BF4F60297880
:104D800018BF7B43814212D06669FBF7A1FF07463B
:104D90002878FBF79DFF134B0193134B0093CDE94C
:104DA00002704523094A11492046B04788E79A42D4
:104DB00008D0CDE902230E4B01930E4B0093656999
:104DC0004623C8E700207CE7045F0300446003003B
:104DD0008D3B0300275F03009E600300A16003007A
:104DE000054B0300C7600300D4600300AD600300FF
:104DF000E0600300F46003000B68F0B51B68013B42
:104E0000012B85B005460C4609D9194B009344691E
:104E1000184A19494B23A047012005B0F0BD4B6843
:104E20001E68012E0CD00124CDE90264134B0193BE
:104E3000134B009345690F4A12494C23A847EBE7EF
:104E4000FFF72CFF0028E8D0214628466F69FFF7BE
:104E500025FF0023CDE902030B4B01930B4B00937D
:104E600028464D23034A0749B8473046D5E700BFD7
:104E700007610300446003008D3B03009882030038
:104E800034610300054B0300456103004F610300DB
:104E900070B5054D064604460FCD0FC495E80F00CA
:104EA00084E80F00304670BD2460030007EE100A4E
:104EB000F7EE007A37EE277AC7EE877A17EE900A78
:104EC000704712F0C5BA3821836B184708B511F046
:104ED00067F912F02FFA11F0B3FC08BD2DE9F04389
:104EE0002DED0C8B85B00BEE101A189C9FED608A8F
:104EF000DFED609A9FED609A04F1FF390CEE902A85
:104F000007EE909A3CEECB7AF8EEE77AF6EE008A5E
:104F1000C7EE27AA05461F46A3F1020800262AEE7F
:104F2000A8DAB14572DD07EE906AF8EEE77AB0EEE6
:104F30004BCAA7EEAACA01361CEE100AA84707EE14
:104F4000900A67EE887A17EE900AFFF7BFFF07EE28
:104F5000906AF8EEE77AB0EE4B7AA7EEAA7A0AEEFC
:104F6000100A17EE100AA8470BEE900A1CEE100A62
:104F7000A84707EE900A67EE887A17EE900AFFF7C7
:104F8000A5FF07EE900AEBEE887A67EEA87A17EE97
:104F9000900AFFF79BFF7CEE0D7A0BEE900A17EE5E
:104FA000900AA84707EE900A67EE887A17EE900AF3
:104FB000FFF78CFF07EE900A7BEEE7BA6BEEA87A5C
:104FC00017EE900AFFF782FF07EE900A7AEE677AF3
:104FD000CDED029AF4EEE97AF1EE10FA54BF01AB8E
:104FE00002ABCDED017AD3ED007A8DED039AF4EEAC
:104FF000C97AF1EE10FAC8BF03ABD3ED007AFDEE2B
:10500000E77A17EE903A28F8023F8AE71CEE900AFA
:10501000A84707EE900A67EE887A17EE900AFFF726
:1050200055FF07EE900AF4EEE97AF1EE10FA54BF5C
:1050300001AA02AA0190CDED029AD2ED007A8DED7F
:10504000039AF4EEC97AF1EE10FAC8BF03AAD2EDC2
:10505000007AFDEEE77A04F10043013B17EE902A57
:1050600027F8132005B0BDEC0C8BBDE8F08300BF22
:1050700000000047000000C700FEFF4600000000DF
:105080002DE9F04F0B681E68012E89B00546894650
:105090000FD00124A14B0193CDE90264A04B0093F2
:1050A0004569A04AA0495D23A847204609B0BDE84C
:1050B000F08F4B681C68012C0BD0984B0193CDE905
:1050C00002469A4B00934469964A97495E23A0474B
:1050D00057E00022FDF72EF8804640B9944B00932C
:1050E0006E6960238F4A93492846B047DDE783689D
:1050F0001B68002B04DC904B00936E696123F1E781
:10510000002249462846FDF726F8074620B98B4B72
:1051100000936E696323E5E7D9F8106026B9884BE0
:1051200000936E696523DDE798F80030072B17D1EF
:10513000AB6B40F202412846984720B9814B00935F
:105140006E696B23CEE7B062AB6B40F2024128463A
:10515000984720B97C4B00936E696F23C2E7F062D9
:105160003A7898F80030072A0DD1092B3AD0072B4E
:1051700017D0764B00936C6976236A4A6D492846AE
:10518000A047012491E79A422CD0CDE90232704B1E
:105190000193704B00936C697823624A62492846F8
:1051A00095E73B694BB10022CDE902326A4B01938E
:1051B0006A4B00936C697D23EFE740F20124009471
:1051C000B36A674967480022FFF788FE0094F36AD4
:1051D00065484FF07E520021FFF780FE3B69F36186
:1051E000FB68336298F80040D9F81490092C39D044
:1051F000072C40F02A813B694BB10022CDE90232F5
:10520000554B0193554B00936C692523C5E7DFEDA2
:10521000577A97ED037ADFED566AB4EEE77AF1EE4E
:1052200010FACCBF77EE677A77EEC77AF4EEE67ABB
:10523000F1EE10FA40F3C6804FF07C53002217EED7
:10524000100ACDE9042310F0ABFF4A4B0193CDE9DE
:105250000201494B00936C692723324A474928468B
:10526000A0478EE73878072833D13B6913F5004F04
:1052700009D0434ACDE90232424B0193374B0093A8
:105280006C692B2389E7DFED407A97ED037ADFED38
:105290003F6AB4EEE77AF1EE10FACCBF77EE677AA8
:1052A00077EEC77AF4EEE67AF1EE10FA40F3A980D1
:1052B000374B002217EE100ACDE9042310F070FFDF
:1052C000344B0193CDE902012B4B00936C692D23E4
:1052D000C3E7092812D06E69FBF7FAFC074620469F
:1052E000FBF7F6FC2C4B0193CDE90270184B0093B1
:1052F0002F230C4A29492846B04742E73B6913F15E
:10530000800F51D06FF07F02CDE90232244B019320
:10531000124B00936C6930233FE700BF9882030073
:10532000CD6103006C610300054B03003461030091
:10533000045F03008D3B0300DD610300275F030072
:10534000F761030012620300296203009B4B030014
:10535000C7600300D4600300A47603004C6203001E
:10536000000020C1C34E0100AD4E01000000003816
:105370006F120333866203009262030066620300C9
:105380000080FFFFA7620300000080376F128332A6
:105390000000F03EAE620300D54B0300AD60030099
:1053A000BA6203000000803B97ED037A5FED037A59
:1053B000B4EE677AF1EE10FA23D03D4B00936C699E
:1053C0003123DAE6D8F80C0010F0EAFE8246D9F86C
:1053D00000008B4610F0E4FE02460B46504659464C
:1053E00010F036FF06F108042FA3D3E9002311F0D3
:1053F00059F807AB2246FDF7E9F8079BF360002454
:1054000053E6D8F80C0010F0CBFE8246D9F8000025
:105410008B4610F0C5FE07AB0293052406F1080386
:10542000019352465B460094FDF722F90799F1601B
:105430001F222046FDF754F910F0A0FE01F10043B1
:10544000194611F0B5F9B061D9E7012C0FD020460B
:105450006E69FBF73DFC04460120FBF739FC154B58
:105460000193154B0093CDE902404E2341E7387874
:10547000012812D06E69FBF72BFC07462046FBF78C
:1054800027FC0C4B01930D4B0093CDE902704F2389
:105490000B4A0C492846B04707E6D9F8000010F03F
:1054A0007FFEC6E90001AAE7140014001400243F9F
:1054B000BF620300E1620300D4600300C760030021
:1054C0006C610300AD6003003821836B1847000056
:1054D0002DE9F04F2DED028B99B09B46B0F90A30C3
:1054E0000893B0F90C300993B0F90E300A93B0F973
:1054F00010300B93B0F902300C93B0F90430279DB3
:105500000D93B0F9123003930C46002319461692FE
:1055100090ED0C8AD0ED0D8A2A462046FFF7A3F9BC
:1055200001210E902046FEF7B7FF02210F90204682
:10553000FEF7B2FF032110902046FEF7ADFF0121D8
:1055400011905846FEF7A8FF022112905846FEF728
:10555000A3FF012113902846FEF79EFF022114901D
:105560002846FEF799FFDFED5F6A15904FF00009BE
:105570000E9B994580F2B0800D9B5B420693002301
:105580000193019B149A934280F2A3800C9B5B428F
:1055900005934FF0000A159B9A4580F29280269B56
:1055A0000493002302939C46119B9C4580F28280C9
:1055B0000021039B994271DA029B0698DFED497A3C
:1055C000CB1807934FF0000E129B9E453ADA059ECA
:1055D0004FF00008139B98452FDA002E28DB109B14
:1055E000B34225DD002823DB0F9B834220DDA36827
:1055F000E26803FB090302FB0363226902FB03C2A7
:10560000169B03EB82031793DBF81030DBF80C20BA
:105610001F46079B02FB0E8207FB0232249B03EB13
:105620008202179B92ED007A93ED006AE6EE077A0C
:105630000A9B08F101081E44CCE70B9B0EF1010EFA
:105640001844C1E7269B33B3049B03EB810393ED1E
:10565000007AAB68019A079877EE877A03FB0923F3
:10566000EA68F4EE487A02FB03A3F1EE10FA2A6925
:1056700048BFF0EE487A02FB0302F4EE678A289BEB
:10568000F1EE10FA03EB820248BFF0EE687AC2ED49
:10569000007A01318DE7B0EE667ADAE7DDE90323BF
:1056A00003EB820304931346029A1A440CF1010C93
:1056B000029279E7059B089A13440AF1010A0593BF
:1056C00069E7019B099A01330193069B13440693F2
:1056D00057E709F101094BE719B0BDEC028BBDE8B2
:1056E000F08F00BF000000002DE9F04FA1B01C4674
:1056F000B0F90A300A93B0F90C300B93B0F90E30C0
:105700000C93B0F910300D93B0F902300E93B0F94C
:1057100004300F93B0F91230039343691293C369B5
:105720001393836A1093C36A11930023CDE91C126B
:10573000204619462F9AFFF796F80121149020462B
:10574000FEF7AAFE022115902046FEF7A5FE0321D2
:1057500016902046FEF7A0FE012117902B98FEF729
:105760009BFE022118902B98FEF796FE01211990BE
:105770002F98FEF791FE02211A902F98FEF78CFECB
:10578000039B1B909B0005934FF0000E149B9E45BE
:1057900080F2F2800F9B5B4208934FF0000B1A9B44
:1057A0009B4580F2E3800E9B5B4207934FF0000A1B
:1057B0001B9B9A4580F2D3801C9B06931D9B0493F0
:1057C0000023CDE90133DDF8B890019B179A93428D
:1057D00080F2BE802A9B01990B4400221F93039BF9
:1057E0009A4280F2A580029B2C980899D3180993BD
:1057F000099E002330441F461E90189887422FDAD6
:1058000007984FF0000C199EB44525DA00281EDBDE
:10581000169E86421BDD002919DB159E8E4216DD81
:10582000A668E56806FB0E1605FB060625696E43AD
:105830001F9DAE57129D7519A8462B9DEE682D69C8
:1058400006FB07C66E431E9DAE5706FB08330C9D34
:105850000CF1010C2844D6E70D9801370144CCE740
:105860002E9911B159F822100B440498069950F85A
:10587000226051F8221026EAE670002E03FA00F0AA
:10588000D4BF76420026814227D101F100435F4216
:105890005F4180FB0101002871F10003384BA8BF74
:1058A0004FF08043002F64D1C71841EBE378002FFD
:1058B00078F1000305DA6FF0004000213F1848EB53
:1058C0000108F80F40EA48001F2E08DD2D4B2E4A34
:1058D0002E4840F2671113F05DFA0027D9E7012343
:1058E00003FA06F72F9B2F999B68C968309D03FB2D
:1058F0000EB301FB03A32F990969013F01FB03517B
:1059000007EA00037F1007EBD07740FA06F6BB42A8
:10591000C8BF0136139B1E44109B9E42B8BF1E4653
:10592000119B9E42A8BF1E46099B0132CE5456E7EA
:10593000019B01330193DDE9052313440693049B86
:10594000134404939144DDE902231A4402923CE794
:10595000079B0A9A13440AF1010A079328E7089B58
:105960000B9A13440BF1010B089318E70EF1010E8B
:105970000CE76FF00040A7E721B0BDE8F08F00BF53
:10598000010000C0BB5F03005E6403005E5F0300B4
:10599000AC4A4B6812682DE9F04F03EB820388464E
:1059A000CFB0D1E9046A426D596805469047A64ACE
:1059B000D8F80030126803EB8203044659686A6D18
:1059C00028469047A14AD8F80030126803EB8202BB
:1059D00007466B6D516828469847D8F800301A681A
:1059E000032A834617D19A4A126803EB820328469A
:1059F0006A6D596890478146387A01280ED0092887
:105A000046D06C69FBF764F93B7A92490246284616
:105A1000A047012039E04FF00009EDE7324651463A
:105A20003EA8FEF75FFD394621A8FEF7F1FE2DAD39
:105A3000594627A83F6833AEFEF7EAFE4946284696
:105A4000DBF80080FEF7E4FE21463046D9F80090EE
:105A5000FEF7DEFE04B12468CDF8008027AB3A469D
:105A600021A93EA8CDE90364CDE90159FFF730FD36
:105A70003046FEF7E3FC2846FEF7E0FC27A8FEF7D9
:105A8000DDFC21A8FEF7DAFC00204FB0BDE8F08F66
:105A9000DAF81830DAF814803B93012BCDF8E8805F
:105AA00040F09580B8F1010F40F0918033695B427E
:105AB0003393B3693493DAF808303793DAF8043063
:105AC000369373683993336838936FF07F027F237E
:105AD000CDE93C23DAF80C303593736A0B935946C1
